:100000000C94C6000C940D010C940D010C940D0180
:100010000C940D010C940D010C940D010C940D0128
:100020000C940D010C940D010C940D010C940D0118
:100030000C940D010C940D010C940D010C940D0108
:100040000C940D010C9481120C94AD120C94D912E5
:100050000C940D010C940D010C940D010C940D01E8
:100060000C940D010C9404100C940D010C94581078
:100070000C940D010C940D010C940D010C940D01C8
:100080000C940D010C940D010C940D010C940D01B8
:100090000C942E100C940D010C9488100C940D01EE
:1000A0000C940D010C940D010C9405130C94311358
:1000B0000C945D130C940D010C940D010C940D0126
:1000C0000C940D010C940D010C940D010C940D0178
:1000D0000C940D010C940D010C940D010C940D0168
:1000E0000C940D010C9494080C941E010C941801AE
:1000F0000C94EB150C9493170C94F3020C94031CC2
:100100000C94120D0C943F1E0C944B090C94841704
:100110000C9423010C9428010C94521E0C94880614
:100120000C9463080C94A70C0C9455190C944A0F6A
:100130000C94D602464154414C204552524F523AFB
:10014000204241444953525F766563742063616C79
:100150006C65642C20756E70726F63657373656473
:1001600020496E746572727570742E0A53544F5024
:1001700020457865637574696F6E2E0A000018015A
:10018000D60294084B09A70C120D4A0F832D8093B9
:10019000C81284B78093C91214BE0FB6F894A895FC
:1001A00080916000886180936000109260000FBEB3
:1001B00011241FBECFEFD1E2DEBFCDBF00E00CBFE8
:1001C00015E0A0E0B2E0E4E6F6E400E00BBF02C018
:1001D00007900D92AE3EB107D9F722E1AEEEB5E041
:1001E00001C01D92A83CB207E1F710E0C6ECD0E0D8
:1001F00000E006C021970109802FFE010E94A11F87
:10020000CF3BD10780E00807A9F70E940F010C94AB
:1002100030230E9413010C9430230C94A51C0E94DF
:1002200070140C9496170E94CE010E944B02FDCFD1
:1002300060E070E08EEE95E00C94180D0E94F308DB
:1002400080E090E008950E94280980E090E0089501
:10025000FF920F931F93CF93DF93423008F498C01F
:10026000FB01208130918F0C23133EC00EEF040F51
:1002700081F1EB0122966EE372E08CEA9CE00E9431
:10028000330DF12C10E0015011098F2D90E08017F3
:10029000910794F4FE01E80FF91F608170E043E0DC
:1002A0008CEA9CE00E943F0E66E472E08CEA9CE0DF
:1002B0000E94330DF394E9CFC00FD11F688170E025
:1002C00043E08CEA9CE00E944D0E88818093920C62
:1002D0005FC06BE472E08CEA9CE0DF91CF911F91EC
:1002E0000F91FF900C94350D30910902231344C0F7
:1002F0000FEF040FEB0121966EE372E08CEA9CE0B5
:100300000E94330DF12C10E0015011098F2D90E067
:100310008017910794F4FE01E80FF91F608170E0E7
:1003200043E08CEA9CE00E943F0E66E472E08CEAB7
:100330009CE00E94330DF394E9CFC00FD11F688178
:1003400070E043E08CEA9CE00E944D0E888180932F
:10035000900B90910702891306C023E030E03093A0
:10036000910C2093900C90910802891311C0109267
:10037000910C1092900C0CC08B53964049F08BE37B
:1003800096E0DF91CF911F910F91FF900C94B508EB
:10039000DF91CF911F910F91FF900895CF92DF923F
:1003A000EF92FF920F931F938CE99CE00E9422052D
:1003B0006EE572E08CEA9CE00E94350D60E070E032
:1003C000CB010E94841C80938F0C6FE672E08CEA54
:1003D0009CE00E94330D60918F0C70E043E08CEA4A
:1003E0009CE00E944D0E8DE7C82E82E0D82E9BE344
:1003F000E92E96E0F92E0EE111E028E030E046E02B
:1004000060E872E080E199E00E94C61621E8C22E01
:1004100022E0D22E03E211E028E030E045E060E87F
:1004200072E080E996E00E94C61661E070E080E02C
:1004300090E00E94EA0C60E070E084E090E00E94AE
:10044000C50C60E070E085E090E00E94C50C61E0C2
:1004500070E088E090E00E94C50C61E070E089E007
:1004600090E00E94C50C60E070E088E090E00E949F
:10047000D60C60E070E089E090E00E94D60C65E860
:1004800072E08CEA9CE01F910F91FF90EF90DF905B
:10049000CF900C94350DCF93DF931F921F92CDB761
:1004A000DEB784E090E00E94DC0C21E0892B09F4A7
:1004B00020E020933A0685E090E00E94DC0C21E0E9
:1004C000009709F420E02093390620913A06222370
:1004D00019F081E090E00AC0892B61F08091900CC6
:1004E0009091910C019731F482E090E09093910CFF
:1004F0008093900C8091900C9091910C813091059B
:1005000009F443C064F4892B09F04BC060E070E04B
:1005100088E090E00E94D60C60E070E03EC082303F
:10052000910519F0039789F13CC060E070E088E024
:1005300090E00E94D60C60E070E089E090E00E94BC
:10054000D60C809109028983809106028A8342E059
:10055000BE016F5F7F4F8BE396E00E94B508892B49
:1005600031F06AE070E080E090E00E94EA0C81E007
:100570008093380662E972E08CEA9CE00E94350DB7
:100580001092910C1092900C0CC060E070E088E02A
:1005900090E00E94D60C61E070E089E090E00E945B
:1005A000D60C0F900F90DF91CF9108950F931F936A
:1005B00060E070E08CEA9CE00E94180D41E365E386
:1005C0008CE99CE00E94920300E010E028E231E018
:1005D00040E050E062E070E08BE396E00E949A0811
:1005E0001F910F910895BC016E5F7F4FDC01ED916B
:1005F000FC910190F081E02D40E0199591E081118E
:1006000090E0892F0895CF93DF931F92CDB7DEB787
:10061000698341E050E0BE016F5F7F4F0E94090F88
:1006200089810F90DF91CF9108959F92AF92BF92F1
:10063000CF92DF92EF92FF920F931F93CF93DF93AE
:100640001F921F92CDB7DEB76C01A42E7901902EB8
:100650006068B62E00E021E040E059E06DE370E014
:10066000CE0101960E94610E69817A818FE19FE03F
:100670000E94DC0EF601868560E070E090E00E944A
:10068000D60CAA946B2D8FE19FE00E940303992062
:10069000B1F00FEF10E001C0000F9A94EAF76B2D54
:1006A0008FE19FE00E940303202F2095F7019081A6
:1006B00092238023892B80839924939401C0912CC9
:1006C000892D90E09A1460F48701080F191F6B2D93
:1006D0008FE19FE00E940303F80180839394F0CFA1
:1006E000E80EF91E60E08FE19FE00E940303F7012E
:1006F0008083F601868561E070E090E00E94D60C70
:100700008FE19FE00E94FB0E0F900F90DF91CF9141
:100710001F910F91FF90EF90DF90CF90BF90AF901F
:100720009F900895FC0188EA92E091838083668718
:1007300047870895DF92EF92FF920F931F93CF9315
:10074000DF931F921F92CDB7DEB77C01D62E142FF8
:1007500000E021E040E059E06DE370E0CE01019659
:100760000E94610E69817A818FE19FE00E94DC0E18
:10077000F701868560E070E090E00E94D60C6D2D58
:100780008FE19FE00E940303612F8FE19FE00E94B1
:100790000303F701868561E070E090E00E94D60CCB
:1007A0008FE19FE00E94FB0E0F900F90DF91CF91A1
:1007B0001F910F91FF90EF90DF900895BF92CF921D
:1007C000DF92EF92FF920F931F93CF93DF931F92CD
:1007D0001F92CDB7DEB77C01162FD42EB22EC32EBA
:1007E00000E021E040E059E06DE370E0CE010196C9
:1007F0000E94610E69817A818FE19FE00E94DC0E88
:10080000F701868560E070E090E00E94D60C612FD1
:100810008FE19FE00E9403030B2D1C2DC8018D0D5D
:10082000911D6C010C151D0541F0F80161918F01BE
:100830008FE19FE00E940303F5CFF701868561E019
:1008400070E090E00E94D60C8FE19FE00E94FB0ECA
:100850000F900F90DF91CF911F910F91FF90EF902C
:10086000DF90CF90BF900895EF92FF920F931F9368
:10087000CF93DF931F921F92CDB7DEB77C01162F67
:1008800000E021E040E059E06DE370E0CE01019628
:100890000E94610E69817A818FE19FE00E94DC0EE7
:1008A000F701868560E070E090E00E94D60C612F31
:1008B00060688FE19FE00E94030360E08FE19FE0AA
:1008C0000E940303182FF701868561E070E090E035
:1008D0000E94D60C8FE19FE00E94FB0E812F0F90AB
:1008E0000F90DF91CF911F910F91FF90EF9008959E
:1008F0000F9341110E9415030F9108950F931F93B9
:10090000CF93DF938C01D62FC42F0E943404482F3D
:100910004C2B6D2FC801DF91CF911F910F910C943B
:100920009A030F931F93CF93DF938C01D62FC42F7D
:100930000E943404C0954C2F48236D2FC801DF91CD
:10094000CF911F910F910C949A03CF92DF92EF9267
:10095000FF920F931F93CF93DF93EC016B01142F42
:10096000790140E062E00E949A0344E06AE0CE012F
:100970000E949A0340E864E1CE010E949A03960126
:10098000412F62E1CE010E94DE0343E062E0CE012E
:100990000E949A0308E813E16AE0CE010E94340441
:1009A00082FF13C040E062E0CE010E949A0364E43B
:1009B000CE010E943404F701808362E4CE010E94DC
:1009C0003404F701818380E004C00150110921F74C
:1009D00083E0DF91CF911F910F91FF90EF90DF9017
:1009E000CF9008950F931F93CF938C014FE062E057
:1009F0000E949A03C3E062E370E080E090E00E940E
:100A0000EA0C62E0C8010E94340484FF02C0C150B5
:100A100091F7CF911F910F910895CF93DF93EC0140
:100A200068E20E943404982F9370933041F0482F6D
:100A3000436068E2CE01DF91CF910C949A03DF917D
:100A4000CF910895CF93DF93EC018E8561E070E044
:100A500090E00E94C50C8E8561E070E090E00E94FD
:100A6000D60C8F858F3F09F45CC060E070E090E0A9
:100A70000E94C50C8F8590E00E94DC0C892B09F048
:100A800050C08F8561E070E090E00E94C50C8F85BA
:100A900060E070E090E00E94D60C62E070E080E0E0
:100AA00090E00E94FC0C8F8561E070E090E00E9475
:100AB000D60C62E370E080E090E00E94EA0C40E037
:100AC00064E2CE010E949A0340E066E2CE010E94F9
:100AD0009A0346E268E4CE010E949A0340E864E586
:100AE000CE010E949A0349EA66E5CE010E949A036C
:100AF00043E068E5CE010E949A0348EE6AE5CE0124
:100B00000E949A0340E46AE2CE010E949A034DE3F8
:100B100062E2CE010E949A03CE01DF91CF910C9444
:100B20000D05CE010E94F204CACF3F924F925F9210
:100B30006F927F928F929F92AF92BF92CF92DF92ED
:100B4000EF92FF920F931F93CF93DF931F921F9209
:100B5000CDB7DEB73C01162F942E2901A114B104A4
:100B600019F0F501408101C040E0342EF0E18F9E84
:100B7000300C112440E062E0C3010E949A034FE769
:100B800068E0C3010E949A0340E864E1C3010E9447
:100B90009A039201402F62E1C3010E94DE03432DBC
:100BA0006AE1C3010E949A03412F62E0C3010E94DF
:100BB0009A031C3029F440E86AE1C3010E947E04D4
:100BC00000ED17E068E0C3010E943404982F9921DA
:100BD00039F480FD03C001501109A1F783E065C01D
:100BE0006CE0C3010E943404182F837109F05AC0CD
:100BF000E114F104F9F0C114D104E1F064E1C3019E
:100C00000E943404F6019081981708F445C080834F
:100C1000082D9701482F62E1C3010E94780468E122
:100C2000C3010E9434048770A114B10421F0F501BE
:100C3000808301C080E013FD31C0E114F10481F133
:100C4000C114D10469F19F89992351F1F6014081C2
:100C5000413021F4843041F58FEF27C0423020F13C
:100C6000811122C042509E012F5F3F4FB701C30147
:100C70000E94A504811119C0F6018081E80EF11CC3
:100C8000F70132979081898198130EC03196908137
:100C90008A81981309C004C084E007C082E005C0BF
:100CA00080E003C081E001C087E00F900F90DF91EA
:100CB000CF911F910F91FF90EF90DF90CF90BF9059
:100CC000AF909F908F907F906F905F904F903F90EC
:100CD00008958F92AF92BF92CF92DF92EF92FF92E0
:100CE0000F931F93AF928C2C570168017901042F49
:100CF0009B0140E36CE00E9495050F901F910F91BE
:100D0000FF90EF90DF90CF90BF90AF908F900895BD
:100D10002F923F924F925F926F927F928F929F920B
:100D2000AF92BF92CF92DF92EF92FF920F931F93F9
:100D3000CF93DF93CDB7DEB72C970FB6F894DEBF15
:100D40000FBECDBF413508F005C1342E3B014C012B
:100D500040E86CE10E9491042224239432E023169F
:100D600091F083E02816E1F091E02912F7C083E9C1
:100D700089833320D1F081E0F3019081953008F42C
:100D800080E0B12C17C0F5E9F983332081F081E0D0
:100D9000F3019081983008F480E043E0B42E0AC05B
:100DA00087E9898336E0B32E04C0B12C02C023E06A
:100DB000B22E80E0D32CF8E0BF9ED0181124D7FCCF
:100DC000D12C882321F098E89B8333E001C032E0E6
:100DD00021E09D2D977009F420E09D2D9595959526
:100DE0009595290F31F4882309F491C038E0D30E8A
:100DF0008EC0811102C094E001C093E0291708F46D
:100E0000922FEB2DF0E03196E60DF71D232F419147
:100E1000A1E0B0E0AC0FBD1FA20FB11D4C932F5F3E
:100E2000422F431B491798F3DECF8111DDC09FE1AC
:100E30009D150CF495C080E2D82E90E79A839B8193
:100E40008C8189279D8189279E8189278F839E0197
:100E5000285F3F4F47E0BE016F5F7F4FC4010E9494
:100E6000A5048111C1C01B86E3E0EA87CE01079685
:100E70002C0199E09C87CB844C2D4295407F4C0DF2
:100E80006AE1C4010E949A03A12CCE010B967C0159
:100E90008E01065F1F4F92014C85BE016F5F7F4F31
:100EA000C4010E946906823009F0BFCF6CE1C40121
:100EB0000E94340485FD50C08F7109F480E2282F10
:100EC00030E04D2DDD0C550B421753070CF046C09A
:100ED000D82E85958595859591E0980F422F47707E
:100EE00081E009F480E0890FE1E0F0E0EC0FFD1F04
:100EF000E80FF11D215031092770332781E090E080
:100F000001C0880F2A95EAF79081892B80838FE1B1
:100F10008D150CF492CF9D2D97709B878D2D859507
:100F2000859585958E5F292FE0E18E9F200D1124F8
:100F30002A8321E0911101C020E0280F2C8744244E
:100F40004394512C4C0E5D1E480E511CF9E0F81BC9
:100F5000FA8791CF86E048C082E046C085E044C071
:100F60008B818838F1F182E094E0EB2DF0E031964E
:100F7000E60DF71D980FA1E0B0E0AC0FBD1FA80F64
:100F8000B11D2C9121938F5F9813F5CF8A85833003
:100F900021F58B85811121C09E012D5F3F4F41E0DE
:100FA000B201C4010E94A50481111EC09B81F201FF
:100FB0008181981314C09C818281981310C0808114
:100FC00082FF02C02394CACEF3018387822D880F4B
:100FD000820D8F5F808380E007C081E005C087E0DD
:100FE00003C083E093E0C1CF2C960FB6F894DEBF28
:100FF0000FBECDBFDF91CF911F910F91FF90EF906A
:10100000DF90CF90BF90AF909F908F907F906F9028
:101010005F904F903F902F9008954F925F926F9204
:101020007F928F929F92AF92CF92EF92FF920F9307
:101030001F93CF93DF931F921F92CDB7DEB76A83C2
:101040004115510539F1F9016081623018F149010A
:101050002A013C0140E86CE10E94910487E0898309
:10106000A12CC12CCE0101967C018401920141E0AA
:10107000BE016E5F7F4FC3010E94690681110DC0E2
:10108000F4018081823041F481E09981911105C0A1
:1010900080E003C084E001C081E00F900F90DF91F9
:1010A000CF911F910F91FF90EF90CF90AF909F90B5
:1010B0008F907F906F905F904F9008959A01AB0151
:1010C00066E20C940D080F931F93CF93DF9300D02B
:1010D000CDB7DEB78C0182E08B8340E064E2C801CB
:1010E0000E949A0340E066E2C8010E949A0346E229
:1010F00068E4C8010E949A03AE014D5F5F4FBE01D4
:101100006F5F7F4FC8010E945E08982F81E099238E
:1011100019F0923009F080E00F900F900F90DF915E
:10112000CF911F910F91089560E070E086EF9CE0F1
:101130000C94180DEF92FF920F931F93CF93DF93B0
:10114000EC0179010E945109F98AE88A1B8B0A8B0C
:10115000FE01EC5AFF4F10821F861E86DF91CF9151
:101160001F910F91FF90EF900895AF92BF92CF9291
:10117000DF92EF92FF920F931F93CF93413438F594
:10118000C42F6B018C017C018EE0E80EF11C61E044
:1011900070E0C7010E947B145801E4E5AE0EB11C5B
:1011A000F5018081882321F0C7010E94C0140FC07F
:1011B0004C2F50E0B601C80144960E94EA1FF50189
:1011C000C083C7010E94C01480E090E002C08FEF8E
:1011D0009FEFCF911F910F91FF90EF90DF90CF90F5
:1011E000BF90AF900895EC018C01025F1F4F7C010E
:1011F00084E5E80EF11C5E01E4E1AE0EB11C61E095
:1012000070E0C8010E947B14F701D080C8010E94E1
:10121000C014DD20B1F04D2DB501CE010E944E0A63
:1012200061E070E0C8010E947B14F7011082C801E0
:101230000E94C014EA89FB89309709F3CE01199501
:10124000DECF64E670E080E090E00E94EA0CD7CF49
:10125000CF93DF93CDB7DEB7C054D1090FB6F89462
:10126000DEBF0FBECDBF8C0140E4BE016F5F7F4F7C
:10127000C8010E94440C97FDF7CFD8015096ED911C
:10128000FC915197309781F3482FBE016F5F7F4FDC
:10129000C8011995E9CF60E070E080E49DE00C940E
:1012A000180D0F931F93CF93DF93EC01CB018A01AD
:1012B0007983688361E070E00E94C50C1F830E8310
:1012C000C8010E94951381E090E09D878C87DF9193
:1012D000CF911F910F910895CF93DF93EC010E945E
:1012E000080D6A837B838C839D83DF91CF91089562
:1012F000CF92DF92EF92FF920F931F93CF93DF93E2
:10130000EC01F62E0E94080D28EB3BE0F29E6001F6
:10131000F39ED00C11240D2C000CEE08FF080A815E
:101320001B812C813D81C00ED11EE21EF31E6C1567
:101330007D058E059F0550F4A7019601261B370BEE
:10134000480B590BCA01B9010E94FC0CCA82DB820E
:10135000EC82FD82DF91CF911F910F91FF90EF9072
:10136000DF90CF900895CF93DF93EC0160E070E0C1
:10137000888199810E94D60C65E0CE010E9478098F
:1013800061E070E0888199810E94D60C65E0CE0111
:10139000DF91CF910C947809CF93DF93EC0161E05A
:1013A00070E0888199810E94D60C65E0CE010E9490
:1013B000780960E070E0888199810E94D60C65E030
:1013C000CE01DF91CF910C947809CF92DF92EF920A
:1013D000FF920F931F93CF936C01C42F00E010E096
:1013E000E62EF12CC701002E01C0880F0A94EAF7FF
:1013F00087FF06C0CF5FC6010E94B309C53021F444
:10140000C6010E94CC09C0E00F5F1F4F08301105D4
:1014100049F78C2FCF911F910F91FF90EF90DF90A4
:10142000CF9008950F931F93CF93DF938C010E9469
:101430006C09C8E0D0E0C8010E94CC09C8010E9434
:10144000B3092197C1F7DF91CF911F910F910895B3
:10145000EF92FF920F931F93CF93DF938C01C0E025
:10146000D0E08EE7E82EF12CC7010C2E01C0880FCA
:101470000A94EAF787FF04C0C8010E94B30903C0B9
:10148000C8010E94CC092196C830D10569F7DF91C7
:10149000CF911F910F91FF90EF900895AF92BF925F
:1014A000CF92DF92EF92FF920F931F93CF93DF9330
:1014B000EC017B01042F0E94120ACE010E94280A2F
:1014C00067015701A00EB11C10E0CA14DB0449F0FB
:1014D000F60161916F01412FCE010E94E509182F9D
:1014E000F4CF602FC7010E94AD0C082F412F692F48
:1014F000CE010E94E509482F602FCE010E94E50928
:10150000CE01DF91CF911F910F91FF90EF90DF906F
:10151000CF90BF90AF900C94280ACF92DF92EF92B9
:10152000FF920F931F93CF93DF938C010E946C095E
:101530003AE5C32ED12CE12C40E8F42ECFEFDFE7C3
:1015400062E0F801868197810E9424149B016C1748
:101550007D070CF4EB01E216F3060CF47B0161E06D
:10156000C8010E947809F1E0CF1AD10849F7C701F4
:101570008C1B9D0BC2975CF0CE0DDF1DD7FD219615
:10158000CE0195958795F8019187808702C08FEFEE
:101590009FEFDF91CF911F910F91FF90EF90DF9020
:1015A000CF9008950F931F93CF93DF93EC0162E0E8
:1015B0008E819F810E942414288539858901330FEB
:1015C000220B330BE0918A0D601771078207930796
:1015D00064F481E08E0F80938A0DF0E0E557F24FBE
:1015E0008FE5808380E090E00BC081E08E0F8093D8
:1015F0008A0DF0E0E557F24F8DE2808381E090E0C4
:10160000DF91CF911F910F910895AF92BF92CF922A
:10161000DF92EF92FF920F931F93CF93DF93EC0132
:101620000E94D20A6C0180EFE82EF12C00E010E05D
:10163000CE010E94D20A5C018C159D0519F40F5F42
:101640001F4F0CC0083011053CF065E0CE010E9430
:10165000780980E090E00DC000E010E061E0CE018C
:101660000E94780981E0E81AF108650109F78FEF17
:101670009FEFDF91CF911F910F91FF90EF90DF903F
:10168000CF90BF90AF900895CF92DF92EF92FF92EC
:101690000F931F93CF93DF938C01C5E0D0E0E12C33
:1016A000F12CC8010E94D20AE80EF91E61E0C801BF
:1016B0000E9478092197A9F785E0C82ED12CC0E0B7
:1016C000D0E0C8010E94D20AC80FD91F61E0C8014A
:1016D0000E94780981E0C81AD10899F783E0E816DA
:1016E000F1042CF423976CF48FEF9FEF0CC081E092
:1016F00090E0239714F480E090E091958195910912
:1017000002C081E090E0DF91CF911F910F91FF9097
:10171000EF90DF90CF900895CF93DF93EC01CE014F
:101720000E94440B9C012F5F3F4F22303105B8F7D8
:10173000DF91CF9108950F931F93CF93DF93EC0127
:101740000E948C0B8F3F2FEF9207D9F006E010E03C
:10175000CE010E94440B8F3F2FEF920791F0892B0F
:10176000A9F301501109A1F7CE010E94440B21E019
:1017700030E0892B11F420E030E088279927821B84
:10178000930BDF91CF911F910F910895CF92DF922C
:10179000EF92FF920F931F93CF93DF93EC017B01A6
:1017A000FB01108200E010E080E8C82ED12C8A8571
:1017B0009B850597A4F0CE010E94440B8F3FFFEF5D
:1017C0009F0789F1892B19F41B861A8608C0CE0160
:1017D0000E94440B892B29F581E090E024C0CE01C2
:1017E0000E94440B009799F00197D9F48A859B8554
:1017F00001969B878A87F7012081C601002E02C0CF
:10180000959587950A94E2F7822B808302C01B8608
:101810001A860F5F1F4F0830110549F680E090E0EF
:1018200002C08FEF9FEFDF91CF911F910F91FF903B
:10183000EF90DF90CF900895EF92FF920F931F9358
:10184000CF93DF937C01042FFC0113861286EB01FA
:1018500010E0101781F0BE01C7010E94C60B8F3F38
:10186000FFEF9F0751F0019719F4812F90E005C019
:101870001F5F2196EECF8FEF9FEFDF91CF911F91EA
:101880000F91FF90EF900895FF920F931F93CF93C6
:10189000DF93EC018B01F42E10928A0D8C859D85CF
:1018A000892B09F1CE010E948D0A019639F4E0914D
:1018B0008A0DF0E0E557F24F10822DC0CE010E9454
:1018C000050B8F3F4FEF940739F0CE010E949B0B21
:1018D0008F3F2FEF920739F4E0918A0DF0E0E55742
:1018E000F24F10822EC04F2DB801CE010E941C0C69
:1018F00021E030E08F3F4FEF940711F020E030E01F
:101900003D872C87E0918A0DF0E0E557F24F108279
:10191000823091051CF48FEF9FEF13C0EC012297EA
:101920006C2FC8010E94AD0CF801EC0FFD1F208147
:1019300030E0322F22274181242B8217930759F759
:10194000CE01DF91CF911F910F91FF90089560E03C
:1019500070E08BE89EE00C94180D482FDC0180E0CD
:1019600090E02A2F241B261778F42D91E92FFF27CA
:10197000E227EE0FFF1FE255FD4F20813181982FA6
:10198000882782279327EDCF08956115710529F0E7
:101990006230710521F462E003C060E001C063E0E1
:1019A000FC01E255FB4F80810C94C61082559B4F81
:1019B000FC0180810C94341182559B4FFC01808185
:1019C0000E94FB1021E030E0892B11F420E030E090
:1019D000C90108959B01AC01A8EEB3E00E94A91FC4
:1019E00022E096958795779567952A95D1F720E01F
:1019F00030E0A9010C94051C22E096958795779517
:101A000067952A95D1F720E030E0A9010C94051CD8
:101A10000E94331922E0660F771F881F991F2A95AD
:101A2000D1F7089560E070E085ED9EE00C94180D0C
:101A3000FC017183608308950F931F93CF93DF930D
:101A40008C01EB01CB010E94FA1FAC01BE01F80131
:101A5000808191810E94E10FCE01DF91CF911F9192
:101A60000F910C94FA1F0C941C0D0F931F93CF939E
:101A7000DF93EC010E941C0D8C0164EF74E0CE0139
:101A80000E941C0DC8010296DF91CF911F910F910A
:101A90000895CF93DF93EA01FC01808191810E9438
:101AA000E10FCE01DF91CF9108954F925F926F9237
:101AB0007F928F929F92AF92BF92EF92FF920F937D
:101AC0001F93CF93DF93CDB7DEB7C054D1090FB6C4
:101AD000F894DEBF0FBECDBF7C01213009F450C0A9
:101AE00068F0223009F453C0233009F06DC07F93B1
:101AF0006F935F934F938FEF94E04FC080E090E03F
:101B0000812C912CA12CB0E8BB2E95018401082ECC
:101B100004C036952795179507950A94D2F70423A4
:101B2000152326233723012B022B032B11F40196B7
:101B3000ECCF9E012F5F3F4FF901412C512C612CBE
:101B4000A0E87A2E8F01021B130B8032910598F5C5
:101B500053014201082E04C0B694A7949794879429
:101B60000A94D2F784229522A622B72289288A28AD
:101B70008B2811F4A0E301C0A1E3A1930196E2CF69
:101B80007F936F935F934F9387EF94E006C07F93AB
:101B90006F935F934F938BEF94E09F938F93CE015E
:101BA00001969F938F930E9447208C010FB6F89463
:101BB000DEBF0FBECDBFA801BE016F5F7F4FC70163
:101BC0000E94490DC80102C080E090E0C05CDF4F78
:101BD0000FB6F894DEBF0FBECDBFDF91CF911F913E
:101BE0000F91FF90EF90BF90AF909F908F907F905C
:101BF0006F905F904F900895CF92DF92EF92FF9297
:101C00000F931F93CF93DF93CDB7DEB7C054D109A5
:101C10000FB6F894DEBF0FBECDBF6C017F936F93FC
:101C20005F934F9383E095E09F938F93CE0101964E
:101C30007C019F938F930E9447208C01AC01B701D8
:101C4000C6010E94490D0FB6F894DEBF0FBECDBF8E
:101C5000C801C05CDF4F0FB6F894DEBF0FBECDBF2A
:101C6000DF91CF911F910F91FF90EF90DF90CF9078
:101C70000895223011F40C94FC0D0C94550D242F72
:101C8000423031F4AB01770F660B770B0C94390EB1
:101C9000AB0160E070E00C94550D0F931F93CF9350
:101CA000DF93EC010E943F0E8C0164EF74E0CE01E3
:101CB0000E941C0DC8010296DF91CF911F910F91D8
:101CC00008950F93FC01213029F069ED75E083E060
:101CD0000E94BB17023041F0033041F0013011F097
:101CE000108206C084E003C088E001C08CE08083DD
:101CF000403886E9580788E968077105A8F4403438
:101D00008BE458078CE46807710588F4403482E45A
:101D100058078FE06807710568F440385A416640FB
:101D2000710558F483E00FC080E090E008C081E0C6
:101D300090E005C082E090E002C083E090E0DC012A
:101D4000A45FBA4F8C9181830F9108950F9300E0A7
:101D500021E040E059E06DE370E00E94610E0F91D8
:101D60000895EF92FF920F931F93CF93DF931F92EB
:101D70001F92CDB7DEB78C017B0102960E94A60EA2
:101D8000F801F182E082CE0101960E94A60E8981BF
:101D90009A81F801938382831482168215821086B9
:101DA0001782128611860F900F90DF91CF911F91AD
:101DB0000F91FF90EF9008950F931F93CF93DF93B0
:101DC000EC01162F072F05960E944E16202F412F4B
:101DD0006FEF888199810E944E11892B29F069ED5E
:101DE00075E083E00E94BB1781E08C83DF91CF9187
:101DF0001F910F910895CF93DF93EC018881998112
:101E00000E946C111C82CE010596DF91CF910C943B
:101E10005216AF92BF92CF92DF92EF92FF920F9342
:101E20001F93CF93DF93EC015B017A016C0185E096
:101E3000C80ED11CC6010E944E168C8181110EC0A5
:101E40002B814A816FEF888199810E944E11892BE5
:101E500029F069ED75E083E00E94BB1785019501CB
:101E600040E06FEF888199810E9478118C81811107
:101E700004C0888199810E946C11C601DF91CF91C5
:101E80001F910F91FF90EF90DF90CF90BF90AF9098
:101E90000C94521660E070E08FE19FE00C94B10E5C
:101EA0000FB6802DF894807890E008950FB6802DBD
:101EB0007894807890E00895FF920F93F82E0FB7F2
:101EC000087FF02AFFBE0F91FF90089580912A0F9E
:101ED00090E0089521E020932A0FFC01EE0FFF1FF0
:101EE000E05FFA4F0190F081E02D6681880F991F25
:101EF000880F991FDC01A45DB04FED91FC91119703
:101F000012968D919C91139719950C94A01DEF92A8
:101F1000FF920F931F93CF93DF9379018230910546
:101F200008F046C020E030E0E0912B0FEE2319F0DE
:101F300021503109C9F7FC01EE0FFF1FEE0FFF1F03
:101F4000E45DF04FF182E08213830283880F991FD2
:101F5000FC01E05FFA4FC081D1811982188286E0CE
:101F60008A83DB01CA0180589B47A14EBF4FE3E043
:101F7000880F991FAA1FBB1FEA95D1F79A01AB01E1
:101F8000F4E0220F331F441F551FFA95D1F7BC010F
:101F9000CD010E947F1F215031093D832C83EF2802
:101FA00011F088ED01C088E4898380E090E002C0F0
:101FB0008FEF9FEFDF91CF911F910F91FF90EF90E7
:101FC0000895CF93DF9321E0082E01C0220F0A94D9
:101FD000EAF7DB01460F571F880F991FFC01E05FEE
:101FE000FA4FA417B50769F0C081D181888185FFB8
:101FF000FDCF80912B0F822B80932B0F8D918E83A1
:10200000F0CFDF91CF9108951F920F920FB60F92EC
:1020100011240BB60F922F933F934F935F936F93BF
:102020007F938F939F93AF93BF93EF93FF9380E042
:1020300090E00E946A0FFF91EF91BF91AF919F9145
:102040008F917F916F915F914F913F912F910F9061
:102050000BBE0F900FBE0F901F9018951F920F92FE
:102060000FB60F9211240BB60F922F933F934F93FD
:102070005F936F937F938F939F93AF93BF93EF93F0
:10208000FF9381E090E00E946A0FFF91EF91BF9172
:10209000AF919F918F917F916F915F914F913F9100
:1020A0002F910F900BBE0F900FBE0F901F901895A1
:1020B0001F920F920FB60F9211240BB60F922F930F
:1020C0003F934F935F936F937F938F939F93AF93C0
:1020D000BF93EF93FF9381E080932A0F80912B0FA2
:1020E0008E7F80932B0F0E94A01DFF91EF91BF91D7
:1020F000AF919F918F917F916F915F914F913F91A0
:102100002F910F900BBE0F900FBE0F901F90189540
:102110001F920F920FB60F9211240BB60F922F93AE
:102120003F934F935F936F937F938F939F93AF935F
:10213000BF93EF93FF9381E080932A0F80912B0F41
:102140008D7F80932B0F0E94A01DFF91EF91BF9177
:10215000AF919F918F917F916F915F914F913F913F
:102160002F910F900BBE0F900FBE0F901F901895E0
:10217000282F22952F7033E0239FC0011124273090
:1021800010F48296089583519F4F0895CF93DF9363
:10219000982F9F70C1E0D0E001C0CC0F9A95EAF76C
:1021A0006230A9F0633069F0611120C00E94B8105C
:1021B000FC012291C0952C232083FC012081C223A5
:1021C00011C00E94B810FC018291C82B0BC00E9464
:1021D000B810FC0122913C2F309523232083FC0171
:1021E0002081C22BC08380E090E002C08FEF9FEF80
:1021F000DF91CF910895CF93C82F0E94B810029716
:10220000FC012081CF7081E090E002C0880F991F0F
:10221000CA95E2F730E082239323CF910895CF93BC
:10222000C82F0E94B810FC014081CF7021E030E03F
:1022300001C0220FCA95EAF7242B2083CF9108957D
:10224000CF93C82F0E94B810FC014081CF7021E0CD
:1022500030E002C0220F331FCA95E2F72095309577
:1022600024232083CF910895672B11F00C940F1134
:102270000C94201184B1876084B90895892B29F0CA
:1022800069ED75E083E00E94BB1780916400846073
:102290008093640080E090E00C943A11CF93DF9338
:1022A000C42FD22F61E070E084E39FE00E947B1492
:1022B000E4E6F0E080818B7F80838D2F8695869584
:1022C0008DBDD370C065CD2BCCBD8DB58EB580E0F6
:1022D00090E0DF91CF9108958CB58F7B8CBDE4E6C3
:1022E000F0E080818460808384E39FE00C94C014DC
:1022F000CF92DF92EF92FF920F931F93CF93DF93D2
:10230000C62FD42F6901232B41F40115110529F49F
:1023100069ED75E083E00E94BB17CF3F19F08C2F69
:102320000E942011F801D601E00EF11EEE15FF0506
:1023300091F0C114D10411F08C9101C080E08EBDE8
:102340000DB407FEFDCF8EB50115110509F0808390
:1023500031961196EBCFD1110DC0CF3F59F08C2F94
:10236000DF91CF911F910F91FF90EF90DF90CF9071
:102370000C940F11DF91CF911F910F91FF90EF906F
:10238000DF90CF90089521E020932A0F2CE0AC013C
:10239000249FC001259F900D1124DC01A65FBD4F35
:1023A0001296ED91FC9113972081AB014F5F5F4F27
:1023B00081E090E001C0880F4A95EAF7809582237A
:1023C00080831696ED91FC91179718968D919C91AC
:1023D000199719950C94A01D8F929F92AF92BF925E
:1023E000CF92DF92EF92FF920F931F93DC0102973F
:1023F000D8F4E4E1F5E090E0C12C84E2D82E84EF3B
:10240000E82EF12C46015701019004C0B694A79420
:10241000979487940A94D2F79F5F84169506A60630
:10242000B70629F0953071F78FEF9FEF1EC08CE053
:102430008A9FF0018B9FF00D1124E65FFD4FA08174
:10244000B1811C9211961C92119712961C921297B0
:1024500015961C921E921497378326831187008746
:10246000928711969C9380E090E01F910F91FF90CE
:10247000EF90DF90CF90BF90AF909F908F90089596
:10248000633071055CF52CE0289FF001299FF00D69
:102490001124E65FFD4F80819181DB011496AA0F24
:1024A000BB1FA80FB91F11965C934E93A481B581F1
:1024B0002C916F5F7F4F81E090E001C0880F6A959B
:1024C000EAF7982F909592239C930280F381E02D58
:1024D0009081892B808380E090E008958FEF9FEFBB
:1024E00008952CE0AC01249FC001259F900D11247C
:1024F000FC01E65FFD4F0190F081E02D8481958124
:1025000008951F920F920FB60F9211240BB60F92DF
:102510002F933F934F935F936F937F938F939F93EB
:10252000AF93BF93EF93FF9360E070E080E090E0A3
:102530000E94C311FF91EF91BF91AF919F918F9135
:102540007F916F915F914F913F912F910F900BBEB3
:102550000F900FBE0F901F9018951F920F920FB6FD
:102560000F9211240BB60F922F933F934F935F93CB
:102570006F937F938F939F93AF93BF93EF93FF934B
:1025800061E070E080E090E00E94C311FF91EF9164
:10259000BF91AF919F918F917F916F915F914F917B
:1025A0003F912F910F900BBE0F900FBE0F901F9079
:1025B00018951F920F920FB60F9211240BB60F921F
:1025C0002F933F934F935F936F937F938F939F933B
:1025D000AF93BF93EF93FF9362E070E080E090E0F1
:1025E0000E94C311FF91EF91BF91AF919F918F9185
:1025F0007F916F915F914F913F912F910F900BBE03
:102600000F900FBE0F901F9018951F920F920FB64C
:102610000F9211240BB60F922F933F934F935F931A
:102620006F937F938F939F93AF93BF93EF93FF939A
:1026300060E070E081E090E00E94C311FF91EF91B3
:10264000BF91AF919F918F917F916F915F914F91CA
:102650003F912F910F900BBE0F900FBE0F901F90C8
:1026600018951F920F920FB60F9211240BB60F926E
:102670002F933F934F935F936F937F938F939F938A
:10268000AF93BF93EF93FF9361E070E081E090E040
:102690000E94C311FF91EF91BF91AF919F918F91D4
:1026A0007F916F915F914F913F912F910F900BBE52
:1026B0000F900FBE0F901F9018951F920F920FB69C
:1026C0000F9211240BB60F922F933F934F935F936A
:1026D0006F937F938F939F93AF93BF93EF93FF93EA
:1026E00062E070E081E090E00E94C311FF91EF9101
:1026F000BF91AF919F918F917F916F915F914F911A
:102700003F912F910F900BBE0F900FBE0F901F9017
:10271000189561E070E086E39FE00E947B14EAE791
:10272000F0E080818068808308958F929F92AF92BD
:10273000BF92CF92DF92EF92FF92CF93DF938031DF
:10274000910508F074C0EC010E948913C830D105CE
:10275000A0F420917E0081E090E001C0880FCA952E
:10276000EAF7922F982B90937E0090B38095982350
:1027700090BB91B3892381BB18C020917D0028971D
:1027800081E090E001C0880FCA95EAF7922F982B5C
:1027900090937D0090910701809598239093070175
:1027A00090910801892380930801C12CD12C7601D6
:1027B000C394C1E0D0E0812C94E2992E94EFA92E2D
:1027C000B12C9E010C2C02C0220F331F0A94E2F799
:1027D000032E000C440B550BC501B4010E947F1F52
:1027E00021343D404340510530F480917A00C82A9D
:1027F000C0927A000BC03FEFC31AD30AE30AF30A70
:1028000088E0C816D104E104F104D9F680917C0077
:10281000806480937C0080917A008F7780937A0027
:1028200086E39FE00E94C01480E090E002C08FEF3A
:102830009FEFDF91CF91FF90EF90DF90CF90BF900F
:10284000AF909F908F900895CF93DF93623009F0FF
:1028500041C0EC010E94891380917B00C830D105F2
:1028600058F4877F80937B0080917C00807F8093E9
:102870007C0080917C000BC0886080937B008091FD
:102880007C00807F80937C0080917C00C850C82BA6
:10289000C0937C0080917A00806480937A0080915C
:1028A0007A0086FDFCCFC0917800D09179008091AC
:1028B0007A00806180937A0080917A008F7780938C
:1028C0007A0086E39FE00E94C014BE01DD0F880BF2
:1028D000990B03C06FEF7FEFCB01DF91CF9108958C
:1028E000E1E6F0E080E8808310820E94951C0E945F
:1028F000741E0C94560FEF92FF920F931F93CF9379
:10290000DF93EC018B010E94500F7C01888199813B
:10291000892B41F48FEF9FEF99838883C7010E9431
:102920005C0F1FC0012B01F100915E0F10915F0F32
:1029300063E0C8010E94401588819981019641F4A5
:10294000C801069699838883F8011782168204C00D
:10295000B801CE010E94A516C7010E945C0F0E941B
:10296000321D81E090E005C0C7010E945C0F80E04D
:1029700090E0DF91CF911F910F91FF90EF9008951C
:10298000EF92FF920F931F93CF93DF938C010E94DE
:10299000500F7C01D801ED91FC91309739F0EF3F59
:1029A000BFEFFB0761F4F80111821082C701DF91CC
:1029B000CF911F910F91FF90EF900C945C0F80814D
:1029C0009181D8018D939C93EF0126976CE0CE0105
:1029D0000E944015F80180819181892B21F48FEFAD
:1029E0009FEF91838083CB81D0E0C7010E945C0F71
:1029F000CE01DF91CF911F910F91FF90EF900C943A
:102A0000D1151092A30F1092A20FA0915E0FB0915A
:102A10005F0F2091380F3091390F80E090E020FD5A
:102A200004C0369527950196FACF880F991FFC01AF
:102A3000E45CF04F0190F081E02D0190F081E02DF9
:102A40003697AE17BF07C9F0109741F012968C91D8
:102A500012978B3019F48CE012968C938BE0828362
:102A60008481958190935D0F80935C0FF0935F0F4D
:102A7000E0935E0F81E090E0089580E090E008959B
:102A80000F931F93CF93DF93FC0182816B30E0F1B2
:102A90008B3008F080C09F012A5F3F4F838190E018
:102AA000880F991FDC01A45CB04FCD91DC91119788
:102AB000209751F048815981578346830D90BC91EE
:102AC000A02D2D933C9302C037832683DC01A45CA8
:102AD000B04F2D933C9381E090E0038002C0880FBB
:102AE000991F0A94E2F7092E000CAA0BBB0B009168
:102AF000380F1091390F20913A0F30913B0F802BF6
:102B0000912BA22BB32B3FC08B3008F444C0A38180
:102B1000B0E0AA0FBB1FA45CB04FCD91DC91119720
:102B2000209769F088819981C817D90719F41D92F7
:102B30001C9205C0DC018D919C919983888323812F
:102B4000A22FB0E0AA0FBB1FA45CB04F8D919C9147
:102B5000892B09F581E090E002C0880F991F2A9522
:102B6000E2F780959095092E000CAA0BBB0B009103
:102B7000380F1091390F20913A0F30913B0F80237D
:102B80009123A223B3238093380F9093390FA093FE
:102B90003A0FB0933B0F6283DF91CF911F910F915A
:102BA0000895E0915E0FF0915F0F22812B3028F0A5
:102BB000238130E08217930768F40E94660F892B07
:102BC00039F081E090E09093A30F8093A20F0895D5
:102BD0000C94321D08950E94500FE0915C0FF0910B
:102BE0005D0FEE0FFF1FE05AF04F118210828091AF
:102BF000A40F9091A50F01979093A50F8093A40F18
:102C000060E080915E0F90915F0F0E9440151092DE
:102C10005F0F10925E0F0E94E51CCF92DF92EF9241
:102C2000FF920F931F93CF93DF93EC016B0160E052
:102C300070E00E947B148C01CE0104967C0101158A
:102C4000110591F460E070E00E94871620915C0FFE
:102C500030915D0F8217930739F0CD28A9F461E018
:102C600070E0CE010E947B1460915C0F70915D0F4B
:102C700040E050E0C7010E9495168A819B81019631
:102C80009B838A8301E010E0C801DF91CF911F91FF
:102C90000F91FF90EF90DF90CF90089560E070E08B
:102CA0000C940D160F931F93CF93DF93EC018C01BF
:102CB0000C5F1F4F60E070E0C8010E9487162091F2
:102CC0005C0F30915D0F8217930729F069ED75E075
:102CD00083E00E94BB178A819B810097B9F301971B
:102CE0009B838A83892B71F440E050E060E070E0C0
:102CF000C8010E949516CE01DF91CF911F910F91CF
:102D00000C94C014DF91CF911F910F910895CF9330
:102D1000DF93EC010E94500F0990D881C02D0E94D2
:102D20005C0FCE01DF91CF9108950F931F93CF9346
:102D3000DF93EC018B010E94500F19830883DF9110
:102D4000CF911F910F910C945C0FFB0122812B30CE
:102D500028F069ED75E083E00E94BB176381AF0145
:102D60004A5F5F4FDC012D913C912115310541F007
:102D7000D901169713967C91671710F0C901F2CF0D
:102D800037832683FC015183408308952F923F921D
:102D90004F925F926F927F928F929F92AF92BF926B
:102DA000CF92DF92EF92FF920F931F93CF93DF9317
:102DB00000D01F92CDB7DEB7403198F54B013AE114
:102DC000831A9108DC01A80DB91DBC83AB83FC01FB
:102DD00023FF09C0AB81BC81EA17FB0730F4F18304
:102DE000E0833296F7CF9183808316013701580133
:102DF0002A8349832B017C010E94500F6C01E2E67B
:102E0000FFE001E010E081919191892B61F00F5F6B
:102E10001F4F01321105B9F7C6010E945C0F8FEBFD
:102E20005BC084EE59C0F801EE0FFF1FE05AF04F6F
:102E30008B819C8191838083DC0115961C930E937A
:102E400014979401A701B301C5010E94B01CEB8146
:102E5000FC8191838083F58AE48A518E408E378A83
:102E6000268A298123831282178216821186108670
:102E70001386128615861486178616868FEF9FEFA7
:102E8000918B808B138A128A8091A40F9091A50F49
:102E900001969093A50F8093A40F3A8130FF06C04E
:102EA00062E08B819C810E94401511C06CE08B8197
:102EB0009C810E944015FA81F2FD09C0C6010E9462
:102EC0005C0F2981822F90E00E94D11503C0C601BA
:102ED0000E945C0FC80101C09FEF0F900F900F90F0
:102EE0000F90DF91CF911F910F91FF90EF90DF90A6
:102EF000CF90BF90AF909F908F907F906F905F909A
:102F00004F903F902F9008950E943B1E89E195E0DD
:102F10009F938F930E9403200E9413010F900F90A4
:102F200080E090E008950E94831CFDCF0E94500F26
:102F30008EE8C82E85E0D82EE12CF12C03E917E1AC
:102F40002CE030E04FE060E870E086EA9FE00E940D
:102F5000C61693E9C92E95E0D92E04E817E12CE0B6
:102F600030E047E060E872E086E290E10E94C61639
:102F70000E94E51C0895EB012091A6123091A71242
:102F8000232B71F521E030E03093A7122093A61295
:102F9000833091F40EB6202D0DB6802D90E0922B4B
:102FA0009F938F9388E995E09F938F930E940320CE
:102FB0000F900F900F900F90DF93CF938FEA95E0D3
:102FC0009F938F930E9403208BEC95E09F938F93A8
:102FD0000E9403200F900F900F900F900F900F9072
:102FE0000E94500F0E94BA170E94801C8F929F92DD
:102FF000AF92BF92CF92DF92EF92FF920F931F9307
:10300000CF93DF93DB0169017A01EC01E881F9815B
:10301000309709F449C006811781208531851696BD
:103020004D915D916D917C911997041715072607B5
:10303000370708F44CC00417150726073707A1F512
:10304000428553856485758597018601041B150BA0
:10305000260B370BB901A801028113812481358128
:10306000041715072607370790F1041B150B260BCD
:10307000370B1A964D915D916D917C911D9746018C
:103080005701841A950AA60AB70A12964D915D91C6
:103090006D917C911597481959096A097B09401768
:1030A00051076207730798F41196FC93EE93EC01B5
:1030B000B983A883DF91CF911F910F91FF90EF907B
:1030C000DF90CF90BF90AF909F908F900895CF01E9
:1030D0009CCFFC01208131812115310579F0261723
:1030E000370751F4FB0120813181FC0131832083BA
:1030F000FB01118210820895C901EBCF08956F92F0
:103100007F928F929F92AF92BF92CF92DF92EF9277
:10311000FF920F931F93CF93DF930E94500FEC0108
:1031200080E090E00E9471124C012091AD1230912C
:10313000AE124091AF125091B0126091B1127091E5
:10314000B2128091B3129091B4126090AD1270904F
:10315000AE12B091AF12A091B012F091B112E09105
:10316000B2120091B3121091B412A12CB12CBA0179
:10317000A90166277727841A950AA60AB70AAA24FE
:10318000BB249401A50160E070E080E090E0530171
:10319000CB2EDA2EEF2EFE2E0E94D21F2093AD12E0
:1031A0003093AE124093AF125093B0126093B112AD
:1031B0007093B2128093B3129093B412CE010E9416
:1031C0005C0F2091AD123091AE124091AF12509130
:1031D000B0126091B1127091B2128091B3129091BD
:1031E000B412DF91CF911F910F91FF90EF90DF907C
:1031F000CF90BF90AF909F908F907F906F900895E9
:103200000F931F93E091AB12F091AC123097A9F09D
:103210000281138124813581011540E814072105BD
:10322000310558F482859385A485B585B901A80137
:10323000480F591F6A1F7B1F0AC02091A812211135
:103240000FC0AB01BC01415050486F4F7F4F60E051
:1032500070E080E090E00E94401281E08093A8122C
:103260001F910F9108950E947F18B901CA01089516
:103270000F931F9300E010E025E539E140E950EDA0
:1032800063E070E080E090E00E94EC110E9433194E
:103290002091B5123091B612232B21F41F910F917A
:1032A0000C9400191F910F9108952F923F924F9205
:1032B0005F926F927F928F929F92AF92BF92CF92C6
:1032C000DF92EF92FF920F931F93CF93DF9300D083
:1032D0001F92CDB7DEB781E090E09093B612809355
:1032E000B5121092A8120E947F1829013A014B01D1
:1032F0005C012091AB123091AC123C832B838B810B
:103300009C81892B09F4A6C0EB81FC818681978181
:10331000A085B185892B8A2B8B2B29F069ED75E06F
:1033200083E00E94BB17EB81FC8182859385A48595
:10333000B585B301A201481B590B6A0B7B0B828137
:103340009381A481B58184179507A607B70760F01C
:103350008C019D01041B150B260B370B0431110545
:103360002105310508F05BC02091AB123091AC1201
:10337000EB81FC81E217F30789F6481759076A07C2
:103380007B0788F1AB81BC818D919C9111979093C3
:10339000AC128093AB12FD0112821382148215824B
:1033A0001A961D921D921D921C921D9716861786C5
:1033B000108A118A118210825296ED91FC915397D6
:1033C00054968D919C9155971995E091AB12F0917F
:1033D000AC12FC83EB830E9433192B013C01812C3E
:1033E000912C54018CCF0E943319AB81BC811A9669
:1033F0000D911D912D913C911D97DC01CB01801BFE
:10340000910BA20BB30BEB81FC8102811381248110
:10341000358180179107A207B30728F3B3CFAB819B
:10342000BC8112960D931D932D933C931597FD012E
:1034300042865386648675869201A301B401C50154
:1034400000E20E94B61F26873787408B518B208170
:10345000318153CFA091A912B091AA12BC83AB8342
:103460009201A301B401C50100E20E94B61F2983A5
:103470003A831A0173016201EB81FC81EF2B09F49D
:103480006BC0EB81FC8182859385A485B585930112
:103490008201081B190B2A0B3B0B82819381A481AB
:1034A000B58180179107A207B30760F44681578161
:1034B00060857185415051096109710946835783BF
:1034C00060877187801B910BA20BB30BEB81FC8192
:1034D00082839383A483B583DF01C286D386E48687
:1034E000F586E9811E96EC931E97FA811F96FC9350
:1034F0001F9750962C92509751963C925197FD01F0
:1035000086819781A085B185892B8A2B8B2BE1F44D
:103510008091A9129091AA12E817F90709F0FECE3E
:10352000BF0189EA92E10E946918A70196016B81A7
:103530007C818BEA92E10E94F6172091A9123091CA
:10354000AA123C832B8398CFAB81BC810D90BC9198
:10355000A02DBC83AB8390CF0E947F1829013A0134
:103560004B015C01E091AB12F091AC12309789F104
:1035700082859385A485B585B301A201481B590BAB
:103580006A0B7B0B82819381A481B5818417950797
:10359000A607B70708F4ADCE841B950BA60BB70B97
:1035A00084319105A105B10508F4A3CE82839383EC
:1035B000A483B58342865386648675869201A301EF
:1035C000B401C50100E20E94B61F26873787408BF1
:1035D000518B1092B6121092B5128091B512909143
:1035E000B612892BD1F4C301B2010F900F900F9046
:1035F0000F90DF91CF911F910F91FF90EF90DF908F
:10360000CF90BF90AF909F908F907F906F905F9082
:103610004F903F902F900C9400190F900F900F90A7
:103620000F90DF91CF911F910F91FF90EF90DF905E
:10363000CF90BF90AF909F908F907F906F905F9052
:103640004F903F902F9008950F931F93CF93DF9348
:10365000EC010E94500F8C011A821B821C821D8279
:103660001E821F82188619861A861B861C861D8656
:103670001E861F86188A198ABE018BEA92E10E9473
:103680006918BE0189EA92E10E946918C801DF91B8
:10369000CF911F910F910C945C0F4F925F926F929C
:1036A0007F928F929F92AF92BF92CF92DF92EF92D2
:1036B000FF920F931F93CF93DF93DC015296ED910E
:1036C000FC915397EF2B09F48DC0280139014A0171
:1036D0005B01EC010E94241B41145104610471043C
:1036E00099F5B8E28B169104A104B10468F580E065
:1036F00090E00E9471126C01E12CF12C80E090E0CE
:103700000E947112A0E0B0E08C199D09AE09BF09BA
:10371000AA27BB2788159905AA05BB0578F3EA896E
:10372000FB898C899D89DF91CF911F910F91FF902B
:10373000EF90DF90CF90BF90AF909F908F907F9051
:103740006F905F904F9019940E94500F6C010E94EF
:103750007F188A829B82AC82BD824E825F8268869D
:10376000798659017A012A87BB864C87FD8600E25B
:103770000E94B61F2E873F87488B598B9501A70162
:10378000BE01452846284728B1F48BEA92E10E9401
:10379000F6178091AB129091AC12C817D90779F443
:1037A0008091B5129091B612892B49F4B501C701E9
:1037B0000E94001904C089EA92E10E94F617C6012E
:1037C000DF91CF911F910F91FF90EF90DF90CF90FD
:1037D000BF90AF909F908F907F906F905F904F9031
:1037E0000C945C0FDF91CF911F910F91FF90EF90A0
:1037F000DF90CF90BF90AF909F908F907F906F9011
:103800005F904F9008950C94C0144F925F926F9206
:103810007F928F929F92AF92BF92CF92DF92EF9260
:10382000FF920F931F93CF93DF93CDB7DEB76897C7
:103830000FB6F894DEBF0FBECDBF2B013C0149018E
:103840005A010E94660F892B31F189288A288B281A
:1038500029F069ED75E083E00E94BB1780E090E0FD
:103860000E9471124C01A12CB12C73016201EE2453
:10387000FF2480E090E00E947112A0E0B0E088197F
:103880009909AA09BB09AA27BB278C159D05AE0576
:10389000BF0578F31EC0188E1F8A83E09CE19C8BC5
:1038A0008B8B7E0187E1E80EF11CFE8AED8A61E0D8
:1038B00070E0C7010E947B1495018401B301A2014D
:1038C000CE0101960E944D1B61E070E0C7010E948D
:1038D0007B1468960FB6F894DEBF0FBECDBFDF91A4
:1038E000CF911F910F91FF90EF90DF90CF90BF90FD
:1038F000AF909F908F907F906F905F904F900895C2
:103900000E94500FFFCF0895CF93DF931F92CDB742
:10391000DEB721E030E0AE014F5F5F4F0E940B1E2B
:1039200089810F90DF91CF910895A8950FB6F894F3
:10393000A89580916000886180936000109260007B
:103940000FBE0E94641E0C94C61E1F920F920FB6EB
:103950000F9211245F9A64E371E080E00E94BB172C
:10396000240F351FF90131974FEA408331974EEF0D
:1039700040834BEE55E13197408331975083319727
:1039800010823197808331979083319710823197DD
:103990001082319780E880833197108231971082AE
:1039A00031971082C90183971292E817F907E1F75E
:1039B000F901B4976083319770838AE182938F5FB6
:1039C0008032E1F7C9018C9708950E9401150E9489
:1039D000560F8DB79EB72091040230910502821BCD
:1039E000930B90930102809300028091BE129091FC
:1039F000BF12892B41F480910202909103029093AF
:103A0000BF128093BE12A0915E0FB0915F0FCD9157
:103A1000CDBFDD91DEBFFF91EF91DF91CF91BF91DF
:103A2000AF919F918F917F916F915F914F913F9156
:103A30002F911F910F91FF90EF90DF90CF90BF904B
:103A4000AF909F908F907F906F905F904F903F903E
:103A50002F901F900F900CBE0F900BBE0F900FBEBB
:103A60000F9008950E94660F892B09F062C00F9293
:103A70000FB6F8940F920BB60F920CB60F921F92DE
:103A800011242F923F924F925F926F927F928F926A
:103A90009F92AF92BF92CF92DF92EF92FF920F93DD
:103AA0001F932F933F934F935F936F937F938F93C6
:103AB0009F93AF93BF93CF93DF93EF93FF93A09127
:103AC0005E0FB0915F0F0DB60D920EB60D920E9473
:103AD0000115A0915E0FB0915F0FCD91CDBFDD912B
:103AE000DEBFFF91EF91DF91CF91BF91AF919F9199
:103AF0008F917F916F915F914F913F912F911F9186
:103B00000F91FF90EF90DF90CF90BF90AF909F907C
:103B10008F907F906F905F904F903F902F901F906D
:103B20000F900CBE0F900BBE0F900FBE0F9008951C
:103B3000089581E090E09093A30F8093A20F0895E1
:103B400010922A0F8091A20F9091A30F892B09F454
:103B500061C00F920FB6F8940F920BB60F920CB68D
:103B60000F921F9211242F923F924F925F926F9269
:103B70007F928F929F92AF92BF92CF92DF92EF92FD
:103B8000FF920F931F932F933F934F935F936F93E6
:103B90007F938F939F93AF93BF93CF93DF93EF93D5
:103BA000FF93A0915E0FB0915F0F0DB60D920EB610
:103BB0000D920E940115A0915E0FB0915F0FCD9103
:103BC000CDBFDD91DEBFFF91EF91DF91CF91BF912E
:103BD000AF919F918F917F916F915F914F913F91A5
:103BE0002F911F910F91FF90EF90DF90CF90BF909A
:103BF000AF909F908F907F906F905F904F903F908D
:103C00002F901F900F900CBE0F900BBE0F900FBE09
:103C10000F9018950895CF92DF92EF92FF926B016B
:103C20007C01C20ED31EE11CF11CE1E0CE16E0E1E6
:103C3000DE06E104F10438F4DA01A20FB31FFA0141
:103C4000641B750B0FC069ED75E083E00E94BB1724
:103C5000F999FECFCB018E0F9F1F92BD81BDF89ABF
:103C600080B58193EA17FB0799F7C901FF90EF90A0
:103C7000DF90CF9008950E947A1E0C943819CF934C
:103C8000DF931F92CDB7DEB761E070E0CE01019601
:103C90000E94B61E8981082E000C990B0F90DF91AF
:103CA000CF910895CF93DF931F92CDB7DEB789836D
:103CB00061E070E0CE0101960E94B91E80E090E0C4
:103CC0000F90DF91CF9108950E94A51EE2ECF2E1E2
:103CD00080E392E09383828382E292E09183808307
:103CE0008BEE95E00C94172063E087E10E94C610EC
:103CF0005F980895CF93DF9300D01F92CDB7DEB7C2
:103D000064E070E0CE0101960E943A1F69817A81D9
:103D10008B819C810E94931E0F900F900F900F90AB
:103D2000DF91CF910895611571058105910521F409
:103D300061E070E080E090E06093B7127093B81299
:103D40008093B9129093BA1208950F931F9300E0D5
:103D500010E020E030E040E855E260E070E080E014
:103D600090E00E94870F1F910F91089583EC9FEFC1
:103D70000895CF93DF93EB01AB01BC0180E090E0AD
:103D80000E94E10FCE01DF91CF91089580E090E095
:103D90000E94CE1E80E090E00C943E11892B29F009
:103DA00069ED75E083E00E94BB171092BC1210927F
:103DB000BB128BB183608BB9809164008F77809345
:103DC00064008091BC008B7F8093BC008CE080936A
:103DD000B8008091B9008C7F8093B9008091B900C0
:103DE0008093B9008091BC0084608093BC000895EA
:103DF000EF92FF920F931F93CF93DF9300D01F9208
:103E0000CDB7DEB77C018B01AB0163E270E00E94AD
:103E1000F31FCE0101960E944B1F20E030E0C80145
:103E20000430110510F484E090E028173907B8F445
:103E3000C901B8010E946B1FF701E80FF91FD901F2
:103E4000A370BB2781E090E08C0F9D1FA80FB91FC6
:103E500090818C91892780832F5F3F4FE0CF0F9017
:103E60000F900F900F90DF91CF911F910F91FF90C6
:103E7000EF900895CF93DF93EC010E94F81E80919C
:103E8000BD1291E0980F9093BD1298818927888385
:103E9000DF91CF910895DC0191E2E0E0F0E09093B2
:103EA0005700E491EC93E2E0F0E090935700E49146
:103EB0001196EC931197E4E0F0E090935700E491B1
:103EC0001296EC931297E1E0F0E0909357009491F2
:103ED00013969C930895AA1BBB1B51E107C0AA1F10
:103EE000BB1FA617B70710F0A61BB70B881F991F9B
:103EF0005A95A9F780959095BC01CD010895A1E24E
:103F00001A2EAA1BBB1BFD010DC0AA1FBB1FEE1F53
:103F1000FF1FA217B307E407F50720F0A21BB30B9E
:103F2000E40BF50B661F771F881F991F1A9469F71A
:103F300060957095809590959B01AC01BD01CF0176
:103F40000895EE0FFF1F881F8BBF0790F691E02D9D
:103F500019940E94DB1FA59F900DB49F900DA49F04
:103F6000800D911D1124089597FB10F816940008F8
:103F70000F93083098F00850232F342F452F562FD9
:103F8000672F782F892F902DF4CF059497958795DB
:103F90007795679557954795379527950A95AAF789
:103FA0000F9108952A0D3B1D4C1D5D1D6E1D7F1D3B
:103FB000801F911F0895A29FB001B39FC001A39FCE
:103FC000700D811D1124911DB29F700D811D112452
:103FD000911D0895FB01DC0102C001900D9241503A
:103FE0005040D8F70895DC0101C06D934150504016
:103FF000E0F70895FC0101900020E9F78095909585
:104000008E0F9F1F0895CF93DF93CDB7DEB7AE011C
:104010004A5F5F4FFA0161917191AF018091C412C3
:104020009091C5120E947620DF91CF9108950F9351
:104030001F93CF93DF93E091C412F091C5122381B7
:1040400021FF1BC08C01D0E0C0E0F80181918F01FD
:104050006091C4127091C512DB011896ED91FC912C
:104060001997882331F01995892B79F3DFEFCFEF7A
:10407000ECCF8AE01995892B19F08FEF9FEF02C0E2
:104080008D2F9C2FDF91CF911F910F9108950F934A
:104090001F93CF93DF93CDB7DEB72E970FB6F8946B
:1040A000DEBF0FBECDBF0E891F8986E08C831A83C9
:1040B00009838FEF9FE79E838D83AE01465E5F4F3E
:1040C000688D798DCE0101960E947620EF81F8856A
:1040D000E00FF11F10822E960FB6F894DEBF0FBED0
:1040E000CDBFDF91CF911F910F9108952F923F92F5
:1040F0004F925F926F927F928F929F92AF92BF92F8
:10410000CF92DF92EF92FF920F931F93CF93DF93A3
:10411000CDB7DEB72B970FB6F894DEBF0FBECDBF7D
:104120006C017B018A01FC0117821682838181FF69
:10413000CCC1CE0101963C01F6019381F70193FDBC
:10414000859193FF81917F01882309F4BAC185325B
:1041500039F493FD859193FF81917F01853229F494
:10416000B60190E00E949622E7CF912C212C312CB1
:10417000FFE1F315D8F08B3279F038F4803279F022
:104180008332A1F4232D20611DC08D3261F0803374
:1041900069F4232D216016C0832D8260382EE32D13
:1041A000E4603E2E2AC0F32DF8601DC037FC2DC000
:1041B00020ED280F2A3040F08E32B9F436FC81C150
:1041C000232D2064322E19C036FE06C08AE0989E48
:1041D000200D1124922E11C0EAE02E9E200D1124F4
:1041E000222EF32DF0623F2E08C08C3621F4832D51
:1041F0008068382E02C0883641F4F70193FD85911E
:1042000093FF81917F018111B3CF982F9F7D9554AA
:10421000933028F40C5F1F4F9FE399830DC08336C2
:1042200031F0833771F0833509F059C021C0F801AE
:10423000808189830E5F1F4F88248394912C5301C2
:1042400013C02801F2E04F0E511CF801A080B1808C
:1042500036FE03C0692D70E002C06FEF7FEFC5012D
:104260000E948B224C018201F32DFF773F2E16C056
:10427000280122E0420E511CF801A080B18036FED8
:1042800003C0692D70E002C06FEF7FEFC5010E948F
:1042900080224C01F32DF0683F2E820133FC1BC0BD
:1042A000822D90E088169906B0F4B60180E290E085
:1042B0000E9496222A94F4CFF50137FC859137FEAF
:1042C00081915F01B60190E00E94962221102A940C
:1042D00021E0821A91088114910471F7E8C08436B4
:1042E00011F0893641F5F80137FE07C06081718110
:1042F000828193810C5F1F4F08C060817181072EFE
:10430000000C880B990B0E5F1F4FF32DFF763F2E8D
:1043100097FF09C090958095709561957F4F8F4F5D
:104320009F4FF0683F2E2AE030E0A3010E94D22286
:10433000882E861845C0853731F4232D2F7EB22E66
:104340002AE030E025C0932D997FB92E8F36C1F039
:1043500018F4883579F0B5C0803719F0883721F026
:10436000B0C0E92FE061BE2EB4FE0DC0FB2DF4609D
:10437000BF2E09C034FE0AC0292F2660B22E06C007
:1043800028E030E005C020E130E002C020E132E06A
:10439000F801B7FE07C060817181828193810C5F53
:1043A0001F4F06C06081718180E090E00E5F1F4F5B
:1043B000A3010E94D222882E8618FB2DFF773F2E64
:1043C00036FE0DC0232D2E7FA22E891458F434FE04
:1043D0000BC032FC09C0832D8E7EA82E05C0B82CE0
:1043E000A32C03C0B82C01C0B92CA4FE0FC0FE0141
:1043F000E80DF11D8081803321F49A2D997EA92E3C
:1044000009C0A2FE06C0B394B39404C08A2D867876
:1044100009F0B394A3FC11C0A0FE06C0B21488F446
:10442000280C922C9B180EC0B21460F4B60180E2E6
:1044300090E00E949622B394F7CFB21418F42B1890
:1044400002C0982C212CA4FE10C0B60180E390E09D
:104450000E949622A2FE17C0A1FC03C088E790E04C
:1044600002C088E590E0B6010CC08A2D867859F02C
:10447000A1FE02C08BE201C080E2A7FC8DE2B60182
:1044800090E00E949622891438F4B60180E390E00F
:104490000E9496229A94F7CF8A94F301E80DF11DB9
:1044A0008081B60190E00E9496228110F5CF2220F3
:1044B00009F442CEB60180E290E00E9496222A944E
:1044C000F6CFF6018681978102C08FEF9FEF2B9682
:1044D0000FB6F894DEBF0FBECDBFDF91CF911F9115
:1044E0000F91FF90EF90DF90CF90BF90AF909F9093
:1044F0008F907F906F905F904F903F902F90089596
:10450000FC010590615070400110D8F7809590959E
:104510008E0F9F1F0895FC016150704001900110A3
:10452000D8F7809590958E0F9F1F08950F931F9336
:10453000CF93DF93FB01238121FD03C08FEF9FEF1A
:104540002CC022FF16C04681578124813581421735
:10455000530744F4A081B1819D012F5F3F4F318308
:1045600020838C93268137812F5F3F4F37832683AB
:1045700014C08B01EC01FB010084F185E02D19953D
:10458000892BE1F6D80116968D919C91179701968B
:1045900017969C938E931697CE01DF91CF911F9122
:1045A0000F910895FA01AA27283051F1203181F1A5
:1045B000E8946F936E7F6E5F7F4F8F4F9F4FAF4F2B
:1045C000B1E03ED0B4E03CD0670F781F891F9A1F3E
:1045D000A11D680F791F8A1F911DA11D6A0F711DF2
:1045E000811D911DA11D20D009F468943F912AE0FE
:1045F000269F11243019305D3193DEF6CF010895E6
:10460000462F4770405D4193B3E00FD0C9F7F6CF16
:10461000462F4F70405D4A3318F0495D31FD4052DE
:10462000419302D0A9F7EACFB4E0A6959795879574
:1046300077956795BA95C9F7009761057105089553
:104640009B01AC010A2E06945795479537952795FF
:10465000BA95C9F7620F731F841F951FA01D089597
:04466000F894FFCFFC
:104664000000CA122000D6D7D87E80006F00360022
:10467400000000000000A0007200390000000000EB
:104684000000000000010000000000003F1E0000C8
:104694000000000200000000521E00000000476FEE
:1046A400743A203078002C20307800476F743A2018
:1046B400456D707479206D6573736167650052464A
:1046C40049442072656164696E6720554944004419
:1046D40065766963652049443A20307800747831FE
:1046E40000727831007365747570282920646F6EC8
:1046F40065004D6573736167652030783765207395
:10470400656E74000000000088066308F302000070
:104714002110422063308440A550C660E7700881B0
:1047240029914AA16BB18CC1ADD1CEE1EFF1311227
:10473400100273325222B5529442F772D662399300
:1047440018837BB35AA3BDD39CC3FFF3DEE3622477
:10475400433420040114E664C774A44485546AA550
:104764004BB528850995EEE5CFF5ACC58DD5533607
:10477400722611163006D776F6669556B4465BB7A0
:104784007AA719973887DFF7FEE79DD7BCC7C448D7
:10479400E5588668A7784008611802282338CCC9F0
:1047A400EDD98EE9AFF9488969990AA92BB9F55A67
:1047B400D44AB77A966A711A500A333A122AFDDB40
:1047C400DCCBBFFB9EEB799B588B3BBB1AABA66C37
:1047D400877CE44CC55C222C033C600C411CAEED90
:1047E4008FFDECCDCDDD2AAD0BBD688D499D977E47
:1047F400B66ED55EF44E133E322E511E700E9FFFE0
:10480400BEEFDDDFFCCF1BBF3AAF599F788F889195
:10481400A981CAB1EBA10CD12DC14EF16FE1801079
:10482400A100C230E3200450254046706760B9837C
:104834009893FBA3DAB33DC31CD37FE35EF3B102C9
:104844009012F322D2323542145277625672EAB58C
:10485400CBA5A89589856EF54FE52CD50DC5E23419
:10486400C324A01481046674476424540544DBA75C
:10487400FAB79987B8975FE77EF71DC73CD7D32669
:10488400F2369106B01657667676154634564CD9EC
:104894006DC90EF92FE9C899E9898AB9ABA94458B9
:1048A400654806782768C018E1088238A3287DCBBC
:1048B4005CDB3FEB1EFBF98BD89BBBAB9ABB754A09
:1048C400545A376A167AF10AD01AB32A923A2EFD4C
:1048D4000FED6CDD4DCDAABD8BADE89DC98D267C59
:1048E400076C645C454CA23C832CE01CC10C1FEF9C
:1048F4003EFF5DCF7CDF9BAFBABFD98FF89F176EA9
:10490400367E554E745E932EB23ED10EF01E40415B
:104914004445654373747576141516178180717058
:10492400333231300001020304050607272625240B
:104934002322214037626160A7A6A5A4A3A2A1A057
:10494400131211105051525354555657909192933B
:10495400949596970D0A00256C6F00256C750025BB
:104964006C7800256C6900252E2A66000400010677
:10497400C000C800000306080A6D61696E28293A60
:1049840020546869732069732052494F54212028A8
:1049940056657273696F6E3A20554E4B4E4F574EA3
:1049A40020286275696C646469723A202F686F6D9F
:1049B400652F73726976616D73696D616C6C616486
:1049C400692F4C6946692F4C692D46692D696E2DF6
:1049D400496E6475737472792D342E302F72696F39
:1049E400742F52494F542D73706929290A00696440
:1049F4006C65006D61696E00537461636B20506F68
:104A0400696E7465723A203078253034780A002A49
:104A14002A2A2052494F54206B65726E656C2070AF
:104A2400616E69633A0A25730A0A002A2A2A2068F1
:104A3400616C7465642E0A0A004641494C45442061
:0E4A4400415353455254494F4E2E000C000072
:040000030000021ED9
:00000001FF
