:100000000C94E5000C942C010C942C010C942C0104
:100010000C942C010C942C010C942C010C942C01AC
:100020000C942C010C942C010C942C010C942C019C
:100030000C942C010C942C010C942C010C942C018C
:100040000C942C010C9416150C9442150C946E15FE
:100050000C942C010C942C010C942C010C942C016C
:100060000C942C010C9499120C942C010C94ED120C
:100070000C942C010C942C010C942C010C942C014C
:100080000C942C010C942C010C942C010C942C013C
:100090000C94C3120C942C010C941D130C942C0181
:1000A0000C942C010C942C010C949A150C94C615EC
:1000B0000C94F2150C942C010C942C010C942C0132
:1000C0000C942C010C942C010C942C010C942C01FC
:1000D0000C942C010C942C010C942C010C942C01EC
:1000E0000C942C01D403E70348054805130453047A
:1000F0008404DC04FA042F0536050C942F050C94B7
:100100003D010C9437010C94D4200C9488050C9478
:10011000D4030C94290B0C94FA040C94981E0C94A0
:1001200080180C9448050C943C0F0C94191A0C94EC
:1001300042010C94F80A0C9447010C94EA1B0C94AD
:1001400036050C944D050C94DF110C94E00B0C94C7
:10015000DC040C94A70F0C94281A0C9453040C94F0
:10016000E7200C941D090C9484040C94E7030C9470
:100170001304464154414C204552524F523A2042BA
:1001800041444953525F766563742063616C6C65CA
:10019000642C20756E70726F63657373656420499B
:1001A0006E746572727570742E0A53544F502045E8
:1001B0007865637574696F6E2E0A000037014D050E
:1001C000290BE00B3C0FA70FDF11832D8093341F09
:1001D00084B78093351F14BE0FB6F894A89580910C
:1001E0006000886180936000109260000FBE11244F
:1001F0001FBECFEFD1E2DEBFCDBF00E00CBF16E0E7
:10020000A0E0B2E0EEE8FBE400E00BBF02C0079024
:100210000D92A636B107D9F72FE1A6E6B6E001C0E8
:100220001D92A433B207E1F710E0C5EED0E000E084
:1002300006C021970109802FFE010E943622CE3D83
:10024000D10780E00807A9F70E942E010C94C5256C
:100250000E9432010C94C5250C943A1F0E94051788
:100260000C942B1A0E9495020E94C003FDCF60E0FF
:1002700070E086E696E00C94AD0F0E94880B80E05B
:1002800090E008950E94BD0B80E090E00895FF92F9
:100290000F931F93CF93DF93423008F440C1FB01CB
:1002A000208130910519231709F439C130912002BA
:1002B000231381C00FEF040FEB01219667E572E075
:1002C00088E199E10E94C80FF12C10E0015011095A
:1002D0008F2D90E08017910794F4FE01E80FF91F2D
:1002E000608170E043E088E199E10E94D4106FE5FD
:1002F00072E088E199E10E94C80FF394E9CFC00F42
:10030000D11F688170E043E088E199E10E94E2102A
:100310008881809306189091150289130AC021E004
:1003200030E030930719209306193093220220936E
:1003300021029091120289130CC021E030E0309329
:1003400007192093061922E030E03093220220930F
:10035000210290910F0289130CC021E030E030930C
:1003600007192093061923E030E0309322022093EE
:10037000210220910619309107192930310551F4D5
:1003800090910C02891306C02AE030E030930719DF
:100390002093061920910619309107192A3031054A
:1003A00009F0BDC090910D028913B9C010920719D0
:1003B00010920619B4C030911F022313A4C00FEF8E
:1003C000040FEB01219667E572E088E199E10E9454
:1003D000C80FF12C10E0015011098F2D90E080170B
:1003E000910794F4FE01E80FF91F608170E043E08B
:1003F00088E199E10E94D4106FE572E088E199E10B
:100400000E94C80FF394E9CFC00FD11F688170E03C
:1004100043E088E199E10E94E21088818093061808
:1004200090911802891339C090911F02909304187B
:100430008093051842E064E078E18FEA97E00E943B
:100440004A0B892B31F06AE070E080E090E00E9476
:100450007F0F42E064E078E18AE597E00E944A0B72
:10046000892B31F06AE070E080E090E00E947F0F1D
:1004700042E064E078E185E097E00E944A0B892B36
:1004800009F44DC06AE070E080E090E0DF91CF9128
:100490001F910F91FF900C947F0F90911902891773
:1004A00019F290911A02891709F4BECF90911B029C
:1004B000891741F090911C028917A1F090911D02BB
:1004C00089130CC090911F02909304188093051813
:1004D00042E064E078E18FEA97E0CFCF90911E028E
:1004E00089130CC090911F029093041880930518F3
:1004F00042E064E078E18AE597E0BFCF909108029E
:1005000089130DC091CF8F5A974049F08FEA97E039
:10051000DF91CF911F910F91FF900C944A0BDF91C7
:10052000CF911F910F91FF900895CF92DF92EF929C
:10053000FF920F931F9388E099E10E94B70764E64A
:1005400072E088E199E10E94CA0F60E070E0CB019F
:100550000E94191F8093051965E772E088E199E10F
:100560000E94C80F6091051970E043E088E199E1AD
:100570000E94E21083E8C82E82E0D82E9FEAE92E7E
:1005800097E0F92E0DE311E028E030E046E060E06E
:1005900072E084E096E10E945B1927E8C22E22E017
:1005A000D22E02E411E028E030E045E060E072E0A5
:1005B00084E094E10E945B1961E070E080E090E0EB
:1005C0000E947F0F3BE8C32E32E0D32E4AE5E42E93
:1005D00047E0F42E0DE311E028E030E046E060E073
:1005E00072E084E092E10E945B195FE8C52E52E060
:1005F000D52E02E411E028E030E045E060E072E052
:1006000084E090E10E945B1961E070E080E090E09E
:100610000E947F0F63E9C62E62E0D62E75E0E72EBA
:1006200077E0F72E0DE311E028E030E046E060E0EF
:1006300072E084E09EE00E945B19E7E9CE2EE2E0E2
:10064000DE2E02E411E028E030E045E060E072E0F8
:1006500084E09CE00E945B1961E070E080E090E043
:100660000E947F0FFBE9CF2EF2E0DF2EA0EBEA2EF7
:10067000A6E0FA2E0DE311E028E030E046E060E06D
:1006800072E084E09AE00E945B19BFE9CB2EB2E0F1
:10069000DB2E02E411E028E030E045E060E072E0AB
:1006A00084E098E00E945B1961E070E080E090E0F7
:1006B0000E947F0F62E070E08EE190E00E945A0F8E
:1006C00062E070E080E290E00E945A0F60E070E02B
:1006D00083E090E00E945A0F61E070E086E090E0D5
:1006E0000E945A0F61E070E089E090E00E945A0F8A
:1006F00061E070E084E090E00E945A0F61E070E0F9
:1007000084E090E00E946B0F61E070E08AE090E08E
:100710000E945A0F61E070E08BE090E00E945A0F57
:1007200061E070E085E090E00E945A0F61E070E0C7
:1007300085E090E00E946B0F60E070E086E090E062
:100740000E946B0F60E070E089E090E00E946B0F08
:1007500060E070E08AE090E00E946B0F60E070E083
:100760008BE090E00E946B0F63EA72E088E199E110
:100770001F910F91FF90EF90DF90CF900C94CA0FD4
:10078000CF93DF931F921F92CDB7DEB7E09106198A
:10079000F0910719EB30F10508F07AC18827EE587F
:1007A000FF4F8F4F0C94362260EB72E088E199E1A5
:1007B0000E94CA0F60E070E086E090E00E946B0F3C
:1007C00060E070E089E090E00E946B0F08C16CEB84
:1007D00072E088E199E10E94CA0F80912102909114
:1007E00022028130910561F48EE190E00E94710F48
:1007F000892B19F061E070E0F4C084E090E0EBC078
:100800000297029708F044C180E290E00E94710FC5
:10081000892B99F360E070E08AE090E00E946B0F12
:1008200061E070E0E4C068EC72E088E199E10E9468
:10083000CA0F809120028983809121029091220227
:1008400081309105A1F4809116028A8342E0BE01B5
:100850006F5F7F4F8FEA97E00E944A0B892B01F16F
:100860006AE070E080E090E00E947F0F19C0823063
:10087000910551F4809113028A8342E0BE016F5FBB
:100880007F4F8AE597E0E8CF039751F480911002FB
:100890008A8342E0BE016F5F7F4F85E097E0DCCF47
:1008A00085E090E0D7C064ED72E088E199E10E94B4
:1008B000CA0F80912102909122029C01215031099E
:1008C0002230310548F460E070E086E090E00E945C
:1008D0006B0F61E070E00AC0039761F461E070E0C3
:1008E00086E090E00E946B0F60E070E089E090E0AD
:1008F0000E946B0F83E090E00E94710F019709F056
:10090000C7C086E090E0A6C060EE72E088E199E1A1
:100910000E94CA0F60E070E086E090E00E946B0FDA
:1009200060E070E089E090E00E946B0F60E070E0B2
:100930008AE090E00E946B0F60E070E08BE090E056
:100940000E946B0F809120028983809117028A8315
:1009500080912102909122028130910589F442E038
:10096000BE016F5F7F4F8FEA97E00E944A0B892B91
:1009700001F16AE070E080E090E00E947F0F19C012
:100980008230910551F4809114028A8342E0BE01C5
:100990006F5F7F4F8AE597E0E8CF039751F480912E
:1009A00011028A8342E0BE016F5F7F4F85E097E0CE
:1009B000DCCF87E090E04EC06CEE72E088E199E118
:1009C0000E94CA0F8EE190E00E94710F892B09F0FE
:1009D00011CF88E090E0909307198093061960E0AA
:1009E00070E08AE090E00E946B0F60E070E08BE0C6
:1009F00090E04CC068EF72E088E199E10E94CA0F74
:100A0000809120028983809121029091220281307D
:100A1000910519F4809109020AC08230910519F4F8
:100A200080910A0204C0039719F480910B028A8313
:100A300042E0BE016F5F7F4F80EB96E00E944A0B61
:100A4000892B31F06AE070E080E090E00E947F0F37
:100A500089E090E0909307198093061919C064E02B
:100A600073E088E199E10E94CA0F12C060E173E06F
:100A700088E199E10E94CA0F60E070E086E090E0B2
:100A80000E946B0F61E070E089E090E00E946B0FC4
:100A90000F900F90DF91CF9108950F931F9360E017
:100AA00070E088E199E10E94AD0F41E365E388E0E1
:100AB00099E10E94270600E010E027E431E043E0DE
:100AC00050E06CE170E08FEA97E00E942F0B27E482
:100AD00031E041E050E068E170E08AE597E00E9493
:100AE0002F0B27E431E040E050E066E170E085E064
:100AF00097E00E942F0B27E431E042E050E06AE1EA
:100B000070E080EB96E00E942F0B1F910F910895EB
:100B1000BC016E5F7F4FDC01ED91FC910190F08193
:100B2000E02D40E0199591E0811190E0892F089522
:100B3000CF93DF931F92CDB7DEB7698341E050E0DA
:100B4000BE016F5F7F4F0E949E1189810F90DF91E0
:100B5000CF9108959F92AF92BF92CF92DF92EF9282
:100B6000FF920F931F93CF93DF931F921F92CDB7E6
:100B7000DEB76C01A42E7901902E6068B62E00E0DD
:100B800021E040E059E06DE370E0CE0101960E9463
:100B9000F61069817A818BE89BE10E947111F60160
:100BA000868560E070E090E00E946B0FAA946B2D48
:100BB0008BE89BE10E9498059920B1F00FEF10E0BF
:100BC00001C0000F9A94EAF76B2D8BE89BE10E941D
:100BD0009805202F2095F701908192238023892B5F
:100BE00080839924939401C0912C892D90E09A14CC
:100BF00060F48701080F191F6B2D8BE89BE10E94A1
:100C00009805F80180839394F0CFE80EF91E60E018
:100C10008BE89BE10E949805F7018083F6018685A9
:100C200061E070E090E00E946B0F8BE89BE10E9416
:100C300090110F900F90DF91CF911F910F91FF9026
:100C4000EF90DF90CF90BF90AF909F900895FC0100
:100C500081E293E091838083668747870895DF92DE
:100C6000EF92FF920F931F93CF93DF931F921F92E8
:100C7000CDB7DEB77C01D62E142F00E021E040E096
:100C800059E06DE370E0CE0101960E94F610698193
:100C90007A818BE89BE10E947111F701868560E003
:100CA00070E090E00E946B0F6D2D8BE89BE10E943D
:100CB0009805612F8BE89BE10E949805F7018685D6
:100CC00061E070E090E00E946B0F8BE89BE10E9476
:100CD00090110F900F90DF91CF911F910F91FF9086
:100CE000EF90DF900895BF92CF92DF92EF92FF9244
:100CF0000F931F93CF93DF931F921F92CDB7DEB751
:100D00007C01162FD42EB22EC32E00E021E040E04D
:100D100059E06DE370E0CE0101960E94F610698102
:100D20007A818BE89BE10E947111F701868560E072
:100D300070E090E00E946B0F612F8BE89BE10E94B6
:100D400098050B2D1C2DC8018D0D911D6C010C15E6
:100D50001D0541F0F80161918F018BE89BE10E9434
:100D60009805F5CFF701868561E070E090E00E947C
:100D70006B0F8BE89BE10E9490110F900F90DF9119
:100D8000CF911F910F91FF90EF90DF90CF90BF9088
:100D90000895EF92FF920F931F93CF93DF931F92CB
:100DA0001F92CDB7DEB77C01162F00E021E040E0B6
:100DB00059E06DE370E0CE0101960E94F610698162
:100DC0007A818BE89BE10E947111F701868560E0D2
:100DD00070E090E00E946B0F612F60688BE89BE1F0
:100DE0000E94980560E08BE89BE10E949805182F0F
:100DF000F701868561E070E090E00E946B0F8BE860
:100E00009BE10E949011812F0F900F90DF91CF9165
:100E10001F910F91FF90EF9008950F9341110E9441
:100E2000AA050F9108950F931F93CF93DF938C0121
:100E3000D62FC42F0E94C906482F4C2B6D2FC801F6
:100E4000DF91CF911F910F910C942F060F931F9359
:100E5000CF93DF938C01D62FC42F0E94C906C09573
:100E60004C2F48236D2FC801DF91CF911F910F9117
:100E70000C942F06CF92DF92EF92FF920F931F9365
:100E8000CF93DF93EC016B01142F790140E062E016
:100E90000E942F0644E06AE0CE010E942F0640E83F
:100EA00064E1CE010E942F069601412F62E1CE013E
:100EB0000E94730643E062E0CE010E942F0608E81C
:100EC00013E16AE0CE010E94C90682FF13C040E030
:100ED00062E0CE010E942F0664E4CE010E94C906A2
:100EE000F701808362E4CE010E94C906F701818385
:100EF00080E004C00150110921F783E0DF91CF9118
:100F00001F910F91FF90EF90DF90CF9008950F9376
:100F10001F93CF938C014FE062E00E942F06C3E045
:100F200062E370E080E090E00E947F0F62E0C80121
:100F30000E94C90684FF02C0C15091F7CF911F9152
:100F40000F910895CF93DF93EC0168E20E94C906E8
:100F5000982F9370933041F0482F436068E2CE01A0
:100F6000DF91CF910C942F06DF91CF910895CF930D
:100F7000DF93EC018E8561E070E090E00E945A0FF3
:100F80008E8561E070E090E00E946B0F8F858F3F4F
:100F900009F45CC060E070E090E00E945A0F8F8519
:100FA00090E00E94710F892B09F050C08F8561E09D
:100FB00070E090E00E945A0F8F8560E070E090E052
:100FC0000E946B0F62E070E080E090E00E94910F61
:100FD0008F8561E070E090E00E946B0F62E370E04B
:100FE00080E090E00E947F0F40E064E2CE010E942A
:100FF0002F0640E066E2CE010E942F0646E268E43A
:10100000CE010E942F0640E864E5CE010E942F0623
:1010100049EA66E5CE010E942F0643E068E5CE016D
:101020000E942F0648EE6AE5CE010E942F0640E49A
:101030006AE2CE010E942F064DE362E2CE010E94D9
:101040002F06CE01DF91CF910C94A207CE010E9412
:101050008707CACF3F924F925F926F927F928F9293
:101060009F92AF92BF92CF92DF92EF92FF920F9337
:101070001F93CF93DF931F921F92CDB7DEB73C0132
:10108000162F942E2901A114B10419F0F501408105
:1010900001C040E0342EF0E18F9E300C112440E07E
:1010A00062E0C3010E942F064FE768E0C3010E947F
:1010B0002F0640E864E1C3010E942F069201402FF1
:1010C00062E1C3010E947306432D6AE1C3010E94DD
:1010D0002F06412F62E0C3010E942F061C3029F425
:1010E00040E86AE1C3010E94130700ED17E068E0E1
:1010F000C3010E94C906982F992139F480FD03C0CD
:1011000001501109A1F783E065C06CE0C3010E94A2
:10111000C906182F837109F05AC0E114F104F9F0DF
:10112000C114D104E1F064E1C3010E94C906F601D3
:101130009081981708F445C08083082D9701482FA7
:1011400062E1C3010E940D0768E1C3010E94C90664
:101150008770A114B10421F0F501808301C080E003
:1011600013FD31C0E114F10481F1C114D10469F11E
:101170009F89992351F1F6014081413021F4843057
:1011800041F58FEF27C0423020F1811122C042503B
:101190009E012F5F3F4FB701C3010E943A078111A3
:1011A00019C0F6018081E80EF11CF7013297908199
:1011B000898198130EC0319690818A81981309C055
:1011C00004C084E007C082E005C080E003C081E085
:1011D00001C087E00F900F90DF91CF911F910F9189
:1011E000FF90EF90DF90CF90BF90AF909F908F9047
:1011F0007F906F905F904F903F9008958F92AF9245
:10120000BF92CF92DF92EF92FF920F931F93AF9214
:101210008C2C570168017901042F9B0140E36CE09D
:101220000E942A080F901F910F91FF90EF90DF907E
:10123000CF90BF90AF908F9008952F923F924F9292
:101240005F926F927F928F929F92AF92BF92CF9256
:10125000DF92EF92FF920F931F93CF93DF93CDB75F
:10126000DEB72C970FB6F894DEBF0FBECDBF413569
:1012700008F005C1342E3B014C0140E86CE10E94AE
:1012800026072224239432E0231691F083E02816C7
:10129000E1F091E02912F7C083E989833320D1F08E
:1012A00081E0F3019081953008F480E0B12C17C003
:1012B000F5E9F983332081F081E0F30190819830E2
:1012C00008F480E043E0B42E0AC087E9898336E061
:1012D000B32E04C0B12C02C023E0B22E80E0D32C88
:1012E000F8E0BF9ED0181124D7FCD12C882321F020
:1012F00098E89B8333E001C032E021E09D2D977098
:1013000009F420E09D2D959595959595290F31F43B
:10131000882309F491C038E0D30E8EC0811102C039
:1013200094E001C093E0291708F4922FEB2DF0E030
:101330003196E60DF71D232F4191A1E0B0E0AC0FEF
:10134000BD1FA20FB11D4C932F5F422F431B4917A6
:1013500098F3DECF8111DDC09FE19D150CF495C09F
:1013600080E2D82E90E79A839B818C8189279D818A
:1013700089279E8189278F839E01285F3F4F47E001
:10138000BE016F5F7F4FC4010E943A078111C1C047
:101390001B86E3E0EA87CE0107962C0199E09C8743
:1013A000CB844C2D4295407F4C0D6AE1C4010E94D4
:1013B0002F06A12CCE010B967C018E01065F1F4FDC
:1013C00092014C85BE016F5F7F4FC4010E94FE08F1
:1013D000823009F0BFCF6CE1C4010E94C90685FDCF
:1013E00050C08F7109F480E2282F30E04D2DDD0CC4
:1013F000550B421753070CF046C0D82E859585959E
:10140000859591E0980F422F477081E009F480E0C4
:10141000890FE1E0F0E0EC0FFD1FE80FF11D215016
:1014200031092770332781E090E001C0880F2A95A9
:10143000EAF79081892B80838FE18D150CF492CF90
:101440009D2D97709B878D2D8595859585958E5FB4
:10145000292FE0E18E9F200D11242A8321E0911194
:1014600001C020E0280F2C8744244394512C4C0EBB
:101470005D1E480E511CF9E0F81BFA8791CF86E0FB
:1014800048C082E046C085E044C08B818838F1F1D5
:1014900082E094E0EB2DF0E03196E60DF71D980F19
:1014A000A1E0B0E0AC0FBD1FA80FB11D2C9121939E
:1014B0008F5F9813F5CF8A85833021F58B85811155
:1014C00021C09E012D5F3F4F41E0B201C4010E9447
:1014D0003A0781111EC09B81F2018181981314C0CB
:1014E0009C818281981310C0808182FF02C0239466
:1014F000CACEF3018387822D880F820D8F5F808390
:1015000080E007C081E005C087E003C083E093E08E
:10151000C1CF2C960FB6F894DEBF0FBECDBFDF91C2
:10152000CF911F910F91FF90EF90DF90CF90BF90E0
:10153000AF909F908F907F906F905F904F903F9073
:101540002F9008954F925F926F927F928F929F9209
:10155000AF92CF92EF92FF920F931F93CF93DF93AF
:101560001F921F92CDB7DEB76A834115510539F13D
:10157000F9016081623018F149012A013C0140E81B
:101580006CE10E94260787E08983A12CC12CCE0143
:1015900001967C018401920141E0BE016E5F7F4FA4
:1015A000C3010E94FE0881110DC0F40180818230C8
:1015B00041F481E09981911105C080E003C084E08D
:1015C00001C081E00F900F90DF91CF911F910F919B
:1015D000FF90EF90CF90AF909F908F907F906F9003
:1015E0005F904F9008959A01AB0166E20C94A20AB5
:1015F0000F931F93CF93DF9300D0CDB7DEB78C014D
:1016000082E08B8340E064E2C8010E942F0640E044
:1016100066E2C8010E942F0646E268E4C8010E9403
:101620002F06AE014D5F5F4FBE016F5F7F4FC80158
:101630000E94F30A982F81E0992319F0923009F063
:1016400080E00F900F900F90DF91CF911F910F913D
:10165000089560E070E082E699E10C94AD0FEF929E
:10166000FF920F931F93CF93DF93EC0179010E94B8
:10167000E60BF98AE88A1B8B0A8BFE01EC5AFF4FB6
:1016800010821F861E86DF91CF911F910F91FF90D0
:10169000EF900895AF92BF92CF92DF92EF92FF92B8
:1016A0000F931F93CF93413438F5C42F6B018C01F6
:1016B0007C018EE0E80EF11C61E070E0C7010E9441
:1016C00010175801E4E5AE0EB11CF50180818823A6
:1016D00021F0C7010E9455170FC04C2F50E0B601F2
:1016E000C80144960E947F22F501C083C7010E9471
:1016F000551780E090E002C08FEF9FEFCF911F91D0
:101700000F91FF90EF90DF90CF90BF90AF90089532
:10171000EC018C01025F1F4F7C0184E5E80EF11C97
:101720005E01E4E1AE0EB11C61E070E0C8010E9410
:101730001017F701D080C8010E945517DD20B1F0C5
:101740004D2DB501CE010E94E30C61E070E0C801AF
:101750000E941017F7011082C8010E945517EA89EC
:10176000FB89309709F3CE011995DECF64E670E06E
:1017700080E090E00E947F0FD7CFCF93DF93CDB76B
:10178000DEB7C054D1090FB6F894DEBF0FBECDBF8F
:101790008C0140E4BE016F5F7F4FC8010E94D90EEB
:1017A00097FDF7CFD8015096ED91FC915197309766
:1017B00081F3482FBE016F5F7F4FC8011995E9CFB4
:1017C00060E070E08CEA99E10C94AD0F0F931F93E9
:1017D000CF93DF93EC01CB018A017983688361E0C9
:1017E00070E00E945A0F1F830E83C8010E942A16C0
:1017F00081E090E09D878C87DF91CF911F910F91C1
:101800000895CF93DF93EC010E949D0F6A837B8341
:101810008C839D83DF91CF910895CF92DF92EF92D9
:10182000FF920F931F93CF93DF93EC01F62E0E944C
:101830009D0F28EB3BE0F29E6001F39ED00C11243B
:101840000D2C000CEE08FF080A811B812C813D81C4
:10185000C00ED11EE21EF31E6C157D058E059F0580
:1018600050F4A7019601261B370B480B590BCA01F0
:10187000B9010E94910FCA82DB82EC82FD82DF9166
:10188000CF911F910F91FF90EF90DF90CF9008952F
:10189000CF93DF93EC0160E070E0888199810E9432
:1018A0006B0F65E0CE010E940D0C61E070E0888155
:1018B00099810E946B0F65E0CE01DF91CF910C946E
:1018C0000D0CCF93DF93EC0161E070E0888199818A
:1018D0000E946B0F65E0CE010E940D0C60E070E08D
:1018E000888199810E946B0F65E0CE01DF91CF91D5
:1018F0000C940D0CCF92DF92EF92FF920F931F93F7
:10190000CF936C01C42F00E010E0E62EF12CC7014C
:10191000002E01C0880F0A94EAF787FF06C0CF5F48
:10192000C6010E94480CC53021F4C6010E94610C1A
:10193000C0E00F5F1F4F0830110549F78C2FCF9182
:101940001F910F91FF90EF90DF90CF9008950F932C
:101950001F93CF93DF938C010E94010CC8E0D0E06D
:10196000C8010E94610CC8010E94480C2197C1F770
:10197000DF91CF911F910F910895EF92FF920F93F6
:101980001F93CF93DF938C01C0E0D0E08EE7E82E69
:10199000F12CC7010C2E01C0880F0A94EAF787FFCB
:1019A00004C0C8010E94480C03C0C8010E94610C19
:1019B0002196C830D10569F7DF91CF911F910F9122
:1019C000FF90EF900895AF92BF92CF92DF92EF9287
:1019D000FF920F931F93CF93DF93EC017B01042FB2
:1019E0000E94A70CCE010E94BD0C67015701A00EFA
:1019F000B11C10E0CA14DB0449F0F60161916F01DB
:101A0000412FCE010E947A0C182FF4CF602FC7010E
:101A10000E94420F082F412F692FCE010E947A0C9D
:101A2000482F602FCE010E947A0CCE01DF91CF911A
:101A30001F910F91FF90EF90DF90CF90BF90AF90EC
:101A40000C94BD0CCF92DF92EF92FF920F931F93F5
:101A5000CF93DF938C010E94010C3AE5C32ED12C69
:101A6000E12C40E8F42ECFEFDFE762E0F801868159
:101A700097810E94B9169B016C177D070CF4EB014E
:101A8000E216F3060CF47B0161E0C8010E940D0C24
:101A9000F1E0CF1AD10849F7C7018C1B9D0BC29703
:101AA0005CF0CE0DDF1DD7FD2196CE019595879573
:101AB000F8019187808702C08FEF9FEFDF91CF9170
:101AC0001F910F91FF90EF90DF90CF9008950F93AB
:101AD0001F93CF93DF93EC0162E08E819F810E9480
:101AE000B916288539858901330F220B330BE09114
:101AF000F619601771078207930764F481E08E0F6F
:101B00008093F619F0E0E950F64E8FE5808380E08F
:101B100090E00BC081E08E0F8093F619F0E0E95061
:101B2000F64E8DE2808381E090E0DF91CF911F91AE
:101B30000F910895AF92BF92CF92DF92EF92FF92F2
:101B40000F931F93CF93DF93EC010E94670D6C01FD
:101B500080EFE82EF12C00E010E0CE010E94670D2E
:101B60005C018C159D0519F40F5F1F4F0CC00830E8
:101B700011053CF065E0CE010E940D0C80E090E084
:101B80000DC000E010E061E0CE010E940D0C81E08C
:101B9000E81AF108650109F78FEF9FEFDF91CF9108
:101BA0001F910F91FF90EF90DF90CF90BF90AF907B
:101BB0000895CF92DF92EF92FF920F931F93CF93EE
:101BC000DF938C01C5E0D0E0E12CF12CC8010E942C
:101BD000670DE80EF91E61E0C8010E940D0C219707
:101BE000A9F785E0C82ED12CC0E0D0E0C8010E9442
:101BF000670DC80FD91F61E0C8010E940D0C81E07C
:101C0000C81AD10899F783E0E816F1042CF4239759
:101C10006CF48FEF9FEF0CC081E090E0239714F4F9
:101C200080E090E091958195910902C081E090E07B
:101C3000DF91CF911F910F91FF90EF90DF90CF90A8
:101C40000895CF93DF93EC01CE010E94D90D9C0142
:101C50002F5F3F4F22303105B8F7DF91CF910895C4
:101C60000F931F93CF93DF93EC010E94210E8F3FC0
:101C70002FEF9207D9F006E010E0CE010E94D90DB7
:101C80008F3F2FEF920791F0892BA9F30150110993
:101C9000A1F7CE010E94D90D21E030E0892B11F48B
:101CA00020E030E088279927821B930BDF91CF91AA
:101CB0001F910F910895CF92DF92EF92FF920F93B1
:101CC0001F93CF93DF93EC017B01FB01108200E0B7
:101CD00010E080E8C82ED12C8A859B850597A4F05A
:101CE000CE010E94D90D8F3FFFEF9F0789F1892B0D
:101CF00019F41B861A8608C0CE010E94D90D892BC3
:101D000029F581E090E024C0CE010E94D90D009712
:101D100099F00197D9F48A859B8501969B878A87DC
:101D2000F7012081C601002E02C0959587950A947F
:101D3000E2F7822B808302C01B861A860F5F1F4F3B
:101D40000830110549F680E090E002C08FEF9FEF68
:101D5000DF91CF911F910F91FF90EF90DF90CF9087
:101D60000895EF92FF920F931F93CF93DF937C011F
:101D7000042FFC0113861286EB0110E0101781F08E
:101D8000BE01C7010E945B0E8F3FFFEF9F0751F01E
:101D9000019719F4812F90E005C01F5F2196EECFC7
:101DA0008FEF9FEFDF91CF911F910F91FF90EF90F9
:101DB0000895FF920F931F93CF93DF93EC018B0154
:101DC000F42E1092F6198C859D85892B09F1CE0190
:101DD0000E94220D019639F4E091F619F0E0E950E5
:101DE000F64E10822DC0CE010E949A0D8F3F4FEF0C
:101DF000940739F0CE010E94300E8F3F2FEF9207EB
:101E000039F4E091F619F0E0E950F64E10822EC058
:101E10004F2DB801CE010E94B10E21E030E08F3F7E
:101E20004FEF940711F020E030E03D872C87E091E0
:101E3000F619F0E0E950F64E1082823091051CF45C
:101E40008FEF9FEF13C0EC0122976C2FC8010E9407
:101E5000420FF801EC0FFD1F208130E0322F2227C6
:101E60004181242B8217930759F7CE01DF91CF913F
:101E70001F910F91FF90089560E070E087EF9AE165
:101E80000C94AD0F482FDC0180E090E02A2F241B3A
:101E9000261778F42D91E92FFF27E227EE0FFF1F79
:101EA000E95DFC4F20813181982F88278227932775
:101EB000EDCF08956115710529F06230710521F4A7
:101EC00062E003C060E001C063E0FC01E95DFA4F3D
:101ED00080810C945B13895D9A4FFC0180810C9486
:101EE000C913895D9A4FFC0180810E94901321E003
:101EF00030E0892B11F420E030E0C90108959B0106
:101F0000AC01A8EEB3E00E943E2222E096958795B0
:101F1000779567952A95D1F720E030E0A9010C94D8
:101F20009A1E22E096958795779567952A95D1F721
:101F300020E030E0A9010C949A1E0E94C81B22E008
:101F4000660F771F881F991F2A95D1F7089560E0C3
:101F500070E081E49BE10C94AD0FFC017183608320
:101F600008950F931F93CF93DF938C01EB01CB0167
:101F70000E948F22AC01BE01F801808191810E94F4
:101F80007612CE01DF91CF911F910F910C948F2289
:101F90000C94B10F0F931F93CF93DF93EC010E942A
:101FA000B10F8C016DE675E0CE010E94B10FC80142
:101FB0000296DF91CF911F910F910895CF93DF93F8
:101FC000EA01FC01808191810E947612CE01DF91AD
:101FD000CF9108954F925F926F927F928F929F92CE
:101FE000AF92BF92EF92FF920F931F93CF93DF9325
:101FF000CDB7DEB7C054D1090FB6F894DEBF0FBE1F
:10200000CDBF7C01213009F450C068F0223009F4C2
:1020100053C0233009F06DC07F936F935F934F934C
:1020200088E795E04FC080E090E0812C912CA12CB6
:10203000B0E8BB2E95018401082E04C03695279583
:10204000179507950A94D2F70423152326233723DF
:10205000012B022B032B11F40196ECCF9E012F5F75
:102060003F4FF901412C512C612CA0E87A2E8F01B1
:10207000021B130B8032910598F553014201082E83
:1020800004C0B694A794979487940A94D2F78422B4
:102090009522A622B72289288A288B2811F4A0E34A
:1020A00001C0A1E3A1930196E2CF7F936F935F9369
:1020B0004F9380E795E006C07F936F935F934F93B4
:1020C00084E795E09F938F93CE0101969F938F9322
:1020D0000E94DC228C010FB6F894DEBF0FBECDBF8C
:1020E000A801BE016F5F7F4FC7010E94DE0FC801CC
:1020F00002C080E090E0C05CDF4F0FB6F894DEBF16
:102100000FBECDBFDF91CF911F910F91FF90EF9048
:10211000BF90AF909F908F907F906F905F904F9007
:102120000895CF92DF92EF92FF920F931F93CF9378
:10213000DF93CDB7DEB7C054D1090FB6F894DEBF38
:102140000FBECDBF6C017F936F935F934F938CE76E
:1021500095E09F938F93CE0101967C019F938F937F
:102160000E94DC228C01AC01B701C6010E94DE0F87
:102170000FB6F894DEBF0FBECDBFC801C05CDF4F05
:102180000FB6F894DEBF0FBECDBFDF91CF911F9188
:102190000F91FF90EF90DF90CF900895223011F4CF
:1021A0000C9491100C94EA0F242F423031F4AB01BF
:1021B000770F660B770B0C94CE10AB0160E070E0EC
:1021C0000C94EA0F0F931F93CF93DF93EC010E94BF
:1021D000D4108C016DE675E0CE010E94B10FC801EC
:1021E0000296DF91CF911F910F9108950F93FC01FB
:1021F000213029F062E576E083E00E94501A023037
:1022000041F0033041F0013011F0108206C084E04B
:1022100003C088E001C08CE08083403886E958071D
:1022200088E968077105A8F440348BE458078CE40A
:102230006807710588F4403482E458078FE0680726
:10224000710568F440385A416640710558F483E0DE
:102250000FC080E090E008C081E090E005C082E01F
:1022600090E002C083E090E0DC01AB57BA4F8C9164
:1022700081830F9108950F9300E021E040E059E041
:102280006DE370E00E94F6100F910895EF92FF92B7
:102290000F931F93CF93DF931F921F92CDB7DEB79B
:1022A0008C017B0102960E943B11F801F182E082D1
:1022B000CE0101960E943B1189819A81F801938396
:1022C00082831482168215821086178212861186E6
:1022D0000F900F90DF91CF911F910F91FF90EF9092
:1022E00008950F931F93CF93DF93EC01162F072FC1
:1022F00005960E94E318202F412F6FEF8881998166
:102300000E94E313892B29F062E576E083E00E94C6
:10231000501A81E08C83DF91CF911F910F91089526
:10232000CF93DF93EC01888199810E9401141C8274
:10233000CE010596DF91CF910C94E718AF92BF9232
:10234000CF92DF92EF92FF920F931F93CF93DF9381
:10235000EC015B017A016C0185E0C80ED11CC6015D
:102360000E94E3188C8181110EC02B814A816FEF8E
:10237000888199810E94E313892B29F062E576E038
:1023800083E00E94501A8501950140E06FEF88813B
:1023900099810E940D148C81811104C088819981DA
:1023A0000E940114C601DF91CF911F910F91FF9000
:1023B000EF90DF90CF90BF90AF900C94E71860E063
:1023C00070E08BE89BE10C9446110FB6802DF894D9
:1023D000807890E008950FB6802D7894807890E012
:1023E0000895FF920F93F82E0FB7087FF02AFFBED3
:1023F0000F91FF9008958091961B90E0089521E041
:102400002093961BFC01EE0FFF1FE757FA4F019038
:10241000F081E02D6681880F991F880F991FDC01DC
:10242000A856B44EED91FC91119712968D919C9106
:10243000139719950C943520EF92FF920F931F93E9
:10244000CF93DF9379018230910508F046C020E0F8
:1024500030E0E091971BEE2319F021503109C9F7C4
:10246000FC01EE0FFF1FEE0FFF1FE856F44EF18246
:10247000E08213830283880F991FFC01E757FA4F0C
:10248000C081D1811982188286E08A83DB01CA016A
:1024900080589B47A14EBF4FE3E0880F991FAA1FAA
:1024A000BB1FEA95D1F79A01AB01F4E0220F331F6D
:1024B000441F551FFA95D1F7BC01CD010E9414228B
:1024C000215031093D832C83EF2811F088ED01C0A4
:1024D00088E4898380E090E002C08FEF9FEFDF9176
:1024E000CF911F910F91FF90EF900895CF93DF93BD
:1024F00021E0082E01C0220F0A94EAF7DB01460F03
:10250000571F880F991FFC01E757FA4FA417B5070B
:1025100069F0C081D181888185FFFDCF8091971BB3
:10252000822B8093971B8D918E83F0CFDF91CF917B
:1025300008951F920F920FB60F9211240BB60F92AF
:102540002F933F934F935F936F937F938F939F93BB
:10255000AF93BF93EF93FF9380E090E00E94FF1151
:10256000FF91EF91BF91AF919F918F917F916F916B
:102570005F914F913F912F910F900BBE0F900FBE27
:102580000F901F9018951F920F920FB60F92112463
:102590000BB60F922F933F934F935F936F937F935D
:1025A0008F939F93AF93BF93EF93FF9381E090E05E
:1025B0000E94FF11FF91EF91BF91AF919F918F9179
:1025C0007F916F915F914F913F912F910F900BBE33
:1025D0000F900FBE0F901F9018951F920F920FB67D
:1025E0000F9211240BB60F922F933F934F935F934B
:1025F0006F937F938F939F93AF93BF93EF93FF93CB
:1026000081E08093961B8091971B8E7F8093971B10
:102610000E943520FF91EF91BF91AF919F918F91D3
:102620007F916F915F914F913F912F910F900BBED2
:102630000F900FBE0F901F9018951F920F920FB61C
:102640000F9211240BB60F922F933F934F935F93EA
:102650006F937F938F939F93AF93BF93EF93FF936A
:1026600081E08093961B8091971B8D7F8093971BB1
:102670000E943520FF91EF91BF91AF919F918F9173
:102680007F916F915F914F913F912F910F900BBE72
:102690000F900FBE0F901F901895282F22952F7026
:1026A00033E0239FC0011124273010F4829608954F
:1026B00083519F4F0895CF93DF93982F9F70C1E070
:1026C000D0E001C0CC0F9A95EAF76230A9F06330F0
:1026D00069F0611120C00E944D13FC012291C09548
:1026E0002C232083FC012081C22311C00E944D13A2
:1026F000FC018291C82B0BC00E944D13FC0122915A
:102700003C2F309523232083FC012081C22BC083E2
:1027100080E090E002C08FEF9FEFDF91CF910895AE
:10272000CF93C82F0E944D130297FC012081CF70D8
:1027300081E090E002C0880F991FCA95E2F730E06F
:1027400082239323CF910895CF93C82F0E944D13D6
:10275000FC014081CF7021E030E001C0220FCA951A
:10276000EAF7242B2083CF910895CF93C82F0E949E
:102770004D13FC014081CF7021E030E002C0220FF8
:10278000331FCA95E2F72095309524232083CF91FB
:102790000895672B11F00C94A4130C94B51384B115
:1027A000876084B90895892B29F062E576E083E09B
:1027B0000E94501A8091640084608093640080E0DD
:1027C00090E00C94CF13CF93DF93C42FD22F61E00E
:1027D00070E080EA9BE10E941017E4E6F0E080815F
:1027E0008B7F80838D2F869586958DBDD370C06538
:1027F000CD2BCCBD8DB58EB580E090E0DF91CF9133
:1028000008958CB58F7B8CBDE4E6F0E08081846018
:10281000808380EA9BE10C945517CF92DF92EF9270
:10282000FF920F931F93CF93DF93C62FD42F69018D
:10283000232B41F40115110529F462E576E083E0CC
:102840000E94501ACF3F19F08C2F0E94B513F80147
:10285000D601E00EF11EEE15FF0591F0C114D10472
:1028600011F08C9101C080E08EBD0DB407FEFDCF4C
:102870008EB50115110509F0808331961196EBCFC5
:10288000D1110DC0CF3F59F08C2FDF91CF911F9107
:102890000F91FF90EF90DF90CF900C94A413DF91F5
:1028A000CF911F910F91FF90EF90DF90CF900895FF
:1028B00021E02093961B2CE0AC01249FC001259FB2
:1028C000900D1124DC01AD5DBD4F1296ED91FC9190
:1028D00013972081AB014F5F5F4F81E090E001C013
:1028E000880F4A95EAF78095822380831696ED91AA
:1028F000FC91179718968D919C91199719950C94A6
:1029000035208F929F92AF92BF92CF92DF92EF923B
:10291000FF920F931F93DC010297D8F4EDE8F5E0E6
:1029200090E0C12C84E2D82E84EFE82EF12C4601F1
:102930005701019004C0B694A794979487940A9481
:10294000D2F79F5F84169506A606B70629F0953044
:1029500071F78FEF9FEF1EC08CE08A9FF0018B9F75
:10296000F00D1124ED5DFD4FA081B1811C921196F7
:102970001C92119712961C92129715961C921E92F9
:1029800014973783268311870087928711969C932B
:1029900080E090E01F910F91FF90EF90DF90CF903B
:1029A000BF90AF909F908F900895633071055CF554
:1029B0002CE0289FF001299FF00D1124ED5DFD4FC3
:1029C00080819181DB011496AA0FBB1FA80FB91F4C
:1029D00011965C934E93A481B5812C916F5F7F4FCC
:1029E00081E090E001C0880F6A95EAF7982F9095F2
:1029F00092239C930280F381E02D9081892B808328
:102A000080E090E008958FEF9FEF08952CE0AC01F7
:102A1000249FC001259F900D1124FC01ED5DFD4F09
:102A20000190F081E02D8481958108951F920F928D
:102A30000FB60F9211240BB60F922F933F934F9323
:102A40005F936F937F938F939F93AF93BF93EF9316
:102A5000FF9360E070E080E090E00E945814FF91E6
:102A6000EF91BF91AF919F918F917F916F915F9106
:102A70004F913F912F910F900BBE0F900FBE0F9073
:102A80001F9018951F920F920FB60F9211240BB63C
:102A90000F922F933F934F935F936F937F938F93F7
:102AA0009F93AF93BF93EF93FF9361E070E080E05B
:102AB00090E00E945814FF91EF91BF91AF919F91C8
:102AC0008F917F916F915F914F913F912F910F90D7
:102AD0000BBE0F900FBE0F901F9018951F920F9274
:102AE0000FB60F9211240BB60F922F933F934F9373
:102AF0005F936F937F938F939F93AF93BF93EF9366
:102B0000FF9362E070E080E090E00E945814FF9133
:102B1000EF91BF91AF919F918F917F916F915F9155
:102B20004F913F912F910F900BBE0F900FBE0F90C2
:102B30001F9018951F920F920FB60F9211240BB68B
:102B40000F922F933F934F935F936F937F938F9346
:102B50009F93AF93BF93EF93FF9360E070E081E0AA
:102B600090E00E945814FF91EF91BF91AF919F9117
:102B70008F917F916F915F914F913F912F910F9026
:102B80000BBE0F900FBE0F901F9018951F920F92C3
:102B90000FB60F9211240BB60F922F933F934F93C2
:102BA0005F936F937F938F939F93AF93BF93EF93B5
:102BB000FF9361E070E081E090E00E945814FF9183
:102BC000EF91BF91AF919F918F917F916F915F91A5
:102BD0004F913F912F910F900BBE0F900FBE0F9012
:102BE0001F9018951F920F920FB60F9211240BB6DB
:102BF0000F922F933F934F935F936F937F938F9396
:102C00009F93AF93BF93EF93FF9362E070E081E0F7
:102C100090E00E945814FF91EF91BF91AF919F9166
:102C20008F917F916F915F914F913F912F910F9075
:102C30000BBE0F900FBE0F901F90189561E070E0D3
:102C400082EA9BE10E941017EAE7F0E08081806849
:102C5000808308958F929F92AF92BF92CF92DF921E
:102C6000EF92FF92CF93DF938031910508F074C00B
:102C7000EC010E941E16C830D105A0F420917E0000
:102C800081E090E001C0880FCA95EAF7922F982B57
:102C900090937E0090B38095982390BB91B3892345
:102CA00081BB18C020917D00289781E090E001C091
:102CB000880FCA95EAF7922F982B90937D009091F8
:102CC000070180959823909307019091080189232B
:102CD00080930801C12CD12C7601C394C1E0D0E0CF
:102CE000812C94E2992E94EFA92EB12C9E010C2CEC
:102CF00002C0220F331F0A94E2F7032E000C440B8C
:102D0000550BC501B4010E94142221343D404340BB
:102D1000510530F480917A00C82AC0927A000BC025
:102D20003FEFC31AD30AE30AF30A88E0C816D104B6
:102D3000E104F104D9F680917C00806480937C00EA
:102D400080917A008F7780937A0082EA9BE10E94DB
:102D5000551780E090E002C08FEF9FEFDF91CF9199
:102D6000FF90EF90DF90CF90BF90AF909F908F90AB
:102D70000895CF93DF93623009F041C0EC010E94C7
:102D80001E1680917B00C830D10558F4877F809350
:102D90007B0080917C00807F80937C0080917C0010
:102DA0000BC0886080937B0080917C00807F809343
:102DB0007C0080917C00C850C82BC0937C0080911F
:102DC0007A00806480937A0080917A0086FDFCCF3F
:102DD000C0917800D091790080917A0080618093D1
:102DE0007A0080917A008F7780937A0082EA9BE163
:102DF0000E945517BE01DD0F880B990B03C06FEFC2
:102E00007FEFCB01DF91CF910895E1E6F0E080E81C
:102E1000808310820E942A1F0E9409210C94EB11CA
:102E2000EF92FF920F931F93CF93DF93EC018B01EF
:102E30000E94E5117C0188819981892B41F48FEFF3
:102E40009FEF99838883C7010E94F1111FC0012B56
:102E500001F10091CA1B1091CB1B63E0C8010E94D5
:102E6000D51788819981019641F4C8010696998306
:102E70008883F8011782168204C0B801CE010E942F
:102E80003A19C7010E94F1110E94C71F81E090E02A
:102E900005C0C7010E94F11180E090E0DF91CF9161
:102EA0001F910F91FF90EF900895EF92FF920F9373
:102EB0001F93CF93DF938C010E94E5117C01D80111
:102EC000ED91FC91309739F0EF3FBFEFFB0761F4D4
:102ED000F80111821082C701DF91CF911F910F91EC
:102EE000FF90EF900C94F11180819181D8018D9326
:102EF0009C93EF0126976CE0CE010E94D517F80154
:102F000080819181892B21F48FEF9FEF91838083C2
:102F1000CB81D0E0C7010E94F111CE01DF91CF91AA
:102F20001F910F91FF90EF900C94661810920F1C58
:102F300010920E1CA091CA1BB091CB1B2091A41B18
:102F40003091A51B80E090E020FD04C036952795C8
:102F50000196FACF880F991FFC01E855F44E0190B5
:102F6000F081E02D0190F081E02D3697AE17BF077C
:102F7000C9F0109741F012968C9112978B3019F48A
:102F80008CE012968C938BE0828384819581909360
:102F9000C91B8093C81BF093CB1BE093CA1B81E035
:102FA00090E0089580E090E008950F931F93CF93F1
:102FB000DF93FC0182816B30E0F18B3008F080C040
:102FC0009F012A5F3F4F838190E0880F991FDC01AA
:102FD000A855B44ECD91DC911197209751F04881BE
:102FE0005981578346830D90BC91A02D2D933C931E
:102FF00002C037832683DC01A855B44E2D933C9341
:1030000081E090E0038002C0880F991F0A94E2F7E4
:10301000092E000CAA0BBB0B0091A41B1091A51B41
:103020002091A61B3091A71B802B912BA22BB32B99
:103030003FC08B3008F444C0A381B0E0AA0FBB1F8F
:10304000A855B44ECD91DC911197209769F08881F5
:103050009981C817D90719F41D921C9205C0DC018B
:103060008D919C91998388832381A22FB0E0AA0F30
:10307000BB1FA855B44E8D919C91892B09F581E019
:1030800090E002C0880F991F2A95E2F780959095ED
:10309000092E000CAA0BBB0B0091A41B1091A51BC1
:1030A0002091A61B3091A71B80239123A223B32339
:1030B0008093A41B9093A51BA093A61BB093A71B62
:1030C0006283DF91CF911F910F910895E091CA1B08
:1030D000F091CB1B22812B3028F0238130E0821726
:1030E000930768F40E94FB11892B39F081E090E08E
:1030F00090930F1C80930E1C08950C94C71F089585
:103100000E94E511E091C81BF091C91BEE0FFF1F53
:10311000E453F44E118210828091101C9091111C86
:1031200001979093111C8093101C60E08091CA1B42
:103130009091CB1B0E94D5171092CB1B1092CA1BEB
:103140000E947A1FCF92DF92EF92FF920F931F930C
:10315000CF93DF93EC016B0160E070E00E941017E9
:103160008C01CE0104967C010115110591F460E0FB
:1031700070E00E941C192091C81B3091C91B821756
:10318000930739F0CD28A9F461E070E0CE010E94E8
:1031900010176091C81B7091C91B40E050E0C70137
:1031A0000E942A198A819B8101969B838A8301E070
:1031B00010E0C801DF91CF911F910F91FF90EF9028
:1031C000DF90CF90089560E070E00C94A2180F9308
:1031D0001F93CF93DF93EC018C010C5F1F4F60E0D6
:1031E00070E0C8010E941C192091C81B3091C91BB6
:1031F0008217930729F062E576E083E00E94501A77
:103200008A819B810097B9F301979B838A83892BDD
:1032100071F440E050E060E070E0C8010E942A19BB
:10322000CE01DF91CF911F910F910C945517DF9133
:10323000CF911F910F910895CF93DF93EC010E94DE
:10324000E5110990D881C02D0E94F111CE01DF91C6
:10325000CF9108950F931F93CF93DF93EC018B01D0
:103260000E94E51119830883DF91CF911F910F917F
:103270000C94F111FB0122812B3028F062E576E0FD
:1032800083E00E94501A6381AF014A5F5F4FDC0107
:103290002D913C912115310541F0D90116971396D6
:1032A0007C91671710F0C901F2CF37832683FC01A8
:1032B0005183408308952F923F924F925F926F9275
:1032C0007F928F929F92AF92BF92CF92DF92EF92B6
:1032D000FF920F931F93CF93DF9300D01F92CDB730
:1032E000DEB7403198F54B013AE1831A9108DC01D1
:1032F000A80DB91DBC83AB83FC0123FF09C0AB81C2
:10330000BC81EA17FB0730F4F183E0833296F7CFF4
:10331000918380831601370158012A8349832B0149
:103320007C010E94E5116C01EEECFBE101E010E094
:1033300081919191892B61F00F5F1F4F013211052F
:10334000B9F7C6010E94F1118FEB5BC084EE59C042
:10335000F801EE0FFF1FE453F44E8B819C819183A3
:103360008083DC0115961C930E9314979401A7019A
:10337000B301C5010E94451FEB81FC8191838083CD
:10338000F58AE48A518E408E378A268A29812383E2
:10339000128217821682118610861386128615866F
:1033A0001486178616868FEF9FEF918B808B138A7A
:1033B000128A8091101C9091111C01969093111CFF
:1033C0008093101C3A8130FF06C062E08B819C81A3
:1033D0000E94D51711C06CE08B819C810E94D5178B
:1033E000FA81F2FD09C0C6010E94F1112981822FE4
:1033F00090E00E94661803C0C6010E94F111C80146
:1034000001C09FEF0F900F900F900F90DF91CF9121
:103410001F910F91FF90EF90DF90CF90BF90AF90F2
:103420009F908F907F906F905F904F903F902F90E4
:1034300008950E94D02082E995E09F938F930E9487
:1034400098220E9432010F900F9080E090E0089542
:103450000E94181FFDCF0E94E51187E0C82E86E06C
:10346000D82EE12CF12C08E21AE12CE030E04FE0FC
:1034700060E870E082E19CE10E945B199CE0C92E4B
:1034800096E0D92E09E11AE12CE030E047E060E84F
:1034900072E082E99CE10E945B190E947A1F089504
:1034A000EB012091121F3091131F232B71F521E0A6
:1034B00030E03093131F2093121F833091F40EB627
:1034C000202D0DB6802D90E0922B9F938F9381E15C
:1034D00096E09F938F930E9498220F900F900F90E9
:1034E0000F90DF93CF9388E296E09F938F930E9493
:1034F000982284E496E09F938F930E9498220F90E5
:103500000F900F900F900F900F900E94E5110E9466
:103510004F1A0E94151F8F929F92AF92BF92CF9227
:10352000DF92EF92FF920F931F93CF93DF93DB0114
:1035300069017A01EC01E881F981309709F449C009
:10354000068117812085318516964D915D916D918B
:103550007C911997041715072607370708F44CC004
:103560000417150726073707A1F54285538564859B
:10357000758597018601041B150B260B370BB901C6
:10358000A8010281138124813581041715072607BC
:10359000370790F1041B150B260B370B1A964D912C
:1035A0005D916D917C911D9746015701841A950A92
:1035B000A60AB70A12964D915D916D917C9115976F
:1035C000481959096A097B094017510762077307AF
:1035D00098F41196FC93EE93EC01B983A883DF91E4
:1035E000CF911F910F91FF90EF90DF90CF90BF9000
:1035F000AF909F908F900895CF019CCFFC012081C8
:1036000031812115310579F02617370751F4FB0177
:1036100020813181FC0131832083FB0111821082E2
:103620000895C901EBCF08956F927F928F929F9278
:10363000AF92BF92CF92DF92EF92FF920F931F93C0
:10364000CF93DF930E94E511EC0180E090E00E94AF
:1036500006154C012091191F30911A1F40911B1F14
:1036600050911C1F60911D1F70911E1F80911F1F84
:103670009091201F6090191F70901A1FB0911B1F0E
:10368000A0911C1FF0911D1FE0911E1F00911F1F94
:103690001091201FA12CB12CBA01A9016627772710
:1036A000841A950AA60AB70AAA24BB249401A50184
:1036B00060E070E080E090E05301CB2EDA2EEF2E38
:1036C000FE2E0E9467222093191F30931A1F4093E9
:1036D0001B1F50931C1F60931D1F70931E1F809310
:1036E0001F1F9093201FCE010E94F1112091191FDE
:1036F00030911A1F40911B1F50911C1F60911D1F7C
:1037000070911E1F80911F1F9091201FDF91CF91FC
:103710001F910F91FF90EF90DF90CF90BF90AF90EF
:103720009F908F907F906F9008950F931F93E091DB
:10373000171FF091181F3097A9F00281138124817F
:103740003581011540E814072105310558F48285BB
:103750009385A485B585B901A801480F591F6A1F33
:103760007B1F0AC02091141F21110FC0AB01BC01A7
:10377000415050486F4F7F4F60E070E080E090E034
:103780000E94D51481E08093141F1F910F9108951A
:103790000E94141BB901CA0108950F931F9300E002
:1037A00010E02AEE3BE140E950ED63E070E080E09C
:1037B00090E00E9481140E94C81B2091211F30912B
:1037C000221F232B21F41F910F910C94951B1F9105
:1037D0000F9108952F923F924F925F926F927F9236
:1037E0008F929F92AF92BF92CF92DF92EF92FF9211
:1037F0000F931F93CF93DF9300D01F92CDB7DEB707
:1038000081E090E09093221F8093211F1092141F5B
:103810000E94141B29013A014B015C012091171FE2
:103820003091181F3C832B838B819C81892B09F459
:10383000A6C0EB81FC8186819781A085B185892B0B
:103840008A2B8B2B29F062E576E083E00E94501AE8
:10385000EB81FC8182859385A485B585B301A201A6
:10386000481B590B6A0B7B0B82819381A481B58124
:1038700084179507A607B70760F08C019D01041B0C
:10388000150B260B370B043111052105310508F006
:103890005BC02091171F3091181FEB81FC81E2174C
:1038A000F30789F6481759076A077B0788F1AB8148
:1038B000BC818D919C9111979093181F8093171F35
:1038C000FD0112821382148215821A961D921D9296
:1038D0001D921C921D9716861786108A118A1182D6
:1038E00010825296ED91FC91539754968D919C9134
:1038F00055971995E091171FF091181FFC83EB83E2
:103900000E94C81B2B013C01812C912C54018CCFAF
:103910000E94C81BAB81BC811A960D911D912D91FF
:103920003C911D97DC01CB01801B910BA20BB30BCB
:10393000EB81FC81028113812481358180179107FD
:10394000A207B30728F3B3CFAB81BC8112960D93C6
:103950001D932D933C931597FD01428653866486F3
:1039600075869201A301B401C50100E20E944B22B9
:1039700026873787408B518B2081318153CFA0918F
:10398000151FB091161FBC83AB839201A301B40134
:10399000C50100E20E944B2229833A831A01730178
:1039A0006201EB81FC81EF2B09F46BC0EB81FC81A0
:1039B00082859385A485B58593018201081B190B27
:1039C0002A0B3B0B82819381A481B58180179107DB
:1039D000A207B30760F44681578160857185415025
:1039E0005109610971094683578360877187801B7C
:1039F000910BA20BB30BEB81FC8182839383A48395
:103A0000B583DF01C286D386E486F586E9811E96FA
:103A1000EC931E97FA811F96FC931F9750962C9259
:103A2000509751963C925197FD0186819781A085D0
:103A3000B185892B8A2B8B2BE1F48091151F9091F6
:103A4000161FE817F90709F0FECEBF0185E19FE1D7
:103A50000E94FE1AA70196016B817C8187E19FE19C
:103A60000E948B1A2091151F3091161F3C832B83C7
:103A700098CFAB81BC810D90BC91A02DBC83AB8352
:103A800090CF0E94141B29013A014B015C01E09187
:103A9000171FF091181F309789F182859385A485AF
:103AA000B585B301A201481B590B6A0B7B0B8281C0
:103AB0009381A481B58184179507A607B70708F4F9
:103AC000ADCE841B950BA60BB70B84319105A105D8
:103AD000B10508F4A3CE82839383A483B583428681
:103AE0005386648675869201A301B401C50100E284
:103AF0000E944B2226873787408B518B1092221FC2
:103B00001092211F8091211F9091221F892BD1F4A7
:103B1000C301B2010F900F900F900F90DF91CF91E2
:103B20001F910F91FF90EF90DF90CF90BF90AF90DB
:103B30009F908F907F906F905F904F903F902F90CD
:103B40000C94951B0F900F900F900F90DF91CF91D9
:103B50001F910F91FF90EF90DF90CF90BF90AF90AB
:103B60009F908F907F906F905F904F903F902F909D
:103B700008950F931F93CF93DF93EC010E94E511FB
:103B80008C011A821B821C821D821E821F82188653
:103B900019861A861B861C861D861E861F86188A15
:103BA000198ABE0187E19FE10E94FE1ABE0185E1EC
:103BB0009FE10E94FE1AC801DF91CF911F910F91E2
:103BC0000C94F1114F925F926F927F928F929F921D
:103BD000AF92BF92CF92DF92EF92FF920F931F931B
:103BE000CF93DF93DC015296ED91FC915397EF2B2D
:103BF00009F48DC0280139014A015B01EC010E94E2
:103C0000B91D411451046104710499F5B8E28B1691
:103C10009104A104B10468F580E090E00E940615CB
:103C20006C01E12CF12C80E090E00E940615A0E0F0
:103C3000B0E08C199D09AE09BF09AA27BB278815DA
:103C40009905AA05BB0578F3EA89FB898C899D89CA
:103C5000DF91CF911F910F91FF90EF90DF90CF9068
:103C6000BF90AF909F908F907F906F905F904F909C
:103C700019940E94E5116C010E94141B8A829B8298
:103C8000AC82BD824E825F826886798659017A0154
:103C90002A87BB864C87FD8600E20E944B222E8736
:103CA0003F87488B598B9501A701BE0145284628BF
:103CB0004728B1F487E19FE10E948B1A8091171F7A
:103CC0009091181FC817D90779F48091211F9091FE
:103CD000221F892B49F4B501C7010E94951B04C01E
:103CE00085E19FE10E948B1AC601DF91CF911F9160
:103CF0000F91FF90EF90DF90CF90BF90AF909F908B
:103D00008F907F906F905F904F900C94F111DF91A6
:103D1000CF911F910F91FF90EF90DF90CF90BF90C8
:103D2000AF909F908F907F906F905F904F9008958D
:103D30000C9455174F925F926F927F928F929F9241
:103D4000AF92BF92CF92DF92EF92FF920F931F93A9
:103D5000CF93DF93CDB7DEB768970FB6F894DEBF89
:103D60000FBECDBF2B013C0149015A010E94FB113E
:103D7000892B31F189288A288B2829F062E576E0A1
:103D800083E00E94501A80E090E00E9406154C01EA
:103D9000A12CB12C73016201EE24FF2480E090E09D
:103DA0000E940615A0E0B0E088199909AA09BB098C
:103DB000AA27BB278C159D05AE05BF0578F31EC04D
:103DC000188E1F8A88E99EE19C8B8B8B7E0187E190
:103DD000E80EF11CFE8AED8A61E070E0C7010E94E6
:103DE000101795018401B301A201CE0101960E9432
:103DF000E21D61E070E0C7010E94101768960FB6DF
:103E0000F894DEBF0FBECDBFDF91CF911F910F9110
:103E1000FF90EF90DF90CF90BF90AF909F908F90EA
:103E20007F906F905F904F9008950E94E511FFCFB3
:103E30000895CF93DF931F92CDB7DEB721E030E036
:103E4000AE014F5F5F4F0E94A02089810F90DF91EC
:103E5000CF910895A8950FB6F894A8958091600029
:103E6000886180936000109260000FBE0E94F9206C
:103E70000C945B211F920F920FB60F9211245F9A40
:103E800062E771E080E00E94501A240F351FF901AB
:103E900031974FEA408331974EEF408340E858E135
:103EA00031974083319750833197108231978083C7
:103EB000319790833197108231971082319780E843
:103EC0008083319710823197108231971082C90117
:103ED00083971292E817F907E1F7F901B497608325
:103EE000319770838AE182938F5F8032E1F7C90155
:103EF0008C9708950E9496170E94EB118DB79EB77C
:103F00002091040230910502821B930B90930102D1
:103F10008093000280912A1F90912B1F892B41F4DE
:103F2000809102029091030290932B1F80932A1F8D
:103F3000A091CA1BB091CB1BCD91CDBFDD91DEBF4F
:103F4000FF91EF91DF91CF91BF91AF919F918F91B1
:103F50007F916F915F914F913F912F911F910F91A1
:103F6000FF90EF90DF90CF90BF90AF909F908F9099
:103F70007F906F905F904F903F902F901F900F9089
:103F80000CBE0F900BBE0F900FBE0F9008950E94B5
:103F9000FB11892B09F062C00F920FB6F8940F92B3
:103FA0000BB60F920CB60F921F9211242F923F92D4
:103FB0004F925F926F927F928F929F92AF92BF9239
:103FC000CF92DF92EF92FF920F931F932F933F9325
:103FD0004F935F936F937F938F939F93AF93BF9311
:103FE000CF93DF93EF93FF93A091CA1BB091CB1BAC
:103FF0000DB60D920EB60D920E949617A091CA1B97
:10400000B091CB1BCD91CDBFDD91DEBFFF91EF9184
:10401000DF91CF91BF91AF919F918F917F916F91E0
:104020005F914F913F912F911F910F91FF90EF90D2
:10403000DF90CF90BF90AF909F908F907F906F90C8
:104040005F904F903F902F901F900F900CBE0F905D
:104050000BBE0F900FBE0F900895089581E090E081
:1040600090930F1C80930E1C08951092961B8091C4
:104070000E1C90910F1C892B09F461C00F920FB692
:10408000F8940F920BB60F920CB60F921F92112458
:104090002F923F924F925F926F927F928F929F9258
:1040A000AF92BF92CF92DF92EF92FF920F931F9346
:1040B0002F933F934F935F936F937F938F939F9330
:1040C000AF93BF93CF93DF93EF93FF93A091CA1B5E
:1040D000B091CB1B0DB60D920EB60D920E949617A5
:1040E000A091CA1BB091CB1BCD91CDBFDD91DEBF9E
:1040F000FF91EF91DF91CF91BF91AF919F918F9100
:104100007F916F915F914F913F912F911F910F91EF
:10411000FF90EF90DF90CF90BF90AF909F908F90E7
:104120007F906F905F904F903F902F901F900F90D7
:104130000CBE0F900BBE0F900FBE0F9018950895F8
:10414000CF92DF92EF92FF926B017C01C20ED31EE1
:10415000E11CF11CE1E0CE16E0E1DE06E104F10431
:1041600038F4DA01A20FB31FFA01641B750B0FC0FC
:1041700062E576E083E00E94501AF999FECFCB0108
:104180008E0F9F1F92BD81BDF89A80B58193EA176B
:10419000FB0799F7C901FF90EF90DF90CF9008954A
:1041A0000E940F210C94CD1BCF93DF931F92CDB7AC
:1041B000DEB761E070E0CE0101960E944B2189815B
:1041C000082E000C990B0F90DF91CF910895CF939B
:1041D000DF931F92CDB7DEB7898361E070E0CE0137
:1041E00001960E944E2180E090E00F90DF91CF91E8
:1041F00008950E943A21EEE2FFE189E492E0938380
:1042000082838BE392E09183808384E696E00C9432
:10421000AC2263E087E10E945B135F980895CF931F
:10422000DF9300D01F92CDB7DEB764E070E0CE011F
:1042300001960E94CF2169817A818B819C810E94A5
:1042400028210F900F900F900F90DF91CF9108953C
:10425000611571058105910521F461E070E080E050
:1042600090E06093231F7093241F8093251F9093E9
:10427000261F08950F931F9300E010E020E030E028
:1042800040E855E260E070E080E090E00E941C129F
:104290001F910F91089583EC9FEF0895CF93DF93C3
:1042A000EB01AB01BC0180E090E00E947612CE01F0
:1042B000DF91CF91089580E090E00E94632180E03B
:1042C00090E00C94D313892B29F062E576E083E02B
:1042D0000E94501A1092281F1092271F8BB18360E2
:1042E0008BB9809164008F77809364008091BC00CB
:1042F0008B7F8093BC008CE08093B8008091B900E4
:104300008C7F8093B9008091B9008093B90080912F
:10431000BC0084608093BC000895EF92FF920F93DD
:104320001F93CF93DF9300D01F92CDB7DEB77C01F0
:104330008B01AB0163E270E00E948822CE010196FE
:104340000E94E02120E030E0C8010430110510F4A3
:1043500084E090E028173907B8F4C901B8010E9439
:104360000022F701E80FF91FD901A370BB2781E0F4
:1043700090E08C0F9D1FA80FB91F90818C91892709
:1043800080832F5F3F4FE0CF0F900F900F900F90E3
:10439000DF91CF911F910F91FF90EF900895CF93F0
:1043A000DF93EC010E948D218091291F91E0980FED
:1043B0009093291F988189278883DF91CF91089551
:1043C000DC0191E2E0E0F0E090935700E491EC939F
:1043D000E2E0F0E090935700E4911196EC9311978E
:1043E000E4E0F0E090935700E4911296EC9312977A
:1043F000E1E0F0E090935700949113969C93089518
:10440000AA1BBB1B51E107C0AA1FBB1FA617B707FA
:1044100010F0A61BB70B881F991F5A95A9F7809516
:104420009095BC01CD010895A1E21A2EAA1BBB1BD9
:10443000FD010DC0AA1FBB1FEE1FFF1FA217B30770
:10444000E407F50720F0A21BB30BE40BF50B661F86
:10445000771F881F991F1A9469F76095709580954A
:1044600090959B01AC01BD01CF010895EE0FFF1F98
:10447000881F8BBF0790F691E02D19940E9470223F
:10448000A59F900DB49F900DA49F800D911D1124A8
:10449000089597FB10F8169400080F93083098F0D1
:1044A0000850232F342F452F562F672F782F892F11
:1044B000902DF4CF059497958795779567955795A7
:1044C0004795379527950A95AAF70F9108952A0DD4
:1044D0003B1D4C1D5D1D6E1D7F1D801F911F08958E
:1044E000A29FB001B39FC001A39F700D811D112435
:1044F000911DB29F700D811D1124911D0895FB0126
:10450000DC0102C001900D9241505040D8F708954F
:10451000DC0101C06D9341505040E0F70895FC016B
:1045200001900020E9F7809590958E0F9F1F0895C8
:10453000CF93DF93CDB7DEB7AE014A5F5F4FFA018D
:1045400061917191AF018091301F9091311F0E9454
:104550000B23DF91CF9108950F931F93CF93DF9398
:10456000E091301FF091311F238121FF1BC08C018E
:10457000D0E0C0E0F80181918F016091301F70910F
:10458000311FDB011896ED91FC911997882331F0CA
:104590001995892B79F3DFEFCFEFECCF8AE01995EE
:1045A000892B19F08FEF9FEF02C08D2F9C2FDF9189
:1045B000CF911F910F9108950F931F93CF93DF9386
:1045C000CDB7DEB72E970FB6F894DEBF0FBECDBFC6
:1045D0000E891F8986E08C831A8309838FEF9FE7FA
:1045E0009E838D83AE01465E5F4F688D798DCE01CF
:1045F00001960E940B23EF81F885E00FF11F1082D6
:104600002E960FB6F894DEBF0FBECDBFDF91CF91CF
:104610001F910F9108952F923F924F925F926F9248
:104620007F928F929F92AF92BF92CF92DF92EF9242
:10463000FF920F931F93CF93DF93CDB7DEB72B97E6
:104640000FB6F894DEBF0FBECDBF6C017B018A01AF
:10465000FC0117821682838181FFCCC1CE010196B5
:104660003C01F6019381F70193FD859193FF8191C0
:104670007F01882309F4BAC1853239F493FD85910D
:1046800093FF81917F01853229F4B60190E00E9469
:104690002B25E7CF912C212C312CFFE1F315D8F0FD
:1046A0008B3279F038F4803279F08332A1F4232D03
:1046B00020611DC08D3261F0803369F4232D2160AB
:1046C00016C0832D8260382EE32DE4603E2E2AC072
:1046D000F32DF8601DC037FC2DC020ED280F2A30C7
:1046E00040F08E32B9F436FC81C1232D2064322E85
:1046F00019C036FE06C08AE0989E200D1124922E25
:1047000011C0EAE02E9E200D1124222EF32DF0621E
:104710003F2E08C08C3621F4832D8068382E02C0CD
:10472000883641F4F70193FD859193FF81917F01D4
:104730008111B3CF982F9F7D9554933028F40C5F4F
:104740001F4F9FE399830DC0833631F0833771F09B
:10475000833509F059C021C0F801808189830E5F3B
:104760001F4F88248394912C530113C02801F2E039
:104770004F0E511CF801A080B18036FE03C0692D98
:1047800070E002C06FEF7FEFC5010E9420254C0151
:104790008201F32DFF773F2E16C0280122E0420E42
:1047A000511CF801A080B18036FE03C0692D70E075
:1047B00002C06FEF7FEFC5010E9415254C01F32D5C
:1047C000F0683F2E820133FC1BC0822D90E08816DA
:1047D0009906B0F4B60180E290E00E942B252A945D
:1047E000F4CFF50137FC859137FE81915F01B60169
:1047F00090E00E942B2521102A9421E0821A910832
:104800008114910471F7E8C0843611F0893641F5BE
:10481000F80137FE07C060817181828193810C5F4E
:104820001F4F08C060817181072E000C880B990B07
:104830000E5F1F4FF32DFF763F2E97FF09C0909517
:104840008095709561957F4F8F4F9F4FF0683F2EF9
:104850002AE030E0A3010E946725882E861845C013
:10486000853731F4232D2F7EB22E2AE030E025C08B
:10487000932D997FB92E8F36C1F018F4883579F0D1
:10488000B5C0803719F0883721F0B0C0E92FE0615A
:10489000BE2EB4FE0DC0FB2DF460BF2E09C034FE49
:1048A0000AC0292F2660B22E06C028E030E005C0DD
:1048B00020E130E002C020E132E0F801B7FE07C09D
:1048C00060817181828193810C5F1F4F06C060817E
:1048D000718180E090E00E5F1F4FA3010E94672569
:1048E000882E8618FB2DFF773F2E36FE0DC0232D18
:1048F0002E7FA22E891458F434FE0BC032FC09C05E
:10490000832D8E7EA82E05C0B82CA32C03C0B82CF6
:1049100001C0B92CA4FE0FC0FE01E80DF11D80817D
:10492000803321F49A2D997EA92E09C0A2FE06C0DB
:10493000B394B39404C08A2D867809F0B394A3FC91
:1049400011C0A0FE06C0B21488F4280C922C9B184B
:104950000EC0B21460F4B60180E290E00E942B25F4
:10496000B394F7CFB21418F42B1802C0982C212C52
:10497000A4FE10C0B60180E390E00E942B25A2FEA9
:1049800017C0A1FC03C088E790E002C088E590E072
:10499000B6010CC08A2D867859F0A1FE02C08BE2C8
:1049A00001C080E2A7FC8DE2B60190E00E942B25B9
:1049B000891438F4B60180E390E00E942B259A9484
:1049C000F7CF8A94F301E80DF11D8081B60190E0E4
:1049D0000E942B258110F5CF222009F442CEB6018A
:1049E00080E290E00E942B252A94F6CFF601868182
:1049F000978102C08FEF9FEF2B960FB6F894DEBF22
:104A00000FBECDBFDF91CF911F910F91FF90EF901F
:104A1000DF90CF90BF90AF909F908F907F906F90DE
:104A20005F904F903F902F900895FC01059061504A
:104A300070400110D8F7809590958E0F9F1F0895B4
:104A4000FC016150704001900110D8F7809590955D
:104A50008E0F9F1F08950F931F93CF93DF93FB013A
:104A6000238121FD03C08FEF9FEF2CC022FF16C0D2
:104A700046815781248135814217530744F4A08130
:104A8000B1819D012F5F3F4F318320838C9326811D
:104A900037812F5F3F4F3783268314C08B01EC0192
:104AA000FB010084F185E02D1995892BE1F6D801F1
:104AB00016968D919C911797019617969C938E93BD
:104AC0001697CE01DF91CF911F910F910895FA01B2
:104AD000AA27283051F1203181F1E8946F936E7F3D
:104AE0006E5F7F4F8F4F9F4FAF4FB1E03ED0B4E02E
:104AF0003CD0670F781F891F9A1FA11D680F791F6F
:104B00008A1F911DA11D6A0F711D811D911DA11D7F
:104B100020D009F468943F912AE0269F112430198F
:104B2000305D3193DEF6CF010895462F4770405D2A
:104B30004193B3E00FD0C9F7F6CF462F4F70405DD9
:104B40004A3318F0495D31FD4052419302D0A9F734
:104B5000EACFB4E0A6959795879577956795BA952E
:104B6000C9F700976105710508959B01AC010A2EF4
:104B700006945795479537952795BA95C9F7620FCB
:0E4B8000731F841F951FA01D0895F894FFCF8A
:104B8E000000361F2000A1A2A3A6A7A8A9B1B2D3E8
:104B9E00D4D5D0D1D2D6D7D8AABBCCAFBFA0B07DFA
:104BAE007EFFFF80006F003600000000000000A0B6
:104BBE00007200390000000000000000000001003B
:104BCE000000000000D420000000000002000000E1
:104BDE0000E72000000000476F743A203078002C68
:104BEE0020307800524649442072656164696E67D0
:104BFE0020554944004465766963652049443A204E
:104C0E003078007478310072783100747832007226
:104C1E00783200747833007278330074783400720E
:104C2E007834007365747570282920646F6E650082
:104C3E00496E20737461746532203000496E2073A2
:104C4E007461746532203100496E2073746174652D
:104C5E0032203400496E2073746174653220350041
:104C6E00496E20737461746532203600496E20736C
:104C7E007461746532203700496E207374617465F7
:104C8E0032203800496E2073746174653220390009
:104C9E00496E20737461746532203130000000005B
:104CAE00001D09F80A880500002110422063308497
:104CBE0040A550C660E770088129914AA16BB18C5E
:104CCE00C1ADD1CEE1EFF13112100273325222B5E5
:104CDE00529442F772D662399318837BB35AA3BDAE
:104CEE00D39CC3FFF3DEE36224433420040114E6B5
:104CFE0064C774A44485546AA54BB528850995EEFE
:104D0E00E5CFF5ACC58DD55336722611163006D7C4
:104D1E0076F6669556B4465BB77AA719973887DF4D
:104D2E00F7FEE79DD7BCC7C448E5588668A778400C
:104D3E0008611802282338CCC9EDD98EE9AFF9489D
:104D4E008969990AA92BB9F55AD44AB77A966A7124
:104D5E001A500A333A122AFDDBDCCBBFFB9EEB79ED
:104D6E009B588B3BBB1AABA66C877CE44CC55C2274
:104D7E002C033C600C411CAEED8FFDECCDCDDD2A3D
:104D8E00AD0BBD688D499D977EB66ED55EF44E1304
:104D9E003E322E511E700E9FFFBEEFDDDFFCCF1B8D
:104DAE00BF3AAF599F788F8891A981CAB1EBA10CF8
:104DBE00D12DC14EF16FE18010A100C230E320046D
:104DCE0050254046706760B9839893FBA3DAB33DD4
:104DDE00C31CD37FE35EF3B1029012F322D23235BD
:104DEE0042145277625672EAB5CBA5A89589856EA4
:104DFE00F54FE52CD50DC5E234C324A0148104660D
:104E0E0074476424540544DBA7FAB79987B8975FB3
:104E1E00E77EF71DC73CD7D326F2369106B016575C
:104E2E00667676154634564CD96DC90EF92FE9C8FB
:104E3E0099E9898AB9ABA94458654806782768C0AC
:104E4E0018E1088238A3287DCB5CDB3FEB1EFBF913
:104E5E008BD89BBBAB9ABB754A545A376A167AF1FC
:104E6E000AD01AB32A923A2EFD0FED6CDD4DCDAA63
:104E7E00BD8BADE89DC98D267C076C645C454CA24C
:104E8E003C832CE01CC10C1FEF3EFF5DCF7CDF9BF3
:104E9E00AFBABFD98FF89F176E367E554E745E939C
:104EAE002EB23ED10EF01E404144456543737475DB
:104EBE00761415161781807170333231300001026D
:104ECE000304050607272625242322214037626185
:104EDE0060A7A6A5A4A3A2A1A0131211105051520F
:104EEE00535455565790919293949596970D0A0058
:104EFE00256C6F00256C7500256C7800256C69009B
:104F0E00252E2A660004000106C000C80000030614
:104F1E00080A6D61696E28293A2054686973206900
:104F2E00732052494F5421202856657273696F6E53
:104F3E003A20554E4B4E4F574E20286275696C6481
:104F4E006469723A202F686F6D652F73726976618E
:104F5E006D73696D616C6C6164692F4C6946692F64
:104F6E004C692D46692D696E2D496E647573747288
:104F7E00792D342E302F72696F742F52494F542D64
:104F8E0073706929290A0069646C65006D61696E28
:104F9E0000537461636B20506F696E7465723A20B2
:104FAE003078253034780A002A2A2A2052494F5464
:104FBE00206B65726E656C2070616E69633A0A25AE
:104FCE00730A0A002A2A2A2068616C7465642E0A04
:104FDE000A004641494C45442041535345525449D9
:064FEE004F4E2E000C00E6
:040000030000025C9B
:00000001FF
