:100000000C94E5000C942C010C942C010C942C0104
:100010000C942C010C942C010C942C010C942C01AC
:100020000C942C010C942C010C942C010C942C019C
:100030000C942C010C942C010C942C010C942C018C
:100040000C942C010C9448140C9474140C94A0146B
:100050000C942C010C942C010C942C010C942C016C
:100060000C942C010C94CB110C942C010C941F12A9
:100070000C942C010C942C010C942C010C942C014C
:100080000C942C010C942C010C942C010C942C013C
:100090000C94F5110C942C010C944F120C942C011F
:1000A0000C942C010C942C010C94CC140C94F8148A
:1000B0000C9424150C942C010C942C010C942C0100
:1000C0000C942C010C942C010C942C010C942C01FC
:1000D0000C942C010C942C010C942C010C942C01EC
:1000E0000C942C01150328037A047A045E039E0302
:1000F000D00328043E04610468040C94D0030C94DB
:100100003D010C9461040C9437010C947A040C9416
:1001100015030C9428040C946E0E0C945B0A0C943A
:10012000BA040C944F080C94D90E0C9411110C9431
:1001300042010C9447010C94B2170C947F040C9468
:100140005E030C944B190C94120B0C94CA1D0C9466
:100150009E030C941C1B0C942A0A0C9406200C94ED
:1001600019200C945A190C9428030C943E040C94F6
:100170006804464154414C204552524F523A204265
:1001800041444953525F766563742063616C6C65CA
:10019000642C20756E70726F63657373656420499B
:1001A0006E746572727570742E0A53544F502045E8
:1001B0007865637574696F6E2E0A000037017F04DD
:1001C0005B0A120B6E0ED90E1111832D8093241F22
:1001D00084B78093251F14BE0FB6F894A89580911C
:1001E0006000886180936000109260000FBE11244F
:1001F0001FBECFEFD1E2DEBFCDBF00E00CBF16E0E7
:10020000A0E0B2E0E2EFF9E400E00BBF02C007902B
:100210000D92A835B107D9F72FE1A8E5B6E001C0E6
:100220001D92A432B207E1F710E0C5EED0E000E085
:1002300006C021970109802FFE010E946821CE3D52
:10024000D10780E00807A9F70E942E010C94F7243B
:100250000E9432010C94F7240C946C1E0E943716F5
:100260000C945D190E94EE010E940103FDCF60E035
:1002700070E088E596E00C94DF0E0E94BA0A80E0F8
:1002800090E008950E94EF0A80E090E00895FF92C8
:100290000F931F93CF93DF939C01423008F498C0D3
:1002A000FB0190818091F518981709F491C0809115
:1002B0001202981381C0DFEFD40F8B010F5F1F4F25
:1002C00069E472E088E099E10E94FA0EF12CCD2FEA
:1002D000D0E021978F2D90E08C179D0794F4F801C2
:1002E000E80FF91F608170E043E088E099E10E9427
:1002F000061061E572E088E099E10E94FA0EF3943D
:10030000E9CFC00FD11F688170E043E088E099E138
:100310000E94141088818093F61790910F02891320
:100320000AC021E030E03093F7182093F61830939C
:1003300014022093130290910C0289130CC021E047
:1003400030E03093F7182093F61822E030E0309335
:100350001402209313029091090289130CC021E02A
:1003600030E03093F7182093F61823E030E0309314
:100370001402209313022091F6183091F7182930B7
:10038000310551F490910702891306C02AE030E04C
:100390003093F7182093F6182091F6183091F7183B
:1003A0002A303105A9F490910802891311C01092E6
:1003B000F7181092F6180CC0215A374049F081EA1C
:1003C00097E0DF91CF911F910F91FF900C947C0AE1
:1003D000DF91CF911F910F91FF900895CF92DF92FF
:1003E000EF92FF920F931F9388EF98E10E94E90626
:1003F00066E572E088E099E10E94FC0E60E070E042
:10040000CB010E944B1E8093F51867E672E088E0EE
:1004100099E10E94FA0E6091F51870E043E088E0DF
:1004200099E10E94141085E7C82E82E0D82E91EA47
:10043000E92E97E0F92E0DE311E028E030E046E0E8
:1004400060E072E086EF95E10E948D1829E7C22EE8
:1004500022E0D22E02E411E028E030E045E060E046
:1004600072E086EF93E10E948D1861E070E080E019
:1004700090E00E94B10E3DE7C32E32E0D32E4CE453
:10048000E42E47E0F42E0DE311E028E030E046E0F2
:1004900060E072E086EF91E10E948D1851E8C52E70
:1004A00052E0D52E02E411E028E030E045E060E0C3
:1004B00072E086EF9FE00E948D1861E070E080E0BE
:1004C00090E00E94B10E65E8C62E62E0D62E77EF6E
:1004D000E72E76E0F72E0DE311E028E030E046E06D
:1004E00060E072E086EF9DE00E948D18E9E8CE2E74
:1004F000E2E0DE2E02E411E028E030E045E060E0DA
:1005000072E086EF9BE00E948D1861E070E080E071
:1005100090E00E94B10EFDE8CF2EF2E0DF2EA2EABD
:10052000EA2EA6E0FA2E0DE311E028E030E046E0E6
:1005300060E072E086EF99E00E948D18B1E9CB2E61
:10054000B2E0DB2E02E411E028E030E045E060E0BC
:1005500072E086EF97E00E948D1861E070E080E025
:1005600090E00E94B10E62E070E086E090E00E94B0
:100570008C0E62E070E087E090E00E948C0E60E0FC
:1005800070E085E090E00E948C0E61E070E088E011
:1005900090E00E948C0E61E070E089E090E00E94A3
:1005A0008C0E61E070E08AE090E00E948C0E61E0C9
:1005B00070E08BE090E00E948C0E60E070E088E0DC
:1005C00090E00E949D0E60E070E089E090E00E9463
:1005D0009D0E60E070E08AE090E00E949D0E60E079
:1005E00070E08BE090E00E949D0E65E972E088E08B
:1005F00099E11F910F91FF90EF90DF90CF900C94B5
:10060000FC0ECF93DF931F921F92CDB7DEB7E09120
:10061000F618F091F718EB30F10508F06BC1882758
:10062000EE58FF4F8F4F0C94682162EA72E088E029
:1006300099E10E94FC0E60E070E088E090E00E948A
:100640009D0E60E070E089E090E00E949D0E13C175
:100650006EEA72E088E099E10E94FC0E809113023C
:10066000909114029C01215031092230310588F407
:1006700087E090E00E94A30E892BA1F060E070E07B
:100680008AE090E00E949D0E61E070E08BE090E0D7
:100690002FC1039709F02EC186E090E00E94A30EBF
:1006A000892B19F484E090E0E2C061E070E08AE018
:1006B00090E00E949D0E60E070E0E8CF6AEB72E08F
:1006C00088E099E10E94FC0E80911202898380915A
:1006D00013029091140281309105A1F480911002CF
:1006E0008A8342E0BE016F5F7F4F81EA97E00E94FC
:1006F0007C0A892B01F16AE070E080E090E00E94C2
:10070000B10E19C08230910551F480910D028A8397
:1007100042E0BE016F5F7F4F8CE497E0E8CF039724
:1007200051F480910A028A8342E0BE016F5F7F4FDD
:1007300087EF96E0DCCF85E090E0BEC066EC72E02B
:1007400088E099E10E94FC0E8091130290911402BE
:100750008130910549F461E070E088E090E00E940A
:100760009D0E60E070E00BC08230910569F460E09E
:1007700070E088E090E00E949D0E61E070E089E00A
:1007800090E00E949D0E02C0039729F385E090E05F
:100790000E94A30E019709F0ADC086E090E08CC0E6
:1007A00062ED72E088E099E10E94FC0E60E070E08A
:1007B00088E090E00E949D0E60E070E089E090E0AB
:1007C0000E949D0E60E070E08AE090E00E949D0E25
:1007D00060E070E08BE090E00E949D0E809112023C
:1007E0008983809111028A8380911302909114026F
:1007F0008130910589F442E0BE016F5F7F4F81EA4D
:1008000097E00E947C0A892B01F16AE070E080E0A9
:1008100090E00E94B10E19C08230910551F4809190
:100820000E028A8342E0BE016F5F7F4F8CE497E047
:10083000E8CF039751F480910B028A8342E0BE0116
:100840006F5F7F4F87EF96E0DCCF87E090E034C0AA
:100850006EED72E088E099E10E94FC0E86E090E087
:100860000E94A30E892B09F020CF88E090E090939E
:10087000F7188093F61860E070E019CF6AEE72E026
:1008800088E099E10E94FC0E809112028983809198
:1008900006028A8342E0BE016F5F7F4F82EA96E0E4
:1008A0000E947C0A892B31F06AE070E080E090E0E1
:1008B0000E94B10E89E090E09093F7188093F618AB
:1008C00019C066EF72E088E099E10E94FC0E12C048
:1008D00062E073E088E099E10E94FC0E61E070E064
:1008E00088E090E00E949D0E60E070E089E090E07A
:1008F0000E949D0E0F900F90DF91CF9108950F935E
:100900001F9360E070E088E099E10E94DF0E41E310
:1009100065E388EF98E10E94590500E010E027E4C4
:1009200031E040E050E062E070E081EA97E00E9450
:10093000610A27E431E042E050E064E070E08CE4DA
:1009400097E00E94610A27E431E041E050E063E073
:1009500070E087EF96E00E94610A27E431E043E00F
:1009600050E06CE070E082EA96E00E94610A1F911C
:100970000F910895BC016E5F7F4FDC01ED91FC91FA
:100980000190F081E02D40E0199591E0811190E017
:10099000892F0895CF93DF931F92CDB7DEB7698378
:1009A00041E050E0BE016F5F7F4F0E94D01089810F
:1009B0000F90DF91CF9108959F92AF92BF92CF9207
:1009C000DF92EF92FF920F931F93CF93DF931F92CB
:1009D0001F92CDB7DEB76C01A42E7901902E60680E
:1009E000B62E00E021E040E059E06DE370E0CE017A
:1009F00001960E94281069817A818BE79BE10E9411
:100A0000A310F601868560E070E090E00E949D0EE4
:100A1000AA946B2D8BE79BE10E94CA049920B1F048
:100A20000FEF10E001C0000F9A94EAF76B2D8BE7EF
:100A30009BE10E94CA04202F2095F7019081922308
:100A40008023892B80839924939401C0912C892D34
:100A500090E09A1460F48701080F191F6B2D8BE743
:100A60009BE10E94CA04F80180839394F0CFE80EC2
:100A7000F91E60E08BE79BE10E94CA04F7018083C6
:100A8000F601868561E070E090E00E949D0E8BE7A4
:100A90009BE10E94C2100F900F90DF91CF911F91A8
:100AA0000F91FF90EF90DF90CF90BF90AF909F900D
:100AB0000895FC0183E193E09183808366874787F3
:100AC0000895DF92EF92FF920F931F93CF93DF93DE
:100AD0001F921F92CDB7DEB77C01D62E142F00E0F7
:100AE00021E040E059E06DE370E0CE0101960E9404
:100AF000281069817A818BE79BE10E94A310F7019E
:100B0000868560E070E090E00E949D0E6D2D8BE781
:100B10009BE10E94CA04612F8BE79BE10E94CA04FB
:100B2000F701868561E070E090E00E949D0E8BE702
:100B30009BE10E94C2100F900F90DF91CF911F9107
:100B40000F91FF90EF90DF900895BF92CF92DF92C8
:100B5000EF92FF920F931F93CF93DF931F921F92F9
:100B6000CDB7DEB77C01162FD42EB22EC32E00E0F7
:100B700021E040E059E06DE370E0CE0101960E9473
:100B8000281069817A818BE79BE10E94A310F7010D
:100B9000868560E070E090E00E949D0E612F8BE7FB
:100BA0009BE10E94CA040B2D1C2DC8018D0D911DC7
:100BB0006C010C151D0541F0F80161918F018BE767
:100BC0009BE10E94CA04F5CFF701868561E070E0E1
:100BD00090E00E949D0E8BE79BE10E94C2100F9057
:100BE0000F90DF91CF911F910F91FF90EF90DF90C9
:100BF000CF90BF900895EF92FF920F931F93CF93E2
:100C0000DF931F921F92CDB7DEB77C01162F00E055
:100C100021E040E059E06DE370E0CE0101960E94D2
:100C2000281069817A818BE79BE10E94A310F7016C
:100C3000868560E070E090E00E949D0E612F606804
:100C40008BE79BE10E94CA0460E08BE79BE10E9476
:100C5000CA04182FF701868561E070E090E00E94D9
:100C60009D0E8BE79BE10E94C210812F0F900F9089
:100C7000DF91CF911F910F91FF90EF9008950F9307
:100C800041110E94DC040F9108950F931F93CF939D
:100C9000DF938C01D62FC42F0E94FB05482F4C2BCD
:100CA0006D2FC801DF91CF911F910F910C946105B9
:100CB0000F931F93CF93DF938C01D62FC42F0E94E5
:100CC000FB05C0954C2F48236D2FC801DF91CF91B4
:100CD0001F910F910C946105CF92DF92EF92FF92DA
:100CE0000F931F93CF93DF93EC016B01142F7901C6
:100CF00040E062E00E94610544E06AE0CE010E94AB
:100D0000610540E864E1CE010E9461059601412F32
:100D100062E1CE010E94A50543E062E0CE010E949F
:100D2000610508E813E16AE0CE010E94FB0582FF3D
:100D300013C040E062E0CE010E94610564E4CE0190
:100D40000E94FB05F701808362E4CE010E94FB054F
:100D5000F701818380E004C00150110921F783E08D
:100D6000DF91CF911F910F91FF90EF90DF90CF9087
:100D700008950F931F93CF938C014FE062E00E9480
:100D80006105C3E062E370E080E090E00E94B10E94
:100D900062E0C8010E94FB0584FF02C0C15091F7C8
:100DA000CF911F910F910895CF93DF93EC0168E2EB
:100DB0000E94FB05982F9370933041F0482F4360B9
:100DC00068E2CE01DF91CF910C946105DF91CF9164
:100DD0000895CF93DF93EC018E8561E070E090E0A1
:100DE0000E948C0E8E8561E070E090E00E949D0E66
:100DF0008F858F3F09F45CC060E070E090E00E9456
:100E00008C0E8F8590E00E94A30E892B09F050C0B4
:100E10008F8561E070E090E00E948C0E8F8560E02D
:100E200070E090E00E949D0E62E070E080E090E053
:100E30000E94C30E8F8561E070E090E00E949D0EDD
:100E400062E370E080E090E00E94B10E40E064E276
:100E5000CE010E94610540E066E2CE010E9461057C
:100E600046E268E4CE010E94610540E864E5CE01F7
:100E70000E94610549EA66E5CE010E94610543E0F2
:100E800068E5CE010E94610548EE6AE5CE010E9448
:100E9000610540E46AE2CE010E9461054DE362E231
:100EA000CE010E946105CE01DF91CF910C94D40652
:100EB000CE010E94B906CACF3F924F925F926F92C5
:100EC0007F928F929F92AF92BF92CF92DF92EF92DA
:100ED000FF920F931F93CF93DF931F921F92CDB773
:100EE000DEB73C01162F942E2901A114B10419F08C
:100EF000F501408101C040E0342EF0E18F9E300CBE
:100F0000112440E062E0C3010E9461054FE768E000
:100F1000C3010E94610540E864E1C3010E946105CC
:100F20009201402F62E1C3010E94A505432D6AE1B1
:100F3000C3010E946105412F62E0C3010E94610567
:100F40001C3029F440E86AE1C3010E94450600ED27
:100F500017E068E0C3010E94FB05982F992139F43E
:100F600080FD03C001501109A1F783E065C06CE06A
:100F7000C3010E94FB05182F837109F05AC0E114C8
:100F8000F104F9F0C114D104E1F064E1C3010E945D
:100F9000FB05F6019081981708F445C08083082D61
:100FA0009701482F62E1C3010E943F0668E1C30137
:100FB0000E94FB058770A114B10421F0F501808324
:100FC00001C080E013FD31C0E114F10481F1C114CE
:100FD000D10469F19F89992351F1F6014081413093
:100FE00021F4843041F58FEF27C0423020F1811188
:100FF00022C042509E012F5F3F4FB701C3010E94A4
:101000006C06811119C0F6018081E80EF11CF70110
:1010100032979081898198130EC0319690818A8190
:10102000981309C004C084E007C082E005C080E0D6
:1010300003C081E001C087E00F900F90DF91CF9156
:101040001F910F91FF90EF90DF90CF90BF90AF90E6
:101050009F908F907F906F905F904F903F900895FA
:101060008F92AF92BF92CF92DF92EF92FF920F9347
:101070001F93AF928C2C570168017901042F9B01BB
:1010800040E36CE00E945C070F901F910F91FF906E
:10109000EF90DF90CF90BF90AF908F9008952F92F8
:1010A0003F924F925F926F927F928F929F92AF92F8
:1010B000BF92CF92DF92EF92FF920F931F93CF9345
:1010C000DF93CDB7DEB72C970FB6F894DEBF0FBE17
:1010D000CDBF413508F005C1342E3B014C0140E83D
:1010E0006CE10E9458062224239432E0231691F0EA
:1010F00083E02816E1F091E02912F7C083E98983A3
:101100003320D1F081E0F3019081953008F480E044
:10111000B12C17C0F5E9F983332081F081E0F301A8
:101120009081983008F480E043E0B42E0AC087E94B
:10113000898336E0B32E04C0B12C02C023E0B22E66
:1011400080E0D32CF8E0BF9ED0181124D7FCD12C1E
:10115000882321F098E89B8333E001C032E021E04E
:101160009D2D977009F420E09D2D95959595959569
:10117000290F31F4882309F491C038E0D30E8EC0D2
:10118000811102C094E001C093E0291708F4922F66
:10119000EB2DF0E03196E60DF71D232F4191A1E0F4
:1011A000B0E0AC0FBD1FA20FB11D4C932F5F422FBB
:1011B000431B491798F3DECF8111DDC09FE19D15D8
:1011C0000CF495C080E2D82E90E79A839B818C81A5
:1011D00089279D8189279E8189278F839E01285F8A
:1011E0003F4F47E0BE016F5F7F4FC4010E946C0616
:1011F0008111C1C01B86E3E0EA87CE0107962C016E
:1012000099E09C87CB844C2D4295407F4C0D6AE140
:10121000C4010E946105A12CCE010B967C018E01B8
:10122000065F1F4F92014C85BE016F5F7F4FC40167
:101230000E943008823009F0BFCF6CE1C4010E94E7
:10124000FB0585FD50C08F7109F480E2282F30E046
:101250004D2DDD0C550B421753070CF046C0D82E10
:1012600085958595859591E0980F422F477081E08F
:1012700009F480E0890FE1E0F0E0EC0FFD1FE80FDA
:10128000F11D215031092770332781E090E001C022
:10129000880F2A95EAF79081892B80838FE18D153D
:1012A0000CF492CF9D2D97709B878D2D85958595FC
:1012B00085958E5F292FE0E18E9F200D11242A83D2
:1012C00021E0911101C020E0280F2C874424439491
:1012D000512C4C0E5D1E480E511CF9E0F81BFA878C
:1012E00091CF86E048C082E046C085E044C08B8153
:1012F0008838F1F182E094E0EB2DF0E03196E60DD4
:10130000F71D980FA1E0B0E0AC0FBD1FA80FB11DF5
:101310002C9121938F5F9813F5CF8A85833021F527
:101320008B85811121C09E012D5F3F4F41E0B201AD
:10133000C4010E946C0681111EC09B81F201818153
:10134000981314C09C818281981310C0808182FF01
:1013500002C02394CACEF3018387822D880F820DA9
:101360008F5F808380E007C081E005C087E003C015
:1013700083E093E0C1CF2C960FB6F894DEBF0FBE8A
:10138000CDBFDF91CF911F910F91FF90EF90DF9034
:10139000CF90BF90AF909F908F907F906F905F9015
:1013A0004F903F902F9008954F925F926F927F924F
:1013B0008F929F92AF92CF92EF92FF920F931F93D3
:1013C000CF93DF931F921F92CDB7DEB76A8341158B
:1013D000510539F1F9016081623018F149012A01A2
:1013E0003C0140E86CE10E94580687E08983A12C0B
:1013F000C12CCE0101967C018401920141E0BE0125
:101400006E5F7F4FC3010E94300881110DC0F4014F
:101410008081823041F481E09981911105C080E0A2
:1014200003C084E001C081E00F900F90DF91CF9165
:101430001F910F91FF90EF90CF90AF909F908F9062
:101440007F906F905F904F9008959A01AB0166E294
:101450000C94D4090F931F93CF93DF9300D0CDB793
:10146000DEB78C0182E08B8340E064E2C8010E9419
:10147000610540E066E2C8010E94610546E268E459
:10148000C8010E946105AE014D5F5F4FBE016F5FF5
:101490007F4FC8010E94250A982F81E0992319F0F7
:1014A000923009F080E00F900F900F90DF91CF9174
:1014B0001F910F91089560E070E082E599E10C942E
:1014C000DF0EEF92FF920F931F93CF93DF93EC0108
:1014D00079010E94180BF98AE88A1B8B0A8BFE019E
:1014E000EC5AFF4F10821F861E86DF91CF911F910D
:1014F0000F91FF90EF900895AF92BF92CF92DF923D
:10150000EF92FF920F931F93CF93413438F5C42F7E
:101510006B018C017C018EE0E80EF11C61E070E053
:10152000C7010E9442165801E4E5AE0EB11CF50158
:101530008081882321F0C7010E9487160FC04C2F9D
:1015400050E0B601C80144960E94B121F501C08364
:10155000C7010E94871680E090E002C08FEF9FEFE6
:10156000CF911F910F91FF90EF90DF90CF90BF90A0
:10157000AF900895EC018C01025F1F4F7C0184E560
:10158000E80EF11C5E01E4E1AE0EB11C61E070E01A
:10159000C8010E944216F701D080C8010E94871638
:1015A000DD20B1F04D2DB501CE010E94150C61E09A
:1015B00070E0C8010E944216F7011082C8010E9423
:1015C0008716EA89FB89309709F3CE011995DECF9A
:1015D00064E670E080E090E00E94B10ED7CFCF9338
:1015E000DF93CDB7DEB7C054D1090FB6F894DEBF94
:1015F0000FBECDBF8C0140E4BE016F5F7F4FC801BD
:101600000E940B0E97FDF7CFD8015096ED91FC91FB
:101610005197309781F3482FBE016F5F7F4FC8010C
:101620001995E9CF60E070E08CE999E10C94DF0E48
:101630000F931F93CF93DF93EC01CB018A01798342
:10164000688361E070E00E948C0E1F830E83C801E6
:101650000E945C1581E090E09D878C87DF91CF919F
:101660001F910F910895CF93DF93EC010E94CF0E4D
:101670006A837B838C839D83DF91CF910895CF9282
:10168000DF92EF92FF920F931F93CF93DF93EC01C2
:10169000F62E0E94CF0E28EB3BE0F29E6001F39EF7
:1016A000D00C11240D2C000CEE08FF080A811B81C0
:1016B0002C813D81C00ED11EE21EF31E6C157D05EE
:1016C0008E059F0550F4A7019601261B370B480B8A
:1016D000590BCA01B9010E94C30ECA82DB82EC8297
:1016E000FD82DF91CF911F910F91FF90EF90DF90DE
:1016F000CF900895CF93DF93EC0160E070E0888194
:1017000099810E949D0E65E0CE010E943F0B61E031
:1017100070E0888199810E949D0E65E0CE01DF9185
:10172000CF910C943F0BCF93DF93EC0161E070E01D
:10173000888199810E949D0E65E0CE010E943F0B39
:1017400060E070E0888199810E949D0E65E0CE0185
:10175000DF91CF910C943F0BCF92DF92EF92FF92EB
:101760000F931F93CF936C01C42F00E010E0E62E7F
:10177000F12CC701002E01C0880F0A94EAF787FFF9
:1017800006C0CF5FC6010E947A0BC53021F4C601A6
:101790000E94930BC0E00F5F1F4F0830110549F7FF
:1017A0008C2FCF911F910F91FF90EF90DF90CF90F2
:1017B00008950F931F93CF93DF938C010E94330BF7
:1017C000C8E0D0E0C8010E94930BC8010E947A0BC8
:1017D0002197C1F7DF91CF911F910F910895EF925B
:1017E000FF920F931F93CF93DF938C01C0E0D0E063
:1017F0008EE7E82EF12CC7010C2E01C0880F0A9449
:10180000EAF787FF04C0C8010E947A0B03C0C80131
:101810000E94930B2196C830D10569F7DF91CF91D3
:101820001F910F91FF90EF900895AF92BF92CF92CA
:10183000DF92EF92FF920F931F93CF93DF93EC0110
:101840007B01042F0E94D90BCE010E94EF0B670190
:101850005701A00EB11C10E0CA14DB0449F0F601D8
:1018600061916F01412FCE010E94AC0B182FF4CF74
:10187000602FC7010E94740E082F412F692FCE01DF
:101880000E94AC0B482F602FCE010E94AC0BCE0102
:10189000DF91CF911F910F91FF90EF90DF90CF904C
:1018A000BF90AF900C94EF0BCF92DF92EF92FF922C
:1018B0000F931F93CF93DF938C010E94330B3AE574
:1018C000C32ED12CE12C40E8F42ECFEFDFE762E00D
:1018D000F801868197810E94EB159B016C177D07AB
:1018E0000CF4EB01E216F3060CF47B0161E0C80195
:1018F0000E943F0BF1E0CF1AD10849F7C7018C1BBA
:101900009D0BC2975CF0CE0DDF1DD7FD2196CE0159
:1019100095958795F8019187808702C08FEF9FEF9B
:10192000DF91CF911F910F91FF90EF90DF90CF90BB
:1019300008950F931F93CF93DF93EC0162E08E81A4
:101940009F810E94EB15288539858901330F220B71
:10195000330BE091E619601771078207930764F46F
:1019600081E08E0F8093E619F0E0E951F64E8FE5A5
:10197000808380E090E00BC081E08E0F8093E619B9
:10198000F0E0E951F64E8DE2808381E090E0DF9156
:10199000CF911F910F910895AF92BF92CF92DF9296
:1019A000EF92FF920F931F93CF93DF93EC010E946E
:1019B000990C6C0180EFE82EF12C00E010E0CE01D4
:1019C0000E94990C5C018C159D0519F40F5F1F4F47
:1019D0000CC0083011053CF065E0CE010E943F0BC1
:1019E00080E090E00DC000E010E061E0CE010E94D8
:1019F0003F0B81E0E81AF108650109F78FEF9FEFCF
:101A0000DF91CF911F910F91FF90EF90DF90CF90DA
:101A1000BF90AF900895CF92DF92EF92FF920F9315
:101A20001F93CF93DF938C01C5E0D0E0E12CF12C24
:101A3000C8010E94990CE80EF91E61E0C8010E94DD
:101A40003F0B2197A9F785E0C82ED12CC0E0D0E04C
:101A5000C8010E94990CC80FD91F61E0C8010E94FB
:101A60003F0B81E0C81AD10899F783E0E816F1042A
:101A70002CF423976CF48FEF9FEF0CC081E090E083
:101A8000239714F480E090E091958195910902C02C
:101A900081E090E0DF91CF911F910F91FF90EF9047
:101AA000DF90CF900895CF93DF93EC01CE010E9499
:101AB0000B0D9C012F5F3F4F22303105B8F7DF91AE
:101AC000CF9108950F931F93CF93DF93EC010E9462
:101AD000530D8F3F2FEF9207D9F006E010E0CE01B3
:101AE0000E940B0D8F3F2FEF920791F0892BA9F3E6
:101AF00001501109A1F7CE010E940B0D21E030E049
:101B0000892B11F420E030E088279927821B930B62
:101B1000DF91CF911F910F910895CF92DF92EF92B5
:101B2000FF920F931F93CF93DF93EC017B01FB0197
:101B3000108200E010E080E8C82ED12C8A859B85B9
:101B40000597A4F0CE010E940B0D8F3FFFEF9F077A
:101B500089F1892B19F41B861A8608C0CE010E94D0
:101B60000B0D892B29F581E090E024C0CE010E9465
:101B70000B0D009799F00197D9F48A859B85019602
:101B80009B878A87F7012081C601002E02C09595A8
:101B900087950A94E2F7822B808302C01B861A86FF
:101BA0000F5F1F4F0830110549F680E090E002C03A
:101BB0008FEF9FEFDF91CF911F910F91FF90EF90EB
:101BC000DF90CF900895EF92FF920F931F93CF93E2
:101BD000DF937C01042FFC0113861286EB0110E0D9
:101BE000101781F0BE01C7010E948D0D8F3FFFEFDE
:101BF0009F0751F0019719F4812F90E005C01F5FF6
:101C00002196EECF8FEF9FEFDF91CF911F910F9134
:101C1000FF90EF900895FF920F931F93CF93DF9360
:101C2000EC018B01F42E1092E6198C859D85892B91
:101C300009F1CE010E94540C019639F4E091E619A5
:101C4000F0E0E951F64E10822DC0CE010E94CC0C7E
:101C50008F3F4FEF940739F0CE010E94620D8F3F06
:101C60002FEF920739F4E091E619F0E0E951F64ED2
:101C700010822EC04F2DB801CE010E94E30D21E04D
:101C800030E08F3F4FEF940711F020E030E03D87C8
:101C90002C87E091E619F0E0E951F64E108282308F
:101CA00091051CF48FEF9FEF13C0EC0122976C2F6E
:101CB000C8010E94740EF801EC0FFD1F208130E076
:101CC000322F22274181242B8217930759F7CE0107
:101CD000DF91CF911F910F91FF90089560E070E028
:101CE00087EE9AE10C94DF0E482FDC0180E090E053
:101CF0002A2F241B261778F42D91E92FFF27E2279E
:101D0000EE0FFF1FE75EFC4F20813181982F88275F
:101D100082279327EDCF08956115710529F0623070
:101D2000710521F462E003C060E001C063E0FC01E2
:101D3000E75EFA4F80810C948D12875E9A4FFC010A
:101D400080810C94FB12875E9A4FFC0180810E9477
:101D5000C21221E030E0892B11F420E030E0C9010B
:101D600008959B01AC01A8EEB3E00E94702122E02F
:101D700096958795779567952A95D1F720E030E07D
:101D8000A9010C94CC1D22E09695879577956795CF
:101D90002A95D1F720E030E0A9010C94CC1D0E94D7
:101DA000FA1A22E0660F771F881F991F2A95D1F72C
:101DB000089560E070E081E39BE10C94DF0EFC018C
:101DC0007183608308950F931F93CF93DF938C01EA
:101DD000EB01CB010E94C121AC01BE01F801808161
:101DE00091810E94A811CE01DF91CF911F910F9197
:101DF0000C94C1210C94E30E0F931F93CF93DF93A8
:101E0000EC010E94E30E8C016FE575E0CE010E94AB
:101E1000E30EC8010296DF91CF911F910F910895B3
:101E2000CF93DF93EA01FC01808191810E94A81188
:101E3000CE01DF91CF9108954F925F926F927F9282
:101E40008F929F92AF92BF92EF92FF920F931F9348
:101E5000CF93DF93CDB7DEB7C054D1090FB6F89456
:101E6000DEBF0FBECDBF7C01213009F450C068F049
:101E7000223009F453C0233009F06DC07F936F9373
:101E80005F934F938AE695E04FC080E090E0812C0D
:101E9000912CA12CB0E8BB2E95018401082E04C022
:101EA00036952795179507950A94D2F7042315239D
:101EB00026233723012B022B032B11F40196ECCFA1
:101EC0009E012F5F3F4FF901412C512C612CA0E85E
:101ED0007A2E8F01021B130B8032910598F5530166
:101EE0004201082E04C0B694A794979487940A944C
:101EF000D2F784229522A622B72289288A288B2805
:101F000011F4A0E301C0A1E3A1930196E2CF7F9376
:101F10006F935F934F9382E695E006C07F936F9334
:101F20005F934F9386E695E09F938F93CE01019642
:101F30009F938F930E940E228C010FB6F894DEBF00
:101F40000FBECDBFA801BE016F5F7F4FC7010E94CA
:101F5000100FC80102C080E090E0C05CDF4F0FB6F8
:101F6000F894DEBF0FBECDBFDF91CF911F910F91CF
:101F7000FF90EF90BF90AF909F908F907F906F9069
:101F80005F904F900895CF92DF92EF92FF920F9360
:101F90001F93CF93DF93CDB7DEB7C054D1090FB6EF
:101FA000F894DEBF0FBECDBF6C017F936F935F933C
:101FB0004F938EE695E09F938F93CE0101967C011F
:101FC0009F938F930E940E228C01AC01B701C60132
:101FD0000E94100F0FB6F894DEBF0FBECDBFC80130
:101FE000C05CDF4F0FB6F894DEBF0FBECDBFDF91F0
:101FF000CF911F910F91FF90EF90DF90CF900895B8
:10200000223011F40C94C30F0C941C0F242F423077
:1020100031F4AB01770F660B770B0C940010AB011A
:1020200060E070E00C941C0F0F931F93CF93DF932D
:10203000EC010E9406108C016FE575E0CE010E9454
:10204000E30EC8010296DF91CF911F910F91089581
:102050000F93FC01213029F064E476E083E00E94D4
:102060008219023041F0033041F0013011F010824A
:1020700006C084E003C088E001C08CE08083403863
:1020800086E9580788E968077105A8F440348BE4AD
:1020900058078CE46807710588F4403482E45807D7
:1020A0008FE06807710568F440385A416640710551
:1020B00058F483E00FC080E090E008C081E090E039
:1020C00005C082E090E002C083E090E0DC01A95806
:1020D000BA4F8C9181830F9108950F9300E021E016
:1020E00040E059E06DE370E00E9428100F910895E0
:1020F000EF92FF920F931F93CF93DF931F921F9244
:10210000CDB7DEB78C017B0102960E946D10F801FD
:10211000F182E082CE0101960E946D1089819A8140
:10212000F8019383828314821682158210861782A7
:10213000128611860F900F90DF91CF911F910F9112
:10214000FF90EF9008950F931F93CF93DF93EC01CF
:10215000162F072F05960E941518202F412F6FEF7D
:10216000888199810E941513892B29F064E476E017
:1021700083E00E94821981E08C83DF91CF911F91CF
:102180000F910895CF93DF93EC01888199810E948C
:1021900033131C82CE010596DF91CF910C94191850
:1021A000AF92BF92CF92DF92EF92FF920F931F9365
:1021B000CF93DF93EC015B017A016C0185E0C80EDF
:1021C000D11CC6010E9415188C8181110EC02B8173
:1021D0004A816FEF888199810E941513892B29F01C
:1021E00064E476E083E00E9482198501950140E075
:1021F0006FEF888199810E943F138C81811104C007
:10220000888199810E943313C601DF91CF911F917C
:102210000F91FF90EF90DF90CF90BF90AF900C9414
:10222000191860E070E08BE79BE10C9478100FB612
:10223000802DF894807890E008950FB6802D7894E2
:10224000807890E00895FF920F93F82E0FB7087FE3
:10225000F02AFFBE0F91FF9008958091861B90E0B9
:10226000089521E02093861BFC01EE0FFF1FE55827
:10227000FA4F0190F081E02D6681880F991F880F39
:10228000991FDC01A857B44EED91FC91119712965D
:102290008D919C91139719950C94671FEF92FF9263
:1022A0000F931F93CF93DF9379018230910508F04C
:1022B00046C020E030E0E091871BEE2319F021506A
:1022C0003109C9F7FC01EE0FFF1FEE0FFF1FE857A2
:1022D000F44EF182E08213830283880F991FFC0180
:1022E000E558FA4FC081D1811982188286E08A832D
:1022F000DB01CA0180589B47A14EBF4FE3E0880F26
:10230000991FAA1FBB1FEA95D1F79A01AB01F4E010
:10231000220F331F441F551FFA95D1F7BC01CD0181
:102320000E944621215031093D832C83EF2811F072
:1023300088ED01C088E4898380E090E002C08FEFDF
:102340009FEFDF91CF911F910F91FF90EF90089534
:10235000CF93DF9321E0082E01C0220F0A94EAF701
:10236000DB01460F571F880F991FFC01E558FA4FF4
:10237000A417B50769F0C081D181888185FFFDCFA1
:102380008091871B822B8093871B8D918E83F0CF4A
:10239000DF91CF9108951F920F920FB60F921124E3
:1023A0000BB60F922F933F934F935F936F937F934F
:1023B0008F939F93AF93BF93EF93FF9380E090E051
:1023C0000E943111FF91EF91BF91AF919F918F9139
:1023D0007F916F915F914F913F912F910F900BBE25
:1023E0000F900FBE0F901F9018951F920F920FB66F
:1023F0000F9211240BB60F922F933F934F935F933D
:102400006F937F938F939F93AF93BF93EF93FF93BC
:1024100081E090E00E943111FF91EF91BF91AF9167
:102420009F918F917F916F915F914F913F912F91EC
:102430000F900BBE0F900FBE0F901F9018951F921C
:102440000F920FB60F9211240BB60F922F933F935A
:102450004F935F936F937F938F939F93AF93BF93AC
:10246000EF93FF9381E08093861B8091871B8E7F83
:102470008093871B0E94671FFF91EF91BF91AF91DF
:102480009F918F917F916F915F914F913F912F918C
:102490000F900BBE0F900FBE0F901F9018951F92BC
:1024A0000F920FB60F9211240BB60F922F933F93FA
:1024B0004F935F936F937F938F939F93AF93BF934C
:1024C000EF93FF9381E08093861B8091871B8D7F24
:1024D0008093871B0E94671FFF91EF91BF91AF917F
:1024E0009F918F917F916F915F914F913F912F912C
:1024F0000F900BBE0F900FBE0F901F901895282FB6
:1025000022952F7033E0239FC0011124273010F44F
:102510008296089583519F4F0895CF93DF93982F0C
:102520009F70C1E0D0E001C0CC0F9A95EAF762300D
:10253000A9F0633069F0611120C00E947F12FC0194
:102540002291C0952C232083FC012081C22311C03D
:102550000E947F12FC018291C82B0BC00E947F1247
:10256000FC0122913C2F309523232083FC01208104
:10257000C22BC08380E090E002C08FEF9FEFDF911D
:10258000CF910895CF93C82F0E947F120297FC012C
:102590002081CF7081E090E002C0880F991FCA951A
:1025A000E2F730E082239323CF910895CF93C82F91
:1025B0000E947F12FC014081CF7021E030E001C019
:1025C000220FCA95EAF7242B2083CF910895CF9349
:1025D000C82F0E947F12FC014081CF7021E030E0C3
:1025E00002C0220F331FCA95E2F7209530952423AD
:1025F0002083CF910895672B11F00C94D6120C9480
:10260000E71284B1876084B90895892B29F064E4C6
:1026100076E083E00E948219809164008460809358
:10262000640080E090E00C940113CF93DF93C42FFB
:10263000D22F61E070E080E99BE10E944216E4E65F
:10264000F0E080818B7F80838D2F869586958DBD70
:10265000D370C065CD2BCCBD8DB58EB580E090E03C
:10266000DF91CF9108958CB58F7B8CBDE4E6F0E0CF
:1026700080818460808380E99BE10C948716CF92EF
:10268000DF92EF92FF920F931F93CF93DF93C62FAA
:10269000D42F6901232B41F40115110529F464E4B9
:1026A00076E083E00E948219CF3F19F08C2F0E94C0
:1026B000E712F801D601E00EF11EEE15FF0591F0CC
:1026C000C114D10411F08C9101C080E08EBD0DB415
:1026D00007FEFDCF8EB50115110509F080833196F7
:1026E0001196EBCFD1110DC0CF3F59F08C2FDF9158
:1026F000CF911F910F91FF90EF90DF90CF900C94AE
:10270000D612DF91CF911F910F91FF90EF90DF9044
:10271000CF90089521E02093861B2CE0AC01249FEC
:10272000C001259F900D1124DC01AB5EBD4F1296B8
:10273000ED91FC9113972081AB014F5F5F4F81E0DA
:1027400090E001C0880F4A95EAF780958223808344
:102750001696ED91FC91179718968D919C9119976B
:1027600019950C94671F8F929F92AF92BF92CF9250
:10277000DF92EF92FF920F931F93DC010297D8F440
:10278000EFE7F5E090E0C12C84E2D82E84EFE82E4C
:10279000F12C46015701019004C0B694A794979478
:1027A00087940A94D2F79F5F84169506A606B7060B
:1027B00029F0953071F78FEF9FEF1EC08CE08A9F54
:1027C000F0018B9FF00D1124EB5EFD4FA081B181D4
:1027D0001C9211961C92119712961C9212971596A4
:1027E0001C921E9214973783268311870087928745
:1027F00011969C9380E090E01F910F91FF90EF90D5
:10280000DF90CF90BF90AF909F908F9008956330EE
:1028100071055CF52CE0289FF001299FF00D112433
:10282000EB5EFD4F80819181DB011496AA0FBB1FE7
:10283000A80FB91F11965C934E93A481B5812C917A
:102840006F5F7F4F81E090E001C0880F6A95EAF7E3
:10285000982F909592239C930280F381E02D908194
:10286000892B808380E090E008958FEF9FEF08959B
:102870002CE0AC01249FC001259F900D1124FC0188
:10288000EB5EFD4F0190F081E02D848195810895EC
:102890001F920F920FB60F9211240BB60F922F9327
:1028A0003F934F935F936F937F938F939F93AF93D8
:1028B000BF93EF93FF9360E070E080E090E00E94B0
:1028C0008A13FF91EF91BF91AF919F918F917F916B
:1028D0006F915F914F913F912F910F900BBE0F9091
:1028E0000FBE0F901F9018951F920F920FB60F9268
:1028F00011240BB60F922F933F934F935F936F93D7
:102900007F938F939F93AF93BF93EF93FF9361E078
:1029100070E080E090E00E948A13FF91EF91BF91F8
:10292000AF919F918F917F916F915F914F913F9167
:102930002F910F900BBE0F900FBE0F901F90189508
:102940001F920F920FB60F9211240BB60F922F9376
:102950003F934F935F936F937F938F939F93AF9327
:10296000BF93EF93FF9362E070E080E090E00E94FD
:102970008A13FF91EF91BF91AF919F918F917F91BA
:102980006F915F914F913F912F910F900BBE0F90E0
:102990000FBE0F901F9018951F920F920FB60F92B7
:1029A00011240BB60F922F933F934F935F936F9326
:1029B0007F938F939F93AF93BF93EF93FF9360E0C9
:1029C00070E081E090E00E948A13FF91EF91BF9147
:1029D000AF919F918F917F916F915F914F913F91B7
:1029E0002F910F900BBE0F900FBE0F901F90189558
:1029F0001F920F920FB60F9211240BB60F922F93C6
:102A00003F934F935F936F937F938F939F93AF9376
:102A1000BF93EF93FF9361E070E081E090E00E944C
:102A20008A13FF91EF91BF91AF919F918F917F9109
:102A30006F915F914F913F912F910F900BBE0F902F
:102A40000FBE0F901F9018951F920F920FB60F9206
:102A500011240BB60F922F933F934F935F936F9375
:102A60007F938F939F93AF93BF93EF93FF9362E016
:102A700070E081E090E00E948A13FF91EF91BF9196
:102A8000AF919F918F917F916F915F914F913F9106
:102A90002F910F900BBE0F900FBE0F901F901895A7
:102AA00061E070E082E99BE10E944216EAE7F0E013
:102AB00080818068808308958F929F92AF92BF92A9
:102AC000CF92DF92EF92FF92CF93DF938031910507
:102AD00008F074C0EC010E945015C830D105A0F474
:102AE00020917E0081E090E001C0880FCA95EAF74E
:102AF000922F982B90937E0090B38095982390BB53
:102B000091B3892381BB18C020917D00289781E073
:102B100090E001C0880FCA95EAF7922F982B909306
:102B20007D009091070180959823909307019091E3
:102B30000801892380930801C12CD12C7601C3940C
:102B4000C1E0D0E0812C94E2992E94EFA92EB12C13
:102B50009E010C2C02C0220F331F0A94E2F7032EB1
:102B6000000C440B550BC501B4010E9446212134D1
:102B70003D404340510530F480917A00C82AC0920C
:102B80007A000BC03FEFC31AD30AE30AF30A88E0C6
:102B9000C816D104E104F104D9F680917C00806468
:102BA00080937C0080917A008F7780937A0082E90D
:102BB0009BE10E94871680E090E002C08FEF9FEFBC
:102BC000DF91CF91FF90EF90DF90CF90BF90AF90CB
:102BD0009F908F900895CF93DF93623009F041C0AA
:102BE000EC010E94501580917B00C830D10558F44B
:102BF000877F80937B0080917C00807F80937C0026
:102C000080917C000BC0886080937B0080917C0069
:102C1000807F80937C0080917C00C850C82BC0933B
:102C20007C0080917A00806480937A0080917A00A1
:102C300086FDFCCFC0917800D091790080917A0018
:102C4000806180937A0080917A008F7780937A00F8
:102C500082E99BE10E948716BE01DD0F880B990B6C
:102C600003C06FEF7FEFCB01DF91CF910895E1E6D5
:102C7000F0E080E8808310820E945C1E0E943B206E
:102C80000C941D11EF92FF920F931F93CF93DF933C
:102C9000EC018B010E9417117C0188819981892B9D
:102CA00041F48FEF9FEF99838883C7010E9423111E
:102CB0001FC0012B01F10091BA1B1091BB1B63E0F7
:102CC000C8010E94071788819981019641F4C801C3
:102CD000069699838883F8011782168204C0B8018A
:102CE000CE010E946C18C7010E9423110E94F91E98
:102CF00081E090E005C0C7010E94231180E090E0D0
:102D0000DF91CF911F910F91FF90EF900895EF9277
:102D1000FF920F931F93CF93DF938C010E941711A3
:102D20007C01D801ED91FC91309739F0EF3FBFEF76
:102D3000FB0761F4F80111821082C701DF91CF9186
:102D40001F910F91FF90EF900C942311808191813E
:102D5000D8018D939C93EF0126976CE0CE010E94E1
:102D60000717F80180819181892B21F48FEF9FEF64
:102D700091838083CB81D0E0C7010E942311CE01D3
:102D8000DF91CF911F910F91FF90EF900C949817C6
:102D90001092FF1B1092FE1BA091BA1BB091BB1B9F
:102DA0002091941B3091951B80E090E020FD04C0A1
:102DB000369527950196FACF880F991FFC01E856A2
:102DC000F44E0190F081E02D0190F081E02D3697D6
:102DD000AE17BF07C9F0109741F012968C91129769
:102DE0008B3019F48CE012968C938BE08283848173
:102DF00095819093B91B8093B81BF093BB1BE09314
:102E0000BA1B81E090E0089580E090E008950F9370
:102E10001F93CF93DF93FC0182816B30E0F18B3005
:102E200008F080C09F012A5F3F4F838190E0880FA8
:102E3000991FDC01A856B44ECD91DC9111972097D3
:102E400051F048815981578346830D90BC91A02D44
:102E50002D933C9302C037832683DC01A856B44EE1
:102E60002D933C9381E090E0038002C0880F991F6E
:102E70000A94E2F7092E000CAA0BBB0B0091941BDD
:102E80001091951B2091961B3091971B802B912BB5
:102E9000A22BB32B3FC08B3008F444C0A381B0E019
:102EA000AA0FBB1FA856B44ECD91DC911197209765
:102EB00069F088819981C817D90719F41D921C926D
:102EC00005C0DC018D919C91998388832381A22F79
:102ED000B0E0AA0FBB1FA856B44E8D919C91892BD0
:102EE00009F581E090E002C0880F991F2A95E2F76A
:102EF00080959095092E000CAA0BBB0B0091941B9A
:102F00001091951B2091961B3091971B8023912344
:102F1000A223B3238093941B9093951BA093961B9D
:102F2000B093971B6283DF91CF911F910F9108950A
:102F3000E091BA1BF091BB1B22812B3028F023813A
:102F400030E08217930768F40E942D11892B39F025
:102F500081E090E09093FF1B8093FE1B08950C94FA
:102F6000F91E08950E941711E091B81BF091B91B4A
:102F7000EE0FFF1FE454F44E118210828091001C6A
:102F80009091011C01979093011C8093001C60E0BC
:102F90008091BA1B9091BB1B0E9407171092BB1B1C
:102FA0001092BA1B0E94AC1ECF92DF92EF92FF925A
:102FB0000F931F93CF93DF93EC016B0160E070E000
:102FC0000E9442168C01CE0104967C010115110568
:102FD00091F460E070E00E944E182091B81B30918F
:102FE000B91B8217930739F0CD28A9F461E070E08E
:102FF000CE010E9442166091B81B7091B91B40E04F
:1030000050E0C7010E945C188A819B8101969B83D6
:103010008A8301E010E0C801DF91CF911F910F91E9
:10302000FF90EF90DF90CF90089560E070E00C94F7
:10303000D4170F931F93CF93DF93EC018C010C5F98
:103040001F4F60E070E0C8010E944E182091B81B2D
:103050003091B91B8217930729F064E476E083E08E
:103060000E9482198A819B810097B9F301979B8303
:103070008A83892B71F440E050E060E070E0C80181
:103080000E945C18CE01DF91CF911F910F910C949B
:103090008716DF91CF911F910F910895CF93DF9302
:1030A000EC010E9417110990D881C02D0E942311B4
:1030B000CE01DF91CF9108950F931F93CF93DF93AC
:1030C000EC018B010E94171119830883DF91CF91C6
:1030D0001F910F910C942311FB0122812B3028F0BA
:1030E00064E476E083E00E9482196381AF014A5F65
:1030F0005F4FDC012D913C912115310541F0D90143
:10310000169713967C91671710F0C901F2CF378399
:103110002683FC015183408308952F923F924F9262
:103120005F926F927F928F929F92AF92BF92CF9257
:10313000DF92EF92FF920F931F93CF93DF9300D014
:103140001F92CDB7DEB7403198F54B013AE1831AB3
:103150009108DC01A80DB91DBC83AB83FC0123FFE2
:1031600009C0AB81BC81EA17FB0730F4F183E0832F
:103170003296F7CF918380831601370158012A8355
:1031800049832B017C010E9417116C01EEEBFBE1DE
:1031900001E010E081919191892B61F00F5F1F4F49
:1031A00001321105B9F7C6010E9423118FEB5BC0F4
:1031B00084EE59C0F801EE0FFF1FE454F44E8B81EA
:1031C0009C8191838083DC0115961C930E93149748
:1031D0009401A701B301C5010E94771EEB81FC8118
:1031E00091838083F58AE48A518E408E378A268ABD
:1031F00029812383128217821682118610861386F4
:10320000128615861486178616868FEF9FEF918B90
:10321000808B138A128A8091001C9091011C019668
:103220009093011C8093001C3A8130FF06C062E03D
:103230008B819C810E94071711C06CE08B819C815F
:103240000E940717FA81F2FD09C0C6010E942311EE
:103250002981822F90E00E94981703C0C6010E9426
:103260002311C80101C09FEF0F900F900F900F9096
:10327000DF91CF911F910F91FF90EF90DF90CF9052
:10328000BF90AF909F908F907F906F905F904F9086
:103290003F902F9008950E94022084E895E09F932C
:1032A0008F930E94CA210E9432010F900F9080E0FC
:1032B00090E008950E944A1EFDCF0E94171189EFE9
:1032C000C82E85E0D82EE12CF12C0AE519E12CE07E
:1032D00030E04FE060E870E082E09CE10E948D18F1
:1032E0009EEFC92E95E0D92E0BE419E12CE030E0D9
:1032F00047E060E872E082E89CE10E948D180E943D
:10330000AC1E0895EB012091021F3091031F232B67
:1033100071F521E030E03093031F2093021F8330CA
:1033200091F40EB6202D0DB6802D90E0922B9F9338
:103330008F9383E096E09F938F930E94CA210F9012
:103340000F900F900F90DF93CF938AE196E09F93B9
:103350008F930E94CA2186E396E09F938F930E94E9
:10336000CA210F900F900F900F900F900F900E9416
:1033700017110E9481190E94471E8F929F92AF924F
:10338000BF92CF92DF92EF92FF920F931F93CF9352
:10339000DF93DB0169017A01EC01E881F981309763
:1033A00009F449C0068117812085318516964D9113
:1033B0005D916D917C9119970417150726073707C2
:1033C00008F44CC00417150726073707A1F54285F6
:1033D00053856485758597018601041B150B260BA3
:1033E000370BB901A80102811381248135810417AB
:1033F00015072607370790F1041B150B260B370B13
:103400001A964D915D916D917C911D9746015701E2
:10341000841A950AA60AB70A12964D915D916D918C
:103420007C911597481959096A097B09401751077A
:103430006207730798F41196FC93EE93EC01B9833D
:10344000A883DF91CF911F910F91FF90EF90DF90B4
:10345000CF90BF90AF909F908F900895CF019CCF59
:10346000FC01208131812115310579F026173707BC
:1034700051F4FB0120813181FC0131832083FB0168
:10348000118210820895C901EBCF08956F927F9247
:103490008F929F92AF92BF92CF92DF92EF92FF9264
:1034A0000F931F93CF93DF930E941711EC0180E0DD
:1034B00090E00E9438144C012091091F30910A1F9E
:1034C00040910B1F50910C1F60910D1F70910E1FAA
:1034D00080910F1F9091101F6090091F70900A1F1C
:1034E000B0910B1FA0910C1FF0910D1FE0910E1FCA
:1034F00000910F1F1091101FA12CB12CBA01A9012E
:1035000066277727841A950AA60AB70AAA24BB2435
:103510009401A50160E070E080E090E05301CB2EC3
:10352000DA2EEF2EFE2E0E9499212093091F309350
:103530000A1F40930B1F50930C1F60930D1F709335
:103540000E1F80930F1F9093101FCE010E94231116
:103550002091091F30910A1F40910B1F50910C1FA1
:1035600060910D1F70910E1F80910F1F9091101F81
:10357000DF91CF911F910F91FF90EF90DF90CF904F
:10358000BF90AF909F908F907F906F9008950F9312
:103590001F93E091071FF091081F3097A9F0028157
:1035A000138124813581011540E814072105310577
:1035B00058F482859385A485B585B901A801480F83
:1035C000591F6A1F7B1F0AC02091041F21110FC0C1
:1035D000AB01BC01415050486F4F7F4F60E070E03D
:1035E00080E090E00E94071481E08093041F1F9107
:1035F0000F9108950E94461AB901CA0108950F93C8
:103600001F9300E010E02CE13BE140E950ED63E066
:1036100070E080E090E00E94B3130E94FA1A2091BB
:10362000111F3091121F232B21F41F910F910C9425
:10363000C71A1F910F9108952F923F924F925F9258
:103640006F927F928F929F92AF92BF92CF92DF92B2
:10365000EF92FF920F931F93CF93DF9300D01F92AF
:10366000CDB7DEB781E090E09093121F8093111FD9
:103670001092041F0E94461A29013A014B015C0175
:103680002091071F3091081F3C832B838B819C81E5
:10369000892B09F4A6C0EB81FC8186819781A085E6
:1036A000B185892B8A2B8B2B29F064E476E083E0AB
:1036B0000E948219EB81FC8182859385A485B58562
:1036C000B301A201481B590B6A0B7B0B82819381CA
:1036D000A481B58184179507A607B70760F08C0110
:1036E0009D01041B150B260B370B04311105210519
:1036F000310508F05BC02091071F3091081FEB8156
:10370000FC81E217F30789F6481759076A077B0718
:1037100088F1AB81BC818D919C9111979093081F8A
:103720008093071FFD0112821382148215821A965C
:103730001D921D921D921C921D9716861786108A47
:10374000118A118210825296ED91FC9153975496F2
:103750008D919C9155971995E091071FF091081F45
:10376000FC83EB830E94FA1A2B013C01812C912CE3
:1037700054018CCF0E94FA1AAB81BC811A960D912C
:103780001D912D913C911D97DC01CB01801B910B6C
:10379000A20BB30BEB81FC81028113812481358163
:1037A00080179107A207B30728F3B3CFAB81BC8181
:1037B00012960D931D932D933C931597FD01428610
:1037C0005386648675869201A301B401C50100E2A7
:1037D0000E947D2126873787408B518B2081318144
:1037E00053CFA091051FB091061FBC83AB839201FC
:1037F000A301B401C50100E20E947D2129833A831F
:103800001A0173016201EB81FC81EF2B09F46BC09B
:10381000EB81FC8182859385A485B5859301820126
:10382000081B190B2A0B3B0B82819381A481B58164
:1038300080179107A207B30760F44681578160851E
:103840007185415051096109710946835783608729
:103850007187801B910BA20BB30BEB81FC818283E0
:103860009383A483B583DF01C286D386E486F5867D
:10387000E9811E96EC931E97FA811F96FC931F9781
:1038800050962C92509751963C925197FD0186810B
:103890009781A085B185892B8A2B8B2BE1F48091B0
:1038A000051F9091061FE817F90709F0FECEBF012A
:1038B00085E09FE10E94301AA70196016B817C810F
:1038C00087E09FE10E94BD192091051F3091061FDE
:1038D0003C832B8398CFAB81BC810D90BC91A02DF4
:1038E000BC83AB8390CF0E94461A29013A014B0159
:1038F0005C01E091071FF091081F309789F18285E4
:103900009385A485B585B301A201481B590B6A0BA9
:103910007B0B82819381A481B58184179507A607CB
:10392000B70708F4ADCE841B950BA60BB70B8431FB
:103930009105A105B10508F4A3CE82839383A483E6
:10394000B58342865386648675869201A301B401CD
:10395000C50100E20E947D2126873787408B518B6D
:103960001092121F1092111F8091111F9091121F1F
:10397000892BD1F4C301B2010F900F900F900F90DB
:10398000DF91CF911F910F91FF90EF90DF90CF903B
:10399000BF90AF909F908F907F906F905F904F906F
:1039A0003F902F900C94C71A0F900F900F900F908C
:1039B000DF91CF911F910F91FF90EF90DF90CF900B
:1039C000BF90AF909F908F907F906F905F904F903F
:1039D0003F902F9008950F931F93CF93DF93EC01A7
:1039E0000E9417118C011A821B821C821D821E826A
:1039F0001F82188619861A861B861C861D861E86BF
:103A00001F86188A198ABE0187E09FE10E94301A3A
:103A1000BE0185E09FE10E94301AC801DF91CF917D
:103A20001F910F910C9423114F925F926F927F928E
:103A30008F929F92AF92BF92CF92DF92EF92FF92BE
:103A40000F931F93CF93DF93DC015296ED91FC917E
:103A50005397EF2B09F48DC0280139014A015B010E
:103A6000EC010E94EB1C411451046104710499F5AE
:103A7000B8E28B169104A104B10468F580E090E0EF
:103A80000E9438146C01E12CF12C80E090E00E943F
:103A90003814A0E0B0E08C199D09AE09BF09AA272F
:103AA000BB2788159905AA05BB0578F3EA89FB8928
:103AB0008C899D89DF91CF911F910F91FF90EF909D
:103AC000DF90CF90BF90AF909F908F907F906F903E
:103AD0005F904F9019940E9417116C010E94461A32
:103AE0008A829B82AC82BD824E825F8268867986A2
:103AF00059017A012A87BB864C87FD8600E20E9425
:103B00007D212E873F87488B598B9501A701BE01E8
:103B1000452846284728B1F487E09FE10E94BD1957
:103B20008091071F9091081FC817D90779F48091D9
:103B3000111F9091121F892B49F4B501C7010E94F2
:103B4000C71A04C085E09FE10E94BD19C601DF913C
:103B5000CF911F910F91FF90EF90DF90CF90BF908A
:103B6000AF909F908F907F906F905F904F900C944C
:103B70002311DF91CF911F910F91FF90EF90DF9074
:103B8000CF90BF90AF909F908F907F906F905F90FD
:103B90004F9008950C9487164F925F926F927F9288
:103BA0008F929F92AF92BF92CF92DF92EF92FF924D
:103BB0000F931F93CF93DF93CDB7DEB768970FB600
:103BC000F894DEBF0FBECDBF2B013C0149015A0165
:103BD0000E942D11892B31F189288A288B2829F000
:103BE00064E476E083E00E94821980E090E00E9425
:103BF00038144C01A12CB12C73016201EE24FF2476
:103C000080E090E00E943814A0E0B0E088199909A3
:103C1000AA09BB09AA27BB278C159D05AE05BF05C0
:103C200078F31EC0188E1F8A8AEC9DE19C8B8B8BCB
:103C30007E0187E1E80EF11CFE8AED8A61E070E00A
:103C4000C7010E94421695018401B301A201CE0171
:103C500001960E94141D61E070E0C7010E944216A7
:103C600068960FB6F894DEBF0FBECDBFDF91CF913F
:103C70001F910F91FF90EF90DF90CF90BF90AF908A
:103C80009F908F907F906F905F904F9008950E94CB
:103C90001711FFCF0895CF93DF931F92CDB7DEB7F3
:103CA00021E030E0AE014F5F5F4F0E94D21F89815B
:103CB0000F90DF91CF910895A8950FB6F894A8952D
:103CC00080916000886180936000109260000FBE58
:103CD0000E942B200C948D201F920F920FB60F92F2
:103CE00011245F9A62E771E080E00E948219240F3C
:103CF000351FF90131974FEA408331974EEF4083EA
:103D000042EB57E1319740833197508331971082CE
:103D10003197808331979083319710823197108249
:103D2000319780E8808331971082319710823197E4
:103D30001082C90183971292E817F907E1F7F90198
:103D4000B4976083319770838AE182938F5F80326A
:103D5000E1F7C9018C9708950E94C8160E941D11B1
:103D60008DB79EB72091040230910502821B930B00
:103D7000909301028093000280911A1F90911B1F63
:103D8000892B41F4809102029091030290931B1FB2
:103D900080931A1FA091BA1BB091BB1BCD91CDBFD0
:103DA000DD91DEBFFF91EF91DF91CF91BF91AF9198
:103DB0009F918F917F916F915F914F913F912F9143
:103DC0001F910F91FF90EF90DF90CF90BF90AF9039
:103DD0009F908F907F906F905F904F903F902F902B
:103DE0001F900F900CBE0F900BBE0F900FBE0F9048
:103DF00008950E942D11892B09F062C00F920FB611
:103E0000F8940F920BB60F920CB60F921F921124DA
:103E10002F923F924F925F926F927F928F929F92DA
:103E2000AF92BF92CF92DF92EF92FF920F931F93C8
:103E30002F933F934F935F936F937F938F939F93B2
:103E4000AF93BF93CF93DF93EF93FF93A091BA1BF0
:103E5000B091BB1B0DB60D920EB60D920E94C81606
:103E6000A091BA1BB091BB1BCD91CDBFDD91DEBF40
:103E7000FF91EF91DF91CF91BF91AF919F918F9182
:103E80007F916F915F914F913F912F911F910F9172
:103E9000FF90EF90DF90CF90BF90AF909F908F906A
:103EA0007F906F905F904F903F902F901F900F905A
:103EB0000CBE0F900BBE0F900FBE0F90089508958B
:103EC00081E090E09093FF1B8093FE1B0895109279
:103ED000861B8091FE1B9091FF1B892B09F461C00A
:103EE0000F920FB6F8940F920BB60F920CB60F927A
:103EF0001F9211242F923F924F925F926F927F9266
:103F00008F929F92AF92BF92CF92DF92EF92FF92E9
:103F10000F931F932F933F934F935F936F937F93D1
:103F20008F939F93AF93BF93CF93DF93EF93FF93C1
:103F3000A091BA1BB091BB1B0DB60D920EB60D929F
:103F40000E94C816A091BA1BB091BB1BCD91CDBFEA
:103F5000DD91DEBFFF91EF91DF91CF91BF91AF91E6
:103F60009F918F917F916F915F914F913F912F9191
:103F70001F910F91FF90EF90DF90CF90BF90AF9087
:103F80009F908F907F906F905F904F903F902F9079
:103F90001F900F900CBE0F900BBE0F900FBE0F9096
:103FA00018950895CF92DF92EF92FF926B017C01FA
:103FB000C20ED31EE11CF11CE1E0CE16E0E1DE06EC
:103FC000E104F10438F4DA01A20FB31FFA01641B13
:103FD000750B0FC064E476E083E00E948219F999C2
:103FE000FECFCB018E0F9F1F92BD81BDF89A80B589
:103FF0008193EA17FB0799F7C901FF90EF90DF90D3
:10400000CF9008950E9441200C94FF1ACF93DF9324
:104010001F92CDB7DEB761E070E0CE0101960E943D
:104020007D208981082E000C990B0F90DF91CF9194
:104030000895CF93DF931F92CDB7DEB7898361E0F8
:1040400070E0CE0101960E94802080E090E00F9009
:10405000DF91CF9108950E946C20EEE1FFE18BE3A8
:1040600092E0938382838DE292E09183808386E560
:1040700096E00C94DE2163E087E10E948D125F9848
:104080000895CF93DF9300D01F92CDB7DEB764E0E1
:1040900070E0CE0101960E94012169817A818B81B5
:1040A0009C810E945A200F900F900F900F90DF91EB
:1040B000CF910895611571058105910521F461E0A5
:1040C00070E080E090E06093131F7093141F809362
:1040D000151F9093161F08950F931F9300E010E093
:1040E00020E030E040E855E260E070E080E090E001
:1040F0000E944E111F910F91089583EC9FEF089538
:10410000CF93DF93EB01AB01BC0180E090E00E9414
:10411000A811CE01DF91CF91089580E090E00E9438
:10412000952080E090E00C940513892B29F064E43D
:1041300076E083E00E9482191092181F1092171FD8
:104140008BB183608BB9809164008F77809364001A
:104150008091BC008B7F8093BC008CE08093B80082
:104160008091B9008C7F8093B9008091B9008093D1
:10417000B9008091BC0084608093BC000895EF92E8
:10418000FF920F931F93CF93DF9300D01F92CDB771
:10419000DEB77C018B01AB0163E270E00E94BA21C3
:1041A000CE0101960E94122120E030E0C8010430C7
:1041B000110510F484E090E028173907B8F4C9011C
:1041C000B8010E943221F701E80FF91FD901A3704D
:1041D000BB2781E090E08C0F9D1FA80FB91F908135
:1041E0008C91892780832F5F3F4FE0CF0F900F90F6
:1041F0000F900F90DF91CF911F910F91FF90EF9053
:104200000895CF93DF93EC010E94BF208091191F86
:1042100091E0980F9093191F988189278883DF91E7
:10422000CF910895DC0191E2E0E0F0E09093570037
:10423000E491EC93E2E0F0E090935700E491119662
:10424000EC931197E4E0F0E090935700E49112961C
:10425000EC931297E1E0F0E090935700949113965D
:104260009C930895AA1BBB1B51E107C0AA1FBB1F4B
:10427000A617B70710F0A61BB70B881F991F5A95F2
:10428000A9F780959095BC01CD010895A1E21A2E61
:10429000AA1BBB1BFD010DC0AA1FBB1FEE1FFF1FEA
:1042A000A217B307E407F50720F0A21BB30BE40B3A
:1042B000F50B661F771F881F991F1A9469F7609581
:1042C0007095809590959B01AC01BD01CF0108953B
:1042D000EE0FFF1F881F8BBF0790F691E02D1994FA
:1042E0000E94A221A59F900DB49F900DA49F800DC8
:1042F000911D1124089597FB10F8169400080F9350
:10430000083098F00850232F342F452F562F672F51
:10431000782F892F902DF4CF0594979587957795D1
:10432000679557954795379527950A95AAF70F9161
:1043300008952A0D3B1D4C1D5D1D6E1D7F1D801FA8
:10434000911F0895A29FB001B39FC001A39F700D5C
:10435000811D1124911DB29F700D811D1124911D8D
:104360000895FB01DC0102C001900D9241505040C4
:10437000D8F70895DC0101C06D9341505040E0F73B
:104380000895FC0101900020E9F7809590958E0F2B
:104390009F1F0895CF93DF93CDB7DEB7AE014A5F7D
:1043A0005F4FFA0161917191AF018091201F90914F
:1043B000211F0E943D22DF91CF9108950F931F93FB
:1043C000CF93DF93E091201FF091211F238121FFE4
:1043D0001BC08C01D0E0C0E0F80181918F01609199
:1043E000201F7091211FDB011896ED91FC91199708
:1043F000882331F01995892B79F3DFEFCFEFECCFDC
:104400008AE01995892B19F08FEF9FEF02C08D2F4D
:104410009C2FDF91CF911F910F9108950F931F93C0
:10442000CF93DF93CDB7DEB72E970FB6F894DEBFEC
:104430000FBECDBF0E891F8986E08C831A83098346
:104440008FEF9FE79E838D83AE01465E5F4F688D41
:10445000798DCE0101960E943D22EF81F885E00F13
:10446000F11F10822E960FB6F894DEBF0FBECDBF9F
:10447000DF91CF911F910F9108952F923F924F920C
:104480005F926F927F928F929F92AF92BF92CF92E4
:10449000DF92EF92FF920F931F93CF93DF93CDB7ED
:1044A000DEB72B970FB6F894DEBF0FBECDBF6C0101
:1044B0007B018A01FC0117821682838181FFCCC1B6
:1044C000CE0101963C01F6019381F70193FD8591A0
:1044D00093FF81917F01882309F4BAC1853239F4B1
:1044E00093FD859193FF81917F01853229F4B60177
:1044F00090E00E945D24E7CF912C212C312CFFE12C
:10450000F315D8F08B3279F038F4803279F08332B9
:10451000A1F4232D20611DC08D3261F0803369F438
:10452000232D216016C0832D8260382EE32DE46098
:104530003E2E2AC0F32DF8601DC037FC2DC020EDA3
:10454000280F2A3040F08E32B9F436FC81C1232D79
:104550002064322E19C036FE06C08AE0989E200DD7
:104560001124922E11C0EAE02E9E200D1124222E3D
:10457000F32DF0623F2E08C08C3621F4832D806825
:10458000382E02C0883641F4F70193FD859193FFE0
:1045900081917F018111B3CF982F9F7D95549330E6
:1045A00028F40C5F1F4F9FE399830DC0833631F0D1
:1045B000833771F0833509F059C021C0F80180813B
:1045C00089830E5F1F4F88248394912C530113C05D
:1045D0002801F2E04F0E511CF801A080B18036FE98
:1045E00003C0692D70E002C06FEF7FEFC5010E942C
:1045F00052244C018201F32DFF773F2E16C0280173
:1046000022E0420E511CF801A080B18036FE03C0AA
:10461000692D70E002C06FEF7FEFC5010E94472453
:104620004C01F32DF0683F2E820133FC1BC0822D1C
:1046300090E088169906B0F4B60180E290E00E94FE
:104640005D242A94F4CFF50137FC859137FE8191E2
:104650005F01B60190E00E945D2421102A9421E0C0
:10466000821A91088114910471F7E8C0843611F020
:10467000893641F5F80137FE07C06081718182817A
:1046800093810C5F1F4F08C060817181072E000C61
:10469000880B990B0E5F1F4FF32DFF763F2E97FF70
:1046A00009C090958095709561957F4F8F4F9F4F72
:1046B000F0683F2E2AE030E0A3010E949924882E62
:1046C000861845C0853731F4232D2F7EB22E2AE07F
:1046D00030E025C0932D997FB92E8F36C1F018F4A4
:1046E000883579F0B5C0803719F0883721F0B0C02F
:1046F000E92FE061BE2EB4FE0DC0FB2DF460BF2E8D
:1047000009C034FE0AC0292F2660B22E06C028E058
:1047100030E005C020E130E002C020E132E0F801E5
:10472000B7FE07C060817181828193810C5F1F4F4A
:1047300006C06081718180E090E00E5F1F4FA30191
:104740000E949924882E8618FB2DFF773F2E36FE77
:104750000DC0232D2E7FA22E891458F434FE0BC0D9
:1047600032FC09C0832D8E7EA82E05C0B82CA32C48
:1047700003C0B82C01C0B92CA4FE0FC0FE01E80D87
:10478000F11D8081803321F49A2D997EA92E09C0D4
:10479000A2FE06C0B394B39404C08A2D867809F0B3
:1047A000B394A3FC11C0A0FE06C0B21488F4280C78
:1047B000922C9B180EC0B21460F4B60180E290E017
:1047C0000E945D24B394F7CFB21418F42B1802C0E2
:1047D000982C212CA4FE10C0B60180E390E00E942A
:1047E0005D24A2FE17C0A1FC03C088E790E002C0D0
:1047F00088E590E0B6010CC08A2D867859F0A1FEBC
:1048000002C08BE201C080E2A7FC8DE2B60190E01D
:104810000E945D24891438F4B60180E390E00E9480
:104820005D249A94F7CF8A94F301E80DF11D8081FD
:10483000B60190E00E945D248110F5CF222009F49A
:1048400042CEB60180E290E00E945D242A94F6CF29
:10485000F6018681978102C08FEF9FEF2B960FB6EE
:10486000F894DEBF0FBECDBFDF91CF911F910F91A6
:10487000FF90EF90DF90CF90BF90AF909F908F9080
:104880007F906F905F904F903F902F900895FC0124
:104890000590615070400110D8F7809590958E0F6B
:1048A0009F1F0895FC016150704001900110D8F7DE
:1048B000809590958E0F9F1F08950F931F93CF9310
:1048C000DF93FB01238121FD03C08FEF9FEF2CC0FD
:1048D00022FF16C046815781248135814217530734
:1048E00044F4A081B1819D012F5F3F4F318320832C
:1048F0008C93268137812F5F3F4F3783268314C0E7
:104900008B01EC01FB010084F185E02D1995892BC9
:10491000E1F6D80116968D919C91179701961796FE
:104920009C938E931697CE01DF91CF911F910F919B
:104930000895FA01AA27283051F1203181F1E89435
:104940006F936E7F6E5F7F4F8F4F9F4FAF4FB1E082
:104950003ED0B4E03CD0670F781F891F9A1FA11D7D
:10496000680F791F8A1F911DA11D6A0F711D811D7E
:10497000911DA11D20D009F468943F912AE0269F43
:1049800011243019305D3193DEF6CF010895462FA2
:104990004770405D4193B3E00FD0C9F7F6CF462F83
:1049A0004F70405D4A3318F0495D31FD40524193EC
:1049B00002D0A9F7EACFB4E0A695979587957795A9
:1049C0006795BA95C9F700976105710508959B0130
:1049D000AC010A2E06945795479537952795BA95B9
:1049E000C9F7620F731F841F951FA01D0895F894C7
:0249F000FFCFF7
:1049F2000000261F2000A6A7A8D3D4D5D0D1D2D696
:104A0200D7D87EFFFF80006F003600000000000054
:104A120000A0007200390000000000000000000049
:104A2200010000000000000620000000000002005B
:104A3200000000192000000000476F743A2030780F
:104A4200002C203078005246494420726561646926
:104A52006E67205549440044657669636520494480
:104A62003A203078007478310072783100747832EC
:104A720000727832007478330072783300747834BC
:104A820000727834007365747570282920646F6E23
:104A92006500496E20737461746532203000496E7E
:104AA20020737461746532203100496E2073746121
:104AB200746532203400496E20737461746532204B
:104AC2003500496E20737461746532203600496E78
:104AD20020737461746532203700496E20737461EB
:104AE200746532203800496E207374617465322017
:104AF2003900496E207374617465322031300000D0
:104B02000000004F082A0ABA040000211042206364
:104B1200308440A550C660E770088129914AA16B94
:104B2200B18CC1ADD1CEE1EFF1311210027332522C
:104B320022B5529442F772D662399318837BB35AE4
:104B4200A3BDD39CC3FFF3DEE362244334200401FC
:104B520014E664C774A44485546AA54BB528850934
:104B620095EEE5CFF5ACC58DD553367226111630CC
:104B720006D776F6669556B4465BB77AA719973884
:104B820087DFF7FEE79DD7BCC7C448E5588668A70C
:104B9200784008611802282338CCC9EDD98EE9AFD4
:104BA200F9488969990AA92BB9F55AD44AB77A966C
:104BB2006A711A500A333A122AFDDBDCCBBFFB9E24
:104BC200EB799B588B3BBB1AABA66C877CE44CC53C
:104BD2005C222C033C600C411CAEED8FFDECCDCD74
:104BE200DD2AAD0BBD688D499D977EB66ED55EF40C
:104BF2004E133E322E511E700E9FFFBEEFDDDFFCC4
:104C0200CF1BBF3AAF599F788F8891A981CAB1EB68
:104C1200A10CD12DC14EF16FE18010A100C230E391
:104C2200200450254046706760B9839893FBA3DA4D
:104C3200B33DC31CD37FE35EF3B1029012F322D2E1
:104C4200323542145277625672EAB5CBA5A89589DD
:104C5200856EF54FE52CD50DC5E234C324A0148131
:104C6200046674476424540544DBA7FAB79987B8ED
:104C7200975FE77EF71DC73CD7D326F2369106B081
:104C82001657667676154634564CD96DC90EF92FED
:104C9200E9C899E9898AB9ABA944586548067827D1
:104CA20068C018E1088238A3287DCB5CDB3FEB1E8D
:104CB200FBF98BD89BBBAB9ABB754A545A376A1621
:104CC2007AF10AD01AB32A923A2EFD0FED6CDD4D1D
:104CD200CDAABD8BADE89DC98D267C076C645C4571
:104CE2004CA23C832CE01CC10C1FEF3EFF5DCF7C2D
:104CF200DF9BAFBABFD98FF89F176E367E554E74C1
:104D02005E932EB23ED10EF01E4041444565437380
:104D12007475761415161781807170333231300034
:104D220001020304050607272625242322214037F2
:104D3200626160A7A6A5A4A3A2A1A013121110509C
:104D42005152535455565790919293949596970D6C
:104D52000A00256C6F00256C7500256C7800256CA7
:104D62006900252E2A660004000106C000C8000062
:104D72000306080A6D61696E28293A20546869732E
:104D82002069732052494F54212028566572736955
:104D92006F6E3A20554E4B4E4F574E202862756922
:104DA2006C646469723A202F686F6D652F73726943
:104DB20076616D73696D616C6C6164692F4C6946D3
:104DC200692F4C692D46692D696E2D496E64757384
:104DD2007472792D342E302F72696F742F52494FAD
:104DE200542D73706929290A0069646C65006D612C
:104DF200696E00537461636B20506F696E746572E3
:104E02003A203078253034780A002A2A2A2052495A
:104E12004F54206B65726E656C2070616E69633AE7
:104E22000A25730A0A002A2A2A2068616C746564BA
:104E32002E0A0A004641494C4544204153534552EB
:084E420054494F4E2E000C00F4
:040000030000025C9B
:00000001FF
