:100000000C94E3000C942A010C942A010C942A010C
:100010000C942A010C942A010C942A010C942A01B4
:100020000C942A010C942A010C942A010C942A01A4
:100030000C942A010C942A010C942A010C942A0194
:100040000C942A010C9445150C9471150C949D1573
:100050000C942A010C942A010C942A010C942A0174
:100060000C942A010C94C8120C942A010C941C13B1
:100070000C942A010C942A010C942A010C942A0154
:100080000C942A010C942A010C942A010C942A0144
:100090000C94F2120C942A010C944C130C942A0127
:1000A0000C942A010C942A010C94C9150C94F51592
:1000B0000C9421160C942A010C942A010C942A0108
:1000C0000C942A010C942A010C942A010C942A0104
:1000D0000C942A010C942A010C942A010C942A01F4
:1000E0000C942A015703D603F60339047A048504D5
:1000F000EF0433054C050C943B010C9435010C9432
:1001000062210C94B1020C945E050C94D6030C94FD
:10011000FF0A0C94830F0C94261F0C94EF040C948C
:100120004C050C940E190C94120F0C94A71A0C94F5
:1001300057030C9440010C94CE0A0C9445010C9486
:10014000781C0C9485040C9433050C940E120C94BA
:10015000B60B0C947D0F0C94B61A0C9439040C94C5
:1001600075210C94F3080C94F6030C947A04464120
:1001700054414C204552524F523A20424144495337
:10018000525F766563742063616C6C65642C2075C6
:100190006E70726F63657373656420496E74657207
:1001A000727570742E0A53544F50204578656375EC
:1001B00074696F6E2E0A00003501B102FF0AB60B9A
:1001C000120F7D0F0E12832D8093B91284B7809386
:1001D000BA1214BE0FB6F894A89580916000886199
:1001E00080936000109260000FBE11241FBECFEFFD
:1001F000D1E2DEBFCDBF00E00CBF15E0A0E0B2E071
:10020000EAEAFCE400E00BBF02C007900D92A63DB5
:10021000B107D9F722E1A6EDB5E001C01D92A93BD7
:10022000B207E1F710E0C3EED0E000E006C021978E
:100230000109802FFE010E94C422CC3DD10780E03D
:100240000807A9F70E942C010C9453260E94300144
:100250000C9453260C94C81F0E9434170C94B91A9E
:100260000E94E3010E94CE02FDCF60E070E086EDC7
:1002700095E00C94850F0E945E0B80E090E008955D
:100280000E94930B80E090E00895CF92DF92EF926E
:10029000FF920F931F93CF93DF936C018B01C42FB9
:1002A000D0E0E42EF12C81E0E81AF1088D2F90E0E7
:1002B0008E159F0594F4F801E80FF91F608170E036
:1002C00043E08DE99CE00E94031160E572E08DE956
:1002D0009CE00E94F70FDF5FE9CFC23008F46AC0EC
:1002E000F80180819091800C891317C0C25009F4E5
:1002F00061C080E06C2F70E09B0121503109482FD4
:1003000050E04217530714F48F5FF9CFF801E60F5E
:10031000F71F81818093830C4DC09091190289133E
:1003200036C0C150F801EC0FF11D80818093810B24
:1003300090910B0289130AC021E030E030931B0238
:1003400020931A023093820C2093810C90910C021E
:1003500089130CC022E030E030931B0220931A0274
:1003600021E030E03093820C2093810C90910D02BB
:10037000891320C083E090E090931B0280931A02BF
:1003800081E090E09093820C8093810C13C0FCE29A
:10039000CF16F6E0DF0671F04C2FB8018CE296E044
:1003A000DF91CF911F910F91FF90EF90DF90CF9051
:1003B0000C94200BDF91CF911F910F91FF90EF9044
:1003C000DF90CF900895CF92DF92EF92FF920F933C
:1003D0001F9340E855E260E070E08DE99CE00E94E8
:1003E0008F0F40E855E260E070E08DE99CE00E94EC
:1003F0008F0F8DE89CE00E948D0760E070E0CB01DC
:100400000E94A71F8093800C85E5C82E82E0D82E1D
:100410009CE2E92E96E0F92E0BE311E028E030E0B3
:1004200046E060E872E081E099E00E94E91929E580
:10043000C22E22E0D22E00E411E028E030E045E0B8
:1004400060E872E081E896E00E94E91961E070E0FE
:1004500080E090E00E94550F60E070E082E090E064
:100460000E94300F60E070E083E090E00E94300F67
:1004700060E070E087E190E00E94300F62E070E0A1
:100480008EE190E00E94300F62E070E080E290E048
:100490000E94300F61E070E086E090E00E94300F33
:1004A00061E070E089E090E00E94300F61E070E070
:1004B00084E090E00E94300F61E070E084E090E022
:1004C0000E94410F61E070E08AE090E00E94300FEE
:1004D00061E070E08BE090E00E94300F61E070E03E
:1004E00085E090E00E94300F61E070E085E090E0F0
:1004F0000E94410F60E070E086E090E00E94410FB2
:1005000060E070E089E090E00E94410F60E070E000
:100510008AE090E00E94410F60E070E08BE090E0A4
:100520000E94410F80E290E00E94470F60E070E07F
:10053000892B39F08AE090E00E94410F61E070E081
:10054000EDCF8AE090E00E94410F60E070E08BE028
:1005500090E01F910F91FF90EF90DF90CF900C945F
:10056000410F0F931F9360E070E08DE99CE00E94C3
:10057000850F45E065E38DE89CE00E94FD0500E005
:1005800010E025E431E040E050E066E170E08CE20C
:1005900096E00E94050B1F910F9108951F93CF9332
:1005A000DF931F921F92CDB7DEB71092280683E02B
:1005B00090E00E94470F21E0892B09F420E020936E
:1005C0002B0682E090E00E94470F21E0892B09F47E
:1005D00020E020932A0687E190E00E94470F21E067
:1005E000892B09F420E0209329068EE190E00E94F7
:1005F000470F21E0892B09F420E02093070280E2D5
:1006000090E00E94470F21E0009709F420E020933A
:10061000060220912B06222369F02091810C309153
:10062000820C2230310531F423E030E03093820C2B
:100630002093810C20912A06222369F02091810CBD
:100640003091820C2430310531F425E030E03093D4
:10065000820C2093810C409107022091810C3091F3
:10066000820C411111C02730310571F428E030E0CF
:100670003093820C2093810C892B09F00DC21092CB
:10068000820C1092810C05C0892B19F42830310599
:10069000B1F3E091810CF091820CE930F10508F0A2
:1006A00007C28827EE58FF4F8F4F0C94C42260E09A
:1006B00070E086E090E00E94410F60E070E089E029
:1006C00090E00E94410F60E070E08AE090E00E94BC
:1006D000410F60E070E08BE090E00E94410F11E07C
:1006E0008DE99CE00E94890F892B61F48091810C37
:1006F0009091820C892B19F01092260603C010935A
:100700002606EECF80912606882309F4D1C18DE913
:100710009CE00E94AC0F90932106809320062091CC
:100720001102422F50E08417950751F120911202D7
:10073000422F50E08417950719F120911302422FA0
:1007400050E084179507E1F020911402422F50E009
:1007500084179507A9F020911502422F50E08417C5
:10076000950771F020911602422F50E084179507EB
:1007700039F020911702422F50E08417950721F499
:100780008091180289832A8342E0BE016F5F7F4F08
:100790008CE296E00E94200B892B09F489C16AE063
:1007A00070E080E090E00E94550F82C180911902B4
:1007B000898380910E028A8342E0BE016F5F7F4F82
:1007C0008CE296E00E94200B892B31F06AE070E009
:1007D00080E090E00E94550F81E08093270682E040
:1007E00090E09093820C8093810C62C161E070E094
:1007F00086E090E00E94410F60E070E089E090E0C8
:100800000E94410F8DE89CE00E94CE0A882309F4E3
:100810004FC18DE89CE00E945E05882309F448C121
:100820006DE572E08DE99CE00E94F70F6091900CFD
:1008300070E043E08DE99CE00E9411116091910C01
:1008400070E043E08DE99CE00E9411116091920CF0
:1008500070E043E08DE99CE00E9411116091930CDF
:1008600070E043E08DE99CE00E9411111092270690
:100870001FC180911902898380910F028A8342E00F
:10088000BE016F5F7F4F8CE296E00E94200B892BA8
:1008900031F06AE070E080E090E00E94550F84E063
:1008A00090E09093820C8093810C8091270688239E
:1008B00009F4FEC087E090E09093820C8093810C55
:1008C00080911802898380911A0290911B028130D5
:1008D000910519F4809111020BC08230910519F431
:1008E0008091120205C0039709F04ECF8091130248
:1008F0008A834ACF61E070E086E090E00E94410F79
:1009000060E070E089E090E0D1C060E070E086E0F7
:1009100090E00E94410F60E070E089E090E00E946A
:10092000410F80911A0290911B02019769F466E6CB
:1009300072E08DE99CE00E94F90F6091080270E07E
:100940008DE99CE00E94C70F80911A0290911B02D2
:10095000029761F463E772E08DE99CE00E94F90F71
:1009600061EB70E08DE99CE00E94C70F80911A0254
:1009700090911B02039761F460E872E08DE99CE0BE
:100980000E94F90F61EC70E08DE99CE00E94C70FB6
:100990008DE99CE00E94890F892BD1F38DE99CE0C1
:1009A0000E94AC0F90932506809324066091280640
:1009B0002091090230E04091810C5091820C662315
:1009C00041F05093820C4093810C81E08093280683
:1009D0006FC046E050E082179307D9F7F2CF61E08D
:1009E00070E086E090E00E94410F60E070E089E0F6
:1009F00090E00E94410F8DE99CE00E94890F892BB5
:100A0000D1F31092280611E080912806811150C080
:100A10008DE99CE00E94AC0F9C019093230680938B
:100A2000220690910A02492F50E02417350761F7FA
:100A30008091180289839A8342E0BE016F5F7F4FE5
:100A40008CE296E00E94200B892B31F06AE070E086
:100A500080E090E00E94550F1092820C1092810C61
:100A600010932806D1CF80912906882309F160E0F0
:100A700070E086E090E00E94410F60E070E089E065
:100A800090E00E94410F61E070E08AE090E00E94F7
:100A9000410F60E070E008C060E070E08AE090E044
:100AA0000E94410F61E070E08BE090E00E94410FF6
:100AB0000F900F90DF91CF911F910895BC016E5F51
:100AC0007F4FDC01ED91FC910190F081E02D40E041
:100AD000199591E0811190E0892F0895CF93DF93CC
:100AE0001F92CDB7DEB7698341E050E0BE016F5F72
:100AF0007F4F0E94CD1189810F90DF91CF91089592
:100B00009F92AF92BF92CF92DF92EF92FF920F939C
:100B10001F93CF93DF931F921F92CDB7DEB76C0167
:100B2000A42E7901902E6068B62E00E021E040E00E
:100B300059E06DE370E0CE0101960E9425116981B4
:100B40007A8180E19FE00E94A011F601868560E035
:100B500070E090E00E94410FAA946B2D80E19FE02D
:100B60000E946E059920B1F00FEF10E001C0000F58
:100B70009A94EAF76B2D80E19FE00E946E05202F8A
:100B80002095F701908192238023892B80839924DB
:100B9000939401C0912C892D90E09A1460F4870100
:100BA000080F191F6B2D80E19FE00E946E05F80170
:100BB00080839394F0CFE80EF91E60E080E19FE01F
:100BC0000E946E05F7018083F601868561E070E082
:100BD00090E00E94410F80E19FE00E94BF110F90C2
:100BE0000F90DF91CF911F910F91FF90EF90DF90C9
:100BF000CF90BF90AF909F900895FC0181E992E063
:100C000091838083668747870895DF92EF92FF92F2
:100C10000F931F93CF93DF931F921F92CDB7DEB731
:100C20007C01D62E142F00E021E040E059E06DE376
:100C300070E0CE0101960E94251169817A8180E1E0
:100C40009FE00E94A011F701868560E070E090E0CF
:100C50000E94410F6D2D80E19FE00E946E05612F83
:100C600080E19FE00E946E05F701868561E070E0FB
:100C700090E00E94410F80E19FE00E94BF110F9021
:100C80000F90DF91CF911F910F91FF90EF90DF9028
:100C90000895BF92CF92DF92EF92FF920F931F932E
:100CA000CF93DF931F921F92CDB7DEB77C01162F33
:100CB000D42EB22EC32E00E021E040E059E06DE3D7
:100CC00070E0CE0101960E94251169817A8180E150
:100CD0009FE00E94A011F701868560E070E090E03F
:100CE0000E94410F612F80E19FE00E946E050B2D55
:100CF0001C2DC8018D0D911D6C010C151D0541F0B9
:100D0000F80161918F0180E19FE00E946E05F5CFAF
:100D1000F701868561E070E090E00E94410F80E17C
:100D20009FE00E94BF110F900F90DF91CF911F9114
:100D30000F91FF90EF90DF90CF90BF900895EF92CA
:100D4000FF920F931F93CF93DF931F921F92CDB704
:100D5000DEB77C01162F00E021E040E059E06DE3B2
:100D600070E0CE0101960E94251169817A8180E1AF
:100D70009FE00E94A011F701868560E070E090E09E
:100D80000E94410F612F606880E19FE00E946E0524
:100D900060E080E19FE00E946E05182FF7018685D4
:100DA00061E070E090E00E94410F80E19FE00E94CE
:100DB000BF11812F0F900F90DF91CF911F910F9155
:100DC000FF90EF9008950F9341110E9480050F91BD
:100DD00008950F931F93CF93DF938C01D62FC42FC9
:100DE0000E949F06482F4C2B6D2FC801DF91CF9199
:100DF0001F910F910C9405060F931F93CF93DF93D0
:100E00008C01D62FC42F0E949F06C0954C2F4823DB
:100E10006D2FC801DF91CF911F910F910C940506A2
:100E2000CF92DF92EF92FF920F931F93CF93DF93B6
:100E3000EC016B01142F790140E062E00E9405068D
:100E400044E06AE0CE010E94050640E864E1CE017C
:100E50000E9405069601412F62E1CE010E944906DB
:100E600043E062E0CE010E94050608E813E16AE073
:100E7000CE010E949F0682FF13C040E062E0CE01D7
:100E80000E94050664E4CE010E949F06F70180835C
:100E900062E4CE010E949F06F701818380E004C0D6
:100EA0000150110921F783E0DF91CF911F910F913C
:100EB000FF90EF90DF90CF9008950F931F93CF9303
:100EC0008C014FE062E00E940506C3E062E370E03F
:100ED00080E090E00E94550F62E0C8010E949F06EA
:100EE00084FF02C0C15091F7CF911F910F910895D7
:100EF000CF93DF93EC0168E20E949F06982F9370D6
:100F0000933041F0482F436068E2CE01DF91CF91EA
:100F10000C940506DF91CF910895CF93DF93EC01F8
:100F20008E8561E070E090E00E94300F8E8561E078
:100F300070E090E00E94410F8F858F3F09F45CC004
:100F400060E070E090E00E94300F8F8590E00E949A
:100F5000470F892B09F050C08F8561E070E090E069
:100F60000E94300F8F8560E070E090E00E94410F9A
:100F700062E070E080E090E00E94670F8F8561E0A2
:100F800070E090E00E94410F62E370E080E090E04A
:100F90000E94550F40E064E2CE010E94050640E049
:100FA00066E2CE010E94050646E268E4CE010E9498
:100FB000050640E864E5CE010E94050649EA66E5BB
:100FC000CE010E94050643E068E5CE010E940506B9
:100FD00048EE6AE5CE010E94050640E46AE2CE01D1
:100FE0000E9405064DE362E2CE010E940506CE0195
:100FF000DF91CF910C947807CE010E945D07CACF94
:101000003F924F925F926F927F928F929F92AF9298
:10101000BF92CF92DF92EF92FF920F931F93CF93E5
:10102000DF931F921F92CDB7DEB73C01162F942E8F
:101030002901A114B10419F0F501408101C040E07B
:10104000342EF0E18F9E300C112440E062E0C301A9
:101050000E9405064FE768E0C3010E94050640E8CC
:1010600064E1C3010E9405069201402F62E1C301C1
:101070000E944906432D6AE1C3010E940506412FE3
:1010800062E0C3010E9405061C3029F440E86AE1D1
:10109000C3010E94E90600ED17E068E0C3010E9469
:1010A0009F06982F992139F480FD03C00150110942
:1010B000A1F783E065C06CE0C3010E949F06182F72
:1010C000837109F05AC0E114F104F9F0C114D1049C
:1010D000E1F064E1C3010E949F06F6019081981738
:1010E00008F445C08083082D9701482F62E1C301B1
:1010F0000E94E30668E1C3010E949F068770A11465
:10110000B10421F0F501808301C080E013FD31C0FE
:10111000E114F10481F1C114D10469F19F8999238B
:1011200051F1F6014081413021F4843041F58FEFD7
:1011300027C0423020F1811122C042509E012F5F12
:101140003F4FB701C3010E941007811119C0F6017A
:101150008081E80EF11CF701329790818981981304
:101160000EC0319690818A81981309C004C084E032
:1011700007C082E005C080E003C081E001C087E0D5
:101180000F900F90DF91CF911F910F91FF90EF90F3
:10119000DF90CF90BF90AF909F908F907F906F9097
:1011A0005F904F903F9008958F92AF92BF92CF92F1
:1011B000DF92EF92FF920F931F93AF928C2C570107
:1011C00068017901042F9B0140E36CE00E94000854
:1011D0000F901F910F91FF90EF90DF90CF90BF90F5
:1011E000AF908F9008952F923F924F925F926F929F
:1011F0007F928F929F92AF92BF92CF92DF92EF92A7
:10120000FF920F931F93CF93DF93CDB7DEB72C9749
:101210000FB6F894DEBF0FBECDBF413508F005C153
:10122000342E3B014C0140E86CE10E94FC06222474
:10123000239432E0231691F083E02816E1F091E048
:101240002912F7C083E989833320D1F081E0F301CB
:101250009081953008F480E0B12C17C0F5E9F9834E
:10126000332081F081E0F3019081983008F480E030
:1012700043E0B42E0AC087E9898336E0B32E04C068
:10128000B12C02C023E0B22E80E0D32CF8E0BF9E48
:10129000D0181124D7FCD12C882321F098E89B8307
:1012A00033E001C032E021E09D2D977009F420E089
:1012B0009D2D959595959595290F31F4882309F4E1
:1012C00091C038E0D30E8EC0811102C094E001C0FD
:1012D00093E0291708F4922FEB2DF0E03196E60DFC
:1012E000F71D232F4191A1E0B0E0AC0FBD1FA20F6D
:1012F000B11D4C932F5F422F431B491798F3DECF4C
:101300008111DDC09FE19D150CF495C080E2D82EBF
:1013100090E79A839B818C8189279D8189279E8173
:1013200089278F839E01285F3F4F47E0BE016F5F93
:101330007F4FC4010E9410078111C1C01B86E3E0EA
:10134000EA87CE0107962C0199E09C87CB844C2D2F
:101350004295407F4C0D6AE1C4010E940506A12C14
:10136000CE010B967C018E01065F1F4F92014C85CA
:10137000BE016F5F7F4FC4010E94D408823009F024
:10138000BFCF6CE1C4010E949F0685FD50C08F71E4
:1013900009F480E2282F30E04D2DDD0C550B42176B
:1013A00053070CF046C0D82E85958595859591E01C
:1013B000980F422F477081E009F480E0890FE1E047
:1013C000F0E0EC0FFD1FE80FF11D215031092770EF
:1013D000332781E090E001C0880F2A95EAF79081D9
:1013E000892B80838FE18D150CF492CF9D2D977002
:1013F0009B878D2D8595859585958E5F292FE0E1BD
:101400008E9F200D11242A8321E0911101C020E03C
:10141000280F2C8744244394512C4C0E5D1E480EFB
:10142000511CF9E0F81BFA8791CF86E048C082E0B2
:1014300046C085E044C08B818838F1F182E094E0B9
:10144000EB2DF0E03196E60DF71D980FA1E0B0E02E
:10145000AC0FBD1FA80FB11D2C9121938F5F981366
:10146000F5CF8A85833021F58B85811121C09E01BE
:101470002D5F3F4F41E0B201C4010E94100781116E
:101480001EC09B81F2018181981314C09C818281CE
:10149000981310C0808182FF02C02394CACEF3014A
:1014A0008387822D880F820D8F5F808380E007C045
:1014B00081E005C087E003C083E093E0C1CF2C96B4
:1014C0000FB6F894DEBF0FBECDBFDF91CF911F9155
:1014D0000F91FF90EF90DF90CF90BF90AF909F90D3
:1014E0008F907F906F905F904F903F902F900895D6
:1014F0004F925F926F927F928F929F92AF92CF9214
:10150000EF92FF920F931F93CF93DF931F921F923F
:10151000CDB7DEB76A834115510539F1F901608114
:10152000623018F149012A013C0140E86CE10E9457
:10153000FC0687E08983A12CC12CCE0101967C0199
:101540008401920141E0BE016E5F7F4FC3010E94A2
:10155000D40881110DC0F4018081823041F481E012
:101560009981911105C080E003C084E001C081E051
:101570000F900F90DF91CF911F910F91FF90EF90FF
:10158000CF90AF909F908F907F906F905F904F9093
:1015900008959A01AB0166E20C94780A0F931F93A9
:1015A000CF93DF9300D0CDB7DEB78C0182E08B8381
:1015B00040E064E2C8010E94050640E066E2C8011E
:1015C0000E94050646E268E4C8010E940506AE01D5
:1015D0004D5F5F4FBE016F5F7F4FC8010E94C90A18
:1015E000982F81E0992319F0923009F080E00F9054
:1015F0000F900F90DF91CF911F910F91089560E0B0
:1016000070E087EE9CE00C94850FEF92FF920F93B1
:101610001F93CF93DF93EC0179010E94BC0BF98AF1
:10162000E88A1B8B0A8BFE01EC5AFF4F10821F8643
:101630001E86DF91CF911F910F91FF90EF9008953B
:10164000AF92BF92CF92DF92EF92FF920F931F93D0
:10165000CF93413438F5C42F6B018C017C018EE0AF
:10166000E80EF11C61E070E0C7010E943F175801CD
:10167000E4E5AE0EB11CF5018081882321F0C7019D
:101680000E9484170FC04C2F50E0B601C801449649
:101690000E940D23F501C083C7010E94841780E0DA
:1016A00090E002C08FEF9FEFCF911F910F91FF90BD
:1016B000EF90DF90CF90BF90AF900895EC018C0138
:1016C000025F1F4F7C0184E5E80EF11C5E01E4E13E
:1016D000AE0EB11C61E070E0C8010E943F17F70137
:1016E000D080C8010E948417DD20B1F04D2DB501D6
:1016F000CE010E94B90C61E070E0C8010E943F1762
:10170000F7011082C8010E948417EA89FB8930978B
:1017100009F3CE011995DECF64E670E080E090E039
:101720000E94550FD7CFCF93DF93CDB7DEB7C0540C
:10173000D1090FB6F894DEBF0FBECDBF8C0140E4D7
:10174000BE016F5F7F4FC8010E94AF0E97FDF7CFBC
:10175000D8015096ED91FC915197309781F3482F25
:10176000BE016F5F7F4FC8011995E9CF60E070E05F
:1017700081E39DE00C94850F0F931F93CF93DF932C
:10178000EC01CB018A017983688361E070E00E94FB
:10179000300F1F830E83C8010E94591681E090E02C
:1017A0009D878C87DF91CF911F910F910895CF93E3
:1017B000DF93EC010E94730F6A837B838C839D838C
:1017C000DF91CF910895CF92DF92EF92FF920F9326
:1017D0001F93CF93DF93EC01F62E0E94730F28EB3B
:1017E0003BE0F29E6001F39ED00C11240D2C000C06
:1017F000EE08FF080A811B812C813D81C00ED11E9D
:10180000E21EF31E6C157D058E059F0550F4A701A1
:101810009601261B370B480B590BCA01B9010E94D0
:10182000670FCA82DB82EC82FD82DF91CF911F912C
:101830000F91FF90EF90DF90CF900895CF93DF93BB
:10184000EC0160E070E0888199810E94410F65E0C1
:10185000CE010E94E30B61E070E0888199810E94D3
:10186000410F65E0CE01DF91CF910C94E30BCF9354
:10187000DF93EC0161E070E0888199810E94410F63
:1018800065E0CE010E94E30B60E070E08881998101
:101890000E94410F65E0CE01DF91CF910C94E30BE4
:1018A000CF92DF92EF92FF920F931F93CF936C0131
:1018B000C42F00E010E0E62EF12CC701002E01C07D
:1018C000880F0A94EAF787FF06C0CF5FC6010E941F
:1018D0001E0CC53021F4C6010E94370CC0E00F5F1A
:1018E0001F4F0830110549F78C2FCF911F910F9191
:1018F000FF90EF90DF90CF9008950F931F93CF93B9
:10190000DF938C010E94D70BC8E0D0E0C8010E9491
:10191000370CC8010E941E0C2197C1F7DF91CF91AF
:101920001F910F910895EF92FF920F931F93CF9302
:10193000DF938C01C0E0D0E08EE7E82EF12CC701E8
:101940000C2E01C0880F0A94EAF787FF04C0C80173
:101950000E941E0C03C0C8010E94370C2196C8309B
:10196000D10569F7DF91CF911F910F91FF90EF9013
:101970000895AF92BF92CF92DF92EF92FF920F93B2
:101980001F93CF93DF93EC017B01042F0E947D0C0A
:10199000CE010E94930C67015701A00EB11C10E00C
:1019A000CA14DB0449F0F60161916F01412FCE01A9
:1019B0000E94500C182FF4CF602FC7010E94180FFF
:1019C000082F412F692FCE010E94500C482F602F05
:1019D000CE010E94500CCE01DF91CF911F910F914B
:1019E000FF90EF90DF90CF90BF90AF900C94930C4E
:1019F000CF92DF92EF92FF920F931F93CF93DF93DB
:101A00008C010E94D70B3AE5C32ED12CE12C40E883
:101A1000F42ECFEFDFE762E0F801868197810E9424
:101A2000E8169B016C177D070CF4EB01E216F30638
:101A30000CF47B0161E0C8010E94E30BF1E0CF1AD6
:101A4000D10849F7C7018C1B9D0BC2975CF0CE0DE6
:101A5000DF1DD7FD2196CE0195958795F8019187D9
:101A6000808702C08FEF9FEFDF91CF911F910F9181
:101A7000FF90EF90DF90CF9008950F931F93CF9337
:101A8000DF93EC0162E08E819F810E94E816288539
:101A900039858901330F220B330BE0917B0D6017E1
:101AA00071078207930764F481E08E0F80937B0DAA
:101AB000F0E0E458F24F8FE5808380E090E00BC0C7
:101AC00081E08E0F80937B0DF0E0E458F24F8DE2C1
:101AD000808381E090E0DF91CF911F910F91089575
:101AE000AF92BF92CF92DF92EF92FF920F931F932C
:101AF000CF93DF93EC010E943D0D6C0180EFE82E47
:101B0000F12C00E010E0CE010E943D0D5C018C152F
:101B10009D0519F40F5F1F4F0CC0083011053CF0F4
:101B200065E0CE010E94E30B80E090E00DC000E094
:101B300010E061E0CE010E94E30B81E0E81AF108B9
:101B4000650109F78FEF9FEFDF91CF911F910F9103
:101B5000FF90EF90DF90CF90BF90AF900895CF921D
:101B6000DF92EF92FF920F931F93CF93DF938C013D
:101B7000C5E0D0E0E12CF12CC8010E943D0DE80E3B
:101B8000F91E61E0C8010E94E30B2197A9F785E0E7
:101B9000C82ED12CC0E0D0E0C8010E943D0DC80F76
:101BA000D91F61E0C8010E94E30B81E0C81AD10887
:101BB00099F783E0E816F1042CF423976CF48FEF87
:101BC0009FEF0CC081E090E0239714F480E090E058
:101BD00091958195910902C081E090E0DF91CF91CC
:101BE0001F910F91FF90EF90DF90CF900895CF93CA
:101BF000DF93EC01CE010E94AF0D9C012F5F3F4FA0
:101C000022303105B8F7DF91CF9108950F931F93DC
:101C1000CF93DF93EC010E94F70D8F3F2FEF9207D8
:101C2000D9F006E010E0CE010E94AF0D8F3F2FEFFC
:101C3000920791F0892BA9F301501109A1F7CE0168
:101C40000E94AF0D21E030E0892B11F420E030E05C
:101C500088279927821B930BDF91CF911F910F91BA
:101C60000895CF92DF92EF92FF920F931F93CF933D
:101C7000DF93EC017B01FB01108200E010E080E8C3
:101C8000C82ED12C8A859B850597A4F0CE010E9491
:101C9000AF0D8F3FFFEF9F0789F1892B19F41B864A
:101CA0001A8608C0CE010E94AF0D892B29F581E06C
:101CB00090E024C0CE010E94AF0D009799F00197EB
:101CC000D9F48A859B8501969B878A87F7012081B5
:101CD000C601002E02C0959587950A94E2F7822BE3
:101CE000808302C01B861A860F5F1F4F08301105C4
:101CF00049F680E090E002C08FEF9FEFDF91CF9137
:101D00001F910F91FF90EF90DF90CF900895EF9289
:101D1000FF920F931F93CF93DF937C01042FFC015D
:101D200013861286EB0110E0101781F0BE01C70187
:101D30000E94310E8F3FFFEF9F0751F0019719F47A
:101D4000812F90E005C01F5F2196EECF8FEF9FEFB0
:101D5000DF91CF911F910F91FF90EF900895FF9227
:101D60000F931F93CF93DF93EC018B01F42E10920E
:101D70007B0D8C859D85892B09F1CE010E94F80C85
:101D8000019639F4E0917B0DF0E0E458F24F1082B7
:101D90002DC0CE010E94700D8F3F4FEF940739F098
:101DA000CE010E94060E8F3F2FEF920739F4E0918B
:101DB0007B0DF0E0E458F24F10822EC04F2DB80199
:101DC000CE010E94870E21E030E08F3F4FEF940755
:101DD00011F020E030E03D872C87E0917B0DF0E0B2
:101DE000E458F24F1082823091051CF48FEF9FEF80
:101DF00013C0EC0122976C2FC8010E94180FF80144
:101E0000EC0FFD1F208130E0322F22274181242B4F
:101E10008217930759F7CE01DF91CF911F910F9150
:101E2000FF90089560E070E08CE79EE00C94850FD1
:101E3000482FDC0180E090E02A2F241B261778F43D
:101E40002D91E92FFF27E227EE0FFF1FE956FD4FE7
:101E500020813181982F882782279327EDCF0895FD
:101E60006115710529F06230710521F462E003C04B
:101E700060E001C063E0FC01E956FB4F80810C94F7
:101E80008A1389569B4FFC0180810C94F813895664
:101E90009B4FFC0180810E94BF1321E030E0892B21
:101EA00011F420E030E0C90108959B01AC01A8EED7
:101EB000B3E00E94CC2222E09695879577956795AE
:101EC0002A95D1F720E030E0A9010C94281F22E0E8
:101ED00096958795779567952A95D1F720E030E01C
:101EE000A9010C94281F0E94561C22E0660F771F40
:101EF000881F991F2A95D1F7089560E070E086EC5D
:101F00009EE00C94850F0C94C517FC0171836083CF
:101F10000895885B9F4FFC018081918108950F9304
:101F20001F93FC01EE5BFF4F9C012E5F3F4F3183FF
:101F3000208320E430E033832283158214821782C9
:101F400016828F0123E83FE0FC01808191810E948D
:101F50004B121F910F910895CF93DF93EC010E94D4
:101F60001412FE01E85BFF4F80819181892B39F0CB
:101F7000CE018E5B9F4F0E940018EC0102C0CFEF94
:101F8000DFEF0E941A12CE01DF91CF910895CF9317
:101F9000DF931F921F92CDB7DEB77A83698341E04A
:101FA00050E0BE016F5F7F4FFC01808191810E94F4
:101FB000A51281E090E00F900F90DF91CF910895EE
:101FC0000F931F93CF93DF938C01EB01CB010E9402
:101FD0001D23AC01BE01F801808191810E94A512F0
:101FE000CE01DF91CF911F910F910C941D230C9482
:101FF000E00F0F931F93CF93DF93EC010E94E00F4C
:102000008C016DED74E0CE010E94E00FC8010296D4
:10201000DF91CF911F910F910895CF93DF93EA0144
:10202000FC01808191810E94A512CE01DF91CF91A8
:1020300008954F925F926F927F928F929F92AF928C
:10204000BF92EF92FF920F931F93CF93DF93CDB781
:10205000DEB7C054D1090FB6F894DEBF0FBECDBFB6
:102060007C01213009F450C068F0223009F453C0DB
:10207000233009F06DC07F936F935F934F9388EE89
:1020800094E04FC080E090E0812C912CA12CB0E82E
:10209000BB2E95018401082E04C03695279517950F
:1020A00007950A94D2F70423152326233723012BFF
:1020B000022B032B11F40196ECCF9E012F5F3F4FB3
:1020C000F901412C512C612CA0E87A2E8F01021BC2
:1020D000130B8032910598F553014201082E04C07C
:1020E000B694A794979487940A94D2F78422952261
:1020F000A622B72289288A288B2811F4A0E301C0E0
:10210000A1E3A1930196E2CF7F936F935F934F93E7
:1021100080EE94E006C07F936F935F934F9384EEBD
:1021200094E09F938F93CE0101969F938F930E948B
:102130006A238C010FB6F894DEBF0FBECDBFA80195
:10214000BE016F5F7F4FC7010E940D10C80102C022
:1021500080E090E0C05CDF4F0FB6F894DEBF0FBEAA
:10216000CDBFDF91CF911F910F91FF90EF90BF9066
:10217000AF909F908F907F906F905F904F90089559
:10218000CF92DF92EF92FF920F931F93CF93DF9343
:10219000CDB7DEB7C054D1090FB6F894DEBF0FBE7D
:1021A000CDBF6C017F936F935F934F938CEE94E060
:1021B0009F938F93CE0101967C019F938F930E94F2
:1021C0006A238C01AC01B701C6010E940D100FB645
:1021D000F894DEBF0FBECDBFC801C05CDF4F0FB6A5
:1021E000F894DEBF0FBECDBFDF91CF911F910F914D
:1021F000FF90EF90DF90CF900895223011F40C946F
:10220000C0100C941910242F423031F4AB01770F19
:10221000660B770B0C94FD10AB0160E070E00C9442
:1022200019100F931F93CF93DF93EC010E940311BA
:102230008C016DED74E0CE010E94E00FC8010296A2
:10224000DF91CF911F910F9108950F93FC012130E1
:1022500029F062EC75E083E00E94DE1A023041F062
:10226000033041F0013011F0108206C084E003C059
:1022700088E001C08CE08083403886E9580788E90F
:1022800068077105A8F440348BE458078CE46807AC
:10229000710588F4403482E458078FE068077105BF
:1022A00068F440385A416640710558F483E00FC025
:1022B00080E090E008C081E090E005C082E090E01E
:1022C00002C083E090E0DC01AB50BB4F8C91818376
:1022D0000F9108950F9300E021E040E059E06DE395
:1022E00070E00E9425110F910895EF92FF920F93D5
:1022F0001F93CF93DF931F921F92CDB7DEB78C0150
:102300007B0102960E946A11F801F182E082CE01FF
:1023100001960E946A1189819A81F80193838283D0
:1023200014821682158210861782128611860F90EB
:102330000F90DF91CF911F910F91FF90EF90089533
:102340000F931F93CF93DF93EC01162F072F059662
:102350000E947119202F412F6FEF888199810E946F
:102360001214892B29F062EC75E083E00E94DE1ADA
:1023700081E08C83DF91CF911F910F910895CF93CE
:10238000DF93EC01888199810E9430141C82CE0178
:102390000596DF91CF910C947519AF92BF92CF92B1
:1023A000DF92EF92FF920F931F93CF93DF93EC0195
:1023B0005B017A016C0185E0C80ED11CC6010E9448
:1023C00071198C8181110EC02B814A816FEF888138
:1023D00099810E941214892B29F062EC75E083E048
:1023E0000E94DE1A8501950140E06FEF8881998196
:1023F0000E943C148C81811104C0888199810E94C3
:102400003014C601DF91CF911F910F91FF90EF9093
:10241000DF90CF90BF90AF900C94751960E070E0A2
:1024200080E19FE00C9475110FB6802DF8948078B0
:1024300090E008950FB6802D7894807890E008950C
:10244000FF920F93F82E0FB7087FF02AFFBE0F916F
:10245000FF90089580911B0F90E0089521E0209354
:102460001B0FFC01EE0FFF1FE750FB4F0190F081A7
:10247000E02D6681880F991F880F991FDC01A35EEC
:10248000B04FED91FC91119712968D919C911397FD
:1024900019950C94C320EF92FF920F931F93CF9343
:1024A000DF9379018230910508F046C020E030E0EA
:1024B000E0911C0FEE2319F021503109C9F7FC01FE
:1024C000EE0FFF1FEE0FFF1FE35EF04FF182E08281
:1024D00013830283880F991FFC01E750FB4FC081D3
:1024E000D1811982188286E08A83DB01CA01805873
:1024F0009B47A14EBF4FE3E0880F991FAA1FBB1F48
:10250000EA95D1F79A01AB01F4E0220F331F441F83
:10251000551FFA95D1F7BC01CD010E94A22221508E
:1025200031093D832C83EF2811F088ED01C088E448
:10253000898380E090E002C08FEF9FEFDF91CF9121
:102540001F910F91FF90EF900895CF93DF9321E0BB
:10255000082E01C0220F0A94EAF7DB01460F571F2D
:10256000880F991FFC01E750FB4FA417B50769F0CE
:10257000C081D181888185FFFDCF80911C0F822B86
:1025800080931C0F8D918E83F0CFDF91CF910895B2
:102590001F920F920FB60F9211240BB60F922F932A
:1025A0003F934F935F936F937F938F939F93AF93DB
:1025B000BF93EF93FF9380E090E00E942E12FF9173
:1025C000EF91BF91AF919F918F917F916F915F91AB
:1025D0004F913F912F910F900BBE0F900FBE0F9018
:1025E0001F9018951F920F920FB60F9211240BB6E1
:1025F0000F922F933F934F935F936F937F938F939C
:102600009F93AF93BF93EF93FF9381E090E00E947D
:102610002E12FF91EF91BF91AF919F918F917F917A
:102620006F915F914F913F912F910F900BBE0F9043
:102630000FBE0F901F9018951F920F920FB60F921A
:1026400011240BB60F922F933F934F935F936F9389
:102650007F938F939F93AF93BF93EF93FF9381E00B
:1026600080931B0F80911C0F8E7F80931C0F0E9404
:10267000C320FF91EF91BF91AF919F918F917F9177
:102680006F915F914F913F912F910F900BBE0F90E3
:102690000FBE0F901F9018951F920F920FB60F92BA
:1026A00011240BB60F922F933F934F935F936F9329
:1026B0007F938F939F93AF93BF93EF93FF9381E0AB
:1026C00080931B0F80911C0F8D7F80931C0F0E94A5
:1026D000C320FF91EF91BF91AF919F918F917F9117
:1026E0006F915F914F913F912F910F900BBE0F9083
:1026F0000FBE0F901F901895282F22952F7033E052
:10270000239FC0011124273010F48296089583512D
:102710009F4F0895CF93DF93982F9F70C1E0D0E033
:1027200001C0CC0F9A95EAF76230A9F0633069F0E6
:10273000611120C00E947C13FC012291C0952C23C2
:102740002083FC012081C22311C00E947C13FC0164
:102750008291C82B0BC00E947C13FC0122913C2F5C
:10276000309523232083FC012081C22BC08380E08D
:1027700090E002C08FEF9FEFDF91CF910895CF934C
:10278000C82F0E947C130297FC012081CF7081E04A
:1027900090E002C0880F991FCA95E2F730E08223CB
:1027A0009323CF910895CF93C82F0E947C13FC01EF
:1027B0004081CF7021E030E001C0220FCA95EAF7D6
:1027C000242B2083CF910895CF93C82F0E947C1390
:1027D000FC014081CF7021E030E002C0220F331FA6
:1027E000CA95E2F72095309524232083CF91089550
:1027F000672B11F00C94D3130C94E41384B187600D
:1028000084B90895892B29F062EC75E083E00E9479
:10281000DE1A8091640084608093640080E090E020
:102820000C94FE13CF93DF93C42FD22F61E070E09E
:1028300085E29FE00E943F17E4E6F0E080818B7F15
:1028400080838D2F869586958DBDD370C065CD2BE9
:10285000CCBD8DB58EB580E090E0DF91CF9108952D
:102860008CB58F7B8CBDE4E6F0E080818460808352
:1028700085E29FE00C948417CF92DF92EF92FF9253
:102880000F931F93CF93DF93C62FD42F6901232B70
:1028900041F40115110529F462EC75E083E00E9412
:1028A000DE1ACF3F19F08C2F0E94E413F801D601F5
:1028B000E00EF11EEE15FF0591F0C114D10411F0E8
:1028C0008C9101C080E08EBD0DB407FEFDCF8EB5AA
:1028D0000115110509F0808331961196EBCFD111C6
:1028E0000DC0CF3F59F08C2FDF91CF911F910F91E9
:1028F000FF90EF90DF90CF900C94D313DF91CF91A6
:102900001F910F91FF90EF90DF90CF90089521E0FD
:1029100020931B0F2CE0AC01249FC001259F900D3C
:102920001124DC01A45EBD4F1296ED91FC9113972A
:102930002081AB014F5F5F4F81E090E001C0880FC5
:102940004A95EAF78095822380831696ED91FC9153
:10295000179718968D919C91199719950C94C320EF
:102960008F929F92AF92BF92CF92DF92EF92FF929F
:102970000F931F93DC010297D8F4EDEFF4E090E0A1
:10298000C12C84E2D82E84EFE82EF12C46015701A9
:10299000019004C0B694A794979487940A94D2F7B0
:1029A0009F5F84169506A606B70629F0953071F745
:1029B0008FEF9FEF1EC08CE08A9FF0018B9FF00D80
:1029C0001124E45EFD4FA081B1811C9211961C92EE
:1029D000119712961C92129715961C921E9214979C
:1029E0003783268311870087928711969C9380E016
:1029F00090E01F910F91FF90EF90DF90CF90BF90EC
:102A0000AF909F908F900895633071055CF52CE036
:102A1000289FF001299FF00D1124E45EFD4F808175
:102A20009181DB011496AA0FBB1FA80FB91F119645
:102A30005C934E93A481B5812C916F5F7F4F81E0B1
:102A400090E001C0880F6A95EAF7982F909592233D
:102A50009C930280F381E02D9081892B808380E01C
:102A600090E008958FEF9FEF08952CE0AC01249F34
:102A7000C001259F900D1124FC01E45EFD4F0190E3
:102A8000F081E02D8481958108951F920F920FB6F9
:102A90000F9211240BB60F922F933F934F935F9396
:102AA0006F937F938F939F93AF93BF93EF93FF9316
:102AB00060E070E080E090E00E948714FF91EF9169
:102AC000BF91AF919F918F917F916F915F914F9146
:102AD0003F912F910F900BBE0F900FBE0F901F9044
:102AE00018951F920F920FB60F9211240BB60F92EA
:102AF0002F933F934F935F936F937F938F939F9306
:102B0000AF93BF93EF93FF9361E070E080E090E0BC
:102B10000E948714FF91EF91BF91AF919F918F9188
:102B20007F916F915F914F913F912F910F900BBECD
:102B30000F900FBE0F901F9018951F920F920FB617
:102B40000F9211240BB60F922F933F934F935F93E5
:102B50006F937F938F939F93AF93BF93EF93FF9365
:102B600062E070E080E090E00E948714FF91EF91B6
:102B7000BF91AF919F918F917F916F915F914F9195
:102B80003F912F910F900BBE0F900FBE0F901F9093
:102B900018951F920F920FB60F9211240BB60F9239
:102BA0002F933F934F935F936F937F938F939F9355
:102BB000AF93BF93EF93FF9360E070E081E090E00C
:102BC0000E948714FF91EF91BF91AF919F918F91D8
:102BD0007F916F915F914F913F912F910F900BBE1D
:102BE0000F900FBE0F901F9018951F920F920FB667
:102BF0000F9211240BB60F922F933F934F935F9335
:102C00006F937F938F939F93AF93BF93EF93FF93B4
:102C100061E070E081E090E00E948714FF91EF9105
:102C2000BF91AF919F918F917F916F915F914F91E4
:102C30003F912F910F900BBE0F900FBE0F901F90E2
:102C400018951F920F920FB60F9211240BB60F9288
:102C50002F933F934F935F936F937F938F939F93A4
:102C6000AF93BF93EF93FF9362E070E081E090E059
:102C70000E948714FF91EF91BF91AF919F918F9127
:102C80007F916F915F914F913F912F910F900BBE6C
:102C90000F900FBE0F901F90189561E070E087E2D3
:102CA0009FE00E943F17EAE7F0E080818068808320
:102CB00008958F929F92AF92BF92CF92DF92EF9240
:102CC000FF92CF93DF938031910508F074C0EC013F
:102CD0000E944D16C830D105A0F420917E0081E0FD
:102CE00090E001C0880FCA95EAF7922F982B909335
:102CF0007E0090B38095982390BB91B3892381BBCC
:102D000018C020917D00289781E090E001C0880FD5
:102D1000CA95EAF7922F982B90937D009091070126
:102D200080959823909307019091080189238093BF
:102D30000801C12CD12C7601C394C1E0D0E0812CD4
:102D400094E2992E94EFA92EB12C9E010C2C02C076
:102D5000220F331F0A94E2F7032E000C440B550B8D
:102D6000C501B4010E94A22221343D4043405105D7
:102D700030F480917A00C82AC0927A000BC03FEFED
:102D8000C31AD30AE30AF30A88E0C816D104E1049F
:102D9000F104D9F680917C00806480937C0080915E
:102DA0007A008F7780937A0087E29FE00E948417F1
:102DB00080E090E002C08FEF9FEFDF91CF91FF9016
:102DC000EF90DF90CF90BF90AF909F908F9008953D
:102DD000CF93DF93623009F041C0EC010E944D16A1
:102DE00080917B00C830D10558F4877F80937B00A9
:102DF00080917C00807F80937C0080917C000BC060
:102E0000886080937B0080917C00807F80937C0031
:102E100080917C00C850C82BC0937C0080917A00C0
:102E2000806480937A0080917A0086FDFCCFC09107
:102E30007800D091790080917A00806180937A0047
:102E400080917A008F7780937A0087E29FE00E94DA
:102E50008417BE01DD0F880B990B03C06FEF7FEF66
:102E6000CB01DF91CF910895E1E6F0E080E8808327
:102E700010820E94B81F0E9497210C941A12EF92A0
:102E8000FF920F931F93CF93DF93EC018B010E946E
:102E900014127C0188819981892B41F48FEF9FEF77
:102EA00099838883C7010E9420121FC0012B01F162
:102EB00000914F0F1091500F63E0C8010E946318FA
:102EC00088819981019641F4C80106969983888387
:102ED000F8011782168204C0B801CE010E94C819F9
:102EE000C7010E9420120E94552081E090E005C099
:102EF000C7010E94201280E090E0DF91CF911F91E6
:102F00000F91FF90EF900895EF92FF920F931F9310
:102F1000CF93DF938C010E9414127C01D801ED91B4
:102F2000FC91309739F0EF3FBFEFFB0761F4F801F8
:102F300011821082C701DF91CF911F910F91FF90F5
:102F4000EF900C94201280819181D8018D939C93F5
:102F5000EF0126976CE0CE010E946318F801808192
:102F60009181892B21F48FEF9FEF91838083CB8117
:102F7000D0E0C7010E942012CE01DF91CF911F91B6
:102F80000F91FF90EF900C94F418FC01468157814B
:102F90008281938148175907C9F424813581A08122
:102FA000B181A20FB31F8C91DA011197B783A68369
:102FB000AB2B19F41582148207C02F5F3F4F358366
:102FC000248342175307B1F390E002C08FEF9FEFC5
:102FD0004481558126813781D9011196B783A68313
:102FE000240F351F428153812417350710F0241B0D
:102FF000350B40815181FA01E20FF31F6083089580
:10300000FC014681578141155105D9F02481358154
:10301000A081B181A20FB31F8C91415051095783F8
:103020004683452B19F41582148209C02F5F3F4F48
:10303000358324834281538124173507A1F390E01F
:1030400008958FEF9FEF08951092940F1092930FB1
:10305000A0914F0FB091500F2091290F30912A0F5E
:1030600080E090E020FD04C0369527950196FACFC8
:10307000880F991FFC01E35DF04F0190F081E02D76
:103080000190F081E02D3697AE17BF07C9F0109779
:1030900041F012968C9112978B3019F48CE01296B5
:1030A0008C938BE082838481958190934E0F8093E3
:1030B0004D0FF093500FE0934F0F81E090E0089593
:1030C00080E090E008950F931F93CF93DF93FC016E
:1030D00082816B30E0F18B3008F080C09F012A5F65
:1030E0003F4F838190E0880F991FDC01A35DB04FB3
:1030F000CD91DC911197209751F0488159815783E8
:1031000046830D90BC91A02D2D933C9302C0378334
:103110002683DC01A35DB04F2D933C9381E090E0CA
:10312000038002C0880F991F0A94E2F7092E000C51
:10313000AA0BBB0B0091290F10912A0F20912B0F86
:1031400030912C0F802B912BA22BB32B3FC08B30B7
:1031500008F444C0A381B0E0AA0FBB1FA35DB04F29
:10316000CD91DC911197209769F088819981C817DA
:10317000D90719F41D921C9205C0DC018D919C9118
:10318000998388832381A22FB0E0AA0FBB1FA35D80
:10319000B04F8D919C91892B09F581E090E002C0A0
:1031A000880F991F2A95E2F780959095092E000CBB
:1031B000AA0BBB0B0091290F10912A0F20912B0F06
:1031C00030912C0F80239123A223B3238093290FC6
:1031D00090932A0FA0932B0FB0932C0F6283DF9153
:1031E000CF911F910F910895E0914F0FF091500FE3
:1031F00022812B3028F0238130E08217930768F476
:103200000E942A12892B39F081E090E09093940F6C
:103210008093930F08950C94552008950E941412E2
:10322000E0914D0FF0914E0FEE0FFF1FEF5AF04F50
:10323000118210828091950F9091960F0197909333
:10324000960F8093950F60E080914F0F9091500FF3
:103250000E9463181092500F10924F0F0E94082086
:10326000CF92DF92EF92FF920F931F93CF93DF9352
:10327000EC016B0160E070E00E943F178C01CE0111
:1032800004967C010115110591F460E070E00E9444
:10329000AA1920914D0F30914E0F8217930739F0E4
:1032A000CD28A9F461E070E0CE010E943F17609143
:1032B0004D0F70914E0F40E050E0C7010E94B819C9
:1032C0008A819B8101969B838A8301E010E0C8017B
:1032D000DF91CF911F910F91FF90EF90DF90CF90F2
:1032E000089560E070E00C9430190F931F93CF9312
:1032F000DF93EC018C010C5F1F4F60E070E0C801B0
:103300000E94AA1920914D0F30914E0F82179307FA
:1033100029F062EC75E083E00E94DE1A8A819B81CD
:103320000097B9F301979B838A83892B71F440E05E
:1033300050E060E070E0C8010E94B819CE01DF9152
:10334000CF911F910F910C948417DF91CF911F9112
:103350000F910895CF93DF93EC010E94141209900E
:10336000D881C02D0E942012CE01DF91CF91089507
:103370000F931F93CF93DF93EC018B010E941412E4
:1033800019830883DF91CF911F910F910C94201224
:10339000FB0122812B3028F062EC75E083E00E9473
:1033A000DE1A6381AF014A5F5F4FDC012D913C91D2
:1033B0002115310541F0D901169713967C916717B5
:1033C00010F0C901F2CF37832683FC01518340837B
:1033D00008952F923F924F925F926F927F928F92B9
:1033E0009F92AF92BF92CF92DF92EF92FF920F9394
:1033F0001F93CF93DF9300D01F92CDB7DEB740313C
:1034000098F54B013AE1831A9108DC01A80DB91D2A
:10341000BC83AB83FC0123FF09C0AB81BC81EA17ED
:10342000FB0730F4F183E0833296F7CF91838083FA
:103430001601370158012A8349832B017C010E9420
:1034400014126C01E3E5FFE001E010E0819191913D
:10345000892B61F00F5F1F4F01321105B9F7C601CB
:103460000E9420128FEB5BC084EE59C0F801EE0F72
:10347000FF1FEF5AF04F8B819C8191838083DC0189
:1034800015961C930E9314979401A701B301C501DF
:103490000E94D31FEB81FC8191838083F58AE48AAB
:1034A000518E408E378A268A298123831282178281
:1034B0001682118610861386128615861486178644
:1034C00016868FEF9FEF918B808B138A128A8091E3
:1034D000950F9091960F01969093960F8093950F6C
:1034E0003A8130FF06C062E08B819C810E946318A4
:1034F00011C06CE08B819C810E946318FA81F2FDFF
:1035000009C0C6010E9420122981822F90E00E94EA
:10351000F41803C0C6010E942012C80101C09FEF29
:103520000F900F900F900F90DF91CF911F910F91FF
:10353000FF90EF90DF90CF90BF90AF909F908F90D3
:103540007F906F905F904F903F902F9008950E94D2
:103550005E2182E095E09F938F930E9426230E9434
:1035600030010F900F9080E090E008950E94A61F18
:10357000FDCF0E94141287E7C82E85E0D82EE12CDB
:10358000F12C06EB1AE12CE030E04FE060E870E04F
:1035900087E99FE00E94E9199CE7C92E95E0D92EA2
:1035A00007EA1AE12CE030E047E060E872E087E1EA
:1035B00090E10E94E9190E9408200895EB012091F2
:1035C000971230919812232B71F521E030E030935F
:1035D000981220939712833091F40EB6202D0DB6D9
:1035E000802D90E0922B9F938F9381E895E09F939D
:1035F0008F930E9426230F900F900F900F90DF93D0
:10360000CF9388E995E09F938F930E94262384EBC4
:1036100095E09F938F930E9426230F900F900F9019
:103620000F900F900F900E9414120E94DD1A0E94BA
:10363000A31F8F929F92AF92BF92CF92DF92EF9291
:10364000FF920F931F93CF93DF93DB0169017A0100
:10365000EC01E881F981309709F449C006811781AE
:103660002085318516964D915D916D917C911997CC
:10367000041715072607370708F44CC00417150769
:1036800026073707A1F5428553856485758597011F
:103690008601041B150B260B370BB901A80102810B
:1036A000138124813581041715072607370790F108
:1036B000041B150B260B370B1A964D915D916D91DE
:1036C0007C911D9746015701841A950AA60AB70AEC
:1036D00012964D915D916D917C91159748195909FC
:1036E0006A097B09401751076207730798F411961E
:1036F000FC93EE93EC01B983A883DF91CF911F91E6
:103700000F91FF90EF90DF90CF90BF90AF909F9080
:103710008F900895CF019CCFFC012081318121152C
:10372000310579F02617370751F4FB0120813181EB
:10373000FC0131832083FB01118210820895C901AD
:10374000EBCF08956F927F928F929F92AF92BF922C
:10375000CF92DF92EF92FF920F931F93CF93DF935D
:103760000E941412EC0180E090E00E9435154C019B
:1037700020919E1230919F124091A0125091A1125F
:103780006091A2127091A3128091A4129091A5123F
:1037900060909E1270909F12B091A012A091A11201
:1037A000F091A212E091A3120091A4121091A5121F
:1037B000A12CB12CBA01A90166277727841A950A92
:1037C000A60AB70AAA24BB249401A50160E070E010
:1037D00080E090E05301CB2EDA2EEF2EFE2E0E94D9
:1037E000F52220939E1230939F124093A012509383
:1037F000A1126093A2127093A3128093A4129093CB
:10380000A512CE010E94201220919E1230919F128B
:103810004091A0125091A1126091A2127091A31236
:103820008091A4129091A512DF91CF911F910F91D9
:10383000FF90EF90DF90CF90BF90AF909F908F90D0
:103840007F906F9008950F931F93E0919C12F091D9
:103850009D123097A9F002811381248135810115D1
:1038600040E814072105310558F482859385A48525
:10387000B585B901A801480F591F6A1F7B1F0AC0EF
:103880002091991221110FC0AB01BC014150504849
:103890006F4F7F4F60E070E080E090E00E94041581
:1038A00081E0809399121F910F9108950E94A21BAD
:1038B000B901CA0108950F931F9300E010E028E7B3
:1038C0003CE140E950ED63E070E080E090E00E9470
:1038D000B0140E94561C2091A6123091A712232BDF
:1038E00021F41F910F910C94231C1F910F910895A7
:1038F0002F923F924F925F926F927F928F929F9200
:10390000AF92BF92CF92DF92EF92FF920F931F93ED
:10391000CF93DF9300D01F92CDB7DEB781E090E068
:103920009093A7128093A612109299120E94A21B44
:1039300029013A014B015C0120919C1230919D12AA
:103940003C832B838B819C81892B09F4A6C0EB815E
:10395000FC8186819781A085B185892B8A2B8B2B51
:1039600029F062EC75E083E00E94DE1AEB81FC81B5
:1039700082859385A485B585B301A201481B590BA7
:103980006A0B7B0B82819381A481B5818417950793
:10399000A607B70760F08C019D01041B150B260BD1
:1039A000370B043111052105310508F05BC020916A
:1039B0009C1230919D12EB81FC81E217F30789F68E
:1039C000481759076A077B0788F1AB81BC818D9145
:1039D0009C91119790939D1280939C12FD011282ED
:1039E0001382148215821A961D921D921D921C92AA
:1039F0001D9716861786108A118A11821082529698
:103A0000ED91FC91539754968D919C9155971995F2
:103A1000E0919C12F0919D12FC83EB830E94561C56
:103A20002B013C01812C912C54018CCF0E94561CFF
:103A3000AB81BC811A960D911D912D913C911D97E2
:103A4000DC01CB01801B910BA20BB30BEB81FC8142
:103A5000028113812481358180179107A207B30762
:103A600028F3B3CFAB81BC8112960D931D932D9398
:103A70003C931597FD0142865386648675869201B4
:103A8000A301B401C50100E20E94D922268737872D
:103A9000408B518B2081318153CFA0919A12B091EC
:103AA0009B12BC83AB839201A301B401C50100E268
:103AB0000E94D92229833A831A0173016201EB81A2
:103AC000FC81EF2B09F46BC0EB81FC81828593852F
:103AD000A485B58593018201081B190B2A0B3B0BAA
:103AE00082819381A481B58180179107A207B307D2
:103AF00060F44681578160857185415051096109A3
:103B000071094683578360877187801B910BA20BD5
:103B1000B30BEB81FC8182839383A483B583DF01A4
:103B2000C286D386E486F586E9811E96EC931E97BD
:103B3000FA811F96FC931F9750962C92509751969E
:103B40003C925197FD0186819781A085B185892B93
:103B50008A2B8B2BE1F480919A1290919B12E8179B
:103B6000F90709F0FECEBF018AE992E10E948C1BA1
:103B7000A70196016B817C818CE992E10E94191B5F
:103B800020919A1230919B123C832B8398CFAB816A
:103B9000BC810D90BC91A02DBC83AB8390CF0E94C3
:103BA000A21B29013A014B015C01E0919C12F091AA
:103BB0009D12309789F182859385A485B585B301DF
:103BC000A201481B590B6A0B7B0B82819381A48154
:103BD000B58184179507A607B70708F4ADCE841BF7
:103BE000950BA60BB70B84319105A105B10508F41F
:103BF000A3CE82839383A483B5834286538664864F
:103C000075869201A301B401C50100E20E94D92288
:103C100026873787408B518B1092A7121092A612DD
:103C20008091A6129091A712892BD1F4C301B20101
:103C30000F900F900F900F90DF91CF911F910F91E8
:103C4000FF90EF90DF90CF90BF90AF909F908F90BC
:103C50007F906F905F904F903F902F900C94231C1B
:103C60000F900F900F900F90DF91CF911F910F91B8
:103C7000FF90EF90DF90CF90BF90AF909F908F908C
:103C80007F906F905F904F903F902F9008950F938B
:103C90001F93CF93DF93EC010E9414128C011A82C0
:103CA0001B821C821D821E821F82188619861A861C
:103CB0001B861C861D861E861F86188A198ABE01D1
:103CC0008CE992E10E948C1BBE018AE992E10E947C
:103CD0008C1BC801DF91CF911F910F910C94201282
:103CE0004F925F926F927F928F929F92AF92BF920C
:103CF000CF92DF92EF92FF920F931F93CF93DF93B8
:103D0000DC015296ED91FC915397EF2B09F48DC095
:103D1000280139014A015B01EC010E94471E411450
:103D200051046104710499F5B8E28B169104A10461
:103D3000B10468F580E090E00E9435156C01E12C3B
:103D4000F12C80E090E00E943515A0E0B0E08C19E5
:103D50009D09AE09BF09AA27BB2788159905AA05A1
:103D6000BB0578F3EA89FB898C899D89DF91CF9126
:103D70001F910F91FF90EF90DF90CF90BF90AF9089
:103D80009F908F907F906F905F904F9019940E94BA
:103D900014126C010E94A21B8A829B82AC82BD829B
:103DA0004E825F826886798659017A012A87BB86AE
:103DB0004C87FD8600E20E94D9222E873F87488BE0
:103DC000598B9501A701BE01452846284728B1F423
:103DD0008CE992E10E94191B80919C1290919D1296
:103DE000C817D90779F48091A6129091A712892B50
:103DF00049F4B501C7010E94231C04C08AE992E17D
:103E00000E94191BC601DF91CF911F910F91FF9066
:103E1000EF90DF90CF90BF90AF909F908F907F906A
:103E20006F905F904F900C942012DF91CF911F9173
:103E30000F91FF90EF90DF90CF90BF90AF909F9049
:103E40008F907F906F905F904F9008950C9484179F
:103E50004F925F926F927F928F929F92AF92BF929A
:103E6000CF92DF92EF92FF920F931F93CF93DF9346
:103E7000CDB7DEB768970FB6F894DEBF0FBECDBFE3
:103E80002B013C0149015A010E942A12892B31F170
:103E900089288A288B2829F062EC75E083E00E944B
:103EA000DE1A80E090E00E9435154C01A12CB12C67
:103EB00073016201EE24FF2480E090E00E9435153A
:103EC000A0E0B0E088199909AA09BB09AA27BB2775
:103ED0008C159D05AE05BF0578F31EC0188E1F8A90
:103EE00086E29FE19C8B8B8B7E0187E1E80EF11CC3
:103EF000FE8AED8A61E070E0C7010E943F179501DC
:103F00008401B301A201CE0101960E94701E61E0FE
:103F100070E0C7010E943F1768960FB6F894DEBFA5
:103F20000FBECDBFDF91CF911F910F91FF90EF900A
:103F3000DF90CF90BF90AF909F908F907F906F90C9
:103F40005F904F9008950E941412FFCF0895CF9371
:103F5000DF931F92CDB7DEB721E030E0AE014F5FB7
:103F60005F4F0E942E2189810F90DF91CF9108959C
:103F7000A8950FB6F894A895809160008861809309
:103F80006000109260000FBE0E9487210C94E9210E
:103F90001F920F920FB60F9211245F9A6EE671E096
:103FA00080E00E94DE1A240F351FF90131974FEA95
:103FB000408331974EEF40834EE059E13197408383
:103FC0003197508331971082319780833197908356
:103FD0003197108231971082319780E88083319732
:103FE00010823197108231971082C9018397129203
:103FF000E817F907E1F7F901B49760833197708307
:104000008AE182938F5F8032E1F7C9018C9708952E
:104010000E9424180E941A128DB79EB720910402A4
:1040200030910502821B930B909301028093000252
:104030008091AF129091B012892B41F480910202CD
:10404000909103029093B0128093AF12A0914F0F02
:10405000B091500FCD91CDBFDD91DEBFFF91EF91BB
:10406000DF91CF91BF91AF919F918F917F916F9190
:104070005F914F913F912F911F910F91FF90EF9082
:10408000DF90CF90BF90AF909F908F907F906F9078
:104090005F904F903F902F901F900F900CBE0F900D
:1040A0000BBE0F900FBE0F9008950E942A12892B0D
:1040B00009F062C00F920FB6F8940F920BB60F92F0
:1040C0000CB60F921F9211242F923F924F925F9243
:1040D0006F927F928F929F92AF92BF92CF92DF9218
:1040E000EF92FF920F931F932F933F934F935F9302
:1040F0006F937F938F939F93AF93BF93CF93DF93F0
:10410000EF93FF93A0914F0FB091500F0DB60D920A
:104110000EB60D920E942418A0914F0FB091500F2F
:10412000CD91CDBFDD91DEBFFF91EF91DF91CF91BA
:10413000BF91AF919F918F917F916F915F914F91BF
:104140003F912F911F910F91FF90EF90DF90CF90B3
:10415000BF90AF909F908F907F906F905F904F90A7
:104160003F902F901F900F900CBE0F900BBE0F90A2
:104170000FBE0F900895089581E090E09093940F02
:104180008093930F089510921B0F8091930F90913D
:10419000940F892B09F461C00F920FB6F8940F9217
:1041A0000BB60F920CB60F921F9211242F923F92D2
:1041B0004F925F926F927F928F929F92AF92BF9237
:1041C000CF92DF92EF92FF920F931F932F933F9323
:1041D0004F935F936F937F938F939F93AF93BF930F
:1041E000CF93DF93EF93FF93A0914F0FB091500FB8
:1041F0000DB60D920EB60D920E942418A0914F0F8D
:10420000B091500FCD91CDBFDD91DEBFFF91EF9109
:10421000DF91CF91BF91AF919F918F917F916F91DE
:104220005F914F913F912F911F910F91FF90EF90D0
:10423000DF90CF90BF90AF909F908F907F906F90C6
:104240005F904F903F902F901F900F900CBE0F905B
:104250000BBE0F900FBE0F9018950895CF92DF926E
:10426000EF92FF926B017C01C20ED31EE11CF11C88
:10427000E1E0CE16E0E1DE06E104F10438F4DA0113
:10428000A20FB31FFA01641B750B0FC062EC75E03F
:1042900083E00E94DE1AF999FECFCB018E0F9F1F9B
:1042A00092BD81BDF89A80B58193EA17FB0799F713
:1042B000C901FF90EF90DF90CF9008950E949D215B
:1042C0000C945B1CCF93DF931F92CDB7DEB761E0F8
:1042D00070E0CE0101960E94D9218981082E000C40
:1042E000990B0F90DF91CF910895CF93DF931F9299
:1042F000CDB7DEB7898361E070E0CE0101960E9400
:10430000DC2180E090E00F90DF91CF9108950E9432
:10431000C821E3EBF2E182E492E09383828384E3B9
:1043200092E09183808384ED95E00C943A2363E0DE
:1043300087E10E948A135F980895CF93DF9300D09E
:104340001F92CDB7DEB764E070E0CE0101960E9407
:104350005D2269817A818B819C810E94B6210F90B8
:104360000F900F900F90DF91CF9108956115710517
:104370008105910521F461E070E080E090E06093B8
:10438000A8127093A9128093AA129093AB12089569
:104390000F931F9300E010E020E030E040E855E28A
:1043A00060E070E080E090E00E944B121F910F915E
:1043B000089583EC9FEF0895CF93DF93EB01AB015A
:1043C000BC0180E090E00E94A512CE01DF91CF9168
:1043D000089580E090E00E94F12180E090E00C944C
:1043E0000214892B29F062EC75E083E00E94DE1A4A
:1043F0001092AD121092AC128BB183608BB9809188
:1044000064008F77809364008091BC008B7F8093E1
:10441000BC008CE08093B8008091B9008C7F8093C1
:10442000B9008091B9008093B9008091BC0084608C
:104430008093BC000895EF92FF920F931F93CF9348
:10444000DF9300D01F92CDB7DEB77C018B01AB01AB
:1044500063E270E00E941623CE0101960E946E2254
:1044600020E030E0C8010430110510F484E090E051
:1044700028173907B8F4C901B8010E948E22F70144
:10448000E80FF91FD901A370BB2781E090E08C0FE2
:104490009D1FA80FB91F90818C91892780832F5F62
:1044A0003F4FE0CF0F900F900F900F90DF91CF9183
:1044B0001F910F91FF90EF900895CF93DF93EC0140
:1044C0000E941B228091AE1291E0980F9093AE1241
:1044D000988189278883DF91CF910895DC0191E24B
:1044E000E0E0F0E090935700E491EC93E2E0F0E03C
:1044F00090935700E4911196EC931197E4E0F0E06B
:1045000090935700E4911296EC931297E1E0F0E05B
:1045100090935700949113969C930895AA1BBB1BEC
:1045200051E107C0AA1FBB1FA617B70710F0A61BB3
:10453000B70B881F991F5A95A9F780959095BC01D4
:10454000CD010895A1E21A2EAA1BBB1BFD010DC0CF
:10455000AA1FBB1FEE1FFF1FA217B307E407F50733
:1045600020F0A21BB30BE40BF50B661F771F881F0F
:10457000991F1A9469F760957095809590959B01A5
:10458000AC01BD01CF010895EE0FFF1F881F8BBF47
:104590000790F691E02D19940E94FE22A59F900DA0
:1045A000B49F900DA49F800D911D1124089597FB39
:1045B00010F8169400080F93083098F00850232F35
:1045C000342F452F562F672F782F892F902DF4CF1A
:1045D000059497958795779567955795479537955E
:1045E00027950A95AAF70F9108952A0D3B1D4C1D9A
:1045F0005D1D6E1D7F1D801F911F0895A29FB0013C
:10460000B39FC001A39F700D811D1124911DB29F06
:10461000700D811D1124911D0895FB01DC0102C064
:1046200001900D9241505040D8F70895DC0101C02F
:104630006D9341505040E0F70895FC010190002037
:10464000E9F7809590958E0F9F1F0895CF93DF9384
:10465000CDB7DEB7AE014A5F5F4FFA01619171914C
:10466000AF018091B5129091B6120E949923DF910B
:10467000CF9108950F931F93CF93DF93E091B512DD
:10468000F091B612238121FF1BC08C01D0E0C0E065
:10469000F80181918F016091B5127091B612DB0122
:1046A0001896ED91FC911997882331F01995892B73
:1046B00079F3DFEFCFEFECCF8AE01995892B19F072
:1046C0008FEF9FEF02C08D2F9C2FDF91CF911F9115
:1046D0000F9108950F931F93CF93DF93CDB7DEB75C
:1046E0002E970FB6F894DEBF0FBECDBF0E891F897F
:1046F00086E08C831A8309838FEF9FE79E838D83E7
:10470000AE01465E5F4F688D798DCE0101960E94A5
:104710009923EF81F885E00FF11F10822E960FB6D6
:10472000F894DEBF0FBECDBFDF91CF911F910F91E7
:1047300008952F923F924F925F926F927F928F9245
:104740009F92AF92BF92CF92DF92EF92FF920F9320
:104750001F93CF93DF93CDB7DEB72B970FB6F894A7
:10476000DEBF0FBECDBF6C017B018A01FC01178249
:104770001682838181FFCCC1CE0101963C01F601F6
:104780009381F70193FD859193FF81917F018823A8
:1047900009F4BAC1853239F493FD859193FF819173
:1047A0007F01853229F4B60190E00E94B925E7CF58
:1047B000912C212C312CFFE1F315D8F08B3279F0BC
:1047C00038F4803279F08332A1F4232D20611DC0AA
:1047D0008D3261F0803369F4232D216016C0832D62
:1047E0008260382EE32DE4603E2E2AC0F32DF8605F
:1047F0001DC037FC2DC020ED280F2A3040F08E322E
:10480000B9F436FC81C1232D2064322E19C036FE46
:1048100006C08AE0989E200D1124922E11C0EAE075
:104820002E9E200D1124222EF32DF0623F2E08C063
:104830008C3621F4832D8068382E02C0883641F4EE
:10484000F70193FD859193FF81917F018111B3CF92
:10485000982F9F7D9554933028F40C5F1F4F9FE352
:1048600099830DC0833631F0833771F0833509F0B9
:1048700059C021C0F801808189830E5F1F4F8824B1
:104880008394912C530113C02801F2E04F0E511C68
:10489000F801A080B18036FE03C0692D70E002C02F
:1048A0006FEF7FEFC5010E94AE254C018201F32D11
:1048B000FF773F2E16C0280122E0420E511CF8015E
:1048C000A080B18036FE03C0692D70E002C06FEF9A
:1048D0007FEFC5010E94A3254C01F32DF0683F2E08
:1048E000820133FC1BC0822D90E088169906B0F43B
:1048F000B60180E290E00E94B9252A94F4CFF50138
:1049000037FC859137FE81915F01B60190E00E94EE
:10491000B92521102A9421E0821A9108811491046A
:1049200071F7E8C0843611F0893641F5F80137FE99
:1049300007C060817181828193810C5F1F4F08C025
:1049400060817181072E000C880B990B0E5F1F4F41
:10495000F32DFF763F2E97FF09C0909580957095B7
:1049600061957F4F8F4F9F4FF0683F2E2AE030E0D8
:10497000A3010E94F525882E861845C0853731F49D
:10498000232D2F7EB22E2AE030E025C0932D997F73
:10499000B92E8F36C1F018F4883579F0B5C080375C
:1049A00019F0883721F0B0C0E92FE061BE2EB4FEC7
:1049B0000DC0FB2DF460BF2E09C034FE0AC0292FA4
:1049C0002660B22E06C028E030E005C020E130E0CD
:1049D00002C020E132E0F801B7FE07C060817181BA
:1049E000828193810C5F1F4F06C06081718180E0DE
:1049F00090E00E5F1F4FA3010E94F525882E8618B8
:104A0000FB2DFF773F2E36FE0DC0232D2E7FA22ECD
:104A1000891458F434FE0BC032FC09C0832D8E7EFD
:104A2000A82E05C0B82CA32C03C0B82C01C0B92CEB
:104A3000A4FE0FC0FE01E80DF11D8081803321F43A
:104A40009A2D997EA92E09C0A2FE06C0B394B394F4
:104A500004C08A2D867809F0B394A3FC11C0A0FE8F
:104A600006C0B21488F4280C922C9B180EC0B21405
:104A700060F4B60180E290E00E94B925B394F7CFCC
:104A8000B21418F42B1802C0982C212CA4FE10C0CC
:104A9000B60180E390E00E94B925A2FE17C0A1FCF8
:104AA00003C088E790E002C088E590E0B6010CC042
:104AB0008A2D867859F0A1FE02C08BE201C080E207
:104AC000A7FC8DE2B60190E00E94B925891438F464
:104AD000B60180E390E00E94B9259A94F7CF8A94BA
:104AE000F301E80DF11D8081B60190E00E94B92527
:104AF0008110F5CF222009F442CEB60180E290E089
:104B00000E94B9252A94F6CFF6018681978102C0CA
:104B10008FEF9FEF2B960FB6F894DEBF0FBECDBF81
:104B2000DF91CF911F910F91FF90EF90DF90CF9089
:104B3000BF90AF909F908F907F906F905F904F90BD
:104B40003F902F900895FC01059061507040011036
:104B5000D8F7809590958E0F9F1F0895FC016150A6
:104B6000704001900110D8F7809590958E0F9F1F8F
:104B700008950F931F93CF93DF93FB01238121FDB2
:104B800003C08FEF9FEF2CC022FF16C046815781D4
:104B9000248135814217530744F4A081B1819D01DE
:104BA0002F5F3F4F318320838C93268137812F5F86
:104BB0003F4F3783268314C08B01EC01FB01008437
:104BC000F185E02D1995892BE1F6D80116968D9186
:104BD0009C911797019617969C938E931697CE01EA
:104BE000DF91CF911F910F910895FA01AA272830E4
:104BF00051F1203181F1E8946F936E7F6E5F7F4FAA
:104C00008F4F9F4FAF4FB1E03ED0B4E03CD0670F25
:104C1000781F891F9A1FA11D680F791F8A1F911D78
:104C2000A11D6A0F711D811D911DA11D20D009F4C8
:104C300068943F912AE0269F11243019305D31930A
:104C4000DEF6CF010895462F4770405D4193B3E0F3
:104C50000FD0C9F7F6CF462F4F70405D4A3318F09A
:104C6000495D31FD4052419302D0A9F7EACFB4E04B
:104C7000A6959795879577956795BA95C9F7009703
:104C80006105710508959B01AC010A2E06945795A4
:104C9000479537952795BA95C9F7620F731F841FFB
:0A4CA000951FA01D0895F894FFCFA2
:104CAA000000BB1220000101A1A2A3A6A7A8A9B1D6
:104CBA00B2AABBCCAFBFA0B07D7EFFFF80006F0061
:104CCA003600000000000000A00072003900000059
:104CDA000000000000000001000000000000622146
:104CEA000000000000020000000075210000000022
:104CFA002C20307800747831007278310054616762
:104D0A00205549443A0053656E64696E67203078CD
:104D1A0061310053656E64696E67203078623100D4
:104D2A0053656E64696E6720307863310000000055
:104D3A0000F308CE0A5E0500002110422063308489
:104D4A0040A550C660E770088129914AA16BB18CD1
:104D5A00C1ADD1CEE1EFF13112100273325222B558
:104D6A00529442F772D662399318837BB35AA3BD21
:104D7A00D39CC3FFF3DEE36224433420040114E628
:104D8A0064C774A44485546AA54BB528850995EE71
:104D9A00E5CFF5ACC58DD55336722611163006D738
:104DAA0076F6669556B4465BB77AA719973887DFC1
:104DBA00F7FEE79DD7BCC7C448E5588668A7784080
:104DCA0008611802282338CCC9EDD98EE9AFF94811
:104DDA008969990AA92BB9F55AD44AB77A966A7198
:104DEA001A500A333A122AFDDBDCCBBFFB9EEB7961
:104DFA009B588B3BBB1AABA66C877CE44CC55C22E8
:104E0A002C033C600C411CAEED8FFDECCDCDDD2AB0
:104E1A00AD0BBD688D499D977EB66ED55EF44E1377
:104E2A003E322E511E700E9FFFBEEFDDDFFCCF1B00
:104E3A00BF3AAF599F788F8891A981CAB1EBA10C6B
:104E4A00D12DC14EF16FE18010A100C230E32004E0
:104E5A0050254046706760B9839893FBA3DAB33D47
:104E6A00C31CD37FE35EF3B1029012F322D2323530
:104E7A0042145277625672EAB5CBA5A89589856E17
:104E8A00F54FE52CD50DC5E234C324A01481046680
:104E9A0074476424540544DBA7FAB79987B8975F27
:104EAA00E77EF71DC73CD7D326F2369106B01657D0
:104EBA00667676154634564CD96DC90EF92FE9C86F
:104ECA0099E9898AB9ABA94458654806782768C020
:104EDA0018E1088238A3287DCB5CDB3FEB1EFBF987
:104EEA008BD89BBBAB9ABB754A545A376A167AF170
:104EFA000AD01AB32A923A2EFD0FED6CDD4DCDAAD7
:104F0A00BD8BADE89DC98D267C076C645C454CA2BF
:104F1A003C832CE01CC10C1FEF3EFF5DCF7CDF9B66
:104F2A00AFBABFD98FF89F176E367E554E745E930F
:104F3A002EB23ED10EF01E4041444565437374754E
:104F4A0076141516178180717033323130000102E0
:104F5A0003040506072726252423222140376261F8
:104F6A0060A7A6A5A4A3A2A1A01312111050515282
:104F7A00535455565790919293949596970D0A00CB
:104F8A00256C6F00256C7500256C7800256C69000E
:104F9A00252E2A660004000106C000C80000030688
:104FAA00080A6D61696E28293A2054686973206974
:104FBA00732052494F5421202856657273696F6EC7
:104FCA003A20554E4B4E4F574E20286275696C64F5
:104FDA006469723A202F686F6D652F737269766102
:104FEA006D73696D616C6C6164692F4C6946692FD8
:104FFA004C692D46692D696E2D496E6475737472FC
:10500A00792D342E302F72696F742F52494F542DD7
:10501A0073706929290A0069646C65006D61696E9B
:10502A0000537461636B20506F696E7465723A2025
:10503A003078253034780A002A2A2A2052494F54D7
:10504A00206B65726E656C2070616E69633A0A2521
:10505A00730A0A002A2A2A2068616C7465642E0A77
:10506A000A004641494C454420415353455254494C
:06507A004F4E2E000C0059
:04000003000002589F
:00000001FF
