:100000000C94C6000C940D010C940D010C940D0180
:100010000C940D010C940D010C940D010C940D0128
:100020000C940D010C940D010C940D010C940D0118
:100030000C940D010C940D010C940D010C940D0108
:100040000C940D010C947A120C94A6120C94D212FA
:100050000C940D010C940D010C940D010C940D01E8
:100060000C940D010C94FD0F0C940D010C94511087
:100070000C940D010C940D010C940D010C940D01C8
:100080000C940D010C940D010C940D010C940D01B8
:100090000C9427100C940D010C9481100C940D01FC
:1000A0000C940D010C940D010C94FE120C942A1367
:1000B0000C9456130C940D010C940D010C940D012D
:1000C0000C940D010C940D010C940D010C940D0178
:1000D0000C940D010C940D010C940D010C940D0168
:1000E0000C940D010C948D080C941E010C941801B5
:1000F0000C94E4150C948C170C94EC020C94FC1BDF
:100100000C940B0D0C94381E0C9444090C947D1720
:100110000C9423010C9428010C944B1E0C94810622
:100120000C945C080C94A00C0C944E190C94430F86
:100130000C94CF02464154414C204552524F523A02
:10014000204241444953525F766563742063616C79
:100150006C65642C20756E70726F63657373656473
:1001600020496E746572727570742E0A53544F5024
:1001700020457865637574696F6E2E0A000018015A
:10018000CF028D084409A00C0B0D430F832D8093E3
:10019000C81284B78093C91214BE0FB6F894A895FC
:1001A00080916000886180936000109260000FBEB3
:1001B00011241FBECFEFD1E2DEBFCDBF00E00CBFE8
:1001C00015E0A0E0B2E0E6E5F6E400E00BBF02C017
:1001D00007900D92AE3EB107D9F722E1AEEEB5E041
:1001E00001C01D92A83CB207E1F710E0C6ECD0E0D8
:1001F00000E006C021970109802FFE010E949A1F8E
:10020000CF3BD10780E00807A9F70E940F010C94AB
:1002100029230E9413010C9429230C949E1C0E94F4
:1002200069140C948F170E94CE010E944B02FDCFDF
:1002300060E070E08EEE95E00C94110D0E94EC08E9
:1002400080E090E008950E94210980E090E0089508
:10025000FF920F931F93CF93DF93423008F498C01F
:10026000FB01208130918F0C23133EC00EEF040F51
:1002700081F1EB0122966EE372E08CEA9CE00E9431
:100280002C0DF12C10E0015011098F2D90E08017FA
:10029000910794F4FE01E80FF91F608170E043E0DC
:1002A0008CEA9CE00E94380E66E472E08CEA9CE0E6
:1002B0000E942C0DF394E9CFC00FD11F688170E02C
:1002C00043E08CEA9CE00E94460E88818093920C69
:1002D0005FC06BE472E08CEA9CE0DF91CF911F91EC
:1002E0000F91FF900C942E0D30910902231344C0FE
:1002F0000FEF040FEB0121966EE372E08CEA9CE0B5
:100300000E942C0DF12C10E0015011098F2D90E06E
:100310008017910794F4FE01E80FF91F608170E0E7
:1003200043E08CEA9CE00E94380E66E472E08CEABE
:100330009CE00E942C0DF394E9CFC00FD11F68817F
:1003400070E043E08CEA9CE00E94460E8881809336
:10035000900B90910702891306C023E030E03093A0
:10036000910C2093900C90910802891311C0109267
:10037000910C1092900C0CC08B53964049F08BE37B
:1003800096E0DF91CF911F910F91FF900C94AE08F2
:10039000DF91CF911F910F91FF900895CF92DF923F
:1003A000EF92FF920F931F938CE99CE00E941B0534
:1003B0006EE572E08CEA9CE00E942E0D60E070E039
:1003C000CB010E947D1C80938F0C6FE672E08CEA5B
:1003D0009CE00E942C0D60918F0C70E043E08CEA51
:1003E0009CE00E94460E8DE7C82E82E0D82E9BE34B
:1003F000E92E96E0F92E0EE111E028E030E046E02B
:1004000060E872E080E199E00E94BF1621E8C22E08
:1004100022E0D22E03E211E028E030E045E060E87F
:1004200072E080E996E00E94BF1661E070E080E033
:1004300090E00E94E30C60E070E084E090E00E94B5
:10044000BE0C60E070E085E090E00E94BE0C61E0D0
:1004500070E088E090E00E94BE0C61E070E089E00E
:1004600090E00E94BE0C60E070E088E090E00E94A6
:10047000CF0C60E070E089E090E00E94CF0C65E86E
:1004800072E08CEA9CE01F910F91FF90EF90DF905B
:10049000CF900C942E0DCF93DF931F921F92CDB768
:1004A000DEB784E090E00E94D50C21E0892B09F4AE
:1004B00020E020933A0685E090E00E94D50C21E0F0
:1004C000009709F420E02093390620913A06222370
:1004D00019F081E090E00AC0892B61F08091900CC6
:1004E0009091910C019731F482E090E09093910CFF
:1004F0008093900C8091900C9091910C813091059B
:10050000E9F134F4892B09F045C060E070E038C0AF
:100510008230910519F0039789F13CC060E070E0EA
:1005200088E090E00E94CF0C60E070E089E090E00D
:100530000E94CF0C809109028983809106028A83F0
:1005400042E0BE016F5F7F4F8BE396E00E94AE08F2
:10055000892B31F06AE070E080E090E00E94E30CCB
:1005600081E08093380662E972E08CEA9CE00E94A8
:100570002E0D1092910C1092900C0CC061E070E066
:1005800088E090E00E94CF0C60E070E089E090E0AD
:100590000E94CF0C0F900F90DF91CF9108950F9391
:1005A0001F9360E070E08CEA9CE00E94110D41E333
:1005B00065E38CE99CE00E948B0300E010E028E2F8
:1005C00031E040E050E062E070E08BE396E00E94B2
:1005D00093081F910F910895BC016E5F7F4FDC015E
:1005E000ED91FC910190F081E02D40E0199591E0B2
:1005F000811190E0892F0895CF93DF931F92CDB79B
:10060000DEB7698341E050E0BE016F5F7F4F0E941B
:10061000020F89810F90DF91CF9108959F92AF9241
:10062000BF92CF92DF92EF92FF920F931F93CF93DF
:10063000DF931F921F92CDB7DEB76C01A42E790114
:10064000902E6068B62E00E021E040E059E06DE3B6
:1006500070E0CE0101960E945A0E69817A818FE185
:100660009FE00E94D50EF601868560E070E090E084
:100670000E94CF0CAA946B2D8FE19FE00E94FC0298
:100680009920B1F00FEF10E001C0000F9A94EAF743
:100690006B2D8FE19FE00E94FC02202F2095F70137
:1006A000908192238023892B80839924939401C085
:1006B000912C892D90E09A1460F48701080F191F7E
:1006C0006B2D8FE19FE00E94FC02F80180839394E0
:1006D000F0CFE80EF91E60E08FE19FE00E94FC027F
:1006E000F7018083F601868561E070E090E00E946A
:1006F000CF0C8FE19FE00E94F40E0F900F90DF91DE
:10070000CF911F910F91FF90EF90DF90CF90BF900E
:10071000AF909F900895FC0188EA92E091838083D6
:10072000668747870895DF92EF92FF920F931F939A
:10073000CF93DF931F921F92CDB7DEB77C01D62EE9
:10074000142F00E021E040E059E06DE370E0CE01BD
:1007500001960E945A0E69817A818FE19FE00E9482
:10076000D50EF701868560E070E090E00E94CF0C26
:100770006D2D8FE19FE00E94FC02612F8FE19FE0D1
:100780000E94FC02F701868561E070E090E00E9423
:10079000CF0C8FE19FE00E94F40E0F900F90DF913D
:1007A000CF911F910F91FF90EF90DF900895BF922E
:1007B000CF92DF92EF92FF920F931F93CF93DF932D
:1007C0001F921F92CDB7DEB77C01162FD42EB22E0A
:1007D000C32E00E021E040E059E06DE370E0CE017F
:1007E00001960E945A0E69817A818FE19FE00E94F2
:1007F000D50EF701868560E070E090E00E94CF0C96
:10080000612F8FE19FE00E94FC020B2D1C2DC8017F
:100810008D0D911D6C010C151D0541F0F8016191C4
:100820008F018FE19FE00E94FC02F5CFF7018685E2
:1008300061E070E090E00E94CF0C8FE19FE00E94A9
:10084000F40E0F900F90DF91CF911F910F91FF90B9
:10085000EF90DF90CF90BF900895EF92FF920F93AB
:100860001F93CF93DF931F921F92CDB7DEB77C010A
:10087000162F00E021E040E059E06DE370E0CE018A
:1008800001960E945A0E69817A818FE19FE00E9451
:10089000D50EF701868560E070E090E00E94CF0CF5
:1008A000612F60688FE19FE00E94FC0260E08FE1B1
:1008B0009FE00E94FC02182FF701868561E070E03E
:1008C00090E00E94CF0C8FE19FE00E94F40E812FF8
:1008D0000F900F90DF91CF911F910F91FF90EF90AC
:1008E00008950F9341110E940E030F9108950F93E5
:1008F0001F93CF93DF938C01D62FC42F0E942D041A
:10090000482F4C2B6D2FC801DF91CF911F910F9174
:100910000C9493030F931F93CF93DF938C01D62FE7
:10092000C42F0E942D04C0954C2F48236D2FC80161
:10093000DF91CF911F910F910C949303CF92DF928F
:10094000EF92FF920F931F93CF93DF93EC016B0114
:10095000142F790140E062E00E94930344E06AE0D2
:10096000CE010E94930340E864E1CE010E9493030C
:100970009601412F62E1CE010E94D70343E062E07D
:10098000CE010E94930308E813E16AE0CE010E94C1
:100990002D0482FF13C040E062E0CE010E94930369
:1009A00064E4CE010E942D04F701808362E4CE014D
:1009B0000E942D04F701818380E004C001501109D9
:1009C00021F783E0DF91CF911F910F91FF90EF907E
:1009D000DF90CF9008950F931F93CF938C014FE03A
:1009E00062E00E949303C3E062E370E080E090E085
:1009F0000E94E30C62E0C8010E942D0484FF02C043
:100A0000C15091F7CF911F910F910895CF93DF932C
:100A1000EC0168E20E942D04982F9370933041F00E
:100A2000482F436068E2CE01DF91CF910C9493038D
:100A3000DF91CF910895CF93DF93EC018E8561E034
:100A400070E090E00E94BE0C8E8561E070E090E066
:100A50000E94CF0C8F858F3F09F45CC060E070E08E
:100A600090E00E94BE0C8F8590E00E94D50C892BEF
:100A700009F050C08F8561E070E090E00E94BE0CEC
:100A80008F8560E070E090E00E94CF0C62E070E043
:100A900080E090E00E94F50C8F8561E070E090E0CE
:100AA0000E94CF0C62E370E080E090E00E94E30CD3
:100AB00040E064E2CE010E94930340E066E2CE0192
:100AC0000E94930346E268E4CE010E94930340E84B
:100AD00064E5CE010E94930349EA66E5CE010E94D7
:100AE000930343E068E5CE010E94930348EE6AE574
:100AF000CE010E94930340E46AE2CE010E94930378
:100B00004DE362E2CE010E949303CE01DF91CF91CB
:100B10000C940605CE010E94EB04CACF3F924F927F
:100B20005F926F927F928F929F92AF92BF92CF927D
:100B3000DF92EF92FF920F931F93CF93DF931F9259
:100B40001F92CDB7DEB73C01162F942E2901A114B8
:100B5000B10419F0F501408101C040E0342EF0E10C
:100B60008F9E300C112440E062E0C3010E94930389
:100B70004FE768E0C3010E94930340E864E1C301CA
:100B80000E9493039201402F62E1C3010E94D703A8
:100B9000432D6AE1C3010E949303412F62E0C30128
:100BA0000E9493031C3029F440E86AE1C3010E94CB
:100BB000770400ED17E068E0C3010E942D04982F30
:100BC000992139F480FD03C001501109A1F783E098
:100BD00065C06CE0C3010E942D04182F837109F0D9
:100BE0005AC0E114F104F9F0C114D104E1F064E158
:100BF000C3010E942D04F6019081981708F445C0A6
:100C00008083082D9701482F62E1C3010E9471047F
:100C100068E1C3010E942D048770A114B10421F082
:100C2000F501808301C080E013FD31C0E114F104BF
:100C300081F1C114D10469F19F89992351F1F60121
:100C40004081413021F4843041F58FEF27C042309C
:100C500020F1811122C042509E012F5F3F4FB7010A
:100C6000C3010E949E04811119C0F6018081E80E23
:100C7000F11CF70132979081898198130EC031964B
:100C800090818A81981309C004C084E007C082E083
:100C900005C080E003C081E001C087E00F900F90A5
:100CA000DF91CF911F910F91FF90EF90DF90CF9048
:100CB000BF90AF909F908F907F906F905F904F907C
:100CC0003F9008958F92AF92BF92CF92DF92EF92B2
:100CD000FF920F931F93AF928C2C570168017901FB
:100CE000042F9B0140E36CE00E948E050F901F9142
:100CF0000F91FF90EF90DF90CF90BF90AF908F90CB
:100D000008952F923F924F925F926F927F928F92AF
:100D10009F92AF92BF92CF92DF92EF92FF920F938A
:100D20001F93CF93DF93CDB7DEB72C970FB6F89410
:100D3000DEBF0FBECDBF413508F005C1342E3B01EB
:100D40004C0140E86CE10E948A042224239432E0A2
:100D5000231691F083E02816E1F091E02912F7C004
:100D600083E989833320D1F081E0F30190819530CC
:100D700008F480E0B12C17C0F5E9F983332081F045
:100D800081E0F3019081983008F480E043E0B42ED4
:100D90000AC087E9898336E0B32E04C0B12C02C0B3
:100DA00023E0B22E80E0D32CF8E0BF9ED0181124AF
:100DB000D7FCD12C882321F098E89B8333E001C035
:100DC00032E021E09D2D977009F420E09D2D95954E
:100DD00095959595290F31F4882309F491C038E051
:100DE000D30E8EC0811102C094E001C093E0291798
:100DF00008F4922FEB2DF0E03196E60DF71D232F2E
:100E00004191A1E0B0E0AC0FBD1FA20FB11D4C930A
:100E10002F5F422F431B491798F3DECF8111DDC0AE
:100E20009FE19D150CF495C080E2D82E90E79A833F
:100E30009B818C8189279D8189279E8189278F832A
:100E40009E01285F3F4F47E0BE016F5F7F4FC401A7
:100E50000E949E048111C1C01B86E3E0EA87CE0197
:100E600007962C0199E09C87CB844C2D4295407FBE
:100E70004C0D6AE1C4010E949303A12CCE010B9694
:100E80007C018E01065F1F4F92014C85BE016F5F92
:100E90007F4FC4010E946206823009F0BFCF6CE12F
:100EA000C4010E942D0485FD50C08F7109F480E2B9
:100EB000282F30E04D2DDD0C550B421753070CF059
:100EC00046C0D82E85958595859591E0980F422F3F
:100ED000477081E009F480E0890FE1E0F0E0EC0F79
:100EE000FD1FE80FF11D215031092770332781E0E4
:100EF00090E001C0880F2A95EAF79081892B8083C2
:100F00008FE18D150CF492CF9D2D97709B878D2DC1
:100F10008595859585958E5F292FE0E18E9F200D23
:100F200011242A8321E0911101C020E0280F2C8791
:100F300044244394512C4C0E5D1E480E511CF9E084
:100F4000F81BFA8791CF86E048C082E046C085E072
:100F500044C08B818838F1F182E094E0EB2DF0E021
:100F60003196E60DF71D980FA1E0B0E0AC0FBD1F64
:100F7000A80FB11D2C9121938F5F9813F5CF8A850F
:100F8000833021F58B85811121C09E012D5F3F4F5C
:100F900041E0B201C4010E949E0481111EC09B81E8
:100FA000F2018181981314C09C818281981310C032
:100FB000808182FF02C02394CACEF3018387822DF1
:100FC000880F820D8F5F808380E007C081E005C0BD
:100FD00087E003C083E093E0C1CF2C960FB6F8946E
:100FE000DEBF0FBECDBFDF91CF911F910F91FF905C
:100FF000EF90DF90CF90BF90AF909F908F907F90B9
:101000006F905F904F903F902F9008954F925F9216
:101010006F927F928F929F92AF92CF92EF92FF92B8
:101020000F931F93CF93DF931F921F92CDB7DEB71D
:101030006A834115510539F1F9016081623018F177
:1010400049012A013C0140E86CE10E948A0487E0E2
:101050008983A12CC12CCE0101967C0184019201CF
:1010600041E0BE016E5F7F4FC3010E9462068111A5
:101070000DC0F4018081823041F481E099819111A9
:1010800005C080E003C084E001C081E00F900F90B4
:10109000DF91CF911F910F91FF90EF90CF90AF9084
:1010A0009F908F907F906F905F904F9008959A01DE
:1010B000AB0166E20C9406080F931F93CF93DF9366
:1010C00000D0CDB7DEB78C0182E08B8340E064E2D4
:1010D000C8010E94930340E066E2C8010E949303A6
:1010E00046E268E4C8010E949303AE014D5F5F4F82
:1010F000BE016F5F7F4FC8010E945708982F81E0A3
:10110000992319F0923009F080E00F900F900F9022
:10111000DF91CF911F910F91089560E070E086EF0D
:101120009CE00C94110DEF92FF920F931F93CF93BD
:10113000DF93EC0179010E944A09F98AE88A1B8B46
:101140000A8BFE01EC5AFF4F10821F861E86DF912C
:10115000CF911F910F91FF90EF900895AF92BF92A2
:10116000CF92DF92EF92FF920F931F93CF93413470
:1011700038F5C42F6B018C017C018EE0E80EF11C68
:1011800061E070E0C7010E9474145801E4E5AE0EFE
:10119000B11CF5018081882321F0C7010E94B91498
:1011A0000FC04C2F50E0B601C80144960E94E31FC7
:1011B000F501C083C7010E94B91480E090E002C02D
:1011C0008FEF9FEFCF911F910F91FF90EF90DF90E6
:1011D000CF90BF90AF900895EC018C01025F1F4F3C
:1011E0007C0184E5E80EF11C5E01E4E1AE0EB11C69
:1011F00061E070E0C8010E947414F701D080C8015A
:101200000E94B914DD20B1F04D2DB501CE010E9430
:10121000470A61E070E0C8010E947414F70110826F
:10122000C8010E94B914EA89FB89309709F3CE01FD
:101230001995DECF64E670E080E090E00E94E30C58
:10124000D7CFCF93DF93CDB7DEB7C054D1090FB658
:10125000F894DEBF0FBECDBF8C0140E4BE016F5FCE
:101260007F4FC8010E943D0C97FDF7CFD8015096E3
:10127000ED91FC915197309781F3482FBE016F5F3C
:101280007F4FC8011995E9CF60E070E080E49DE0F0
:101290000C94110D0F931F93CF93DF93EC01CB01AF
:1012A0008A017983688361E070E00E94BE0C1F832D
:1012B0000E83C8010E948E1381E090E09D878C8789
:1012C000DF91CF911F910F910895CF93DF93EC01A0
:1012D0000E94010D6A837B838C839D83DF91CF9174
:1012E0000895CF92DF92EF92FF920F931F93CF93C7
:1012F000DF93EC01F62E0E94010D28EB3BE0F29EFD
:101300006001F39ED00C11240D2C000CEE08FF0898
:101310000A811B812C813D81C00ED11EE21EF31E6D
:101320006C157D058E059F0550F4A7019601261BBF
:10133000370B480B590BCA01B9010E94F50CCA8240
:10134000DB82EC82FD82DF91CF911F910F91FF90A4
:10135000EF90DF90CF900895CF93DF93EC0160E0A2
:1013600070E0888199810E94CF0C65E0CE010E94D7
:10137000710961E070E0888199810E94CF0C65E07D
:10138000CE01DF91CF910C947109CF93DF93EC01E3
:1013900061E070E0888199810E94CF0C65E0CE0108
:1013A0000E94710960E070E0888199810E94CF0CF1
:1013B00065E0CE01DF91CF910C947109CF92DF925D
:1013C000EF92FF920F931F93CF936C01C42F00E015
:1013D00010E0E62EF12CC701002E01C0880F0A9400
:1013E000EAF787FF06C0CF5FC6010E94AC09C5308F
:1013F00021F4C6010E94C509C0E00F5F1F4F0830ED
:10140000110549F78C2FCF911F910F91FF90EF900D
:10141000DF90CF9008950F931F93CF93DF938C01AC
:101420000E946509C8E0D0E0C8010E94C509C80152
:101430000E94AC092197C1F7DF91CF911F910F91C5
:101440000895EF92FF920F931F93CF93DF938C0138
:10145000C0E0D0E08EE7E82EF12CC7010C2E01C0D1
:10146000880F0A94EAF787FF04C0C8010E94AC09FC
:1014700003C0C8010E94C5092196C830D10569F78B
:10148000DF91CF911F910F91FF90EF900895AF9250
:10149000BF92CF92DF92EF92FF920F931F93CF9361
:1014A000DF93EC017B01042F0E940B0ACE010E9406
:1014B000210A67015701A00EB11C10E0CA14DB0419
:1014C00049F0F60161916F01412FCE010E94DE09C2
:1014D000182FF4CF602FC7010E94A60C082F412FB0
:1014E000692FCE010E94DE09482F602FCE010E9495
:1014F000DE09CE01DF91CF911F910F91FF90EF9008
:10150000DF90CF90BF90AF900C94210ACF92DF92E2
:10151000EF92FF920F931F93CF93DF938C010E9462
:1015200065093AE5C32ED12CE12C40E8F42ECFEF2B
:10153000DFE762E0F801868197810E941D149B011C
:101540006C177D070CF4EB01E216F3060CF47B013B
:1015500061E0C8010E947109F1E0CF1AD10849F792
:10156000C7018C1B9D0BC2975CF0CE0DDF1DD7FD14
:101570002196CE0195958795F8019187808702C0C5
:101580008FEF9FEFDF91CF911F910F91FF90EF9021
:10159000DF90CF9008950F931F93CF93DF93EC01CB
:1015A00062E08E819F810E941D1428853985890102
:1015B000330F220B330BE0918A0D601771078207FE
:1015C000930764F481E08E0F80938A0DF0E0E55775
:1015D000F24F8FE5808380E090E00BC081E08E0FBA
:1015E00080938A0DF0E0E557F24F8DE2808381E031
:1015F00090E0DF91CF911F910F910895AF92BF922C
:10160000CF92DF92EF92FF920F931F93CF93DF93CE
:10161000EC010E94CB0A6C0180EFE82EF12C00E077
:1016200010E0CE010E94CB0A5C018C159D0519F4D7
:101630000F5F1F4F0CC0083011053CF065E0CE0174
:101640000E94710980E090E00DC000E010E061E0D0
:10165000CE010E94710981E0E81AF108650109F7DD
:101660008FEF9FEFDF91CF911F910F91FF90EF9040
:10167000DF90CF90BF90AF900895CF92DF92EF921E
:10168000FF920F931F93CF93DF938C01C5E0D0E0BF
:10169000E12CF12CC8010E94CB0AE80EF91E61E092
:1016A000C8010E9471092197A9F785E0C82ED12CA5
:1016B000C0E0D0E0C8010E94CB0AC80FD91F61E08A
:1016C000C8010E94710981E0C81AD10899F783E026
:1016D000E816F1042CF423976CF48FEF9FEF0CC005
:1016E00081E090E0239714F480E090E0919581955B
:1016F000910902C081E090E0DF91CF911F910F919D
:10170000FF90EF90DF90CF900895CF93DF93EC019F
:10171000CE010E943D0B9C012F5F3F4F22303105CF
:10172000B8F7DF91CF9108950F931F93CF93DF9375
:10173000EC010E94850B8F3F2FEF9207D9F006E056
:1017400010E0CE010E943D0B8F3F2FEF920791F0EA
:10175000892BA9F301501109A1F7CE010E943D0B7D
:1017600021E030E0892B11F420E030E08827992730
:10177000821B930BDF91CF911F910F910895CF9210
:10178000DF92EF92FF920F931F93CF93DF93EC01C1
:101790007B01FB01108200E010E080E8C82ED12C14
:1017A0008A859B850597A4F0CE010E943D0B8F3F53
:1017B000FFEF9F0789F1892B19F41B861A8608C051
:1017C000CE010E943D0B892B29F581E090E024C0D9
:1017D000CE010E943D0B009799F00197D9F48A85BC
:1017E0009B8501969B878A87F7012081C601002E81
:1017F00002C0959587950A94E2F7822B808302C0F8
:101800001B861A860F5F1F4F0830110549F680E0CE
:1018100090E002C08FEF9FEFDF91CF911F910F916A
:10182000FF90EF90DF90CF900895EF92FF920F938B
:101830001F93CF93DF937C01042FFC011386128644
:10184000EB0110E0101781F0BE01C7010E94BF0B31
:101850008F3FFFEF9F0751F0019719F4812F90E020
:1018600005C01F5F2196EECF8FEF9FEFDF91CF91E5
:101870001F910F91FF90EF900895FF920F931F9388
:10188000CF93DF93EC018B01F42E10928A0D8C859F
:101890009D85892B09F1CE010E94860A019639F4B3
:1018A000E0918A0DF0E0E557F24F10822DC0CE0195
:1018B0000E94FE0A8F3F4FEF940739F0CE010E943D
:1018C000940B8F3F2FEF920739F4E0918A0DF0E0EF
:1018D000E557F24F10822EC04F2DB801CE010E9465
:1018E000150C21E030E08F3F4FEF940711F020E01E
:1018F00030E03D872C87E0918A0DF0E0E557F24F0C
:101900001082823091051CF48FEF9FEF13C0EC0121
:1019100022976C2FC8010E94A60CF801EC0FFD1F46
:10192000208130E0322F22274181242B8217930718
:1019300059F7CE01DF91CF911F910F91FF9008953C
:1019400060E070E08BE89EE00C94110D482FDC0104
:1019500080E090E02A2F241B261778F42D91E92FA0
:10196000FF27E227EE0FFF1FE255FD4F2081318157
:10197000982F882782279327EDCF08956115710549
:1019800029F06230710521F462E003C060E001C01B
:1019900063E0FC01E255FB4F80810C94BF1082553F
:1019A0009B4FFC0180810C942D1182559B4FFC01B3
:1019B00080810E94F41021E030E0892B11F420E0B6
:1019C00030E0C90108959B01AC01A8EEB3E00E948C
:1019D000A21F22E096958795779567952A95D1F76E
:1019E00020E030E0A9010C94FE1B22E0969587953B
:1019F000779567952A95D1F720E030E0A9010C94FE
:101A0000FE1B0E942C1922E0660F771F881F991F6A
:101A10002A95D1F7089560E070E085ED9EE00C9482
:101A2000110DFC017183608308950F931F93CF9371
:101A3000DF938C01EB01CB010E94F31FAC01BE01CF
:101A4000F801808191810E94DA0FCE01DF91CF9160
:101A50001F910F910C94F31F0C94150D0F931F936E
:101A6000CF93DF93EC010E94150D8C0164EF74E0BD
:101A7000CE010E94150DC8010296DF91CF911F91F2
:101A80000F910895CF93DF93EA01FC01808191814A
:101A90000E94DA0FCE01DF91CF9108954F925F92AD
:101AA0006F927F928F929F92AF92BF92EF92FF922E
:101AB0000F931F93CF93DF93CDB7DEB7C054D109F7
:101AC0000FB6F894DEBF0FBECDBF7C01213009F404
:101AD00050C068F0223009F453C0233009F06DC0C3
:101AE0007F936F935F934F938FEF94E04FC080E0AD
:101AF00090E0812C912CA12CB0E8BB2E95018401A3
:101B0000082E04C036952795179507950A94D2F7A5
:101B10000423152326233723012B022B032B11F437
:101B20000196ECCF9E012F5F3F4FF901412C512CC4
:101B3000612CA0E87A2E8F01021B130B80329105D5
:101B400098F553014201082E04C0B694A7949794C7
:101B500087940A94D2F784229522A622B722892854
:101B60008A288B2811F4A0E301C0A1E3A193019678
:101B7000E2CF7F936F935F934F9387EF94E006C01C
:101B80007F936F935F934F938BEF94E09F938F932B
:101B9000CE0101969F938F930E9440208C010FB637
:101BA000F894DEBF0FBECDBFA801BE016F5F7F4FAF
:101BB000C7010E94420DC80102C080E090E0C05CF5
:101BC000DF4F0FB6F894DEBF0FBECDBFDF91CF91D0
:101BD0001F910F91FF90EF90BF90AF909F908F90CB
:101BE0007F906F905F904F900895CF92DF92EF9229
:101BF000FF920F931F93CF93DF93CDB7DEB7C054FF
:101C0000D1090FB6F894DEBF0FBECDBF6C017F9334
:101C10006F935F934F9383E095E09F938F93CE01F3
:101C200001967C019F938F930E9440208C01AC0110
:101C3000B701C6010E94420D0FB6F894DEBF0FBE79
:101C4000CDBFC801C05CDF4F0FB6F894DEBF0FBE3A
:101C5000CDBFDF91CF911F910F91FF90EF90DF905B
:101C6000CF900895223011F40C94F50D0C944E0D84
:101C7000242F423031F4AB01770F660B770B0C94B5
:101C8000320EAB0160E070E00C944E0D0F931F9389
:101C9000CF93DF93EC010E94380E8C0164EF74E067
:101CA000CE010E94150DC8010296DF91CF911F91C0
:101CB0000F9108950F93FC01213029F069ED75E033
:101CC00083E00E94B417023041F0033041F001304C
:101CD00011F0108206C084E003C088E001C08CE0EF
:101CE0008083403886E9580788E968077105A8F4B9
:101CF00040348BE458078CE46807710588F440345D
:101D000082E458078FE06807710568F440385A414B
:101D10006640710558F483E00FC080E090E008C091
:101D200081E090E005C082E090E002C083E090E0B6
:101D3000DC01A45FBA4F8C9181830F9108950F93BA
:101D400000E021E040E059E06DE370E00E945A0EAF
:101D50000F910895EF92FF920F931F93CF93DF930C
:101D60001F921F92CDB7DEB78C017B0102960E94B5
:101D70009F0EF801F182E082CE0101960E949F0E33
:101D800089819A81F8019383828314821682158255
:101D900010861782128611860F900F90DF91CF91D7
:101DA0001F910F91FF90EF9008950F931F93CF9382
:101DB000DF93EC01162F072F05960E944716202F60
:101DC000412F6FEF888199810E944711892B29F05B
:101DD00069ED75E083E00E94B41781E08C83DF91A8
:101DE000CF911F910F910895CF93DF93EC018881DC
:101DF00099810E9465111C82CE010596DF91CF91D9
:101E00000C944B16AF92BF92CF92DF92EF92FF925B
:101E10000F931F93CF93DF93EC015B017A016C0169
:101E200085E0C80ED11CC6010E9447168C81811125
:101E30000EC02B814A816FEF888199810E944711E2
:101E4000892B29F069ED75E083E00E94B4178501C4
:101E5000950140E06FEF888199810E9471118C811A
:101E6000811104C0888199810E946511C601DF91AA
:101E7000CF911F910F91FF90EF90DF90CF90BF9087
:101E8000AF900C944B1660E070E08FE19FE00C94F3
:101E9000AA0E0FB6802DF894807890E008950FB6C2
:101EA000802D7894807890E00895FF920F93F82E1B
:101EB0000FB7087FF02AFFBE0F91FF900895809121
:101EC0002A0F90E0089521E020932A0FFC01EE0FE5
:101ED000FF1FE05FFA4F0190F081E02D6681880FCF
:101EE000991F880F991FDC01A45DB04FED91FC9103
:101EF000119712968D919C91139719950C94991D99
:101F0000EF92FF920F931F93CF93DF93790182306B
:101F1000910508F046C020E030E0E0912B0FEE2361
:101F200019F021503109C9F7FC01EE0FFF1FEE0F28
:101F3000FF1FE45DF04FF182E08213830283880F7C
:101F4000991FFC01E05FFA4FC081D181198218828C
:101F500086E08A83DB01CA0180589B47A14EBF4FB0
:101F6000E3E0880F991FAA1FBB1FEA95D1F79A01DA
:101F7000AB01F4E0220F331F441F551FFA95D1F730
:101F8000BC01CD010E94781F215031093D832C8373
:101F9000EF2811F088ED01C088E4898380E090E0AB
:101FA00002C08FEF9FEFDF91CF911F910F91FF90B4
:101FB000EF900895CF93DF9321E0082E01C0220F08
:101FC0000A94EAF7DB01460F571F880F991FFC019F
:101FD000E05FFA4FA417B50769F0C081D18188810D
:101FE00085FFFDCF80912B0F822B80932B0F8D913E
:101FF0008E83F0CFDF91CF9108951F920F920FB68D
:102000000F9211240BB60F922F933F934F935F9330
:102010006F937F938F939F93AF93BF93EF93FF93B0
:1020200080E090E00E94630FFF91EF91BF91AF912C
:102030009F918F917F916F915F914F913F912F91E0
:102040000F900BBE0F900FBE0F901F9018951F9210
:102050000F920FB60F9211240BB60F922F933F934E
:102060004F935F936F937F938F939F93AF93BF93A0
:10207000EF93FF9381E090E00E94630FFF91EF9157
:10208000BF91AF919F918F917F916F915F914F9190
:102090003F912F910F900BBE0F900FBE0F901F908E
:1020A00018951F920F920FB60F9211240BB60F9234
:1020B0002F933F934F935F936F937F938F939F9350
:1020C000AF93BF93EF93FF9381E080932A0F8091AA
:1020D0002B0F8E7F80932B0F0E94991DFF91EF9104
:1020E000BF91AF919F918F917F916F915F914F9130
:1020F0003F912F910F900BBE0F900FBE0F901F902E
:1021000018951F920F920FB60F9211240BB60F92D3
:102110002F933F934F935F936F937F938F939F93EF
:10212000AF93BF93EF93FF9381E080932A0F809149
:102130002B0F8D7F80932B0F0E94991DFF91EF91A4
:10214000BF91AF919F918F917F916F915F914F91CF
:102150003F912F910F900BBE0F900FBE0F901F90CD
:102160001895282F22952F7033E0239FC00111244A
:10217000273010F48296089583519F4F0895CF938E
:10218000DF93982F9F70C1E0D0E001C0CC0F9A95EB
:10219000EAF76230A9F0633069F0611120C00E9453
:1021A000B110FC012291C0952C232083FC012081D9
:1021B000C22311C00E94B110FC018291C82B0BC038
:1021C0000E94B110FC0122913C2F309523232083E3
:1021D000FC012081C22BC08380E090E002C08FEF21
:1021E0009FEFDF91CF910895CF93C82F0E94B11038
:1021F0000297FC012081CF7081E090E002C0880F3F
:10220000991FCA95E2F730E082239323CF91089576
:10221000CF93C82F0E94B110FC014081CF7021E004
:1022200030E001C0220FCA95EAF7242B2083CF911A
:102230000895CF93C82F0E94B110FC014081CF7048
:1022400021E030E002C0220F331FCA95E2F720954B
:10225000309524232083CF910895672B11F00C949F
:1022600008110C94191184B1876084B90895892BE1
:1022700029F069ED75E083E00E94B4178091640055
:1022800084608093640080E090E00C943311CF93DD
:10229000DF93C42FD22F61E070E084E39FE00E94BF
:1022A0007414E4E6F0E080818B7F80838D2F869527
:1022B00086958DBDD370C065CD2BCCBD8DB58EB54B
:1022C00080E090E0DF91CF9108958CB58F7B8CBD3D
:1022D000E4E6F0E080818460808384E39FE00C94F6
:1022E000B914CF92DF92EF92FF920F931F93CF9387
:1022F000DF93C62FD42F6901232B41F4011511055B
:1023000029F469ED75E083E00E94B417CF3F19F01E
:102310008C2F0E941911F801D601E00EF11EEE1566
:10232000FF0591F0C114D10411F08C9101C080E03F
:102330008EBD0DB407FEFDCF8EB50115110509F058
:10234000808331961196EBCFD1110DC0CF3F59F05C
:102350008C2FDF91CF911F910F91FF90EF90DF9025
:10236000CF900C940811DF91CF911F910F91FF90A6
:10237000EF90DF90CF90089521E020932A0F2CE07A
:10238000AC01249FC001259F900D1124DC01A65FA4
:10239000BD4F1296ED91FC9113972081AB014F5FD9
:1023A0005F4F81E090E001C0880F4A95EAF7809581
:1023B000822380831696ED91FC91179718968D9144
:1023C0009C91199719950C94991D8F929F92AF9299
:1023D000BF92CF92DF92EF92FF920F931F93DC0197
:1023E0000297D8F4E4E1F5E090E0C12C84E2D82E25
:1023F00084EFE82EF12C46015701019004C0B694F9
:10240000A794979487940A94D2F79F5F84169506B1
:10241000A606B70629F0953071F78FEF9FEF1EC023
:102420008CE08A9FF0018B9FF00D1124E65FFD4F39
:10243000A081B1811C9211961C92119712961C9248
:10244000129715961C921E92149737832683118734
:102450000087928711969C9380E090E01F910F91E6
:10246000FF90EF90DF90CF90BF90AF909F908F90B4
:102470000895633071055CF52CE0289FF001299FD9
:10248000F00D1124E65FFD4F80819181DB011496F0
:10249000AA0FBB1FA80FB91F11965C934E93A4817E
:1024A000B5812C916F5F7F4F81E090E001C0880F74
:1024B0006A95EAF7982F909592239C930280F38176
:1024C000E02D9081892B808380E090E008958FEF4C
:1024D0009FEF08952CE0AC01249FC001259F900D33
:1024E0001124FC01E65FFD4F0190F081E02D848115
:1024F000958108951F920F920FB60F9211240BB67B
:102500000F922F933F934F935F936F937F938F938C
:102510009F93AF93BF93EF93FF9360E070E080E0F1
:1025200090E00E94BC11FF91EF91BF91AF919F91FC
:102530008F917F916F915F914F913F912F910F906C
:102540000BBE0F900FBE0F901F9018951F920F9209
:102550000FB60F9211240BB60F922F933F934F9308
:102560005F936F937F938F939F93AF93BF93EF93FB
:10257000FF9361E070E080E090E00E94BC11FF9169
:10258000EF91BF91AF919F918F917F916F915F91EB
:102590004F913F912F910F900BBE0F900FBE0F9058
:1025A0001F9018951F920F920FB60F9211240BB621
:1025B0000F922F933F934F935F936F937F938F93DC
:1025C0009F93AF93BF93EF93FF9362E070E080E03F
:1025D00090E00E94BC11FF91EF91BF91AF919F914C
:1025E0008F917F916F915F914F913F912F910F90BC
:1025F0000BBE0F900FBE0F901F9018951F920F9259
:102600000FB60F9211240BB60F922F933F934F9357
:102610005F936F937F938F939F93AF93BF93EF934A
:10262000FF9360E070E081E090E00E94BC11FF91B8
:10263000EF91BF91AF919F918F917F916F915F913A
:102640004F913F912F910F900BBE0F900FBE0F90A7
:102650001F9018951F920F920FB60F9211240BB670
:102660000F922F933F934F935F936F937F938F932B
:102670009F93AF93BF93EF93FF9361E070E081E08E
:1026800090E00E94BC11FF91EF91BF91AF919F919B
:102690008F917F916F915F914F913F912F910F900B
:1026A0000BBE0F900FBE0F901F9018951F920F92A8
:1026B0000FB60F9211240BB60F922F933F934F93A7
:1026C0005F936F937F938F939F93AF93BF93EF939A
:1026D000FF9362E070E081E090E00E94BC11FF9106
:1026E000EF91BF91AF919F918F917F916F915F918A
:1026F0004F913F912F910F900BBE0F900FBE0F90F7
:102700001F90189561E070E086E39FE00E947414CA
:10271000EAE7F0E080818068808308958F929F923D
:10272000AF92BF92CF92DF92EF92FF92CF93DF935F
:102730008031910508F074C0EC010E948213C8300A
:10274000D105A0F420917E0081E090E001C0880FC7
:10275000CA95EAF7922F982B90937E0090B38095BC
:10276000982390BB91B3892381BB18C020917D0031
:10277000289781E090E001C0880FCA95EAF7922F70
:10278000982B90937D0090910701809598239093CA
:10279000070190910801892380930801C12CD12C55
:1027A0007601C394C1E0D0E0812C94E2992E94EF9D
:1027B000A92EB12C9E010C2C02C0220F331F0A94AB
:1027C000E2F7032E000C440B550BC501B4010E9427
:1027D000781F21343D404340510530F480917A0008
:1027E000C82AC0927A000BC03FEFC31AD30AE30A8B
:1027F000F30A88E0C816D104E104F104D9F6809107
:102800007C00806480937C0080917A008F77809335
:102810007A0086E39FE00E94B91480E090E002C055
:102820008FEF9FEFDF91CF91FF90EF90DF90CF90F0
:10283000BF90AF909F908F900895CF93DF936230B9
:1028400009F041C0EC010E94821380917B00C830E6
:10285000D10558F4877F80937B0080917C00807F36
:1028600080937C0080917C000BC0886080937B000B
:1028700080917C00807F80937C0080917C00C85098
:10288000C82BC0937C0080917A00806480937A008A
:1028900080917A0086FDFCCFC0917800D0917900BC
:1028A00080917A00806180937A0080917A008F779E
:1028B00080937A0086E39FE00E94B914BE01DD0F89
:1028C000880B990B03C06FEF7FEFCB01DF91CF91A6
:1028D0000895E1E6F0E080E8808310820E948E1C7B
:1028E0000E946D1E0C944F0FEF92FF920F931F9357
:1028F000CF93DF93EC018B010E94490F7C0188810B
:102900009981892B41F48FEF9FEF99838883C701C9
:102910000E94550F1FC0012B01F100915E0F109115
:102920005F0F63E0C8010E94391588819981019683
:1029300041F4C801069699838883F80117821682AC
:1029400004C0B801CE010E949E16C7010E94550F17
:102950000E942B1D81E090E005C0C7010E94550F29
:1029600080E090E0DF91CF911F910F91FF90EF9069
:102970000895EF92FF920F931F93CF93DF938C01F3
:102980000E94490F7C01D801ED91FC91309739F0FC
:10299000EF3FBFEFFB0761F4F80111821082C7011E
:1029A000DF91CF911F910F91FF90EF900C94550FF5
:1029B00080819181D8018D939C93EF0126976CE0E3
:1029C000CE010E943915F80180819181892B21F473
:1029D0008FEF9FEF91838083CB81D0E0C7010E946E
:1029E000550FCE01DF91CF911F910F91FF90EF9086
:1029F0000C94CA151092A30F1092A20FA0915E0F13
:102A0000B0915F0F2091380F3091390F80E090E046
:102A100020FD04C0369527950196FACF880F991F9F
:102A2000FC01E45CF04F0190F081E02D0190F08119
:102A3000E02D3697AE17BF07C9F0109741F01296F8
:102A40008C9112978B3019F48CE012968C938BE05A
:102A500082838481958190935D0F80935C0FF093C6
:102A60005F0FE0935E0F81E090E0089580E090E0DA
:102A700008950F931F93CF93DF93FC0182816B30F6
:102A8000E0F18B3008F080C09F012A5F3F4F8381C7
:102A900090E0880F991FDC01A45CB04FCD91DC91D0
:102AA0001197209751F048815981578346830D90A3
:102AB000BC91A02D2D933C9302C037832683DC016B
:102AC000A45CB04F2D933C9381E090E0038002C062
:102AD000880F991F0A94E2F7092E000CAA0BBB0B72
:102AE0000091380F1091390F20913A0F30913B0F20
:102AF000802B912BA22BB32B3FC08B3008F444C00A
:102B0000A381B0E0AA0FBB1FA45CB04FCD91DC91B4
:102B10001197209769F088819981C817D90719F40E
:102B20001D921C9205C0DC018D919C919983888334
:102B30002381A22FB0E0AA0FBB1FA45CB04F8D91E0
:102B40009C91892B09F581E090E002C0880F991FC4
:102B50002A95E2F780959095092E000CAA0BBB0BE5
:102B60000091380F1091390F20913A0F30913B0F9F
:102B700080239123A223B3238093380F9093390F9E
:102B8000A0933A0FB0933B0F6283DF91CF911F91D7
:102B90000F910895E0915E0FF0915F0F22812B302D
:102BA00028F0238130E08217930768F40E945F0FBA
:102BB000892B39F081E090E09093A30F8093A20FCE
:102BC00008950C942B1D08950E94490FE0915C0F0D
:102BD000F0915D0FEE0FFF1FE05AF04F118210824F
:102BE0008091A40F9091A50F01979093A50F8093CA
:102BF000A40F60E080915E0F90915F0F0E943915E5
:102C000010925F0F10925E0F0E94DE1CCF92DF9237
:102C1000EF92FF920F931F93CF93DF93EC016B0121
:102C200060E070E00E9474148C01CE0104967C0177
:102C30000115110591F460E070E00E94801620916A
:102C40005C0F30915D0F8217930739F0CD28A9F4FE
:102C500061E070E0CE010E94741460915C0F70918D
:102C60005D0F40E050E0C7010E948E168A819B8173
:102C700001969B838A8301E010E0C801DF91CF9128
:102C80001F910F91FF90EF90DF90CF90089560E03B
:102C900070E00C9406160F931F93CF93DF93EC0113
:102CA0008C010C5F1F4F60E070E0C8010E9480162D
:102CB00020915C0F30915D0F8217930729F069ED29
:102CC00075E083E00E94B4178A819B810097B9F375
:102CD00001979B838A83892B71F440E050E060E088
:102CE00070E0C8010E948E16CE01DF91CF911F9136
:102CF0000F910C94B914DF91CF911F910F9108950A
:102D0000CF93DF93EC010E94490F0990D881C02D29
:102D10000E94550FCE01DF91CF9108950F931F931D
:102D2000CF93DF93EC018B010E94490F1983088335
:102D3000DF91CF911F910F910C94550FFB012281D0
:102D40002B3028F069ED75E083E00E94B4176381B1
:102D5000AF014A5F5F4FDC012D913C912115310598
:102D600041F0D901169713967C91671710F0C901AD
:102D7000F2CF37832683FC015183408308952F923D
:102D80003F924F925F926F927F928F929F92AF92FB
:102D9000BF92CF92DF92EF92FF920F931F93CF9348
:102DA000DF9300D01F92CDB7DEB7403198F54B01CD
:102DB0003AE1831A9108DC01A80DB91DBC83AB83ED
:102DC000FC0123FF09C0AB81BC81EA17FB0730F48B
:102DD000F183E0833296F7CF918380831601370128
:102DE00058012A8349832B017C010E94490F6C0101
:102DF000E2E6FFE001E010E081919191892B61F022
:102E00000F5F1F4F01321105B9F7C6010E94550F20
:102E10008FEB5BC084EE59C0F801EE0FFF1FE05A44
:102E2000F04F8B819C8191838083DC0115961C93EC
:102E30000E9314979401A701B301C5010E94A91C28
:102E4000EB81FC8191838083F58AE48A518E408EE8
:102E5000378A268A29812383128217821682118655
:102E600010861386128615861486178616868FEFAF
:102E70009FEF918B808B138A128A8091A40F90917F
:102E8000A50F01969093A50F8093A40F3A8130FF70
:102E900006C062E08B819C810E94391511C06CE0F4
:102EA0008B819C810E943915FA81F2FD09C0C6010F
:102EB0000E94550F2981822F90E00E94CA1503C0FD
:102EC000C6010E94550FC80101C09FEF0F900F90DF
:102ED0000F900F90DF91CF911F910F91FF90EF9086
:102EE000DF90CF90BF90AF909F908F907F906F902A
:102EF0005F904F903F902F9008950E94341E89E17B
:102F000095E09F938F930E94FC1F0E9413010F90E6
:102F10000F9080E090E008950E947C1CFDCF0E94FD
:102F2000490F8EE8C82E85E0D82EE12CF12C0CE854
:102F300017E12CE030E04FE060E870E086EA9FE0C7
:102F40000E94BF1693E9C92E95E0D92E0DE717E12F
:102F50002CE030E047E060E872E086E290E10E9419
:102F6000BF160E94DE1C0895EB012091A61230913D
:102F7000A712232B71F521E030E03093A7122093A4
:102F8000A612833091F40EB6202D0DB6802D90E060
:102F9000922B9F938F9388E995E09F938F930E9444
:102FA000FC1F0F900F900F900F90DF93CF938FEA3D
:102FB00095E09F938F930E94FC1F8BEC95E09F936D
:102FC0008F930E94FC1F0F900F900F900F900F9007
:102FD0000F900E94490F0E94B3170E94791C8F9294
:102FE0009F92AF92BF92CF92DF92EF92FF920F9398
:102FF0001F93CF93DF93DB0169017A01EC01E88134
:10300000F981309709F449C00681178120853185FF
:1030100016964D915D916D917C9119970417150746
:103020002607370708F44CC004171507260737078B
:10303000A1F5428553856485758597018601041B3A
:10304000150B260B370BB901A801028113812481CE
:103050003581041715072607370790F1041B150B58
:10306000260B370B1A964D915D916D917C911D97B2
:1030700046015701841A950AA60AB70A12964D917D
:103080005D916D917C911597481959096A097B09E1
:10309000401751076207730798F41196FC93EE935B
:1030A000EC01B983A883DF91CF911F910F91FF901D
:1030B000EF90DF90CF90BF90AF909F908F9008954A
:1030C000CF019CCFFC01208131812115310579F0A0
:1030D0002617370751F4FB0120813181FC01318330
:1030E0002083FB01118210820895C901EBCF08955E
:1030F0006F927F928F929F92AF92BF92CF92DF9208
:10310000EF92FF920F931F93CF93DF930E94490F8B
:10311000EC0180E090E00E946A124C012091AD1217
:103120003091AE124091AF125091B0126091B11235
:103130007091B2128091B3129091B4126090AD125E
:103140007090AE12B091AF12A091B012F091B11286
:10315000E091B2120091B3121091B412A12CB12CD3
:10316000BA01A90166277727841A950AA60AB70A21
:10317000AA24BB249401A50160E070E080E090E007
:103180005301CB2EDA2EEF2EFE2E0E94CB1F209362
:10319000AD123093AE124093AF125093B0126093C1
:1031A000B1127093B2128093B3129093B412CE0105
:1031B0000E94550F2091AD123091AE124091AF1286
:1031C0005091B0126091B1127091B2128091B3120D
:1031D0009091B412DF91CF911F910F91FF90EF90DA
:1031E000DF90CF90BF90AF909F908F907F906F9027
:1031F00008950F931F93E091AB12F091AC123097AA
:10320000A9F00281138124813581011540E814075A
:103210002105310558F482859385A485B585B901CA
:10322000A801480F591F6A1F7B1F0AC02091A812CE
:1032300021110FC0AB01BC01415050486F4F7F4F6F
:1032400060E070E080E090E00E94391281E08093BD
:10325000A8121F910F9108950E947818B901CA0110
:1032600008950F931F9300E010E02EE439E140E948
:1032700050ED63E070E080E090E00E94E5110E9474
:103280002C192091B5123091B612232B21F41F91E5
:103290000F910C94F9181F910F9108952F923F925E
:1032A0004F925F926F927F928F929F92AF92BF9256
:1032B000CF92DF92EF92FF920F931F93CF93DF9302
:1032C00000D01F92CDB7DEB781E090E09093B612A8
:1032D0008093B5121092A8120E94781829013A0121
:1032E0004B015C012091AB123091AC123C832B83DB
:1032F0008B819C81892B09F4A6C0EB81FC8186819E
:103300009781A085B185892B8A2B8B2B29F069EDBC
:1033100075E083E00E94B417EB81FC818285938580
:10332000A485B585B301A201481B590B6A0B7B0B21
:1033300082819381A481B58184179507A607B70779
:1033400060F08C019D01041B150B260B370B04311B
:1033500011052105310508F05BC02091AB123091B9
:10336000AC12EB81FC81E217F30789F64817590785
:103370006A077B0788F1AB81BC818D919C91119785
:103380009093AC128093AB12FD01128213821482CF
:1033900015821A961D921D921D921C921D971686DB
:1033A0001786108A118A118210825296ED91FC9133
:1033B000539754968D919C9155971995E091AB1226
:1033C000F091AC12FC83EB830E942C192B013C0181
:1033D000812C912C54018CCF0E942C19AB81BC8183
:1033E0001A960D911D912D913C911D97DC01CB01F9
:1033F000801B910BA20BB30BEB81FC81028113812B
:103400002481358180179107A207B30728F3B3CF32
:10341000AB81BC8112960D931D932D933C93159710
:10342000FD0142865386648675869201A301B4012C
:10343000C50100E20E94AF1F26873787408B518B62
:103440002081318153CFA091A912B091AA12BC83DF
:10345000AB839201A301B401C50100E20E94AF1F3A
:1034600029833A831A0173016201EB81FC81EF2BFE
:1034700009F46BC0EB81FC8182859385A485B585B9
:1034800093018201081B190B2A0B3B0B828193814C
:10349000A481B58180179107A207B30760F4468124
:1034A00057816085718541505109610971094683D1
:1034B000578360877187801B910BA20BB30BEB8145
:1034C000FC8182839383A483B583DF01C286D38684
:1034D000E486F586E9811E96EC931E97FA811F9685
:1034E000FC931F9750962C92509751963C9251976F
:1034F000FD0186819781A085B185892B8A2B8B2B35
:10350000E1F48091A9129091AA12E817F90709F045
:10351000FECEBF0189EA92E10E946218A7019601DE
:103520006B817C818BEA92E10E94EF172091A912B6
:103530003091AA123C832B8398CFAB81BC810D9034
:10354000BC91A02DBC83AB8390CF0E947818290139
:103550003A014B015C01E091AB12F091AC12309753
:1035600089F182859385A485B585B301A201481BA5
:10357000590B6A0B7B0B82819381A481B5818417DF
:103580009507A607B70708F4ADCE841B950BA60BCD
:10359000B70B84319105A105B10508F4A3CE828350
:1035A0009383A483B583428653866486758692018D
:1035B000A301B401C50100E20E94AF1F268737872F
:1035C000408B518B1092B6121092B5128091B512A9
:1035D0009091B612892BD1F4C301B2010F900F90D4
:1035E0000F900F90DF91CF911F910F91FF90EF906F
:1035F000DF90CF90BF90AF909F908F907F906F9013
:103600005F904F903F902F900C94F9180F900F906F
:103610000F900F90DF91CF911F910F91FF90EF903E
:10362000DF90CF90BF90AF909F908F907F906F90E2
:103630005F904F903F902F9008950F931F93CF93DB
:10364000DF93EC010E94490F8C011A821B821C82BD
:103650001D821E821F82188619861A861B861C866A
:103660001D861E861F86188A198ABE018BEA92E182
:103670000E946218BE0189EA92E10E946218C801A4
:10368000DF91CF911F910F910C94550F4F925F9244
:103690006F927F928F929F92AF92BF92CF92DF9262
:1036A000EF92FF920F931F93CF93DF93DC0152961B
:1036B000ED91FC915397EF2B09F48DC0280139014E
:1036C0004A015B01EC010E941D1B4114510461047D
:1036D000710499F5B8E28B169104A104B10468F560
:1036E00080E090E00E946A126C01E12CF12C80E0F5
:1036F00090E00E946A12A0E0B0E08C199D09AE092A
:10370000BF09AA27BB2788159905AA05BB0578F329
:10371000EA89FB898C899D89DF91CF911F910F9157
:10372000FF90EF90DF90CF90BF90AF909F908F90E1
:103730007F906F905F904F9019940E94490F6C0199
:103740000E9478188A829B82AC82BD824E825F8200
:103750006886798659017A012A87BB864C87FD865F
:1037600000E20E94AF1F2E873F87488B598B95013F
:10377000A701BE01452846284728B1F48BEA92E10B
:103780000E94EF178091AB129091AC12C817D90725
:1037900079F48091B5129091B612892B49F4B50154
:1037A000C7010E94F91804C089EA92E10E94EF174C
:1037B000C601DF91CF911F910F91FF90EF90DF90A5
:1037C000CF90BF90AF909F908F907F906F905F90C1
:1037D0004F900C94550FDF91CF911F910F91FF9057
:1037E000EF90DF90CF90BF90AF909F908F907F90A1
:1037F0006F905F904F9008950C94B9144F925F9220
:103800006F927F928F929F92AF92BF92CF92DF92F0
:10381000EF92FF920F931F93CF93DF93CDB7DEB755
:1038200068970FB6F894DEBF0FBECDBF2B013C01E9
:1038300049015A010E945F0F892B31F189288A289A
:103840008B2829F069ED75E083E00E94B41780E0D1
:1038500090E00E946A124C01A12CB12C730162010C
:10386000EE24FF2480E090E00E946A12A0E0B0E025
:1038700088199909AA09BB09AA27BB278C159D0598
:10388000AE05BF0578F31EC0188E1F8A8CEF9BE132
:103890009C8B8B8B7E0187E1E80EF11CFE8AED8A02
:1038A00061E070E0C7010E94741495018401B301C6
:1038B000A201CE0101960E94461B61E070E0C701A3
:1038C0000E94741468960FB6F894DEBF0FBECDBF89
:1038D000DF91CF911F910F91FF90EF90DF90CF90EC
:1038E000BF90AF909F908F907F906F905F904F9020
:1038F00008950E94490FFFCF0895CF93DF931F9241
:10390000CDB7DEB721E030E0AE014F5F5F4F0E94E0
:10391000041E89810F90DF91CF910895A8950FB66D
:10392000F894A8958091600088618093600010925F
:1039300060000FBE0E945D1E0C94BF1E1F920F926E
:103940000FB60F9211245F9A64E371E080E00E9449
:10395000B417240F351FF90131974FEA408331978F
:103960004EEF408344EE55E13197408331975083C9
:1039700031971082319780833197908331971082ED
:1039800031971082319780E8808331971082319788
:10399000108231971082C90183971292E817F907B4
:1039A000E1F7F901B4976083319770838AE18293DC
:1039B0008F5F8032E1F7C9018C9708950E94FA1455
:1039C0000E944F0F8DB79EB72091040230910502DF
:1039D000821B930B90930102809300028091BE1290
:1039E0009091BF12892B41F48091020290910302C1
:1039F0009093BF128093BE12A0915E0FB0915F0FA3
:103A0000CD91CDBFDD91DEBFFF91EF91DF91CF91E1
:103A1000BF91AF919F918F917F916F915F914F91E6
:103A20003F912F911F910F91FF90EF90DF90CF90DA
:103A3000BF90AF909F908F907F906F905F904F90CE
:103A40003F902F901F900F900CBE0F900BBE0F90C9
:103A50000FBE0F9008950E945F0F892B09F062C07E
:103A60000F920FB6F8940F920BB60F920CB60F92FE
:103A70001F9211242F923F924F925F926F927F92EA
:103A80008F929F92AF92BF92CF92DF92EF92FF926E
:103A90000F931F932F933F934F935F936F937F9356
:103AA0008F939F93AF93BF93CF93DF93EF93FF9346
:103AB000A0915E0FB0915F0F0DB60D920EB60D92F4
:103AC0000E94FA14A0915E0FB0915F0FCD91CDBF0F
:103AD000DD91DEBFFF91EF91DF91CF91BF91AF916B
:103AE0009F918F917F916F915F914F913F912F9116
:103AF0001F910F91FF90EF90DF90CF90BF90AF900C
:103B00009F908F907F906F905F904F903F902F90FD
:103B10001F900F900CBE0F900BBE0F900FBE0F901A
:103B20000895089581E090E09093A30F8093A20FF1
:103B3000089510922A0F8091A20F9091A30F892BC4
:103B400009F461C00F920FB6F8940F920BB60F9262
:103B50000CB60F921F9211242F923F924F925F92B8
:103B60006F927F928F929F92AF92BF92CF92DF928D
:103B7000EF92FF920F931F932F933F934F935F9377
:103B80006F937F938F939F93AF93BF93CF93DF9365
:103B9000EF93FF93A0915E0FB0915F0F0DB60D9262
:103BA0000EB60D920E94FA14A0915E0FB0915F0FB5
:103BB000CD91CDBFDD91DEBFFF91EF91DF91CF9130
:103BC000BF91AF919F918F917F916F915F914F9135
:103BD0003F912F911F910F91FF90EF90DF90CF9029
:103BE000BF90AF909F908F907F906F905F904F901D
:103BF0003F902F901F900F900CBE0F900BBE0F9018
:103C00000FBE0F9018950895CF92DF92EF92FF921A
:103C10006B017C01C20ED31EE11CF11CE1E0CE164B
:103C2000E0E1DE06E104F10438F4DA01A20FB31F8B
:103C3000FA01641B750B0FC069ED75E083E00E940B
:103C4000B417F999FECFCB018E0F9F1F92BD81BD96
:103C5000F89A80B58193EA17FB0799F7C901FF909D
:103C6000EF90DF90CF9008950E94731E0C9431194D
:103C7000CF93DF931F92CDB7DEB761E070E0CE0146
:103C800001960E94AF1E8981082E000C990B0F909F
:103C9000DF91CF910895CF93DF931F92CDB7DEB719
:103CA000898361E070E0CE0101960E94B21E80E03F
:103CB00090E00F90DF91CF9108950E949E1EE2EC5C
:103CC000F2E180E392E09383828382E292E0918347
:103CD00080838BEE95E00C94102063E087E10E94D6
:103CE000BF105F980895CF93DF9300D01F92CDB798
:103CF000DEB764E070E0CE0101960E94331F698157
:103D00007A818B819C810E948C1E0F900F900F9066
:103D10000F90DF91CF91089561157105810591058F
:103D200021F461E070E080E090E06093B71270935E
:103D3000B8128093B9129093BA1208950F931F93FB
:103D400000E010E020E030E040E855E260E070E0A4
:103D500080E090E00E94800F1F910F91089583EC06
:103D60009FEF0895CF93DF93EB01AB01BC0180E09F
:103D700090E00E94DA0FCE01DF91CF91089580E0AC
:103D800090E00E94C71E80E090E00C943711892BD0
:103D900029F069ED75E083E00E94B4171092BC121F
:103DA0001092BB128BB183608BB9809164008F77C6
:103DB000809364008091BC008B7F8093BC008CE07A
:103DC0008093B8008091B9008C7F8093B900809176
:103DD000B9008093B9008091BC0084608093BC00DE
:103DE0000895EF92FF920F931F93CF93DF9300D02C
:103DF0001F92CDB7DEB77C018B01AB0163E270E0AF
:103E00000E94EC1FCE0101960E94441F20E030E08A
:103E1000C8010430110510F484E090E02817390738
:103E2000B8F4C901B8010E94641FF701E80FF91F37
:103E3000D901A370BB2781E090E08C0F9D1FA80FD4
:103E4000B91F90818C91892780832F5F3F4FE0CFEE
:103E50000F900F900F900F90DF91CF911F910F91C6
:103E6000FF90EF900895CF93DF93EC010E94F11E35
:103E70008091BD1291E0980F9093BD12988189278F
:103E80008883DF91CF910895DC0191E2E0E0F0E0DA
:103E900090935700E491EC93E2E0F0E090935700A8
:103EA000E4911196EC931197E4E0F0E090935700C1
:103EB000E4911296EC931297E1E0F0E090935700B2
:103EC000949113969C930895AA1BBB1B51E107C0C4
:103ED000AA1FBB1FA617B70710F0A61BB70B881F9A
:103EE000991F5A95A9F780959095BC01CD01089529
:103EF000A1E21A2EAA1BBB1BFD010DC0AA1FBB1FEE
:103F0000EE1FFF1FA217B307E407F50720F0A21B5F
:103F1000B30BE40BF50B661F771F881F991F1A94CC
:103F200069F760957095809590959B01AC01BD01F6
:103F3000CF010895EE0FFF1F881F8BBF0790F691EA
:103F4000E02D19940E94D41FA59F900DB49F900D51
:103F5000A49F800D911D1124089597FB10F81694CD
:103F600000080F93083098F00850232F342F452F66
:103F7000562F672F782F892F902DF4CF0594979582
:103F800087957795679557954795379527950A951E
:103F9000AAF70F9108952A0D3B1D4C1D5D1D6E1D46
:103FA0007F1D801F911F0895A29FB001B39FC00184
:103FB000A39F700D811D1124911DB29F700D811D55
:103FC0001124911D0895FB01DC0102C001900D92A6
:103FD00041505040D8F70895DC0101C06D93415025
:103FE0005040E0F70895FC0101900020E9F780952A
:103FF00090958E0F9F1F0895CF93DF93CDB7DEB7B7
:10400000AE014A5F5F4FFA0161917191AF018091FA
:10401000C4129091C5120E946F20DF91CF91089534
:104020000F931F93CF93DF93E091C412F091C512C9
:10403000238121FF1BC08C01D0E0C0E0F8018191F9
:104040008F016091C4127091C512DB011896ED9139
:10405000FC911997882331F01995892B79F3DFEFBB
:10406000CFEFECCF8AE01995892B19F08FEF9FEFF6
:1040700002C08D2F9C2FDF91CF911F910F9108953A
:104080000F931F93CF93DF93CDB7DEB72E970FB665
:10409000F894DEBF0FBECDBF0E891F8986E08C83EA
:1040A0001A8309838FEF9FE79E838D83AE01465E5F
:1040B0005F4F688D798DCE0101960E946F20EF8150
:1040C000F885E00FF11F10822E960FB6F894DEBF30
:1040D0000FBECDBFDF91CF911F910F9108952F9209
:1040E0003F924F925F926F927F928F929F92AF9288
:1040F000BF92CF92DF92EF92FF920F931F93CF93D5
:10410000DF93CDB7DEB72B970FB6F894DEBF0FBEA7
:10411000CDBF6C017B018A01FC011782168283816D
:1041200081FFCCC1CE0101963C01F6019381F701DC
:1041300093FD859193FF81917F01882309F4BAC192
:10414000853239F493FD859193FF81917F0185320A
:1041500029F4B60190E00E948F22E7CF912C212C08
:10416000312CFFE1F315D8F08B3279F038F480323E
:1041700079F08332A1F4232D20611DC08D3261F0CE
:10418000803369F4232D216016C0832D8260382E80
:10419000E32DE4603E2E2AC0F32DF8601DC037FCED
:1041A0002DC020ED280F2A3040F08E32B9F436FCB5
:1041B00081C1232D2064322E19C036FE06C08AE04C
:1041C000989E200D1124922E11C0EAE02E9E200D03
:1041D0001124222EF32DF0623F2E08C08C3621F4DC
:1041E000832D8068382E02C0883641F4F70193FD94
:1041F000859193FF81917F018111B3CF982F9F7D8E
:104200009554933028F40C5F1F4F9FE399830DC0A2
:10421000833631F0833771F0833509F059C021C0FE
:10422000F801808189830E5F1F4F88248394912C2D
:10423000530113C02801F2E04F0E511CF801A08079
:10424000B18036FE03C0692D70E002C06FEF7FEFD2
:10425000C5010E9484224C018201F32DFF773F2E7D
:1042600016C0280122E0420E511CF801A080B18046
:1042700036FE03C0692D70E002C06FEF7FEFC5010D
:104280000E9479224C01F32DF0683F2E820133FC0D
:104290001BC0822D90E088169906B0F4B60180E22A
:1042A00090E00E948F222A94F4CFF50137FC85918B
:1042B00037FE81915F01B60190E00E948F222110AC
:1042C0002A9421E0821A91088114910471F7E8C0C0
:1042D000843611F0893641F5F80137FE07C0608158
:1042E0007181828193810C5F1F4F08C06081718151
:1042F000072E000C880B990B0E5F1F4FF32DFF76D6
:104300003F2E97FF09C090958095709561957F4FDE
:104310008F4F9F4FF0683F2E2AE030E0A3010E94AC
:10432000CB22882E861845C0853731F4232D2F7E69
:10433000B22E2AE030E025C0932D997FB92E8F361A
:10434000C1F018F4883579F0B5C0803719F0883796
:1043500021F0B0C0E92FE061BE2EB4FE0DC0FB2DF0
:10436000F460BF2E09C034FE0AC0292F2660B22E89
:1043700006C028E030E005C020E130E002C020E1C6
:1043800032E0F801B7FE07C06081718182819381BC
:104390000C5F1F4F06C06081718180E090E00E5F6E
:1043A0001F4FA3010E94CB22882E8618FB2DFF777A
:1043B0003F2E36FE0DC0232D2E7FA22E891458F4D9
:1043C00034FE0BC032FC09C0832D8E7EA82E05C0A2
:1043D000B82CA32C03C0B82C01C0B92CA4FE0FC06C
:1043E000FE01E80DF11D8081803321F49A2D997E24
:1043F000A92E09C0A2FE06C0B394B39404C08A2DAE
:10440000867809F0B394A3FC11C0A0FE06C0B214D4
:1044100088F4280C922C9B180EC0B21460F4B601DC
:1044200080E290E00E948F22B394F7CFB21418F488
:104430002B1802C0982C212CA4FE10C0B60180E3DA
:1044400090E00E948F22A2FE17C0A1FC03C088E763
:1044500090E002C088E590E0B6010CC08A2D867815
:1044600059F0A1FE02C08BE201C080E2A7FC8DE200
:10447000B60190E00E948F22891438F4B60180E3DF
:1044800090E00E948F229A94F7CF8A94F301E80D6E
:10449000F11D8081B60190E00E948F228110F5CF3E
:1044A000222009F442CEB60180E290E00E948F22E1
:1044B0002A94F6CFF6018681978102C08FEF9FEF95
:1044C0002B960FB6F894DEBF0FBECDBFDF91CF9114
:1044D0001F910F91FF90EF90DF90CF90BF90AF9022
:1044E0009F908F907F906F905F904F903F902F9014
:1044F0000895FC010590615070400110D8F7809537
:1045000090958E0F9F1F0895FC016150704001909F
:104510000110D8F7809590958E0F9F1F08950F93E7
:104520001F93CF93DF93FB01238121FD03C08FEF06
:104530009FEF2CC022FF16C0468157812481358110
:104540004217530744F4A081B1819D012F5F3F4F73
:10455000318320838C93268137812F5F3F4F3783B0
:10456000268314C08B01EC01FB010084F185E02D52
:104570001995892BE1F6D80116968D919C91179784
:10458000019617969C938E931697CE01DF91CF914B
:104590001F910F910895FA01AA27283051F1203177
:1045A00081F1E8946F936E7F6E5F7F4F8F4F9F4FC7
:1045B000AF4FB1E03ED0B4E03CD0670F781F891F09
:1045C0009A1FA11D680F791F8A1F911DA11D6A0FD7
:1045D000711D811D911DA11D20D009F468943F918A
:1045E0002AE0269F11243019305D3193DEF6CF0189
:1045F0000895462F4770405D4193B3E00FD0C9F74F
:10460000F6CF462F4F70405D4A3318F0495D31FDBB
:104610004052419302D0A9F7EACFB4E0A69597950E
:10462000879577956795BA95C9F7009761057105E4
:1046300008959B01AC010A2E06945795479537952E
:104640002795BA95C9F7620F731F841F951FA01D88
:064650000895F894FFCF6D
:104656000000CA122000D3D4D57E80006F00360039
:10466600000000000000A0007200390000000000F9
:10467600000000000001000000000000381E0000DD
:1046860000000002000000004B1E00000000476F03
:10469600743A203078002C20307800476F743A2026
:1046A600456D707479206D65737361676500524658
:1046B60049442072656164696E6720554944004427
:1046C60065766963652049443A203078007478310C
:1046D60000727831007365747570282920646F6ED6
:1046E60065004D65737361676520307837652073A3
:1046F600656E74000000000081065C08EC02000094
:104706002110422063308440A550C660E7700881BE
:1047160029914AA16BB18CC1ADD1CEE1EFF1311235
:10472600100273325222B5529442F772D66239930E
:1047360018837BB35AA3BDD39CC3FFF3DEE3622485
:10474600433420040114E664C774A44485546AA55E
:104756004BB528850995EEE5CFF5ACC58DD5533615
:10476600722611163006D776F6669556B4465BB7AE
:104776007AA719973887DFF7FEE79DD7BCC7C448E5
:10478600E5588668A7784008611802282338CCC9FE
:10479600EDD98EE9AFF9488969990AA92BB9F55A75
:1047A600D44AB77A966A711A500A333A122AFDDB4E
:1047B600DCCBBFFB9EEB799B588B3BBB1AABA66C45
:1047C600877CE44CC55C222C033C600C411CAEED9E
:1047D6008FFDECCDCDDD2AAD0BBD688D499D977E55
:1047E600B66ED55EF44E133E322E511E700E9FFFEE
:1047F600BEEFDDDFFCCF1BBF3AAF599F788F8891A4
:10480600A981CAB1EBA10CD12DC14EF16FE1801087
:10481600A100C230E3200450254046706760B9838A
:104826009893FBA3DAB33DC31CD37FE35EF3B102D7
:104836009012F322D2323542145277625672EAB59A
:10484600CBA5A89589856EF54FE52CD50DC5E23427
:10485600C324A01481046674476424540544DBA76A
:10486600FAB79987B8975FE77EF71DC73CD7D32677
:10487600F2369106B01657667676154634564CD9FA
:104886006DC90EF92FE9C899E9898AB9ABA94458C7
:10489600654806782768C018E1088238A3287DCBCA
:1048A6005CDB3FEB1EFBF98BD89BBBAB9ABB754A17
:1048B600545A376A167AF10AD01AB32A923A2EFD5A
:1048C6000FED6CDD4DCDAABD8BADE89DC98D267C67
:1048D600076C645C454CA23C832CE01CC10C1FEFAA
:1048E6003EFF5DCF7CDF9BAFBABFD98FF89F176EB7
:1048F600367E554E745E932EB23ED10EF01E40416A
:104906004445654373747576141516178180717066
:104916003332313000010203040506072726252419
:104926002322214037626160A7A6A5A4A3A2A1A065
:104936001312111050515253545556579091929349
:10494600949596970D0A00256C6F00256C750025C9
:104956006C7800256C6900252E2A66000400010685
:10496600C000C800000306080A6D61696E28293A6E
:1049760020546869732069732052494F54212028B6
:1049860056657273696F6E3A20554E4B4E4F574EB1
:1049960020286275696C646469723A202F686F6DAD
:1049A600652F73726976616D73696D616C6C616494
:1049B600692F4C6946692F4C692D46692D696E2D04
:1049C600496E6475737472792D342E302F72696F47
:1049D600742F52494F542D73706929290A0069644E
:1049E6006C65006D61696E00537461636B20506F76
:1049F600696E7465723A203078253034780A002A58
:104A06002A2A2052494F54206B65726E656C2070BD
:104A1600616E69633A0A25730A0A002A2A2A2068FF
:104A2600616C7465642E0A0A004641494C4544206F
:0E4A3600415353455254494F4E2E000C000080
:040000030000021ED9
:00000001FF
