:100000000C94C6000C940D010C940D010C940D0180
:100010000C940D010C940D010C940D010C940D0128
:100020000C940D010C940D010C940D010C940D0118
:100030000C940D010C940D010C940D010C940D0108
:100040000C940D010C946C130C9498130C94C41321
:100050000C940D010C940D010C940D010C940D01E8
:100060000C940D010C94EF100C940D010C944311A1
:100070000C940D010C940D010C940D010C940D01C8
:100080000C940D010C940D010C940D010C940D01B8
:100090000C9419110C940D010C9473110C940D0116
:1000A0000C940D010C940D010C94F0130C941C1481
:1000B0000C9448140C940D010C940D010C940D013A
:1000C0000C940D010C940D010C940D010C940D0178
:1000D0000C940D010C940D010C940D010C940D0168
:1000E0000C940D010C946F180C941E010C9465096E
:1000F0000C9418010C94780D0C943D1F0C94EE1C7C
:100100000C942A1F0C9423010C9428010C941C0AB3
:100110000C9459070C9434090C94D6160C94401A7C
:100120000C9435100C94C4030C947E180C94E30DBD
:100130000C94A703464154414C204552524F523A29
:10014000204241444953525F766563742063616C79
:100150006C65642C20756E70726F63657373656473
:1001600020496E746572727570742E0A53544F5024
:1001700020457865637574696F6E2E0A000018015A
:10018000A70365091C0A780DE30D3510832D8093B4
:10019000E41284B78093E51214BE0FB6F894A895C4
:1001A00080916000886180936000109260000FBEB3
:1001B00011241FBECFEFD1E2DEBFCDBF00E00CBFE8
:1001C00016E0A0E0B2E0EAE3F8E400E00BBF02C012
:1001D00007900D92AA30B107D9F722E1AAE0B6E064
:1001E00001C01D92A43EB207E1F710E0C6ECD0E0DA
:1001F00000E006C021970109802FFE010E948C209B
:10020000CF3BD10780E00807A9F70E940F010C94AB
:100210001B240E9413010C941B240C94901D0E941B
:100220005B150C9481180E9446020E94F302FDCFD8
:1002300060E070E08AE096E00C94E90D0E94C40949
:1002400080E090E008950E94F90980E090E0089530
:10025000FF920F931F93CF93DF93423008F410C1A6
:10026000FB0120813091AB0C23133EC00EEF040F35
:1002700081F1EB0122966AE472E088EC9CE00E9436
:10028000040EF12C10E0015011098F2D90E0801721
:10029000910794F4FE01E80FF91F608170E043E0DC
:1002A00088EC9CE00E94100F62E572E088EC9CE014
:1002B0000E94040EF394E9CFC00FD11F688170E053
:1002C00043E088EC9CE00E941E0F88818093AE0C76
:1002D000D7C067E572E088EC9CE0DF91CF911F9179
:1002E0000F91FF900C94060E30911502231347C016
:1002F0000FEF040FEB0121966AE472E088EC9CE0BA
:100300000E94040EF12C10E0015011098F2D90E095
:100310008017910794F4FE01E80FF91F608170E0E7
:1003200043E088EC9CE00E94100F62E572E088ECEC
:100330009CE00E94040EF394E9CFC00FD11F6881A6
:1003400070E043E088EC9CE00E941E0F888180935F
:10035000AC0B90910B02891306C024E030E030937F
:10036000AD0C2093AC0C90910C02891389C01092B3
:10037000AD0C1092AC0C80E38093060281C03091EA
:100380001402231371C00FEF040FEB0121966AE4EE
:1003900072E088EC9CE00E94040EF12C10E0015009
:1003A00011098F2D90E08017910794F4FE01E80F5A
:1003B000F91F608170E043E088EC9CE00E94100F20
:1003C00062E572E088EC9CE00E94040EF394E9CFB1
:1003D000C00FD11F688170E043E088EC9CE00E9470
:1003E0001E0F88818093AC0B90910D02891302C07F
:1003F00081E605C090910E0289131AC082E68093AF
:10040000060261E070E087E190E00E94A70D60E0E5
:1004100070E089E190E00E94A70D60E070E08BE160
:1004200090E0DF91CF911F910F91FF900C94A70D59
:1004300090910F02891312C083E68093060260E058
:1004400070E087E190E00E94A70D60E070E089E134
:1004500090E00E94A70D61E070E0E1CF9091090269
:1004600089130EC080E3CBCF8755964049F087E5CE
:1004700096E0DF91CF911F910F91FF900C94860928
:10048000DF91CF911F910F91FF900895CF92DF924E
:10049000EF92FF920F931F9388EB9CE00E94F3056D
:1004A0006AE672E088EC9CE00E94060E60E070E074
:1004B000CB010E946F1D8093AB0C6BE772E088EC60
:1004C0009CE00E94040E6091AB0C70E043E088EC6D
:1004D0009CE00E941E0F89E8C82E82E0D82E97E586
:1004E000E92E96E0F92E0EE111E028E030E046E03A
:1004F00060E872E08CE299E00E94B1172DE8C22E0C
:1005000022E0D22E03E211E028E030E045E060E88E
:1005100072E08CEA96E00E94B11761E070E080E042
:1005200090E00E94BB0D60E070E082E090E00E94ED
:10053000960D60E070E083E090E00E94960D61E02F
:1005400070E086E090E00E94960D61E070E089E046
:1005500090E00E94960D61E070E084E090E00E94DF
:10056000960D61E070E084E090E00E94A70D60E0ED
:1005700070E086E090E00E94A70D60E070E089E006
:1005800090E00E94A70D61E070E087E190E00E949A
:10059000960D61E070E089E190E00E94960D61E0C7
:1005A00070E08BE190E00E94960D60E070E087E1E2
:1005B00090E00E94A70D60E070E089E190E00E9469
:1005C000A70D60E070E08BE190E00E94A70D61E96B
:1005D00072E088EC9CE01F910F91FF90EF90DF900C
:1005E000CF900C94060ECF93DF931F921F92CDB73E
:1005F000DEB782E090E00E94AD0D21E0892B09F486
:1006000020E02093560683E090E00E94AD0D21E0AB
:10061000009709F420E020935506209156062223E6
:10062000A1F020910602233681F46EE972E088EC95
:100630009CE00E94040E6091560670E088EC9CE0FD
:100640000E94380F81E090E00AC0892B61F0809110
:10065000AC0C9091AD0C019731F482E090E0909356
:10066000AD0C8093AC0C8091AC0C9091AD0C8230B1
:10067000910539F134F4009761F0019709F456C0FF
:1006800061C08330910509F44EC0049709F44EC04F
:1006900059C080910602803309F045C061E070E0E6
:1006A00087E190E00E94A70D60E070E089E190E0B2
:1006B0000E94A70D60E070E08BE190E00E94A70D22
:1006C00032C060E070E086E090E00E94A70D60E03C
:1006D00070E089E090E00E94A70D80911502898367
:1006E00080910A028A8342E0BE016F5F7F4F87E5F7
:1006F00096E00E948609892B31F06AE070E080E084
:1007000090E00E94BB0D81E0809354066EEA72E097
:1007100088EC9CE00E94060E83E090E09093AD0C84
:100720008093AC0C0FC060E070E002C061E070E04C
:1007300086E090E00E94A70D60E070E089E090E024
:100740000E94A70D0F900F90DF91CF9108950F9306
:100750001F9360E070E088EC9CE00E94E90D41E3AB
:1007600065E388EB9CE00E94630400E010E028E26F
:1007700031E040E050E066E170E087E596E00E94FD
:100780006B091F910F910895BC016E5F7F4FDC01D3
:10079000ED91FC910190F081E02D40E0199591E000
:1007A000811190E0892F0895CF93DF931F92CDB7E9
:1007B000DEB7698341E050E0BE016F5F7F4F0E946A
:1007C000F40F89810F90DF91CF9108959F92AF929E
:1007D000BF92CF92DF92EF92FF920F931F93CF932E
:1007E000DF931F921F92CDB7DEB76C01A42E790163
:1007F000902E6068B62E00E021E040E059E06DE305
:1008000070E0CE0101960E944C0F69817A818BE3E2
:100810009FE00E94C70FF601868560E070E090E0DF
:100820000E94A70DAA946B2D8BE39FE00E94D40336
:100830009920B1F00FEF10E001C0000F9A94EAF791
:100840006B2D8BE39FE00E94D403202F2095F701AE
:10085000908192238023892B80839924939401C0D3
:10086000912C892D90E09A1460F48701080F191FCC
:100870006B2D8BE39FE00E94D403F8018083939457
:10088000F0CFE80EF91E60E08BE39FE00E94D403F6
:10089000F7018083F601868561E070E090E00E94B8
:1008A000A70D8BE39FE00E94E60F0F900F90DF9162
:1008B000CF911F910F91FF90EF90DF90CF90BF905D
:1008C000AF909F900895FC0184EC92E09183808327
:1008D000668747870895DF92EF92FF920F931F93E9
:1008E000CF93DF931F921F92CDB7DEB77C01D62E38
:1008F000142F00E021E040E059E06DE370E0CE010C
:1009000001960E944C0F69817A818BE39FE00E94DF
:10091000C70FF701868560E070E090E00E94A70DA8
:100920006D2D8BE39FE00E94D403612F8BE39FE04A
:100930000E94D403F701868561E070E090E00E9498
:10094000A70D8BE39FE00E94E60F0F900F90DF91C1
:10095000CF911F910F91FF90EF90DF900895BF927C
:10096000CF92DF92EF92FF920F931F93CF93DF937B
:100970001F921F92CDB7DEB77C01162FD42EB22E58
:10098000C32E00E021E040E059E06DE370E0CE01CD
:1009900001960E944C0F69817A818BE39FE00E944F
:1009A000C70FF701868560E070E090E00E94A70D18
:1009B000612F8BE39FE00E94D4030B2D1C2DC801F7
:1009C0008D0D911D6C010C151D0541F0F801619113
:1009D0008F018BE39FE00E94D403F5CFF70186855A
:1009E00061E070E090E00E94A70D8BE39FE00E9421
:1009F000E60F0F900F90DF91CF911F910F91FF9015
:100A0000EF90DF90CF90BF900895EF92FF920F93F9
:100A10001F93CF93DF931F921F92CDB7DEB77C0158
:100A2000162F00E021E040E059E06DE370E0CE01D8
:100A300001960E944C0F69817A818BE39FE00E94AE
:100A4000C70FF701868560E070E090E00E94A70D77
:100A5000612F60688BE39FE00E94D40360E08BE32A
:100A60009FE00E94D403182FF701868561E070E0B3
:100A700090E00E94A70D8BE39FE00E94E60F812F7C
:100A80000F900F90DF91CF911F910F91FF90EF90FA
:100A900008950F9341110E94E6030F9108950F935B
:100AA0001F93CF93DF938C01D62FC42F0E9405058F
:100AB000482F4C2B6D2FC801DF91CF911F910F91C3
:100AC0000C946B040F931F93CF93DF938C01D62F5D
:100AD000C42F0E940505C0954C2F48236D2FC801D7
:100AE000DF91CF911F910F910C946B04CF92DF9205
:100AF000EF92FF920F931F93CF93DF93EC016B0163
:100B0000142F790140E062E00E946B0444E06AE047
:100B1000CE010E946B0440E864E1CE010E946B04A8
:100B20009601412F62E1CE010E94AF0443E062E0F2
:100B3000CE010E946B0408E813E16AE0CE010E9436
:100B4000050582FF13C040E062E0CE010E946B0405
:100B500064E4CE010E940505F701808362E4CE01C2
:100B60000E940505F701818380E004C0015011094E
:100B700021F783E0DF91CF911F910F91FF90EF90CC
:100B8000DF90CF9008950F931F93CF938C014FE088
:100B900062E00E946B04C3E062E370E080E090E0FA
:100BA0000E94BB0D62E0C8010E94050584FF02C0DF
:100BB000C15091F7CF911F910F910895CF93DF937B
:100BC000EC0168E20E940505982F9370933041F084
:100BD000482F436068E2CE01DF91CF910C946B0403
:100BE000DF91CF910895CF93DF93EC018E8561E083
:100BF00070E090E00E94960D8E8561E070E090E0DC
:100C00000E94A70D8F858F3F09F45CC060E070E003
:100C100090E00E94960D8F8590E00E94AD0D892B8B
:100C200009F050C08F8561E070E090E00E94960D61
:100C30008F8560E070E090E00E94A70D62E070E0B8
:100C400080E090E00E94CD0D8F8561E070E090E043
:100C50000E94A70D62E370E080E090E00E94BB0D6F
:100C600040E064E2CE010E946B0440E066E2CE0107
:100C70000E946B0446E268E4CE010E946B0440E8E7
:100C800064E5CE010E946B0449EA66E5CE010E944C
:100C90006B0443E068E5CE010E946B0448EE6AE510
:100CA000CE010E946B0440E46AE2CE010E946B0414
:100CB0004DE362E2CE010E946B04CE01DF91CF9141
:100CC0000C94DE05CE010E94C305CACF3F924F921D
:100CD0005F926F927F928F929F92AF92BF92CF92CC
:100CE000DF92EF92FF920F931F93CF93DF931F92A8
:100CF0001F92CDB7DEB73C01162F942E2901A11407
:100D0000B10419F0F501408101C040E0342EF0E15A
:100D10008F9E300C112440E062E0C3010E946B04FE
:100D20004FE768E0C3010E946B0440E864E1C3013F
:100D30000E946B049201402F62E1C3010E94AF0444
:100D4000432D6AE1C3010E946B04412F62E0C3019D
:100D50000E946B041C3029F440E86AE1C3010E9440
:100D60004F0500ED17E068E0C3010E940505982FCC
:100D7000992139F480FD03C001501109A1F783E0E6
:100D800065C06CE0C3010E940505182F837109F04E
:100D90005AC0E114F104F9F0C114D104E1F064E1A6
:100DA000C3010E940505F6019081981708F445C01B
:100DB0008083082D9701482F62E1C3010E944905F5
:100DC00068E1C3010E9405058770A114B10421F0F8
:100DD000F501808301C080E013FD31C0E114F1040E
:100DE00081F1C114D10469F19F89992351F1F60170
:100DF0004081413021F4843041F58FEF27C04230EB
:100E000020F1811122C042509E012F5F3F4FB70158
:100E1000C3010E947605811119C0F6018081E80E98
:100E2000F11CF70132979081898198130EC0319699
:100E300090818A81981309C004C084E007C082E0D1
:100E400005C080E003C081E001C087E00F900F90F3
:100E5000DF91CF911F910F91FF90EF90DF90CF9096
:100E6000BF90AF909F908F907F906F905F904F90CA
:100E70003F9008958F92AF92BF92CF92DF92EF9200
:100E8000FF920F931F93AF928C2C57016801790149
:100E9000042F9B0140E36CE00E9466060F901F91B7
:100EA0000F91FF90EF90DF90CF90BF90AF908F9019
:100EB00008952F923F924F925F926F927F928F92FE
:100EC0009F92AF92BF92CF92DF92EF92FF920F93D9
:100ED0001F93CF93DF93CDB7DEB72C970FB6F8945F
:100EE000DEBF0FBECDBF413508F005C1342E3B013A
:100EF0004C0140E86CE10E9462052224239432E018
:100F0000231691F083E02816E1F091E02912F7C052
:100F100083E989833320D1F081E0F301908195301A
:100F200008F480E0B12C17C0F5E9F983332081F093
:100F300081E0F3019081983008F480E043E0B42E22
:100F40000AC087E9898336E0B32E04C0B12C02C001
:100F500023E0B22E80E0D32CF8E0BF9ED0181124FD
:100F6000D7FCD12C882321F098E89B8333E001C083
:100F700032E021E09D2D977009F420E09D2D95959C
:100F800095959595290F31F4882309F491C038E09F
:100F9000D30E8EC0811102C094E001C093E02917E6
:100FA00008F4922FEB2DF0E03196E60DF71D232F7C
:100FB0004191A1E0B0E0AC0FBD1FA20FB11D4C9359
:100FC0002F5F422F431B491798F3DECF8111DDC0FD
:100FD0009FE19D150CF495C080E2D82E90E79A838E
:100FE0009B818C8189279D8189279E8189278F8379
:100FF0009E01285F3F4F47E0BE016F5F7F4FC401F6
:101000000E9476058111C1C01B86E3E0EA87CE010C
:1010100007962C0199E09C87CB844C2D4295407F0C
:101020004C0D6AE1C4010E946B04A12CCE010B9609
:101030007C018E01065F1F4F92014C85BE016F5FE0
:101040007F4FC4010E943A07823009F0BFCF6CE1A4
:10105000C4010E94050585FD50C08F7109F480E22E
:10106000282F30E04D2DDD0C550B421753070CF0A7
:1010700046C0D82E85958595859591E0980F422F8D
:10108000477081E009F480E0890FE1E0F0E0EC0FC7
:10109000FD1FE80FF11D215031092770332781E032
:1010A00090E001C0880F2A95EAF79081892B808310
:1010B0008FE18D150CF492CF9D2D97709B878D2D10
:1010C0008595859585958E5F292FE0E18E9F200D72
:1010D00011242A8321E0911101C020E0280F2C87E0
:1010E00044244394512C4C0E5D1E480E511CF9E0D3
:1010F000F81BFA8791CF86E048C082E046C085E0C1
:1011000044C08B818838F1F182E094E0EB2DF0E06F
:101110003196E60DF71D980FA1E0B0E0AC0FBD1FB2
:10112000A80FB11D2C9121938F5F9813F5CF8A855D
:10113000833021F58B85811121C09E012D5F3F4FAA
:1011400041E0B201C4010E94760581111EC09B815D
:10115000F2018181981314C09C818281981310C080
:10116000808182FF02C02394CACEF3018387822D3F
:10117000880F820D8F5F808380E007C081E005C00B
:1011800087E003C083E093E0C1CF2C960FB6F894BC
:10119000DEBF0FBECDBFDF91CF911F910F91FF90AA
:1011A000EF90DF90CF90BF90AF909F908F907F9007
:1011B0006F905F904F903F902F9008954F925F9265
:1011C0006F927F928F929F92AF92CF92EF92FF9207
:1011D0000F931F93CF93DF931F921F92CDB7DEB76C
:1011E0006A834115510539F1F9016081623018F1C6
:1011F00049012A013C0140E86CE10E94620587E058
:101200008983A12CC12CCE0101967C01840192011D
:1012100041E0BE016E5F7F4FC3010E943A0781111A
:101220000DC0F4018081823041F481E099819111F7
:1012300005C080E003C084E001C081E00F900F9002
:10124000DF91CF911F910F91FF90EF90CF90AF90D2
:101250009F908F907F906F905F904F9008959A012C
:10126000AB0166E20C94DE080F931F93CF93DF93DC
:1012700000D0CDB7DEB78C0182E08B8340E064E222
:10128000C8010E946B0440E066E2C8010E946B0442
:1012900046E268E4C8010E946B04AE014D5F5F4FF7
:1012A000BE016F5F7F4FC8010E942F09982F81E018
:1012B000992319F0923009F080E00F900F900F9071
:1012C000DF91CF911F910F91089560E070E082E16E
:1012D0009DE00C94E90DEF92FF920F931F93CF9333
:1012E000DF93EC0179010E94220AF98AE88A1B8BBC
:1012F0000A8BFE01EC5AFF4F10821F861E86DF917B
:10130000CF911F910F91FF90EF900895AF92BF92F0
:10131000CF92DF92EF92FF920F931F93CF934134BE
:1013200038F5C42F6B018C017C018EE0E80EF11CB6
:1013300061E070E0C7010E9466155801E4E5AE0E59
:10134000B11CF5018081882321F0C7010E94AB15F3
:101350000FC04C2F50E0B601C80144960E94D52022
:10136000F501C083C7010E94AB1580E090E002C088
:101370008FEF9FEFCF911F910F91FF90EF90DF9034
:10138000CF90BF90AF900895EC018C01025F1F4F8A
:101390007C0184E5E80EF11C5E01E4E1AE0EB11CB7
:1013A00061E070E0C8010E946615F701D080C801B5
:1013B0000E94AB15DD20B1F04D2DB501CE010E948C
:1013C0001F0B61E070E0C8010E946615F7011082F2
:1013D000C8010E94AB15EA89FB89309709F3CE0159
:1013E0001995DECF64E670E080E090E00E94BB0DCE
:1013F000D7CFCF93DF93CDB7DEB7C054D1090FB6A7
:10140000F894DEBF0FBECDBF8C0140E4BE016F5F1C
:101410007F4FC8010E94150D97FDF7CFD801509658
:10142000ED91FC915197309781F3482FBE016F5F8A
:101430007F4FC8011995E9CF60E070E08CE59DE031
:101440000C94E90D0F931F93CF93DF93EC01CB0125
:101450008A017983688361E070E00E94960D1F83A2
:101460000E83C8010E94801481E090E09D878C87E4
:10147000DF91CF911F910F910895CF93DF93EC01EE
:101480000E94D90D6A837B838C839D83DF91CF91EA
:101490000895CF92DF92EF92FF920F931F93CF9315
:1014A000DF93EC01F62E0E94D90D28EB3BE0F29E73
:1014B0006001F39ED00C11240D2C000CEE08FF08E7
:1014C0000A811B812C813D81C00ED11EE21EF31EBC
:1014D0006C157D058E059F0550F4A7019601261B0E
:1014E000370B480B590BCA01B9010E94CD0DCA82B6
:1014F000DB82EC82FD82DF91CF911F910F91FF90F3
:10150000EF90DF90CF900895CF93DF93EC0160E0F0
:1015100070E0888199810E94A70D65E0CE010E944C
:10152000490A61E070E0888199810E94A70D65E019
:10153000CE01DF91CF910C94490ACF93DF93EC0158
:1015400061E070E0888199810E94A70D65E0CE017D
:101550000E94490A60E070E0888199810E94A70D8D
:1015600065E0CE01DF91CF910C94490ACF92DF92D2
:10157000EF92FF920F931F93CF936C01C42F00E063
:1015800010E0E62EF12CC701002E01C0880F0A944E
:10159000EAF787FF06C0CF5FC6010E94840AC53004
:1015A00021F4C6010E949D0AC0E00F5F1F4F083062
:1015B000110549F78C2FCF911F910F91FF90EF905C
:1015C000DF90CF9008950F931F93CF93DF938C01FB
:1015D0000E943D0AC8E0D0E0C8010E949D0AC801EF
:1015E0000E94840A2197C1F7DF91CF911F910F913B
:1015F0000895EF92FF920F931F93CF93DF938C0187
:10160000C0E0D0E08EE7E82EF12CC7010C2E01C01F
:10161000880F0A94EAF787FF04C0C8010E94840A71
:1016200003C0C8010E949D0A2196C830D10569F700
:10163000DF91CF911F910F91FF90EF900895AF929E
:10164000BF92CF92DF92EF92FF920F931F93CF93AF
:10165000DF93EC017B01042F0E94E30ACE010E947C
:10166000F90A67015701A00EB11C10E0CA14DB048F
:1016700049F0F60161916F01412FCE010E94B60A37
:10168000182FF4CF602FC7010E947E0D082F412F25
:10169000692FCE010E94B60A482F602FCE010E940A
:1016A000B60ACE01DF91CF911F910F91FF90EF907D
:1016B000DF90CF90BF90AF900C94F90ACF92DF9259
:1016C000EF92FF920F931F93CF93DF938C010E94B1
:1016D0003D0A3AE5C32ED12CE12C40E8F42ECFEFA1
:1016E000DFE762E0F801868197810E940F159B0178
:1016F0006C177D070CF4EB01E216F3060CF47B018A
:1017000061E0C8010E94490AF1E0CF1AD10849F707
:10171000C7018C1B9D0BC2975CF0CE0DDF1DD7FD62
:101720002196CE0195958795F8019187808702C013
:101730008FEF9FEFDF91CF911F910F91FF90EF906F
:10174000DF90CF9008950F931F93CF93DF93EC0119
:1017500062E08E819F810E940F152885398589015D
:10176000330F220B330BE091A60D60177107820730
:10177000930764F481E08E0F8093A60DF0E0E955A5
:10178000F24F8FE5808380E090E00BC081E08E0F08
:101790008093A60DF0E0E955F24F8DE2808381E061
:1017A00090E0DF91CF911F910F910895AF92BF927A
:1017B000CF92DF92EF92FF920F931F93CF93DF931D
:1017C000EC010E94A30B6C0180EFE82EF12C00E0ED
:1017D00010E0CE010E94A30B5C018C159D0519F44D
:1017E0000F5F1F4F0CC0083011053CF065E0CE01C3
:1017F0000E94490A80E090E00DC000E010E061E046
:10180000CE010E94490A81E0E81AF108650109F752
:101810008FEF9FEFDF91CF911F910F91FF90EF908E
:10182000DF90CF90BF90AF900895CF92DF92EF926C
:10183000FF920F931F93CF93DF938C01C5E0D0E00D
:10184000E12CF12CC8010E94A30BE80EF91E61E007
:10185000C8010E94490A2197A9F785E0C82ED12C1A
:10186000C0E0D0E0C8010E94A30BC80FD91F61E0FF
:10187000C8010E94490A81E0C81AD10899F783E09B
:10188000E816F1042CF423976CF48FEF9FEF0CC053
:1018900081E090E0239714F480E090E091958195A9
:1018A000910902C081E090E0DF91CF911F910F91EB
:1018B000FF90EF90DF90CF900895CF93DF93EC01EE
:1018C000CE010E94150C9C012F5F3F4F2230310545
:1018D000B8F7DF91CF9108950F931F93CF93DF93C4
:1018E000EC010E945D0C8F3F2FEF9207D9F006E0CC
:1018F00010E0CE010E94150C8F3F2FEF920791F060
:10190000892BA9F301501109A1F7CE010E94150CF2
:1019100021E030E0892B11F420E030E0882799277E
:10192000821B930BDF91CF911F910F910895CF925E
:10193000DF92EF92FF920F931F93CF93DF93EC010F
:101940007B01FB01108200E010E080E8C82ED12C62
:101950008A859B850597A4F0CE010E94150C8F3FC8
:10196000FFEF9F0789F1892B19F41B861A8608C09F
:10197000CE010E94150C892B29F581E090E024C04E
:10198000CE010E94150C009799F00197D9F48A8531
:101990009B8501969B878A87F7012081C601002ECF
:1019A00002C0959587950A94E2F7822B808302C046
:1019B0001B861A860F5F1F4F0830110549F680E01D
:1019C00090E002C08FEF9FEFDF91CF911F910F91B9
:1019D000FF90EF90DF90CF900895EF92FF920F93DA
:1019E0001F93CF93DF937C01042FFC011386128693
:1019F000EB0110E0101781F0BE01C7010E94970CA7
:101A00008F3FFFEF9F0751F0019719F4812F90E06E
:101A100005C01F5F2196EECF8FEF9FEFDF91CF9133
:101A20001F910F91FF90EF900895FF920F931F93D6
:101A3000CF93DF93EC018B01F42E1092A60D8C85D1
:101A40009D85892B09F1CE010E945E0B019639F428
:101A5000E091A60DF0E0E955F24F10822DC0CE01C5
:101A60000E94D60B8F3F4FEF940739F0CE010E94B2
:101A70006C0C8F3F2FEF920739F4E091A60DF0E048
:101A8000E955F24F10822EC04F2DB801CE010E94B1
:101A9000ED0C21E030E08F3F4FEF940711F020E094
:101AA00030E03D872C87E091A60DF0E0E955F24F3C
:101AB0001082823091051CF48FEF9FEF13C0EC0170
:101AC00022976C2FC8010E947E0DF801EC0FFD1FBC
:101AD000208130E0322F22274181242B8217930767
:101AE00059F7CE01DF91CF911F910F91FF9008958B
:101AF00060E070E087EA9EE00C94E90D482FDC017D
:101B000080E090E02A2F241B261778F42D91E92FEE
:101B1000FF27E227EE0FFF1FE653FD4F20813181A3
:101B2000982F882782279327EDCF08956115710597
:101B300029F06230710521F462E003C060E001C069
:101B400063E0FC01E653FB4F80810C94B111865396
:101B50009B4FFC0180810C941F1286539B4FFC010C
:101B600080810E94E61121E030E0892B11F420E011
:101B700030E0C90108959B01AC01A8EEB3E00E94DA
:101B8000942022E096958795779567952A95D1F7C9
:101B900020E030E0A9010C94F01C22E09695879596
:101BA000779567952A95D1F720E030E0A9010C944C
:101BB000F01C0E941E1A22E0660F771F881F991FD3
:101BC0002A95D1F7089560E070E081EF9EE00C94D3
:101BD000E90DFC017183608308950F931F93CF93E8
:101BE000DF938C01EB01CB010E94E520AC01BE012B
:101BF000F801808191810E94CC10CE01DF91CF91BC
:101C00001F910F910C94E5200C94ED0D0F931F93F1
:101C1000CF93DF93EC010E94ED0D8C0160E175E044
:101C2000CE010E94ED0DC8010296DF91CF911F9168
:101C30000F910895CF93DF93EA01FC018081918198
:101C40000E94CC10CE01DF91CF9108954F925F9208
:101C50006F927F928F929F92AF92BF92EF92FF927C
:101C60000F931F93CF93DF93CDB7DEB7C054D10945
:101C70000FB6F894DEBF0FBECDBF7C01213009F452
:101C800050C068F0223009F453C0233009F06DC011
:101C90007F936F935F934F938BE195E04FC080E00C
:101CA00090E0812C912CA12CB0E8BB2E95018401F1
:101CB000082E04C036952795179507950A94D2F7F4
:101CC0000423152326233723012B022B032B11F486
:101CD0000196ECCF9E012F5F3F4FF901412C512C13
:101CE000612CA0E87A2E8F01021B130B8032910524
:101CF00098F553014201082E04C0B694A794979416
:101D000087940A94D2F784229522A622B7228928A2
:101D10008A288B2811F4A0E301C0A1E3A1930196C6
:101D2000E2CF7F936F935F934F9383E195E006C07B
:101D30007F936F935F934F9387E195E09F938F938A
:101D4000CE0101969F938F930E9432218C010FB692
:101D5000F894DEBF0FBECDBFA801BE016F5F7F4FFD
:101D6000C7010E941A0EC80102C080E090E0C05C6A
:101D7000DF4F0FB6F894DEBF0FBECDBFDF91CF911E
:101D80001F910F91FF90EF90BF90AF909F908F9019
:101D90007F906F905F904F900895CF92DF92EF9277
:101DA000FF920F931F93CF93DF93CDB7DEB7C0544D
:101DB000D1090FB6F894DEBF0FBECDBF6C017F9383
:101DC0006F935F934F938FE195E09F938F93CE0135
:101DD00001967C019F938F930E9432218C01AC016C
:101DE000B701C6010E941A0E0FB6F894DEBF0FBEEF
:101DF000CDBFC801C05CDF4F0FB6F894DEBF0FBE89
:101E0000CDBFDF91CF911F910F91FF90EF90DF90A9
:101E1000CF900895223011F40C94CD0E0C94260E20
:101E2000242F423031F4AB01770F660B770B0C9403
:101E30000A0FAB0160E070E00C94260E0F931F9325
:101E4000CF93DF93EC010E94100F8C0160E175E0ED
:101E5000CE010E94ED0DC8010296DF91CF911F9136
:101E60000F910895AB01770F660B770B0C94CD0E95
:101E70000F931F93CF93DF93EC010E94320F8C01DD
:101E800060E175E0CE010E94ED0DC8010296DF9180
:101E9000CF911F910F9108950F93FC01213029F0EC
:101EA00065EF75E083E00E94A618023041F0033030
:101EB00041F0013011F0108206C084E003C088E0D8
:101EC00001C08CE08083403886E9580788E96807BC
:101ED0007105A8F440348BE458078CE46807710559
:101EE00088F4403482E458078FE06807710568F48D
:101EF00040385A416640710558F483E00FC080E0D5
:101F000090E008C081E090E005C082E090E002C06F
:101F100083E090E0DC01A85DBA4F8C9181830F9142
:101F200008950F9300E021E040E059E06DE370E098
:101F30000E944C0F0F910895EF92FF920F931F9301
:101F4000CF93DF931F921F92CDB7DEB78C017B0139
:101F500002960E94910FF801F182E082CE01019673
:101F60000E94910F89819A81F80193838283148260
:101F70001682158210861782128611860F900F9096
:101F8000DF91CF911F910F91FF90EF9008950F93E4
:101F90001F93CF93DF93EC01162F072F05960E9416
:101FA0003917202F412F6FEF888199810E943912B4
:101FB000892B29F065EF75E083E00E94A61881E087
:101FC0008C83DF91CF911F910F910895CF93DF9371
:101FD000EC01888199810E9457121C82CE010596DE
:101FE000DF91CF910C943D17AF92BF92CF92DF92C9
:101FF000EF92FF920F931F93CF93DF93EC015B015E
:102000007A016C0185E0C80ED11CC6010E94391707
:102010008C8181110EC02B814A816FEF888199815B
:102020000E943912892B29F065EF75E083E00E9448
:10203000A6188501950140E06FEF888199810E9483
:1020400063128C81811104C0888199810E9457128A
:10205000C601DF91CF911F910F91FF90EF90DF901C
:10206000CF90BF90AF900C943D1760E070E08BE391
:102070009FE00C949C0F0FB6802DF894807890E030
:1020800008950FB6802D7894807890E00895FF929F
:102090000F93F82E0FB7087FF02AFFBE0F91FF9025
:1020A00008958091460F90E0089521E02093460F17
:1020B000FC01EE0FFF1FE45DFA4F0190F081E02D6F
:1020C0006681880F991F880F991FDC01A85BB04FAC
:1020D000ED91FC91119712968D919C911397199502
:1020E0000C948B1EEF92FF920F931F93CF93DF936D
:1020F00079018230910508F046C020E030E0E0919F
:10210000470FEE2319F021503109C9F7FC01EE0FFA
:10211000FF1FEE0FFF1FE85BF04FF182E082138399
:102120000283880F991FFC01E45DFA4FC081D181C1
:102130001982188286E08A83DB01CA0180589B4796
:10214000A14EBF4FE3E0880F991FAA1FBB1FEA955E
:10215000D1F79A01AB01F4E0220F331F441F551F42
:10216000FA95D1F7BC01CD010E946A2021503109B6
:102170003D832C83EF2811F088ED01C088E489832A
:1021800080E090E002C08FEF9FEFDF91CF911F9131
:102190000F91FF90EF900895CF93DF9321E0082EE9
:1021A00001C0220F0A94EAF7DB01460F571F880F80
:1021B000991FFC01E45DFA4FA417B50769F0C081CF
:1021C000D181888185FFFDCF8091470F822B80933D
:1021D000470F8D918E83F0CFDF91CF9108951F929D
:1021E0000F920FB60F9211240BB60F922F933F93BD
:1021F0004F935F936F937F938F939F93AF93BF930F
:10220000EF93FF9380E090E00E945510FF91EF91D3
:10221000BF91AF919F918F917F916F915F914F91FE
:102220003F912F910F900BBE0F900FBE0F901F90FC
:1022300018951F920F920FB60F9211240BB60F92A2
:102240002F933F934F935F936F937F938F939F93BE
:10225000AF93BF93EF93FF9381E090E00E945510FE
:10226000FF91EF91BF91AF919F918F917F916F916E
:102270005F914F913F912F910F900BBE0F900FBE2A
:102280000F901F9018951F920F920FB60F92112466
:102290000BB60F922F933F934F935F936F937F9360
:1022A0008F939F93AF93BF93EF93FF9381E08093BE
:1022B000460F8091470F8E7F8093470F0E948B1EA1
:1022C000FF91EF91BF91AF919F918F917F916F910E
:1022D0005F914F913F912F910F900BBE0F900FBECA
:1022E0000F901F9018951F920F920FB60F92112406
:1022F0000BB60F922F933F934F935F936F937F9300
:102300008F939F93AF93BF93EF93FF9381E080935D
:10231000460F8091470F8D7F8093470F0E948B1E41
:10232000FF91EF91BF91AF919F918F917F916F91AD
:102330005F914F913F912F910F900BBE0F900FBE69
:102340000F901F901895282F22952F7033E0239F10
:10235000C0011124273010F48296089583519F4FB5
:102360000895CF93DF93982F9F70C1E0D0E001C014
:10237000CC0F9A95EAF76230A9F0633069F06111E9
:1023800020C00E94A311FC012291C0952C23208320
:10239000FC012081C22311C00E94A311FC01829183
:1023A000C82B0BC00E94A311FC0122913C2F309539
:1023B00023232083FC012081C22BC08380E090E096
:1023C00002C08FEF9FEFDF91CF910895CF93C82F79
:1023D0000E94A3110297FC012081CF7081E090E060
:1023E00002C0880F991FCA95E2F730E08223932339
:1023F000CF910895CF93C82F0E94A311FC01408173
:10240000CF7021E030E001C0220FCA95EAF7242BFB
:102410002083CF910895CF93C82F0E94A311FC0170
:102420004081CF7021E030E002C0220F331FCA95F7
:10243000E2F72095309524232083CF910895672BD0
:1024400011F00C94FA110C940B1284B1876084B9CA
:102450000895892B29F065EF75E083E00E94A618A6
:102460008091640084608093640080E090E00C942C
:102470002512CF93DF93C42FD22F61E070E080E567
:102480009FE00E946615E4E6F0E080818B7F808308
:102490008D2F869586958DBDD370C065CD2BCCBD17
:1024A0008DB58EB580E090E0DF91CF9108958CB529
:1024B0008F7B8CBDE4E6F0E080818460808380E5E2
:1024C0009FE00C94AB15CF92DF92EF92FF920F93A7
:1024D0001F93CF93DF93C62FD42F6901232B41F491
:1024E0000115110529F465EF75E083E00E94A61837
:1024F000CF3F19F08C2F0E940B12F801D601E00E8D
:10250000F11EEE15FF0591F0C114D10411F08C916C
:1025100001C080E08EBD0DB407FEFDCF8EB5011564
:10252000110509F0808331961196EBCFD1110DC0C2
:10253000CF3F59F08C2FDF91CF911F910F91FF90DA
:10254000EF90DF90CF900C94FA11DF91CF911F9113
:102550000F91FF90EF90DF90CF90089521E02093AE
:10256000460F2CE0AC01249FC001259F900D112443
:10257000DC01AA5EBD4F1296ED91FC91139720816C
:10258000AB014F5F5F4F81E090E001C0880F4A953B
:10259000EAF78095822380831696ED91FC91179738
:1025A00018968D919C91199719950C948B1E8F926A
:1025B0009F92AF92BF92CF92DF92EF92FF920F93D2
:1025C0001F93DC010297D8F4E0E3F5E090E0C12C22
:1025D00084E2D82E84EFE82EF12C460157010190B9
:1025E00004C0B694A794979487940A94D2F79F5FF7
:1025F00084169506A606B70629F0953071F78FEF79
:102600009FEF1EC08CE08A9FF0018B9FF00D11247C
:10261000EA5EFD4FA081B1811C9211961C92119728
:1026200012961C92129715961C921E92149737833D
:10263000268311870087928711969C9380E090E013
:102640001F910F91FF90EF90DF90CF90BF90AF90D0
:102650009F908F900895633071055CF52CE0289F62
:10266000F001299FF00D1124EA5EFD4F80819181D8
:10267000DB011496AA0FBB1FA80FB91F11965C931C
:102680004E93A481B5812C916F5F7F4F81E090E0E4
:1026900001C0880F6A95EAF7982F909592239C9332
:1026A0000280F381E02D9081892B808380E090E08F
:1026B00008958FEF9FEF08952CE0AC01249FC00197
:1026C000259F900D1124FC01EA5EFD4F0190F081E1
:1026D000E02D8481958108951F920F920FB60F927D
:1026E00011240BB60F922F933F934F935F936F93E9
:1026F0007F938F939F93AF93BF93EF93FF9360E08C
:1027000070E080E090E00E94AE12FF91EF91BF91E7
:10271000AF919F918F917F916F915F914F913F9179
:102720002F910F900BBE0F900FBE0F901F9018951A
:102730001F920F920FB60F9211240BB60F922F9388
:102740003F934F935F936F937F938F939F93AF9339
:10275000BF93EF93FF9361E070E080E090E00E9410
:10276000AE12FF91EF91BF91AF919F918F917F91A9
:102770006F915F914F913F912F910F900BBE0F90F2
:102780000FBE0F901F9018951F920F920FB60F92C9
:1027900011240BB60F922F933F934F935F936F9338
:1027A0007F938F939F93AF93BF93EF93FF9362E0D9
:1027B00070E080E090E00E94AE12FF91EF91BF9137
:1027C000AF919F918F917F916F915F914F913F91C9
:1027D0002F910F900BBE0F900FBE0F901F9018956A
:1027E0001F920F920FB60F9211240BB60F922F93D8
:1027F0003F934F935F936F937F938F939F93AF9389
:10280000BF93EF93FF9360E070E081E090E00E945F
:10281000AE12FF91EF91BF91AF919F918F917F91F8
:102820006F915F914F913F912F910F900BBE0F9041
:102830000FBE0F901F9018951F920F920FB60F9218
:1028400011240BB60F922F933F934F935F936F9387
:102850007F938F939F93AF93BF93EF93FF9361E029
:1028600070E081E090E00E94AE12FF91EF91BF9185
:10287000AF919F918F917F916F915F914F913F9118
:102880002F910F900BBE0F900FBE0F901F901895B9
:102890001F920F920FB60F9211240BB60F922F9327
:1028A0003F934F935F936F937F938F939F93AF93D8
:1028B000BF93EF93FF9362E070E081E090E00E94AD
:1028C000AE12FF91EF91BF91AF919F918F917F9148
:1028D0006F915F914F913F912F910F900BBE0F9091
:1028E0000FBE0F901F90189561E070E082E59FE0A9
:1028F0000E946615EAE7F0E0808180688083089591
:102900008F929F92AF92BF92CF92DF92EF92FF92FF
:10291000CF93DF938031910508F074C0EC010E94E1
:102920007414C830D105A0F420917E0081E090E0BD
:1029300001C0880FCA95EAF7922F982B90937E00DA
:1029400090B38095982390BB91B3892381BB18C025
:1029500020917D00289781E090E001C0880FCA9502
:10296000EAF7922F982B90937D0090910701809524
:10297000982390930701909108018923809308017F
:10298000C12CD12C7601C394C1E0D0E0812C94E21B
:10299000992E94EFA92EB12C9E010C2C02C0220F6F
:1029A000331F0A94E2F7032E000C440B550BC501AC
:1029B000B4010E946A2021343D404340510530F467
:1029C00080917A00C82AC0927A000BC03FEFC31AE8
:1029D000D30AE30AF30A88E0C816D104E104F1043B
:1029E000D9F680917C00806480937C0080917A008D
:1029F0008F7780937A0082E59FE00E94AB1580E09C
:102A000090E002C08FEF9FEFDF91CF91FF90EF90AA
:102A1000DF90CF90BF90AF909F908F900895CF930D
:102A2000DF93623009F041C0EC010E947414809180
:102A30007B00C830D10558F4877F80937B0080915C
:102A40007C00807F80937C0080917C000BC088603C
:102A500080937B0080917C00807F80937C008091BC
:102A60007C00C850C82BC0937C0080917A008064A1
:102A700080937A0080917A0086FDFCCFC091780027
:102A8000D091790080917A00806180937A00809162
:102A90007A008F7780937A0082E59FE00E94AB15E1
:102AA000BE01DD0F880B990B03C06FEF7FEFCB01E9
:102AB000DF91CF910895E1E6F0E080E88083108215
:102AC0000E94801D0E945F1F0C944110EF92FF92A4
:102AD0000F931F93CF93DF93EC018B010E943B1068
:102AE0007C0188819981892B41F48FEF9FEF998335
:102AF0008883C7010E9447101FC0012B01F100917C
:102B00007A0F10917B0F63E0C8010E942B16888119
:102B10009981019641F4C801069699838883F8014A
:102B20001782168204C0B801CE010E949017C70117
:102B30000E9447100E941D1E81E090E005C0C70161
:102B40000E94471080E090E0DF91CF911F910F919C
:102B5000FF90EF900895EF92FF920F931F93CF9302
:102B6000DF938C010E943B107C01D801ED91FC9118
:102B7000309739F0EF3FBFEFFB0761F4F8011182A6
:102B80001082C701DF91CF911F910F91FF90EF90BD
:102B90000C94471080819181D8018D939C93EF0113
:102BA00026976CE0CE010E942B16F801808191815E
:102BB000892B21F48FEF9FEF91838083CB81D0E02D
:102BC000C7010E944710CE01DF91CF911F910F9155
:102BD000FF90EF900C94BC161092BF0F1092BE0F96
:102BE000A0917A0FB0917B0F2091540F3091550F27
:102BF00080E090E020FD04C0369527950196FACF3D
:102C0000880F991FFC01E85AF04F0190F081E02DE8
:102C10000190F081E02D3697AE17BF07C9F01097ED
:102C200041F012968C9112978B3019F48CE0129629
:102C30008C938BE08283848195819093790F80932C
:102C4000780FF0937B0FE0937A0F81E090E0089586
:102C500080E090E008950F931F93CF93DF93FC01E2
:102C600082816B30E0F18B3008F080C09F012A5FD9
:102C70003F4F838190E0880F991FDC01A85AB04F25
:102C8000CD91DC911197209751F04881598157835C
:102C900046830D90BC91A02D2D933C9302C03783A9
:102CA0002683DC01A85AB04F2D933C9381E090E03D
:102CB000038002C0880F991F0A94E2F7092E000CC6
:102CC000AA0BBB0B0091540F1091550F2091560F7A
:102CD0003091570F802B912BA22BB32B3FC08B3001
:102CE00008F444C0A381B0E0AA0FBB1FA85AB04F9C
:102CF000CD91DC911197209769F088819981C8174F
:102D0000D90719F41D921C9205C0DC018D919C918C
:102D1000998388832381A22FB0E0AA0FBB1FA85AF2
:102D2000B04F8D919C91892B09F581E090E002C014
:102D3000880F991F2A95E2F780959095092E000C2F
:102D4000AA0BBB0B0091540F1091550F2091560FF9
:102D50003091570F80239123A223B3238093540FE4
:102D60009093550FA093560FB093570F6283DF9146
:102D7000CF911F910F910895E0917A0FF0917B0F01
:102D800022812B3028F0238130E08217930768F4EA
:102D90000E945110892B39F081E090E09093BF0F91
:102DA0008093BE0F08950C941D1E08950E943B1041
:102DB000E091780FF091790FEE0FFF1FE458F04F7C
:102DC000118210828091C00F9091C10F0197909352
:102DD000C10F8093C00F60E080917A0F90917B0FBC
:102DE0000E942B1610927B0F10927A0F0E94D01D1A
:102DF000CF92DF92EF92FF920F931F93CF93DF93C7
:102E0000EC016B0160E070E00E9466158C01CE0160
:102E100004967C010115110591F460E070E00E94B8
:102E200072172091780F3091790F8217930739F03C
:102E3000CD28A9F461E070E0CE010E946615609192
:102E4000780F7091790F40E050E0C7010E94801721
:102E50008A819B8101969B838A8301E010E0C801EF
:102E6000DF91CF911F910F91FF90EF90DF90CF9066
:102E7000089560E070E00C94F8160F931F93CF93C1
:102E8000DF93EC018C010C5F1F4F60E070E0C80124
:102E90000E9472172091780F3091790F8217930753
:102EA00029F065EF75E083E00E94A6188A819B8176
:102EB0000097B9F301979B838A83892B71F440E0D3
:102EC00050E060E070E0C8010E948017CE01DF9101
:102ED000CF911F910F910C94AB15DF91CF911F9162
:102EE0000F910895CF93DF93EC010E943B1009905E
:102EF000D881C02D0E944710CE01DF91CF91089557
:102F00000F931F93CF93DF93EC018B010E943B1033
:102F100019830883DF91CF911F910F910C94471073
:102F2000FB0122812B3028F065EF75E083E00E94E1
:102F3000A6186381AF014A5F5F4FDC012D913C9180
:102F40002115310541F0D901169713967C91671729
:102F500010F0C901F2CF37832683FC0151834083EF
:102F600008952F923F924F925F926F927F928F922D
:102F70009F92AF92BF92CF92DF92EF92FF920F9308
:102F80001F93CF93DF9300D01F92CDB7DEB74031B0
:102F900098F54B013AE1831A9108DC01A80DB91D9F
:102FA000BC83AB83FC0123FF09C0AB81BC81EA1762
:102FB000FB0730F4F183E0833296F7CF918380836F
:102FC0001601370158012A8349832B017C010E9495
:102FD0003B106C01EEE7FFE001E010E08191919180
:102FE000892B61F00F5F1F4F01321105B9F7C60140
:102FF0000E9447108FEB5BC084EE59C0F801EE0FC2
:10300000FF1FE458F04F8B819C8191838083DC010A
:1030100015961C930E9314979401A701B301C50153
:103020000E949B1DEB81FC8191838083F58AE48A59
:10303000518E408E378A268A2981238312821782F5
:1030400016821186108613861286158614861786B8
:1030500016868FEF9FEF918B808B138A128A809157
:10306000C00F9091C10F01969093C10F8093C00F34
:103070003A8130FF06C062E08B819C810E942B1652
:1030800011C06CE08B819C810E942B16FA81F2FDAD
:1030900009C0C6010E9447102981822F90E00E943A
:1030A000BC1603C0C6010E944710C80101C09FEFB3
:1030B0000F900F900F900F90DF91CF911F910F9174
:1030C000FF90EF90DF90CF90BF90AF909F908F9048
:1030D0007F906F905F904F903F902F9008950E9447
:1030E000261F85E395E09F938F930E94EE200E9418
:1030F00013010F900F9080E090E008950E946E1DE4
:10310000FDCF0E943B108AEAC82E85E0D82EE12C24
:10311000F12C0EE718E12CE030E04FE060E870E0C1
:1031200082EC9FE00E94B1179FEAC92E95E0D92E4C
:103130000FE618E12CE030E047E060E872E082E45E
:1031400090E10E94B1170E94D01D0895EB012091DB
:10315000C2123091C312232B71F521E030E030937D
:10316000C3122093C212833091F40EB6202D0DB6F7
:10317000802D90E0922B9F938F9384EB95E09F930B
:103180008F930E94EE200F900F900F900F90DF937F
:10319000CF938BEC95E09F938F930E94EE2087EE68
:1031A00095E09F938F930E94EE200F900F900F90C9
:1031B0000F900F900F900E943B100E94A5180E9444
:1031C0006B1D8F929F92AF92BF92CF92DF92EF9240
:1031D000FF920F931F93CF93DF93DB0169017A0175
:1031E000EC01E881F981309709F449C00681178123
:1031F0002085318516964D915D916D917C91199741
:10320000041715072607370708F44CC004171507DD
:1032100026073707A1F54285538564857585970193
:103220008601041B150B260B370BB901A80102817F
:10323000138124813581041715072607370790F17C
:10324000041B150B260B370B1A964D915D916D9152
:103250007C911D9746015701841A950AA60AB70A60
:1032600012964D915D916D917C9115974819590970
:103270006A097B09401751076207730798F4119692
:10328000FC93EE93EC01B983A883DF91CF911F915A
:103290000F91FF90EF90DF90CF90BF90AF909F90F5
:1032A0008F900895CF019CCFFC01208131812115A1
:1032B000310579F02617370751F4FB012081318160
:1032C000FC0131832083FB01118210820895C90122
:1032D000EBCF08956F927F928F929F92AF92BF92A1
:1032E000CF92DF92EF92FF920F931F93CF93DF93D2
:1032F0000E943B10EC0180E090E00E945C134C01C6
:103300002091C9123091CA124091CB125091CC1227
:103310006091CD127091CE128091CF129091D01207
:103320006090C9127090CA12B091CB12A091CC12C9
:10333000F091CD12E091CE120091CF121091D012E7
:10334000A12CB12CBA01A90166277727841A950A06
:10335000A60AB70AAA24BB249401A50160E070E084
:1033600080E090E05301CB2EDA2EEF2EFE2E0E944D
:10337000BD202093C9123093CA124093CB125093B0
:10338000CC126093CD127093CE128093CF12909393
:10339000D012CE010E9447102091C9123091CA125A
:1033A0004091CB125091CC126091CD127091CE12FF
:1033B0008091CF129091D012DF91CF911F910F91F8
:1033C000FF90EF90DF90CF90BF90AF909F908F9045
:1033D0007F906F9008950F931F93E091C712F09123
:1033E000C8123097A9F0028113812481358101151B
:1033F00040E814072105310558F482859385A4859A
:10340000B585B901A801480F591F6A1F7B1F0AC063
:103410002091C41221110FC0AB01BC014150504892
:103420006F4F7F4F60E070E080E090E00E942B13D0
:1034300081E08093C4121F910F9108950E946A1930
:10344000B901CA0108950F931F9300E010E020E432
:103450003AE140E950ED63E070E080E090E00E94E6
:10346000D7120E941E1A2091D1123091D212232B12
:1034700021F41F910F910C94EB191F910F91089556
:103480002F923F924F925F926F927F928F929F9274
:10349000AF92BF92CF92DF92EF92FF920F931F9362
:1034A000CF93DF9300D01F92CDB7DEB781E090E0DD
:1034B0009093D2128093D1121092C4120E946A1972
:1034C00029013A014B015C012091C7123091C812C9
:1034D0003C832B838B819C81892B09F4A6C0EB81D3
:1034E000FC8186819781A085B185892B8A2B8B2BC6
:1034F00029F065EF75E083E00E94A618EB81FC815E
:1035000082859385A485B585B301A201481B590B1B
:103510006A0B7B0B82819381A481B5818417950707
:10352000A607B70760F08C019D01041B150B260B45
:10353000370B043111052105310508F05BC02091DE
:10354000C7123091C812EB81FC81E217F30789F6AC
:10355000481759076A077B0788F1AB81BC818D91B9
:103560009C9111979093C8128093C712FD0112820B
:103570001382148215821A961D921D921D921C921E
:103580001D9716861786108A118A1182108252960C
:10359000ED91FC91539754968D919C915597199567
:1035A000E091C712F091C812FC83EB830E941E1AAF
:1035B0002B013C01812C912C54018CCF0E941E1AAE
:1035C000AB81BC811A960D911D912D913C911D9757
:1035D000DC01CB01801B910BA20BB30BEB81FC81B7
:1035E000028113812481358180179107A207B307D7
:1035F00028F3B3CFAB81BC8112960D931D932D930D
:103600003C931597FD014286538664867586920128
:10361000A301B401C50100E20E94A12026873787DB
:10362000408B518B2081318153CFA091C512B09135
:10363000C612BC83AB839201A301B401C50100E2B1
:103640000E94A12029833A831A0173016201EB8150
:10365000FC81EF2B09F46BC0EB81FC8182859385A3
:10366000A485B58593018201081B190B2A0B3B0B1E
:1036700082819381A481B58180179107A207B30746
:1036800060F4468157816085718541505109610917
:1036900071094683578360877187801B910BA20B4A
:1036A000B30BEB81FC8182839383A483B583DF0119
:1036B000C286D386E486F586E9811E96EC931E9732
:1036C000FA811F96FC931F9750962C925097519613
:1036D0003C925197FD0186819781A085B185892B08
:1036E0008A2B8B2BE1F48091C5129091C612E817BA
:1036F000F90709F0FECEBF0185EC92E10E94541952
:10370000A70196016B817C8187EC92E10E94E11810
:103710002091C5123091C6123C832B8398CFAB8188
:10372000BC810D90BC91A02DBC83AB8390CF0E9437
:103730006A1929013A014B015C01E091C712F0912D
:10374000C812309789F182859385A485B585B30128
:10375000A201481B590B6A0B7B0B82819381A481C8
:10376000B58184179507A607B70708F4ADCE841B6B
:10377000950BA60BB70B84319105A105B10508F493
:10378000A3CE82839383A483B583428653866486C3
:1037900075869201A301B401C50100E20E94A12037
:1037A00026873787408B518B1092D2121092D112FC
:1037B0008091D1129091D212892BD1F4C301B20120
:1037C0000F900F900F900F90DF91CF911F910F915D
:1037D000FF90EF90DF90CF90BF90AF909F908F9031
:1037E0007F906F905F904F903F902F900C94EB19CB
:1037F0000F900F900F900F90DF91CF911F910F912D
:10380000FF90EF90DF90CF90BF90AF909F908F9000
:103810007F906F905F904F903F902F9008950F93FF
:103820001F93CF93DF93EC010E943B108C011A820F
:103830001B821C821D821E821F82188619861A8690
:103840001B861C861D861E861F86188A198ABE0145
:1038500087EC92E10E945419BE0185EC92E10E942E
:103860005419C801DF91CF911F910F910C9447100B
:103870004F925F926F927F928F929F92AF92BF9280
:10388000CF92DF92EF92FF920F931F93CF93DF932C
:10389000DC015296ED91FC915397EF2B09F48DC00A
:1038A000280139014A015B01EC010E940F1C4114FF
:1038B00051046104710499F5B8E28B169104A104D6
:1038C000B10468F580E090E00E945C136C01E12C8B
:1038D000F12C80E090E00E945C13A0E0B0E08C1935
:1038E0009D09AE09BF09AA27BB2788159905AA0516
:1038F000BB0578F3EA89FB898C899D89DF91CF919B
:103900001F910F91FF90EF90DF90CF90BF90AF90FD
:103910009F908F907F906F905F904F9019940E942E
:103920003B106C010E946A198A829B82AC82BD8224
:103930004E825F826886798659017A012A87BB8622
:103940004C87FD8600E20E94A1202E873F87488B8E
:10395000598B9501A701BE01452846284728B1F497
:1039600087EC92E10E94E1188091C7129091C812F1
:10397000C817D90779F48091D1129091D212892B6E
:1039800049F4B501C7010E94EB1904C085EC92E12E
:103990000E94E118C601DF91CF911F910F91FF9016
:1039A000EF90DF90CF90BF90AF909F908F907F90DF
:1039B0006F905F904F900C944710DF91CF911F91C3
:1039C0000F91FF90EF90DF90CF90BF90AF909F90BE
:1039D0008F907F906F905F904F9008950C94AB15EF
:1039E0004F925F926F927F928F929F92AF92BF920F
:1039F000CF92DF92EF92FF920F931F93CF93DF93BB
:103A0000CDB7DEB768970FB6F894DEBF0FBECDBF57
:103A10002B013C0149015A010E945110892B31F1BF
:103A200089288A288B2829F065EF75E083E00E94B9
:103A3000A61880E090E00E945C134C01A12CB12CF0
:103A400073016201EE24FF2480E090E00E945C1389
:103A5000A0E0B0E088199909AA09BB09AA27BB27E9
:103A60008C159D05AE05BF0578F31EC0188E1F8A04
:103A70008EEE9CE19C8B8B8B7E0187E1E80EF11C26
:103A8000FE8AED8A61E070E0C7010E94661595012B
:103A90008401B301A201CE0101960E94381C61E0AD
:103AA00070E0C7010E94661568960FB6F894DEBFF5
:103AB0000FBECDBFDF91CF911F910F91FF90EF907F
:103AC000DF90CF90BF90AF909F908F907F906F903E
:103AD0005F904F9008950E943B10FFCF0895CF93C1
:103AE000DF931F92CDB7DEB721E030E0AE014F5F2C
:103AF0005F4F0E94F61E89810F90DF91CF9108954C
:103B0000A8950FB6F894A89580916000886180937D
:103B10006000109260000FBE0E944F1F0C94B11FF6
:103B20001F920F920FB60F9211245F9A64E371E017
:103B300080E00E94A618240F351FF90131974FEA43
:103B4000408331974EEF408346ED56E131974083F5
:103B500031975083319710823197808331979083CA
:103B60003197108231971082319780E880833197A6
:103B700010823197108231971082C9018397129277
:103B8000E817F907E1F7F901B4976083319770837B
:103B90008AE182938F5F8032E1F7C9018C970895A3
:103BA0000E94EC150E9441108DB79EB7209104022F
:103BB00030910502821B930B9093010280930002C7
:103BC0008091DA129091DB12892B41F480910202EC
:103BD000909103029093DB128093DA12A0917A0FF6
:103BE000B0917B0FCD91CDBFDD91DEBFFF91EF9105
:103BF000DF91CF91BF91AF919F918F917F916F9105
:103C00005F914F913F912F911F910F91FF90EF90F6
:103C1000DF90CF90BF90AF909F908F907F906F90EC
:103C20005F904F903F902F901F900F900CBE0F9081
:103C30000BBE0F900FBE0F9008950E945110892B5C
:103C400009F062C00F920FB6F8940F920BB60F9264
:103C50000CB60F921F9211242F923F924F925F92B7
:103C60006F927F928F929F92AF92BF92CF92DF928C
:103C7000EF92FF920F931F932F933F934F935F9376
:103C80006F937F938F939F93AF93BF93CF93DF9364
:103C9000EF93FF93A0917A0FB0917B0F0DB60D9229
:103CA0000EB60D920E94EC15A0917A0FB0917B0F89
:103CB000CD91CDBFDD91DEBFFF91EF91DF91CF912F
:103CC000BF91AF919F918F917F916F915F914F9134
:103CD0003F912F911F910F91FF90EF90DF90CF9028
:103CE000BF90AF909F908F907F906F905F904F901C
:103CF0003F902F901F900F900CBE0F900BBE0F9017
:103D00000FBE0F900895089581E090E09093BF0F4B
:103D10008093BE0F08951092460F8091BE0F909130
:103D2000BF0F892B09F461C00F920FB6F8940F9260
:103D30000BB60F920CB60F921F9211242F923F9246
:103D40004F925F926F927F928F929F92AF92BF92AB
:103D5000CF92DF92EF92FF920F931F932F933F9397
:103D60004F935F936F937F938F939F93AF93BF9383
:103D7000CF93DF93EF93FF93A0917A0FB0917B0FD6
:103D80000DB60D920EB60D920E94EC15A0917A0F11
:103D9000B0917B0FCD91CDBFDD91DEBFFF91EF9153
:103DA000DF91CF91BF91AF919F918F917F916F9153
:103DB0005F914F913F912F911F910F91FF90EF9045
:103DC000DF90CF90BF90AF909F908F907F906F903B
:103DD0005F904F903F902F901F900F900CBE0F90D0
:103DE0000BBE0F900FBE0F9018950895CF92DF92E3
:103DF000EF92FF926B017C01C20ED31EE11CF11CFD
:103E0000E1E0CE16E0E1DE06E104F10438F4DA0187
:103E1000A20FB31FFA01641B750B0FC065EF75E0AD
:103E200083E00E94A618F999FECFCB018E0F9F1F49
:103E300092BD81BDF89A80B58193EA17FB0799F787
:103E4000C901FF90EF90DF90CF9008950E94651F09
:103E50000C94231ACF93DF931F92CDB7DEB761E0A6
:103E600070E0CE0101960E94A11F8981082E000CEE
:103E7000990B0F90DF91CF910895CF93DF931F920D
:103E8000CDB7DEB7898361E070E0CE0101960E9474
:103E9000A41F80E090E00F90DF91CF9108950E94E1
:103EA000901FEEEDF2E18CE392E0938382838EE249
:103EB00092E09183808387E096E00C94022163E096
:103EC00087E10E94B1115F980895CF93DF9300D0EE
:103ED0001F92CDB7DEB764E070E0CE0101960E947C
:103EE000252069817A818B819C810E947E1F0F90A1
:103EF0000F900F900F90DF91CF910895611571058C
:103F00008105910521F461E070E080E090E060932C
:103F1000D3127093D4128093D5129093D612089531
:103F20000F931F9300E010E020E030E040E855E2FE
:103F300060E070E080E090E00E9472101F910F91AD
:103F4000089583EC9FEF0895CF93DF93EB01AB01CE
:103F5000BC0180E090E00E94CC10CE01DF91CF91B7
:103F6000089580E090E00E94B91F80E090E00C94FA
:103F70002912892B29F065EF75E083E00E94A618CD
:103F80001092D8121092D7128BB183608BB98091A6
:103F900064008F77809364008091BC008B7F809356
:103FA000BC008CE08093B8008091B9008C7F809336
:103FB000B9008091B9008093B9008091BC00846001
:103FC0008093BC000895EF92FF920F931F93CF93BD
:103FD000DF9300D01F92CDB7DEB77C018B01AB0120
:103FE00063E270E00E94DE20CE0101960E9436203E
:103FF00020E030E0C8010430110510F484E090E0C6
:1040000028173907B8F4C901B8010E945620F701F2
:10401000E80FF91FD901A370BB2781E090E08C0F56
:104020009D1FA80FB91F90818C91892780832F5FD6
:104030003F4FE0CF0F900F900F900F90DF91CF91F7
:104040001F910F91FF90EF900895CF93DF93EC01B4
:104050000E94E31F8091D91291E0980F9093D9129A
:10406000988189278883DF91CF910895DC0191E2BF
:10407000E0E0F0E090935700E491EC93E2E0F0E0B0
:1040800090935700E4911196EC931197E4E0F0E0DF
:1040900090935700E4911296EC931297E1E0F0E0D0
:1040A00090935700949113969C930895AA1BBB1B61
:1040B00051E107C0AA1FBB1FA617B70710F0A61B28
:1040C000B70B881F991F5A95A9F780959095BC0149
:1040D000CD010895A1E21A2EAA1BBB1BFD010DC044
:1040E000AA1FBB1FEE1FFF1FA217B307E407F507A8
:1040F00020F0A21BB30BE40BF50B661F771F881F84
:10410000991F1A9469F760957095809590959B0119
:10411000AC01BD01CF010895EE0FFF1F881F8BBFBB
:104120000790F691E02D19940E94C620A59F900D4E
:10413000B49F900DA49F800D911D1124089597FBAD
:1041400010F8169400080F93083098F00850232FA9
:10415000342F452F562F672F782F892F902DF4CF8E
:1041600005949795879577956795579547953795D2
:1041700027950A95AAF70F9108952A0D3B1D4C1D0E
:104180005D1D6E1D7F1D801F911F0895A29FB001B0
:10419000B39FC001A39F700D811D1124911DB29F7B
:1041A000700D811D1124911D0895FB01DC0102C0D9
:1041B00001900D9241505040D8F70895DC0101C0A4
:1041C0006D9341505040E0F70895FC0101900020AC
:1041D000E9F7809590958E0F9F1F0895CF93DF93F9
:1041E000CDB7DEB7AE014A5F5F4FFA0161917191C1
:1041F000AF018091E0129091E1120E946121DF9164
:10420000CF9108950F931F93CF93DF93E091E01226
:10421000F091E112238121FF1BC08C01D0E0C0E0AE
:10422000F80181918F016091E0127091E112DB0140
:104230001896ED91FC911997882331F01995892BE7
:1042400079F3DFEFCFEFECCF8AE01995892B19F0E6
:104250008FEF9FEF02C08D2F9C2FDF91CF911F9189
:104260000F9108950F931F93CF93DF93CDB7DEB7D0
:104270002E970FB6F894DEBF0FBECDBF0E891F89F3
:1042800086E08C831A8309838FEF9FE79E838D835B
:10429000AE01465E5F4F688D798DCE0101960E941A
:1042A0006121EF81F885E00FF11F10822E960FB685
:1042B000F894DEBF0FBECDBFDF91CF911F910F915C
:1042C00008952F923F924F925F926F927F928F92BA
:1042D0009F92AF92BF92CF92DF92EF92FF920F9395
:1042E0001F93CF93DF93CDB7DEB72B970FB6F8941C
:1042F000DEBF0FBECDBF6C017B018A01FC011782BE
:104300001682838181FFCCC1CE0101963C01F6016A
:104310009381F70193FD859193FF81917F0188231C
:1043200009F4BAC1853239F493FD859193FF8191E7
:104330007F01853229F4B60190E00E948123E7CF06
:10434000912C212C312CFFE1F315D8F08B3279F030
:1043500038F4803279F08332A1F4232D20611DC01E
:104360008D3261F0803369F4232D216016C0832DD6
:104370008260382EE32DE4603E2E2AC0F32DF860D3
:104380001DC037FC2DC020ED280F2A3040F08E32A2
:10439000B9F436FC81C1232D2064322E19C036FEBB
:1043A00006C08AE0989E200D1124922E11C0EAE0EA
:1043B0002E9E200D1124222EF32DF0623F2E08C0D8
:1043C0008C3621F4832D8068382E02C0883641F463
:1043D000F70193FD859193FF81917F018111B3CF07
:1043E000982F9F7D9554933028F40C5F1F4F9FE3C7
:1043F00099830DC0833631F0833771F0833509F02E
:1044000059C021C0F801808189830E5F1F4F882425
:104410008394912C530113C02801F2E04F0E511CDC
:10442000F801A080B18036FE03C0692D70E002C0A3
:104430006FEF7FEFC5010E9476234C018201F32DBF
:10444000FF773F2E16C0280122E0420E511CF801D2
:10445000A080B18036FE03C0692D70E002C06FEF0E
:104460007FEFC5010E946B234C01F32DF0683F2EB6
:10447000820133FC1BC0822D90E088169906B0F4AF
:10448000B60180E290E00E9481232A94F4CFF501E6
:1044900037FC859137FE81915F01B60190E00E9463
:1044A000812321102A9421E0821A91088114910419
:1044B00071F7E8C0843611F0893641F5F80137FE0E
:1044C00007C060817181828193810C5F1F4F08C09A
:1044D00060817181072E000C880B990B0E5F1F4FB6
:1044E000F32DFF763F2E97FF09C09095809570952C
:1044F00061957F4F8F4F9F4FF0683F2E2AE030E04D
:10450000A3010E94BD23882E861845C0853731F44B
:10451000232D2F7EB22E2AE030E025C0932D997FE7
:10452000B92E8F36C1F018F4883579F0B5C08037D0
:1045300019F0883721F0B0C0E92FE061BE2EB4FE3B
:104540000DC0FB2DF460BF2E09C034FE0AC0292F18
:104550002660B22E06C028E030E005C020E130E041
:1045600002C020E132E0F801B7FE07C0608171812E
:10457000828193810C5F1F4F06C06081718180E052
:1045800090E00E5F1F4FA3010E94BD23882E861866
:10459000FB2DFF773F2E36FE0DC0232D2E7FA22E42
:1045A000891458F434FE0BC032FC09C0832D8E7E72
:1045B000A82E05C0B82CA32C03C0B82C01C0B92C60
:1045C000A4FE0FC0FE01E80DF11D8081803321F4AF
:1045D0009A2D997EA92E09C0A2FE06C0B394B39469
:1045E00004C08A2D867809F0B394A3FC11C0A0FE04
:1045F00006C0B21488F4280C922C9B180EC0B2147A
:1046000060F4B60180E290E00E948123B394F7CF7A
:10461000B21418F42B1802C0982C212CA4FE10C040
:10462000B60180E390E00E948123A2FE17C0A1FCA6
:1046300003C088E790E002C088E590E0B6010CC0B6
:104640008A2D867859F0A1FE02C08BE201C080E27B
:10465000A7FC8DE2B60190E00E948123891438F412
:10466000B60180E390E00E9481239A94F7CF8A9468
:10467000F301E80DF11D8081B60190E00E948123D5
:104680008110F5CF222009F442CEB60180E290E0FD
:104690000E9481232A94F6CFF6018681978102C079
:1046A0008FEF9FEF2B960FB6F894DEBF0FBECDBFF6
:1046B000DF91CF911F910F91FF90EF90DF90CF90FE
:1046C000BF90AF909F908F907F906F905F904F9032
:1046D0003F902F900895FC010590615070400110AB
:1046E000D8F7809590958E0F9F1F0895FC0161501B
:1046F000704001900110D8F7809590958E0F9F1F04
:1047000008950F931F93CF93DF93FB01238121FD26
:1047100003C08FEF9FEF2CC022FF16C04681578148
:10472000248135814217530744F4A081B1819D0152
:104730002F5F3F4F318320838C93268137812F5FFA
:104740003F4F3783268314C08B01EC01FB010084AB
:10475000F185E02D1995892BE1F6D80116968D91FA
:104760009C911797019617969C938E931697CE015E
:10477000DF91CF911F910F910895FA01AA27283058
:1047800051F1203181F1E8946F936E7F6E5F7F4F1E
:104790008F4F9F4FAF4FB1E03ED0B4E03CD0670F9A
:1047A000781F891F9A1FA11D680F791F8A1F911DED
:1047B000A11D6A0F711D811D911DA11D20D009F43D
:1047C00068943F912AE0269F11243019305D31937F
:1047D000DEF6CF010895462F4770405D4193B3E068
:1047E0000FD0C9F7F6CF462F4F70405D4A3318F00F
:1047F000495D31FD4052419302D0A9F7EACFB4E0C0
:10480000A6959795879577956795BA95C9F7009777
:104810006105710508959B01AC010A2E0694579518
:10482000479537952795BA95C9F7620F731F841F6F
:0A483000951FA01D0895F894FFCF16
:10483A000000E612200030A1A2A3D3D4D5AABBCC93
:10484A00AFBFA0B07D7E80006F0036000000000080
:10485A000000A00072003900000000000000000003
:10486A0000010000000000002A1F000000000002F2
:10487A00000000003D1F00000000476F743A20301E
:10488A0078002C20307800476F743A20456D707498
:10489A0079206D65737361676500524649442072D9
:1048AA00656164696E6720554944004465766963A9
:1048BA00652049443A2030780074783100727831A2
:1048CA00007365747570282920646F6E65005374CF
:1048DA00617274696E672053656E736F72004D65FD
:1048EA00737361676520307837652073656E74006D
:1048FA000000000059073409C403000021104220B7
:10490A0063308440A550C660E770088129914AA1A6
:10491A006BB18CC1ADD1CEE1EFF13112100273321D
:10492A005222B5529442F772D662399318837BB3F6
:10493A005AA3BDD39CC3FFF3DEE3622443342004AD
:10494A000114E664C774A44485546AA54BB5288546
:10495A000995EEE5CFF5ACC58DD5533672261116FD
:10496A003006D776F6669556B4465BB77AA7199796
:10497A003887DFF7FEE79DD7BCC7C448E558866885
:10498A00A7784008611802282338CCC9EDD98EE9E6
:10499A00AFF9488969990AA92BB9F55AD44AB77A5D
:1049AA00966A711A500A333A122AFDDBDCCBBFFB36
:1049BA009EEB799B588B3BBB1AABA66C877CE44C6D
:1049CA00C55C222C033C600C411CAEED8FFDECCD86
:1049DA00CDDD2AAD0BBD688D499D977EB66ED55E3D
:1049EA00F44E133E322E511E700E9FFFBEEFDDDFD6
:1049FA00FCCF1BBF3AAF599F788F8891A981CAB162
:104A0A00EBA10CD12DC14EF16FE18010A100C23093
:104A1A00E3200450254046706760B9839893FBA34E
:104A2A00DAB33DC31CD37FE35EF3B1029012F322E3
:104A3A00D2323542145277625672EAB5CBA5A8959E
:104A4A0089856EF54FE52CD50DC5E234C324A01433
:104A5A0081046674476424540544DBA7FAB799872E
:104A6A00B8975FE77EF71DC73CD7D326F236910683
:104A7A00B01657667676154634564CD96DC90EF976
:104A8A002FE9C899E9898AB9ABA9445865480678D3
:104A9A002768C018E1088238A3287DCB5CDB3FEB8E
:104AAA001EFBF98BD89BBBAB9ABB754A545A376A23
:104ABA00167AF10AD01AB32A923A2EFD0FED6CDD5E
:104ACA004DCDAABD8BADE89DC98D267C076C645C73
:104ADA00454CA23C832CE01CC10C1FEF3EFF5DCF6E
:104AEA007CDF9BAFBABFD98FF89F176E367E554EC3
:104AFA00745E932EB23ED10EF01E4041444565438A
:104B0A0073747576141516178180717033323130CB
:104B1A000001020304050607272625242322214033
:104B2A0037626160A7A6A5A4A3A2A1A013121110BF
:104B3A005051525354555657909192939495969733
:104B4A000D0A00256C6F00256C7500256C78002510
:104B5A006C6900252E2A660004000106C000C80000
:104B6A00000306080A6D61696E28293A20546869AB
:104B7A00732069732052494F542120285665727355
:104B8A00696F6E3A20554E4B4E4F574E202862752C
:104B9A00696C646469723A202F686F6D652F73724D
:104BAA006976616D73696D616C6C6164692F4C69BA
:104BBA0046692F4C692D46692D696E2D496E6475BB
:104BCA00737472792D342E302F72696F742F524993
:104BDA004F542D73706929290A0069646C65006D48
:104BEA0061696E00537461636B20506F696E7465FE
:104BFA00723A203078253034780A002A2A2A20523C
:104C0A00494F54206B65726E656C2070616E6963E2
:104C1A003A0A25730A0A002A2A2A2068616C7465EE
:104C2A00642E0A0A004641494C45442041535345E3
:0A4C3A005254494F4E2E000C0000AA
:040000030000021ED9
:00000001FF
