:100000000C94C6000C940D010C940D010C940D0180
:100010000C940D010C940D010C940D010C940D0128
:100020000C940D010C940D010C940D010C940D0118
:100030000C940D010C940D010C940D010C940D0108
:100040000C940D010C9482130C94AE130C94DA13DF
:100050000C940D010C940D010C940D010C940D01E8
:100060000C940D010C9405110C940D010C94591174
:100070000C940D010C940D010C940D010C940D01C8
:100080000C940D010C940D010C940D010C940D01B8
:100090000C942F110C940D010C9489110C940D01EA
:1000A0000C940D010C940D010C9406140C94321454
:1000B0000C945E140C940D010C940D010C940D0124
:1000C0000C940D010C940D010C940D010C940D0178
:1000D0000C940D010C940D010C940D010C940D0168
:1000E0000C940D010C9485180C941E010C94950928
:1000F0000C9418010C94A80D0C94531F0C94041D1F
:100100000C94401F0C9423010C9428010C944C0A6D
:100110000C9489070C9464090C94EC160C94561AF0
:100120000C944B100C94F4030C9494180C94130E30
:100130000C94D703464154414C204552524F523AF9
:10014000204241444953525F766563742063616C79
:100150006C65642C20756E70726F63657373656473
:1001600020496E746572727570742E0A53544F5024
:1001700020457865637574696F6E2E0A000018015A
:10018000D70395094C0AA80D130E4B10832D8093AD
:10019000E41284B78093E51214BE0FB6F894A895C4
:1001A00080916000886180936000109260000FBEB3
:1001B00011241FBECFEFD1E2DEBFCDBF00E00CBFE8
:1001C00016E0A0E0B2E0E6E6F8E400E00BBF02C013
:1001D00007900D92AA30B107D9F722E1AAE0B6E064
:1001E00001C01D92A43EB207E1F710E0C6ECD0E0DA
:1001F00000E006C021970109802FFE010E94A22085
:10020000CF3BD10780E00807A9F70E940F010C94AB
:1002100031240E9413010C9431240C94A61D0E94D9
:1002200071150C9497180E9488020E943503FDCF27
:1002300060E070E08AE096E00C94190E0E94F409E8
:1002400080E090E008950E94290A80E090E00895FF
:10025000FF920F931F93CF93DF93423008F452C164
:10026000FB0120813091AB0C23133EC00EEF040F35
:1002700081F1EB0122966AE472E088EC9CE00E9436
:10028000340EF12C10E0015011098F2D90E08017F1
:10029000910794F4FE01E80FF91F608170E043E0DC
:1002A00088EC9CE00E94400F62E572E088EC9CE0E4
:1002B0000E94340EF394E9CFC00FD11F688170E023
:1002C00043E088EC9CE00E944E0F88818093AE0C46
:1002D00019C167E572E088EC9CE0DF91CF911F9136
:1002E0000F91FF900C94360E3091150223134FC0DE
:1002F0000FEF040FEB0121966AE472E088EC9CE0BA
:100300000E94340EF12C10E0015011098F2D90E065
:100310008017910794F4FE01E80FF91F608170E0E7
:1003200043E088EC9CE00E94400F62E572E088ECBC
:100330009CE00E94340EF394E9CFC00FD11F688176
:1003400070E043E088EC9CE00E944E0F888180932F
:10035000AC0B90910B0289130CC06AE672E088EC3A
:100360009CE00E94360E84E090E09093AD0C809368
:10037000AC0C9091AC0B80910C029813C3C01092FE
:10038000AD0C1092AC0C80E380930602BBC03091A0
:1003900014022313ABC00FEF040FEB0121966AE4A4
:1003A00072E088EC9CE00E94340EF12C10E00150C9
:1003B00011098F2D90E08017910794F4FE01E80F4A
:1003C000F91F608170E043E088EC9CE00E94400FE0
:1003D00062E572E088EC9CE00E94340EF394E9CF71
:1003E000C00FD11F688170E043E088EC9CE00E9460
:1003F0004E0F88818093AC0B90910D02891302C03F
:1004000081E621C090910E02891312C082E680938A
:10041000060260E070E087E190E00E94D70D60E0A6
:1004200070E089E190E00E94D70D61E070E01BC0B0
:1004300090910F02891302C083E605C090911102CA
:10044000891315C082E38093060261E070E087E1C2
:1004500090E00E94D70D60E070E089E190E00E949A
:10046000D70D60E070E08BE190E00E94D70D909195
:10047000AC0B80911302981315C080E380930602A1
:1004800060E070E087E190E00E94D70D61E070E0ED
:1004900089E190E00E94D70D60E070E08BE190E090
:1004A0000E94D70D9091AC0B8091090298132AC03D
:1004B00080910602823331F180E38093060260E08E
:1004C00070E087E190E00E94D70D61E070E089E183
:1004D00090E00E94D70D60E070E08BE190E0DF914A
:1004E000CF911F910F91FF900C94D70D8755964097
:1004F00049F087E596E0DF91CF911F910F91FF9032
:100500000C94B609DF91CF911F910F91FF90089540
:10051000CF92DF92EF92FF920F931F9388EB9CE0B4
:100520000E9423066AE772E088EC9CE00E94360E87
:1005300060E070E0CB010E94851D8093AB0C6BE8FE
:1005400072E088EC9CE00E94340E6091AB0C70E08D
:1005500043E088EC9CE00E944E0F89E9C82E82E0BF
:10056000D82E97E5E92E96E0F92E0EE111E028E06D
:1005700030E046E060E872E08CE299E00E94C71744
:100580002DE9C22E22E0D22E03E211E028E030E075
:1005900045E060E872E08CEA96E00E94C71761E0EF
:1005A00070E080E090E00E94EB0D60E070E082E09F
:1005B00090E00E94C60D60E070E083E090E00E9451
:1005C000C60D61E070E086E090E00E94C60D61E03B
:1005D00070E089E090E00E94C60D61E070E084E088
:1005E00090E00E94C60D61E070E084E090E00E941F
:1005F000D70D60E070E086E090E00E94D70D60E0EB
:1006000070E089E090E00E94D70D61E070E087E142
:1006100090E00E94C60D61E070E089E190E00E94E8
:10062000C60D61E070E08BE190E00E94C60D60E0D5
:1006300070E087E190E00E94D70D61E070E089E111
:1006400090E00E94D70D60E070E08BE190E00E94A6
:10065000D70D61EA72E088EC9CE01F910F91FF904A
:10066000EF90DF90CF900C94360ECF93DF931F92D4
:100670001F92CDB7DEB782E090E00E94DD0D21E051
:10068000892B09F420E02093560683E090E00E9435
:10069000DD0D21E0009709F420E02093550620911C
:1006A0005606222349F020910602203311F022360B
:1006B00019F481E090E00AC0892B61F08091AC0CC4
:1006C0009091AD0C019731F482E090E09093AD0CE5
:1006D0008093AC0C8091AC0C9091AD0C8230910564
:1006E00001F1CCF4009709F44EC0019709F05AC00B
:1006F00060E070E087E190E00E94D70D60E070E07C
:1007000089E190E00E94D70D61E070E08BE190E01C
:100710000E94D70D3BC083309105A9F10497B1F138
:1007200041C060E070E086E090E00E94D70D60E09C
:1007300070E089E090E00E94D70D809115028983D6
:1007400080910A028A8342E0BE016F5F7F4F87E596
:1007500096E00E94B609892B31F06AE070E080E0F3
:1007600090E00E94EB0D81E0809354066EEA72E007
:1007700088EC9CE00E94360E83E090E09093AD0CF4
:100780008093AC0C0FC060E070E002C061E070E0EC
:1007900086E090E00E94D70D60E070E089E090E094
:1007A0000E94D70D0F900F90DF91CF9108950F9376
:1007B0001F9360E070E088EC9CE00E94190E41E31A
:1007C00065E388EB9CE00E94930400E010E028E2DF
:1007D00031E040E050E066E170E087E596E00E949D
:1007E0009B091F910F910895BC016E5F7F4FDC0143
:1007F000ED91FC910190F081E02D40E0199591E0A0
:10080000811190E0892F0895CF93DF931F92CDB788
:10081000DEB7698341E050E0BE016F5F7F4F0E9409
:100820000A1089810F90DF91CF9108959F92AF9226
:10083000BF92CF92DF92EF92FF920F931F93CF93CD
:10084000DF931F921F92CDB7DEB76C01A42E790102
:10085000902E6068B62E00E021E040E059E06DE3A4
:1008600070E0CE0101960E94620F69817A818BE36C
:100870009FE00E94DD0FF601868560E070E090E069
:100880000E94D70DAA946B2D8BE39FE00E94040475
:100890009920B1F00FEF10E001C0000F9A94EAF731
:1008A0006B2D8BE39FE00E940404202F2095F7011D
:1008B000908192238023892B80839924939401C073
:1008C000912C892D90E09A1460F48701080F191F6C
:1008D0006B2D8BE39FE00E940404F80180839394C6
:1008E000F0CFE80EF91E60E08BE39FE00E94040465
:1008F000F7018083F601868561E070E090E00E9458
:10090000D70D8BE39FE00E94FC0F0F900F90DF91BB
:10091000CF911F910F91FF90EF90DF90CF90BF90FC
:10092000AF909F900895FC0184EC92E091838083C6
:10093000668747870895DF92EF92FF920F931F9388
:10094000CF93DF931F921F92CDB7DEB77C01D62ED7
:10095000142F00E021E040E059E06DE370E0CE01AB
:1009600001960E94620F69817A818BE39FE00E9469
:10097000DD0FF701868560E070E090E00E94D70D02
:100980006D2D8BE39FE00E940404612F8BE39FE0B9
:100990000E940404F701868561E070E090E00E9407
:1009A000D70D8BE39FE00E94FC0F0F900F90DF911B
:1009B000CF911F910F91FF90EF90DF900895BF921C
:1009C000CF92DF92EF92FF920F931F93CF93DF931B
:1009D0001F921F92CDB7DEB77C01162FD42EB22EF8
:1009E000C32E00E021E040E059E06DE370E0CE016D
:1009F00001960E94620F69817A818BE39FE00E94D9
:100A0000DD0FF701868560E070E090E00E94D70D71
:100A1000612F8BE39FE00E9404040B2D1C2DC80165
:100A20008D0D911D6C010C151D0541F0F8016191B2
:100A30008F018BE39FE00E940404F5CFF7018685C8
:100A400061E070E090E00E94D70D8BE39FE00E9490
:100A5000FC0F0F900F90DF91CF911F910F91FF909E
:100A6000EF90DF90CF90BF900895EF92FF920F9399
:100A70001F93CF93DF931F921F92CDB7DEB77C01F8
:100A8000162F00E021E040E059E06DE370E0CE0178
:100A900001960E94620F69817A818BE39FE00E9438
:100AA000DD0FF701868560E070E090E00E94D70DD1
:100AB000612F60688BE39FE00E94040460E08BE399
:100AC0009FE00E940404182FF701868561E070E022
:100AD00090E00E94D70D8BE39FE00E94FC0F812FD6
:100AE0000F900F90DF91CF911F910F91FF90EF909A
:100AF00008950F9341110E9416040F9108950F93CA
:100B00001F93CF93DF938C01D62FC42F0E943505FE
:100B1000482F4C2B6D2FC801DF91CF911F910F9162
:100B20000C949B040F931F93CF93DF938C01D62FCC
:100B3000C42F0E943505C0954C2F48236D2FC80146
:100B4000DF91CF911F910F910C949B04CF92DF9274
:100B5000EF92FF920F931F93CF93DF93EC016B0102
:100B6000142F790140E062E00E949B0444E06AE0B7
:100B7000CE010E949B0440E864E1CE010E949B04E8
:100B80009601412F62E1CE010E94DF0443E062E062
:100B9000CE010E949B0408E813E16AE0CE010E94A6
:100BA000350582FF13C040E062E0CE010E949B0445
:100BB00064E4CE010E943505F701808362E4CE0132
:100BC0000E943505F701818380E004C001501109BE
:100BD00021F783E0DF91CF911F910F91FF90EF906C
:100BE000DF90CF9008950F931F93CF938C014FE028
:100BF00062E00E949B04C3E062E370E080E090E06A
:100C00000E94EB0D62E0C8010E94350584FF02C01E
:100C1000C15091F7CF911F910F910895CF93DF931A
:100C2000EC0168E20E943505982F9370933041F0F3
:100C3000482F436068E2CE01DF91CF910C949B0472
:100C4000DF91CF910895CF93DF93EC018E8561E022
:100C500070E090E00E94C60D8E8561E070E090E04B
:100C60000E94D70D8F858F3F09F45CC060E070E073
:100C700090E00E94C60D8F8590E00E94DD0D892BCB
:100C800009F050C08F8561E070E090E00E94C60DD1
:100C90008F8560E070E090E00E94D70D62E070E028
:100CA00080E090E00E94FD0D8F8561E070E090E0B3
:100CB0000E94D70D62E370E080E090E00E94EB0DAF
:100CC00040E064E2CE010E949B0440E066E2CE0177
:100CD0000E949B0446E268E4CE010E949B0440E827
:100CE00064E5CE010E949B0449EA66E5CE010E94BC
:100CF0009B0443E068E5CE010E949B0448EE6AE550
:100D0000CE010E949B0440E46AE2CE010E949B0453
:100D10004DE362E2CE010E949B04CE01DF91CF91B0
:100D20000C940E06CE010E94F305CACF3F924F925B
:100D30005F926F927F928F929F92AF92BF92CF926B
:100D4000DF92EF92FF920F931F93CF93DF931F9247
:100D50001F92CDB7DEB73C01162F942E2901A114A6
:100D6000B10419F0F501408101C040E0342EF0E1FA
:100D70008F9E300C112440E062E0C3010E949B046E
:100D80004FE768E0C3010E949B0440E864E1C301AF
:100D90000E949B049201402F62E1C3010E94DF0484
:100DA000432D6AE1C3010E949B04412F62E0C3010D
:100DB0000E949B041C3029F440E86AE1C3010E94B0
:100DC0007F0500ED17E068E0C3010E943505982F0C
:100DD000992139F480FD03C001501109A1F783E086
:100DE00065C06CE0C3010E943505182F837109F0BE
:100DF0005AC0E114F104F9F0C114D104E1F064E146
:100E0000C3010E943505F6019081981708F445C08A
:100E10008083082D9701482F62E1C3010E94790564
:100E200068E1C3010E9435058770A114B10421F067
:100E3000F501808301C080E013FD31C0E114F104AD
:100E400081F1C114D10469F19F89992351F1F6010F
:100E50004081413021F4843041F58FEF27C042308A
:100E600020F1811122C042509E012F5F3F4FB701F8
:100E7000C3010E94A605811119C0F6018081E80E08
:100E8000F11CF70132979081898198130EC0319639
:100E900090818A81981309C004C084E007C082E071
:100EA00005C080E003C081E001C087E00F900F9093
:100EB000DF91CF911F910F91FF90EF90DF90CF9036
:100EC000BF90AF909F908F907F906F905F904F906A
:100ED0003F9008958F92AF92BF92CF92DF92EF92A0
:100EE000FF920F931F93AF928C2C570168017901E9
:100EF000042F9B0140E36CE00E9496060F901F9127
:100F00000F91FF90EF90DF90CF90BF90AF908F90B8
:100F100008952F923F924F925F926F927F928F929D
:100F20009F92AF92BF92CF92DF92EF92FF920F9378
:100F30001F93CF93DF93CDB7DEB72C970FB6F894FE
:100F4000DEBF0FBECDBF413508F005C1342E3B01D9
:100F50004C0140E86CE10E9492052224239432E087
:100F6000231691F083E02816E1F091E02912F7C0F2
:100F700083E989833320D1F081E0F30190819530BA
:100F800008F480E0B12C17C0F5E9F983332081F033
:100F900081E0F3019081983008F480E043E0B42EC2
:100FA0000AC087E9898336E0B32E04C0B12C02C0A1
:100FB00023E0B22E80E0D32CF8E0BF9ED01811249D
:100FC000D7FCD12C882321F098E89B8333E001C023
:100FD00032E021E09D2D977009F420E09D2D95953C
:100FE00095959595290F31F4882309F491C038E03F
:100FF000D30E8EC0811102C094E001C093E0291786
:1010000008F4922FEB2DF0E03196E60DF71D232F1B
:101010004191A1E0B0E0AC0FBD1FA20FB11D4C93F8
:101020002F5F422F431B491798F3DECF8111DDC09C
:101030009FE19D150CF495C080E2D82E90E79A832D
:101040009B818C8189279D8189279E8189278F8318
:101050009E01285F3F4F47E0BE016F5F7F4FC40195
:101060000E94A6058111C1C01B86E3E0EA87CE017C
:1010700007962C0199E09C87CB844C2D4295407FAC
:101080004C0D6AE1C4010E949B04A12CCE010B9679
:101090007C018E01065F1F4F92014C85BE016F5F80
:1010A0007F4FC4010E946A07823009F0BFCF6CE114
:1010B000C4010E94350585FD50C08F7109F480E29E
:1010C000282F30E04D2DDD0C550B421753070CF047
:1010D00046C0D82E85958595859591E0980F422F2D
:1010E000477081E009F480E0890FE1E0F0E0EC0F67
:1010F000FD1FE80FF11D215031092770332781E0D2
:1011000090E001C0880F2A95EAF79081892B8083AF
:101110008FE18D150CF492CF9D2D97709B878D2DAF
:101120008595859585958E5F292FE0E18E9F200D11
:1011300011242A8321E0911101C020E0280F2C877F
:1011400044244394512C4C0E5D1E480E511CF9E072
:10115000F81BFA8791CF86E048C082E046C085E060
:1011600044C08B818838F1F182E094E0EB2DF0E00F
:101170003196E60DF71D980FA1E0B0E0AC0FBD1F52
:10118000A80FB11D2C9121938F5F9813F5CF8A85FD
:10119000833021F58B85811121C09E012D5F3F4F4A
:1011A00041E0B201C4010E94A60581111EC09B81CD
:1011B000F2018181981314C09C818281981310C020
:1011C000808182FF02C02394CACEF3018387822DDF
:1011D000880F820D8F5F808380E007C081E005C0AB
:1011E00087E003C083E093E0C1CF2C960FB6F8945C
:1011F000DEBF0FBECDBFDF91CF911F910F91FF904A
:10120000EF90DF90CF90BF90AF909F908F907F90A6
:101210006F905F904F903F902F9008954F925F9204
:101220006F927F928F929F92AF92CF92EF92FF92A6
:101230000F931F93CF93DF931F921F92CDB7DEB70B
:101240006A834115510539F1F9016081623018F165
:1012500049012A013C0140E86CE10E94920587E0C7
:101260008983A12CC12CCE0101967C0184019201BD
:1012700041E0BE016E5F7F4FC3010E946A0781118A
:101280000DC0F4018081823041F481E09981911197
:1012900005C080E003C084E001C081E00F900F90A2
:1012A000DF91CF911F910F91FF90EF90CF90AF9072
:1012B0009F908F907F906F905F904F9008959A01CC
:1012C000AB0166E20C940E090F931F93CF93DF934B
:1012D00000D0CDB7DEB78C0182E08B8340E064E2C2
:1012E000C8010E949B0440E066E2C8010E949B0482
:1012F00046E268E4C8010E949B04AE014D5F5F4F67
:10130000BE016F5F7F4FC8010E945F09982F81E087
:10131000992319F0923009F080E00F900F900F9010
:10132000DF91CF911F910F91089560E070E082E10D
:101330009DE00C94190EEF92FF920F931F93CF93A1
:10134000DF93EC0179010E94520AF98AE88A1B8B2B
:101350000A8BFE01EC5AFF4F10821F861E86DF911A
:10136000CF911F910F91FF90EF900895AF92BF9290
:10137000CF92DF92EF92FF920F931F93CF9341345E
:1013800038F5C42F6B018C017C018EE0E80EF11C56
:1013900061E070E0C7010E947C155801E4E5AE0EE3
:1013A000B11CF5018081882321F0C7010E94C1157D
:1013B0000FC04C2F50E0B601C80144960E94EB20AC
:1013C000F501C083C7010E94C11580E090E002C012
:1013D0008FEF9FEFCF911F910F91FF90EF90DF90D4
:1013E000CF90BF90AF900895EC018C01025F1F4F2A
:1013F0007C0184E5E80EF11C5E01E4E1AE0EB11C57
:1014000061E070E0C8010E947C15F701D080C8013E
:101410000E94C115DD20B1F04D2DB501CE010E9415
:101420004F0B61E070E0C8010E947C15F70110824B
:10143000C8010E94C115EA89FB89309709F3CE01E2
:101440001995DECF64E670E080E090E00E94EB0D3D
:10145000D7CFCF93DF93CDB7DEB7C054D1090FB646
:10146000F894DEBF0FBECDBF8C0140E4BE016F5FBC
:101470007F4FC8010E94450D97FDF7CFD8015096C8
:10148000ED91FC915197309781F3482FBE016F5F2A
:101490007F4FC8011995E9CF60E070E08CE59DE0D1
:1014A0000C94190E0F931F93CF93DF93EC01CB0194
:1014B0008A017983688361E070E00E94C60D1F8312
:1014C0000E83C8010E94961481E090E09D878C876E
:1014D000DF91CF911F910F910895CF93DF93EC018E
:1014E0000E94090E6A837B838C839D83DF91CF9159
:1014F0000895CF92DF92EF92FF920F931F93CF93B5
:10150000DF93EC01F62E0E94090E28EB3BE0F29EE1
:101510006001F39ED00C11240D2C000CEE08FF0886
:101520000A811B812C813D81C00ED11EE21EF31E5B
:101530006C157D058E059F0550F4A7019601261BAD
:10154000370B480B590BCA01B9010E94FD0DCA8225
:10155000DB82EC82FD82DF91CF911F910F91FF9092
:10156000EF90DF90CF900895CF93DF93EC0160E090
:1015700070E0888199810E94D70D65E0CE010E94BC
:10158000790A61E070E0888199810E94D70D65E059
:10159000CE01DF91CF910C94790ACF93DF93EC01C8
:1015A00061E070E0888199810E94D70D65E0CE01ED
:1015B0000E94790A60E070E0888199810E94D70DCD
:1015C00065E0CE01DF91CF910C94790ACF92DF9242
:1015D000EF92FF920F931F93CF936C01C42F00E003
:1015E00010E0E62EF12CC701002E01C0880F0A94EE
:1015F000EAF787FF06C0CF5FC6010E94B40AC53074
:1016000021F4C6010E94CD0AC0E00F5F1F4F0830D1
:10161000110549F78C2FCF911F910F91FF90EF90FB
:10162000DF90CF9008950F931F93CF93DF938C019A
:101630000E946D0AC8E0D0E0C8010E94CD0AC8012E
:101640000E94B40A2197C1F7DF91CF911F910F91AA
:101650000895EF92FF920F931F93CF93DF938C0126
:10166000C0E0D0E08EE7E82EF12CC7010C2E01C0BF
:10167000880F0A94EAF787FF04C0C8010E94B40AE1
:1016800003C0C8010E94CD0A2196C830D10569F770
:10169000DF91CF911F910F91FF90EF900895AF923E
:1016A000BF92CF92DF92EF92FF920F931F93CF934F
:1016B000DF93EC017B01042F0E94130BCE010E94EB
:1016C000290B67015701A00EB11C10E0CA14DB04FE
:1016D00049F0F60161916F01412FCE010E94E60AA7
:1016E000182FF4CF602FC7010E94AE0D082F412F95
:1016F000692FCE010E94E60A482F602FCE010E947A
:10170000E60ACE01DF91CF911F910F91FF90EF90EC
:10171000DF90CF90BF90AF900C94290BCF92DF92C7
:10172000EF92FF920F931F93CF93DF938C010E9450
:101730006D0A3AE5C32ED12CE12C40E8F42ECFEF10
:10174000DFE762E0F801868197810E9425159B0101
:101750006C177D070CF4EB01E216F3060CF47B0129
:1017600061E0C8010E94790AF1E0CF1AD10849F777
:10177000C7018C1B9D0BC2975CF0CE0DDF1DD7FD02
:101780002196CE0195958795F8019187808702C0B3
:101790008FEF9FEFDF91CF911F910F91FF90EF900F
:1017A000DF90CF9008950F931F93CF93DF93EC01B9
:1017B00062E08E819F810E942515288539858901E7
:1017C000330F220B330BE091A60D601771078207D0
:1017D000930764F481E08E0F8093A60DF0E0E95545
:1017E000F24F8FE5808380E090E00BC081E08E0FA8
:1017F0008093A60DF0E0E955F24F8DE2808381E001
:1018000090E0DF91CF911F910F910895AF92BF9219
:10181000CF92DF92EF92FF920F931F93CF93DF93BC
:10182000EC010E94D30B6C0180EFE82EF12C00E05C
:1018300010E0CE010E94D30B5C018C159D0519F4BC
:101840000F5F1F4F0CC0083011053CF065E0CE0162
:101850000E94790A80E090E00DC000E010E061E0B5
:10186000CE010E94790A81E0E81AF108650109F7C2
:101870008FEF9FEFDF91CF911F910F91FF90EF902E
:10188000DF90CF90BF90AF900895CF92DF92EF920C
:10189000FF920F931F93CF93DF938C01C5E0D0E0AD
:1018A000E12CF12CC8010E94D30BE80EF91E61E077
:1018B000C8010E94790A2197A9F785E0C82ED12C8A
:1018C000C0E0D0E0C8010E94D30BC80FD91F61E06F
:1018D000C8010E94790A81E0C81AD10899F783E00B
:1018E000E816F1042CF423976CF48FEF9FEF0CC0F3
:1018F00081E090E0239714F480E090E09195819549
:10190000910902C081E090E0DF91CF911F910F918A
:10191000FF90EF90DF90CF900895CF93DF93EC018D
:10192000CE010E94450C9C012F5F3F4F22303105B4
:10193000B8F7DF91CF9108950F931F93CF93DF9363
:10194000EC010E948D0C8F3F2FEF9207D9F006E03B
:1019500010E0CE010E94450C8F3F2FEF920791F0CF
:10196000892BA9F301501109A1F7CE010E94450C62
:1019700021E030E0892B11F420E030E0882799271E
:10198000821B930BDF91CF911F910F910895CF92FE
:10199000DF92EF92FF920F931F93CF93DF93EC01AF
:1019A0007B01FB01108200E010E080E8C82ED12C02
:1019B0008A859B850597A4F0CE010E94450C8F3F38
:1019C000FFEF9F0789F1892B19F41B861A8608C03F
:1019D000CE010E94450C892B29F581E090E024C0BE
:1019E000CE010E94450C009799F00197D9F48A85A1
:1019F0009B8501969B878A87F7012081C601002E6F
:101A000002C0959587950A94E2F7822B808302C0E5
:101A10001B861A860F5F1F4F0830110549F680E0BC
:101A200090E002C08FEF9FEFDF91CF911F910F9158
:101A3000FF90EF90DF90CF900895EF92FF920F9379
:101A40001F93CF93DF937C01042FFC011386128632
:101A5000EB0110E0101781F0BE01C7010E94C70C16
:101A60008F3FFFEF9F0751F0019719F4812F90E00E
:101A700005C01F5F2196EECF8FEF9FEFDF91CF91D3
:101A80001F910F91FF90EF900895FF920F931F9376
:101A9000CF93DF93EC018B01F42E1092A60D8C8571
:101AA0009D85892B09F1CE010E948E0B019639F498
:101AB000E091A60DF0E0E955F24F10822DC0CE0165
:101AC0000E94060C8F3F4FEF940739F0CE010E9421
:101AD0009C0C8F3F2FEF920739F4E091A60DF0E0B8
:101AE000E955F24F10822EC04F2DB801CE010E9451
:101AF0001D0D21E030E08F3F4FEF940711F020E003
:101B000030E03D872C87E091A60DF0E0E955F24FDB
:101B10001082823091051CF48FEF9FEF13C0EC010F
:101B200022976C2FC8010E94AE0DF801EC0FFD1F2B
:101B3000208130E0322F22274181242B8217930706
:101B400059F7CE01DF91CF911F910F91FF9008952A
:101B500060E070E087EA9EE00C94190E482FDC01EB
:101B600080E090E02A2F241B261778F42D91E92F8E
:101B7000FF27E227EE0FFF1FE653FD4F2081318143
:101B8000982F882782279327EDCF08956115710537
:101B900029F06230710521F462E003C060E001C009
:101BA00063E0FC01E653FB4F80810C94C711865320
:101BB0009B4FFC0180810C94351286539B4FFC0196
:101BC00080810E94FC1121E030E0892B11F420E09B
:101BD00030E0C90108959B01AC01A8EEB3E00E947A
:101BE000AA2022E096958795779567952A95D1F753
:101BF00020E030E0A9010C94061D22E0969587951F
:101C0000779567952A95D1F720E030E0A9010C94EB
:101C1000061D0E94341A22E0660F771F881F991F45
:101C20002A95D1F7089560E070E081EF9EE00C9472
:101C3000190EFC017183608308950F931F93CF9356
:101C4000DF938C01EB01CB010E94FB20AC01BE01B4
:101C5000F801808191810E94E210CE01DF91CF9145
:101C60001F910F910C94FB200C941D0E0F931F934A
:101C7000CF93DF93EC010E941D0E8C0160E175E0B3
:101C8000CE010E941D0EC8010296DF91CF911F91D7
:101C90000F910895CF93DF93EA01FC018081918138
:101CA0000E94E210CE01DF91CF9108954F925F9292
:101CB0006F927F928F929F92AF92BF92EF92FF921C
:101CC0000F931F93CF93DF93CDB7DEB7C054D109E5
:101CD0000FB6F894DEBF0FBECDBF7C01213009F4F2
:101CE00050C068F0223009F453C0233009F06DC0B1
:101CF0007F936F935F934F938BE195E04FC080E0AC
:101D000090E0812C912CA12CB0E8BB2E9501840190
:101D1000082E04C036952795179507950A94D2F793
:101D20000423152326233723012B022B032B11F425
:101D30000196ECCF9E012F5F3F4FF901412C512CB2
:101D4000612CA0E87A2E8F01021B130B80329105C3
:101D500098F553014201082E04C0B694A7949794B5
:101D600087940A94D2F784229522A622B722892842
:101D70008A288B2811F4A0E301C0A1E3A193019666
:101D8000E2CF7F936F935F934F9383E195E006C01B
:101D90007F936F935F934F9387E195E09F938F932A
:101DA000CE0101969F938F930E9448218C010FB61C
:101DB000F894DEBF0FBECDBFA801BE016F5F7F4F9D
:101DC000C7010E944A0EC80102C080E090E0C05CDA
:101DD000DF4F0FB6F894DEBF0FBECDBFDF91CF91BE
:101DE0001F910F91FF90EF90BF90AF909F908F90B9
:101DF0007F906F905F904F900895CF92DF92EF9217
:101E0000FF920F931F93CF93DF93CDB7DEB7C054EC
:101E1000D1090FB6F894DEBF0FBECDBF6C017F9322
:101E20006F935F934F938FE195E09F938F93CE01D4
:101E300001967C019F938F930E9448218C01AC01F5
:101E4000B701C6010E944A0E0FB6F894DEBF0FBE5E
:101E5000CDBFC801C05CDF4F0FB6F894DEBF0FBE28
:101E6000CDBFDF91CF911F910F91FF90EF90DF9049
:101E7000CF900895223011F40C94FD0E0C94560E60
:101E8000242F423031F4AB01770F660B770B0C94A3
:101E90003A0FAB0160E070E00C94560E0F931F9365
:101EA000CF93DF93EC010E94400F8C0160E175E05D
:101EB000CE010E941D0EC8010296DF91CF911F91A5
:101EC0000F9108950F93FC01213029F065EF75E023
:101ED00083E00E94BC18023041F0033041F0013031
:101EE00011F0108206C084E003C088E001C08CE0DD
:101EF0008083403886E9580788E968077105A8F4A7
:101F000040348BE458078CE46807710588F440344A
:101F100082E458078FE06807710568F440385A4139
:101F20006640710558F483E00FC080E090E008C07F
:101F300081E090E005C082E090E002C083E090E0A4
:101F4000DC01A85DBA4F8C9181830F9108950F93A6
:101F500000E021E040E059E06DE370E00E94620F94
:101F60000F910895EF92FF920F931F93CF93DF93FA
:101F70001F921F92CDB7DEB78C017B0102960E94A3
:101F8000A70FF801F182E082CE0101960E94A70F0F
:101F900089819A81F8019383828314821682158243
:101FA00010861782128611860F900F90DF91CF91C5
:101FB0001F910F91FF90EF9008950F931F93CF9370
:101FC000DF93EC01162F072F05960E944F17202F45
:101FD000412F6FEF888199810E944F12892B29F040
:101FE00065EF75E083E00E94BC1881E08C83DF918F
:101FF000CF911F910F910895CF93DF93EC018881CA
:1020000099810E946D121C82CE010596DF91CF91BD
:102010000C945317AF92BF92CF92DF92EF92FF9240
:102020000F931F93CF93DF93EC015B017A016C0157
:1020300085E0C80ED11CC6010E944F178C8181110A
:102040000EC02B814A816FEF888199810E944F12C7
:10205000892B29F065EF75E083E00E94BC188501AB
:10206000950140E06FEF888199810E9479128C81FF
:10207000811104C0888199810E946D12C601DF918F
:10208000CF911F910F91FF90EF90DF90CF90BF9075
:10209000AF900C94531760E070E08BE39FE00C94DA
:1020A000B20F0FB6802DF894807890E008950FB6A7
:1020B000802D7894807890E00895FF920F93F82E09
:1020C0000FB7087FF02AFFBE0F91FF90089580910F
:1020D000460F90E0089521E02093460FFC01EE0F9B
:1020E000FF1FE45DFA4F0190F081E02D6681880FBB
:1020F000991F880F991FDC01A85BB04FED91FC91EF
:10210000119712968D919C91139719950C94A11E7D
:10211000EF92FF920F931F93CF93DF937901823059
:10212000910508F046C020E030E0E091470FEE2333
:1021300019F021503109C9F7FC01EE0FFF1FEE0F16
:10214000FF1FE85BF04FF182E08213830283880F68
:10215000991FFC01E45DFA4FC081D1811982188278
:1021600086E08A83DB01CA0180589B47A14EBF4F9E
:10217000E3E0880F991FAA1FBB1FEA95D1F79A01C8
:10218000AB01F4E0220F331F441F551FFA95D1F71E
:10219000BC01CD010E948020215031093D832C8358
:1021A000EF2811F088ED01C088E4898380E090E099
:1021B00002C08FEF9FEFDF91CF911F910F91FF90A2
:1021C000EF900895CF93DF9321E0082E01C0220FF6
:1021D0000A94EAF7DB01460F571F880F991FFC018D
:1021E000E45DFA4FA417B50769F0C081D1818881F9
:1021F00085FFFDCF8091470F822B8093470F8D91F4
:102200008E83F0CFDF91CF9108951F920F920FB67A
:102210000F9211240BB60F922F933F934F935F931E
:102220006F937F938F939F93AF93BF93EF93FF939E
:1022300080E090E00E946B10FF91EF91BF91AF9111
:102240009F918F917F916F915F914F913F912F91CE
:102250000F900BBE0F900FBE0F901F9018951F92FE
:102260000F920FB60F9211240BB60F922F933F933C
:102270004F935F936F937F938F939F93AF93BF938E
:10228000EF93FF9381E090E00E946B10FF91EF913C
:10229000BF91AF919F918F917F916F915F914F917E
:1022A0003F912F910F900BBE0F900FBE0F901F907C
:1022B00018951F920F920FB60F9211240BB60F9222
:1022C0002F933F934F935F936F937F938F939F933E
:1022D000AF93BF93EF93FF9381E08093460F80917C
:1022E000470F8E7F8093470F0E94A11EFF91EF91B1
:1022F000BF91AF919F918F917F916F915F914F911E
:102300003F912F910F900BBE0F900FBE0F901F901B
:1023100018951F920F920FB60F9211240BB60F92C1
:102320002F933F934F935F936F937F938F939F93DD
:10233000AF93BF93EF93FF9381E08093460F80911B
:10234000470F8D7F8093470F0E94A11EFF91EF9151
:10235000BF91AF919F918F917F916F915F914F91BD
:102360003F912F910F900BBE0F900FBE0F901F90BB
:102370001895282F22952F7033E0239FC001112438
:10238000273010F48296089583519F4F0895CF937C
:10239000DF93982F9F70C1E0D0E001C0CC0F9A95D9
:1023A000EAF76230A9F0633069F0611120C00E9441
:1023B000B911FC012291C0952C232083FC012081BE
:1023C000C22311C00E94B911FC018291C82B0BC01D
:1023D0000E94B911FC0122913C2F309523232083C8
:1023E000FC012081C22BC08380E090E002C08FEF0F
:1023F0009FEFDF91CF910895CF93C82F0E94B9111D
:102400000297FC012081CF7081E090E002C0880F2C
:10241000991FCA95E2F730E082239323CF91089564
:10242000CF93C82F0E94B911FC014081CF7021E0E9
:1024300030E001C0220FCA95EAF7242B2083CF9108
:102440000895CF93C82F0E94B911FC014081CF702D
:1024500021E030E002C0220F331FCA95E2F7209539
:10246000309524232083CF910895672B11F00C948D
:1024700010120C94211284B1876084B90895892BBD
:1024800029F065EF75E083E00E94BC18809164003C
:1024900084608093640080E090E00C943B12CF93C2
:1024A000DF93C42FD22F61E070E080E59FE00E94AF
:1024B0007C15E4E6F0E080818B7F80838D2F86950C
:1024C00086958DBDD370C065CD2BCCBD8DB58EB539
:1024D00080E090E0DF91CF9108958CB58F7B8CBD2B
:1024E000E4E6F0E080818460808380E59FE00C94E6
:1024F000C115CF92DF92EF92FF920F931F93CF936C
:10250000DF93C62FD42F6901232B41F40115110548
:1025100029F465EF75E083E00E94BC18CF3F19F005
:102520008C2F0E942112F801D601E00EF11EEE154B
:10253000FF0591F0C114D10411F08C9101C080E02D
:102540008EBD0DB407FEFDCF8EB50115110509F046
:10255000808331961196EBCFD1110DC0CF3F59F04A
:102560008C2FDF91CF911F910F91FF90EF90DF9013
:10257000CF900C941012DF91CF911F910F91FF908B
:10258000EF90DF90CF90089521E02093460F2CE04C
:10259000AC01249FC001259F900D1124DC01AA5E8F
:1025A000BD4F1296ED91FC9113972081AB014F5FC7
:1025B0005F4F81E090E001C0880F4A95EAF780956F
:1025C000822380831696ED91FC91179718968D9132
:1025D0009C91199719950C94A11E8F929F92AF927E
:1025E000BF92CF92DF92EF92FF920F931F93DC0185
:1025F0000297D8F4E0E3F5E090E0C12C84E2D82E15
:1026000084EFE82EF12C46015701019004C0B694E6
:10261000A794979487940A94D2F79F5F841695069F
:10262000A606B70629F0953071F78FEF9FEF1EC011
:102630008CE08A9FF0018B9FF00D1124EA5EFD4F24
:10264000A081B1811C9211961C92119712961C9236
:10265000129715961C921E92149737832683118722
:102660000087928711969C9380E090E01F910F91D4
:10267000FF90EF90DF90CF90BF90AF909F908F90A2
:102680000895633071055CF52CE0289FF001299FC7
:10269000F00D1124EA5EFD4F80819181DB011496DB
:1026A000AA0FBB1FA80FB91F11965C934E93A4816C
:1026B000B5812C916F5F7F4F81E090E001C0880F62
:1026C0006A95EAF7982F909592239C930280F38164
:1026D000E02D9081892B808380E090E008958FEF3A
:1026E0009FEF08952CE0AC01249FC001259F900D21
:1026F0001124FC01EA5EFD4F0190F081E02D848100
:10270000958108951F920F920FB60F9211240BB668
:102710000F922F933F934F935F936F937F938F937A
:102720009F93AF93BF93EF93FF9360E070E080E0DF
:1027300090E00E94C412FF91EF91BF91AF919F91E1
:102740008F917F916F915F914F913F912F910F905A
:102750000BBE0F900FBE0F901F9018951F920F92F7
:102760000FB60F9211240BB60F922F933F934F93F6
:102770005F936F937F938F939F93AF93BF93EF93E9
:10278000FF9361E070E080E090E00E94C412FF914E
:10279000EF91BF91AF919F918F917F916F915F91D9
:1027A0004F913F912F910F900BBE0F900FBE0F9046
:1027B0001F9018951F920F920FB60F9211240BB60F
:1027C0000F922F933F934F935F936F937F938F93CA
:1027D0009F93AF93BF93EF93FF9362E070E080E02D
:1027E00090E00E94C412FF91EF91BF91AF919F9131
:1027F0008F917F916F915F914F913F912F910F90AA
:102800000BBE0F900FBE0F901F9018951F920F9246
:102810000FB60F9211240BB60F922F933F934F9345
:102820005F936F937F938F939F93AF93BF93EF9338
:10283000FF9360E070E081E090E00E94C412FF919D
:10284000EF91BF91AF919F918F917F916F915F9128
:102850004F913F912F910F900BBE0F900FBE0F9095
:102860001F9018951F920F920FB60F9211240BB65E
:102870000F922F933F934F935F936F937F938F9319
:102880009F93AF93BF93EF93FF9361E070E081E07C
:1028900090E00E94C412FF91EF91BF91AF919F9180
:1028A0008F917F916F915F914F913F912F910F90F9
:1028B0000BBE0F900FBE0F901F9018951F920F9296
:1028C0000FB60F9211240BB60F922F933F934F9395
:1028D0005F936F937F938F939F93AF93BF93EF9388
:1028E000FF9362E070E081E090E00E94C412FF91EB
:1028F000EF91BF91AF919F918F917F916F915F9178
:102900004F913F912F910F900BBE0F900FBE0F90E4
:102910001F90189561E070E082E59FE00E947C15B1
:10292000EAE7F0E080818068808308958F929F922B
:10293000AF92BF92CF92DF92EF92FF92CF93DF934D
:102940008031910508F074C0EC010E948A14C830EF
:10295000D105A0F420917E0081E090E001C0880FB5
:10296000CA95EAF7922F982B90937E0090B38095AA
:10297000982390BB91B3892381BB18C020917D001F
:10298000289781E090E001C0880FCA95EAF7922F5E
:10299000982B90937D0090910701809598239093B8
:1029A000070190910801892380930801C12CD12C43
:1029B0007601C394C1E0D0E0812C94E2992E94EF8B
:1029C000A92EB12C9E010C2C02C0220F331F0A9499
:1029D000E2F7032E000C440B550BC501B4010E9415
:1029E000802021343D404340510530F480917A00ED
:1029F000C82AC0927A000BC03FEFC31AD30AE30A79
:102A0000F30A88E0C816D104E104F104D9F68091F4
:102A10007C00806480937C0080917A008F77809323
:102A20007A0082E59FE00E94C11580E090E002C03C
:102A30008FEF9FEFDF91CF91FF90EF90DF90CF90DE
:102A4000BF90AF909F908F900895CF93DF936230A7
:102A500009F041C0EC010E948A1480917B00C830CB
:102A6000D10558F4877F80937B0080917C00807F24
:102A700080937C0080917C000BC0886080937B00F9
:102A800080917C00807F80937C0080917C00C85086
:102A9000C82BC0937C0080917A00806480937A0078
:102AA00080917A0086FDFCCFC0917800D0917900AA
:102AB00080917A00806180937A0080917A008F778C
:102AC00080937A0082E59FE00E94C115BE01DD0F70
:102AD000880B990B03C06FEF7FEFCB01DF91CF9194
:102AE0000895E1E6F0E080E8808310820E94961D60
:102AF0000E94751F0C945710EF92FF920F931F9333
:102B0000CF93DF93EC018B010E9451107C018881EF
:102B10009981892B41F48FEF9FEF99838883C701B7
:102B20000E945D101FC0012B01F100917A0F1091DE
:102B30007B0F63E0C8010E9441168881998101964C
:102B400041F4C801069699838883F801178216829A
:102B500004C0B801CE010E94A617C7010E945D10F3
:102B60000E94331E81E090E005C0C7010E945D1005
:102B700080E090E0DF91CF911F910F91FF90EF9057
:102B80000895EF92FF920F931F93CF93DF938C01E1
:102B90000E9451107C01D801ED91FC91309739F0E1
:102BA000EF3FBFEFFB0761F4F80111821082C7010C
:102BB000DF91CF911F910F91FF90EF900C945D10DA
:102BC00080819181D8018D939C93EF0126976CE0D1
:102BD000CE010E944116F80180819181892B21F458
:102BE0008FEF9FEF91838083CB81D0E0C7010E945C
:102BF0005D10CE01DF91CF911F910F91FF90EF906B
:102C00000C94D2161092BF0F1092BE0FA0917A0FA3
:102C1000B0917B0F2091540F3091550F80E090E0E0
:102C200020FD04C0369527950196FACF880F991F8D
:102C3000FC01E85AF04F0190F081E02D0190F08105
:102C4000E02D3697AE17BF07C9F0109741F01296E6
:102C50008C9112978B3019F48CE012968C938BE048
:102C60008283848195819093790F8093780FF0937C
:102C70007B0FE0937A0F81E090E0089580E090E090
:102C800008950F931F93CF93DF93FC0182816B30E4
:102C9000E0F18B3008F080C09F012A5F3F4F8381B5
:102CA00090E0880F991FDC01A85AB04FCD91DC91BC
:102CB0001197209751F048815981578346830D9091
:102CC000BC91A02D2D933C9302C037832683DC0159
:102CD000A85AB04F2D933C9381E090E0038002C04E
:102CE000880F991F0A94E2F7092E000CAA0BBB0B60
:102CF0000091540F1091550F2091560F3091570F9E
:102D0000802B912BA22BB32B3FC08B3008F444C0F7
:102D1000A381B0E0AA0FBB1FA85AB04FCD91DC91A0
:102D20001197209769F088819981C817D90719F4FC
:102D30001D921C9205C0DC018D919C919983888322
:102D40002381A22FB0E0AA0FBB1FA85AB04F8D91CC
:102D50009C91892B09F581E090E002C0880F991FB2
:102D60002A95E2F780959095092E000CAA0BBB0BD3
:102D70000091540F1091550F2091560F3091570F1D
:102D800080239123A223B3238093540F9093550F54
:102D9000A093560FB093570F6283DF91CF911F918D
:102DA0000F910895E0917A0FF0917B0F22812B30E3
:102DB00028F0238130E08217930768F40E9467109F
:102DC000892B39F081E090E09093BF0F8093BE0F84
:102DD00008950C94331E08950E945110E091780FCD
:102DE000F091790FEE0FFF1FE458F04F118210821F
:102DF0008091C00F9091C10F01979093C10F809364
:102E0000C00F60E080917A0F90917B0F0E94411675
:102E100010927B0F10927A0F0E94E61DCF92DF92E4
:102E2000EF92FF920F931F93CF93DF93EC016B010F
:102E300060E070E00E947C158C01CE0104967C015C
:102E40000115110591F460E070E00E94881720914F
:102E5000780F3091790F8217930739F0CD28A9F4B4
:102E600061E070E0CE010E947C156091780F709156
:102E7000790F40E050E0C7010E9496178A819B813C
:102E800001969B838A8301E010E0C801DF91CF9116
:102E90001F910F91FF90EF90DF90CF90089560E029
:102EA00070E00C940E170F931F93CF93DF93EC01F8
:102EB0008C010C5F1F4F60E070E0C8010E94881712
:102EC0002091780F3091790F8217930729F065EFE1
:102ED00075E083E00E94BC188A819B810097B9F35A
:102EE00001979B838A83892B71F440E050E060E076
:102EF00070E0C8010E949617CE01DF91CF911F911B
:102F00000F910C94C115DF91CF911F910F910895EE
:102F1000CF93DF93EC010E9451100990D881C02D0E
:102F20000E945D10CE01DF91CF9108950F931F9302
:102F3000CF93DF93EC018B010E945110198308831A
:102F4000DF91CF911F910F910C945D10FB012281B5
:102F50002B3028F065EF75E083E00E94BC18638198
:102F6000AF014A5F5F4FDC012D913C912115310586
:102F700041F0D901169713967C91671710F0C9019B
:102F8000F2CF37832683FC015183408308952F922B
:102F90003F924F925F926F927F928F929F92AF92E9
:102FA000BF92CF92DF92EF92FF920F931F93CF9336
:102FB000DF9300D01F92CDB7DEB7403198F54B01BB
:102FC0003AE1831A9108DC01A80DB91DBC83AB83DB
:102FD000FC0123FF09C0AB81BC81EA17FB0730F479
:102FE000F183E0833296F7CF918380831601370116
:102FF00058012A8349832B017C010E9451106C01E6
:10300000EEE7FFE001E010E081919191892B61F002
:103010000F5F1F4F01321105B9F7C6010E945D1005
:103020008FEB5BC084EE59C0F801EE0FFF1FE45830
:10303000F04F8B819C8191838083DC0115961C93DA
:103040000E9314979401A701B301C5010E94B11D0D
:10305000EB81FC8191838083F58AE48A518E408ED6
:10306000378A268A29812383128217821682118643
:1030700010861386128615861486178616868FEF9D
:103080009FEF918B808B138A128A8091C00F909151
:10309000C10F01969093C10F8093C00F3A8130FF0A
:1030A00006C062E08B819C810E94411611C06CE0D9
:1030B0008B819C810E944116FA81F2FD09C0C601F4
:1030C0000E945D102981822F90E00E94D21603C0D9
:1030D000C6010E945D10C80101C09FEF0F900F90C4
:1030E0000F900F90DF91CF911F910F91FF90EF9074
:1030F000DF90CF90BF90AF909F908F907F906F9018
:103100005F904F903F902F9008950E943C1F85E361
:1031100095E09F938F930E9404210E9413010F90CA
:103120000F9080E090E008950E94841DFDCF0E94E2
:1031300051108AEAC82E85E0D82EE12CF12C04E942
:1031400018E12CE030E04FE060E870E082EC9FE0B6
:103150000E94C7179FEAC92E95E0D92E05E818E10D
:103160002CE030E047E060E872E082E490E10E9409
:10317000C7170E94E61D0895EB012091C2123091FD
:10318000C312232B71F521E030E03093C31220935A
:10319000C212833091F40EB6202D0DB6802D90E032
:1031A000922B9F938F9384EB95E09F938F930E9434
:1031B00004210F900F900F900F90DF93CF938BEC23
:1031C00095E09F938F930E94042187EE95E09F9353
:1031D0008F930E9404210F900F900F900F900F90EB
:1031E0000F900E9451100E94BB180E94811D8F9267
:1031F0009F92AF92BF92CF92DF92EF92FF920F9386
:103200001F93CF93DF93DB0169017A01EC01E88121
:10321000F981309709F449C00681178120853185ED
:1032200016964D915D916D917C9119970417150734
:103230002607370708F44CC0041715072607370779
:10324000A1F5428553856485758597018601041B28
:10325000150B260B370BB901A801028113812481BC
:103260003581041715072607370790F1041B150B46
:10327000260B370B1A964D915D916D917C911D97A0
:1032800046015701841A950AA60AB70A12964D916B
:103290005D916D917C911597481959096A097B09CF
:1032A000401751076207730798F41196FC93EE9349
:1032B000EC01B983A883DF91CF911F910F91FF900B
:1032C000EF90DF90CF90BF90AF909F908F90089538
:1032D000CF019CCFFC01208131812115310579F08E
:1032E0002617370751F4FB0120813181FC0131831E
:1032F0002083FB01118210820895C901EBCF08954C
:103300006F927F928F929F92AF92BF92CF92DF92F5
:10331000EF92FF920F931F93CF93DF930E94511070
:10332000EC0180E090E00E9472134C012091C912E0
:103330003091CA124091CB125091CC126091CD12B3
:103340007091CE128091CF129091D0126090C912DC
:103350007090CA12B091CB12A091CC12F091CD1204
:10336000E091CE120091CF121091D012A12CB12C6D
:10337000BA01A90166277727841A950AA60AB70A0F
:10338000AA24BB249401A50160E070E080E090E0F5
:103390005301CB2EDA2EEF2EFE2E0E94D320209347
:1033A000C9123093CA124093CB125093CC1260933F
:1033B000CD127093CE128093CF129093D012CE0183
:1033C0000E945D102091C9123091CA124091CB1217
:1033D0005091CC126091CD127091CE128091CF128B
:1033E0009091D012DF91CF911F910F91FF90EF90AC
:1033F000DF90CF90BF90AF909F908F907F906F9015
:1034000008950F931F93E091C712F091C81230975F
:10341000A9F00281138124813581011540E8140748
:103420002105310558F482859385A485B585B901B8
:10343000A801480F591F6A1F7B1F0AC02091C412A0
:1034400021110FC0AB01BC01415050486F4F7F4F5D
:1034500060E070E080E090E00E94411381E08093A2
:10346000C4121F910F9108950E948019B901CA01D9
:1034700008950F931F9300E010E026E53AE140E93C
:1034800050ED63E070E080E090E00E94ED120E9459
:10349000341A2091D1123091D212232B21F41F9192
:1034A0000F910C94011A1F910F9108952F923F9242
:1034B0004F925F926F927F928F929F92AF92BF9244
:1034C000CF92DF92EF92FF920F931F93CF93DF93F0
:1034D00000D01F92CDB7DEB781E090E09093D2127A
:1034E0008093D1121092C4120E94801929013A01CE
:1034F0004B015C012091C7123091C8123C832B8391
:103500008B819C81892B09F4A6C0EB81FC8186818B
:103510009781A085B185892B8A2B8B2B29F065EFAC
:1035200075E083E00E94BC18EB81FC818285938565
:10353000A485B585B301A201481B590B6A0B7B0B0F
:1035400082819381A481B58184179507A607B70767
:1035500060F08C019D01041B150B260B370B043109
:1035600011052105310508F05BC02091C71230918B
:10357000C812EB81FC81E217F30789F64817590757
:103580006A077B0788F1AB81BC818D919C91119773
:103590009093C8128093C712FD0112821382148285
:1035A00015821A961D921D921D921C921D971686C9
:1035B0001786108A118A118210825296ED91FC9121
:1035C000539754968D919C9155971995E091C712F8
:1035D000F091C812FC83EB830E94341A2B013C014A
:1035E000812C912C54018CCF0E94341AAB81BC8168
:1035F0001A960D911D912D913C911D97DC01CB01E7
:10360000801B910BA20BB30BEB81FC810281138118
:103610002481358180179107A207B30728F3B3CF20
:10362000AB81BC8112960D931D932D933C931597FE
:10363000FD0142865386648675869201A301B4011A
:10364000C50100E20E94B72026873787408B518B47
:103650002081318153CFA091C512B091C612BC8395
:10366000AB839201A301B401C50100E20E94B7201F
:1036700029833A831A0173016201EB81FC81EF2BEC
:1036800009F46BC0EB81FC8182859385A485B585A7
:1036900093018201081B190B2A0B3B0B828193813A
:1036A000A481B58180179107A207B30760F4468112
:1036B00057816085718541505109610971094683BF
:1036C000578360877187801B910BA20BB30BEB8133
:1036D000FC8182839383A483B583DF01C286D38672
:1036E000E486F586E9811E96EC931E97FA811F9673
:1036F000FC931F9750962C92509751963C9251975D
:10370000FD0186819781A085B185892B8A2B8B2B22
:10371000E1F48091C5129091C612E817F90709F0FB
:10372000FECEBF0185EC92E10E946A19A7019601C5
:103730006B817C8187EC92E10E94F7182091C51281
:103740003091C6123C832B8398CFAB81BC810D9006
:10375000BC91A02DBC83AB8390CF0E94801929011E
:103760003A014B015C01E091C712F091C812309709
:1037700089F182859385A485B585B301A201481B93
:10378000590B6A0B7B0B82819381A481B5818417CD
:103790009507A607B70708F4ADCE841B950BA60BBB
:1037A000B70B84319105A105B10508F4A3CE82833E
:1037B0009383A483B583428653866486758692017B
:1037C000A301B401C50100E20E94B7202687378714
:1037D000408B518B1092D2121092D1128091D11243
:1037E0009091D212892BD1F4C301B2010F900F90A6
:1037F0000F900F90DF91CF911F910F91FF90EF905D
:10380000DF90CF90BF90AF909F908F907F906F9000
:103810005F904F903F902F900C94011A0F900F9053
:103820000F900F90DF91CF911F910F91FF90EF902C
:10383000DF90CF90BF90AF909F908F907F906F90D0
:103840005F904F903F902F9008950F931F93CF93C9
:10385000DF93EC010E9451108C011A821B821C82A2
:103860001D821E821F82188619861A861B861C8658
:103870001D861E861F86188A198ABE0187EC92E172
:103880000E946A19BE0185EC92E10E946A19C80182
:10389000DF91CF911F910F910C945D104F925F9229
:1038A0006F927F928F929F92AF92BF92CF92DF9250
:1038B000EF92FF920F931F93CF93DF93DC01529609
:1038C000ED91FC915397EF2B09F48DC0280139013C
:1038D0004A015B01EC010E94251C41145104610462
:1038E000710499F5B8E28B169104A104B10468F54E
:1038F00080E090E00E9472136C01E12CF12C80E0DA
:1039000090E00E947213A0E0B0E08C199D09AE090E
:10391000BF09AA27BB2788159905AA05BB0578F317
:10392000EA89FB898C899D89DF91CF911F910F9145
:10393000FF90EF90DF90CF90BF90AF909F908F90CF
:103940007F906F905F904F9019940E9451106C017E
:103950000E9480198A829B82AC82BD824E825F82E5
:103960006886798659017A012A87BB864C87FD864D
:1039700000E20E94B7202E873F87488B598B950124
:10398000A701BE01452846284728B1F487EC92E1FB
:103990000E94F7188091C7129091C812C817D907D2
:1039A00079F48091D1129091D212892B49F4B5010A
:1039B000C7010E94011A04C085EC92E10E94F71829
:1039C000C601DF91CF911F910F91FF90EF90DF9093
:1039D000CF90BF90AF909F908F907F906F905F90AF
:1039E0004F900C945D10DF91CF911F910F91FF903C
:1039F000EF90DF90CF90BF90AF909F908F907F908F
:103A00006F905F904F9008950C94C1154F925F9204
:103A10006F927F928F929F92AF92BF92CF92DF92DE
:103A2000EF92FF920F931F93CF93DF93CDB7DEB743
:103A300068970FB6F894DEBF0FBECDBF2B013C01D7
:103A400049015A010E946710892B31F189288A287F
:103A50008B2829F065EF75E083E00E94BC1880E0B8
:103A600090E00E9472134C01A12CB12C73016201F1
:103A7000EE24FF2480E090E00E947213A0E0B0E00A
:103A800088199909AA09BB09AA27BB278C159D0586
:103A9000AE05BF0578F31EC0188E1F8A84E09DE135
:103AA0009C8B8B8B7E0187E1E80EF11CFE8AED8AF0
:103AB00061E070E0C7010E947C1595018401B301AB
:103AC000A201CE0101960E944E1C61E070E0C70188
:103AD0000E947C1568960FB6F894DEBF0FBECDBF6E
:103AE000DF91CF911F910F91FF90EF90DF90CF90DA
:103AF000BF90AF909F908F907F906F905F904F900E
:103B000008950E945110FFCF0895CF93DF931F9225
:103B1000CDB7DEB721E030E0AE014F5F5F4F0E94CE
:103B20000C1F89810F90DF91CF910895A8950FB652
:103B3000F894A8958091600088618093600010924D
:103B400060000FBE0E94651F0C94C71F1F920F924A
:103B50000FB60F9211245F9A64E371E080E00E9437
:103B6000BC18240F351FF90131974FEA4083319774
:103B70004EEF40834CEE56E13197408331975083AE
:103B800031971082319780833197908331971082DB
:103B900031971082319780E8808331971082319776
:103BA000108231971082C90183971292E817F907A2
:103BB000E1F7F901B4976083319770838AE18293CA
:103BC0008F5F8032E1F7C9018C9708950E94021639
:103BD0000E9457108DB79EB72091040230910502C4
:103BE000821B930B90930102809300028091DA1262
:103BF0009091DB12892B41F4809102029091030293
:103C00009093DB128093DA12A0917A0FB0917B0F20
:103C1000CD91CDBFDD91DEBFFF91EF91DF91CF91CF
:103C2000BF91AF919F918F917F916F915F914F91D4
:103C30003F912F911F910F91FF90EF90DF90CF90C8
:103C4000BF90AF909F908F907F906F905F904F90BC
:103C50003F902F901F900F900CBE0F900BBE0F90B7
:103C60000FBE0F9008950E946710892B09F062C063
:103C70000F920FB6F8940F920BB60F920CB60F92EC
:103C80001F9211242F923F924F925F926F927F92D8
:103C90008F929F92AF92BF92CF92DF92EF92FF925C
:103CA0000F931F932F933F934F935F936F937F9344
:103CB0008F939F93AF93BF93CF93DF93EF93FF9334
:103CC000A0917A0FB0917B0F0DB60D920EB60D92AA
:103CD0000E940216A0917A0FB0917B0FCD91CDBFBB
:103CE000DD91DEBFFF91EF91DF91CF91BF91AF9159
:103CF0009F918F917F916F915F914F913F912F9104
:103D00001F910F91FF90EF90DF90CF90BF90AF90F9
:103D10009F908F907F906F905F904F903F902F90EB
:103D20001F900F900CBE0F900BBE0F900FBE0F9008
:103D30000895089581E090E09093BF0F8093BE0FA7
:103D400008951092460F8091BE0F9091BF0F892B5E
:103D500009F461C00F920FB6F8940F920BB60F9250
:103D60000CB60F921F9211242F923F924F925F92A6
:103D70006F927F928F929F92AF92BF92CF92DF927B
:103D8000EF92FF920F931F932F933F934F935F9365
:103D90006F937F938F939F93AF93BF93CF93DF9353
:103DA000EF93FF93A0917A0FB0917B0F0DB60D9218
:103DB0000EB60D920E940216A0917A0FB0917B0F61
:103DC000CD91CDBFDD91DEBFFF91EF91DF91CF911E
:103DD000BF91AF919F918F917F916F915F914F9123
:103DE0003F912F911F910F91FF90EF90DF90CF9017
:103DF000BF90AF909F908F907F906F905F904F900B
:103E00003F902F901F900F900CBE0F900BBE0F9005
:103E10000FBE0F9018950895CF92DF92EF92FF9208
:103E20006B017C01C20ED31EE11CF11CE1E0CE1639
:103E3000E0E1DE06E104F10438F4DA01A20FB31F79
:103E4000FA01641B750B0FC065EF75E083E00E94FB
:103E5000BC18F999FECFCB018E0F9F1F92BD81BD7B
:103E6000F89A80B58193EA17FB0799F7C901FF908B
:103E7000EF90DF90CF9008950E947B1F0C94391A29
:103E8000CF93DF931F92CDB7DEB761E070E0CE0134
:103E900001960E94B71F8981082E000C990B0F9084
:103EA000DF91CF910895CF93DF931F92CDB7DEB707
:103EB000898361E070E0CE0101960E94BA1F80E024
:103EC00090E00F90DF91CF9108950E94A61FEEED34
:103ED000F2E18CE392E0938382838EE292E091831D
:103EE000808387E096E00C94182163E087E10E94CC
:103EF000C7115F980895CF93DF9300D01F92CDB77D
:103F0000DEB764E070E0CE0101960E943B2069813B
:103F10007A818B819C810E94941F0F900F900F904B
:103F20000F90DF91CF91089561157105810591057D
:103F300021F461E070E080E090E06093D312709330
:103F4000D4128093D5129093D61208950F931F9395
:103F500000E010E020E030E040E855E260E070E092
:103F600080E090E00E9488101F910F91089583ECEB
:103F70009FEF0895CF93DF93EB01AB01BC0180E08D
:103F800090E00E94E210CE01DF91CF91089580E091
:103F900090E00E94CF1F80E090E00C943F12892BAC
:103FA00029F065EF75E083E00E94BC181092D812EA
:103FB0001092D7128BB183608BB9809164008F7798
:103FC000809364008091BC008B7F8093BC008CE068
:103FD0008093B8008091B9008C7F8093B900809164
:103FE000B9008093B9008091BC0084608093BC00CC
:103FF0000895EF92FF920F931F93CF93DF9300D01A
:104000001F92CDB7DEB77C018B01AB0163E270E09C
:104010000E94F420CE0101960E944C2020E030E066
:10402000C8010430110510F484E090E02817390726
:10403000B8F4C901B8010E946C20F701E80FF91F1C
:10404000D901A370BB2781E090E08C0F9D1FA80FC2
:10405000B91F90818C91892780832F5F3F4FE0CFDC
:104060000F900F900F900F90DF91CF911F910F91B4
:10407000FF90EF900895CF93DF93EC010E94F91F1A
:104080008091D91291E0980F9093D9129881892745
:104090008883DF91CF910895DC0191E2E0E0F0E0C8
:1040A00090935700E491EC93E2E0F0E09093570096
:1040B000E4911196EC931197E4E0F0E090935700AF
:1040C000E4911296EC931297E1E0F0E090935700A0
:1040D000949113969C930895AA1BBB1B51E107C0B2
:1040E000AA1FBB1FA617B70710F0A61BB70B881F88
:1040F000991F5A95A9F780959095BC01CD01089517
:10410000A1E21A2EAA1BBB1BFD010DC0AA1FBB1FDB
:10411000EE1FFF1FA217B307E407F50720F0A21B4D
:10412000B30BE40BF50B661F771F881F991F1A94BA
:1041300069F760957095809590959B01AC01BD01E4
:10414000CF010895EE0FFF1F881F8BBF0790F691D8
:10415000E02D19940E94DC20A59F900DB49F900D36
:10416000A49F800D911D1124089597FB10F81694BB
:1041700000080F93083098F00850232F342F452F54
:10418000562F672F782F892F902DF4CF0594979570
:1041900087957795679557954795379527950A950C
:1041A000AAF70F9108952A0D3B1D4C1D5D1D6E1D34
:1041B0007F1D801F911F0895A29FB001B39FC00172
:1041C000A39F700D811D1124911DB29F700D811D43
:1041D0001124911D0895FB01DC0102C001900D9294
:1041E00041505040D8F70895DC0101C06D93415013
:1041F0005040E0F70895FC0101900020E9F7809518
:1042000090958E0F9F1F0895CF93DF93CDB7DEB7A4
:10421000AE014A5F5F4FFA0161917191AF018091E8
:10422000E0129091E1120E947721DF91CF910895E1
:104230000F931F93CF93DF93E091E012F091E1127F
:10424000238121FF1BC08C01D0E0C0E0F8018191E7
:104250008F016091E0127091E112DB011896ED91EF
:10426000FC911997882331F01995892B79F3DFEFA9
:10427000CFEFECCF8AE01995892B19F08FEF9FEFE4
:1042800002C08D2F9C2FDF91CF911F910F91089528
:104290000F931F93CF93DF93CDB7DEB72E970FB653
:1042A000F894DEBF0FBECDBF0E891F8986E08C83D8
:1042B0001A8309838FEF9FE79E838D83AE01465E4D
:1042C0005F4F688D798DCE0101960E947721EF8135
:1042D000F885E00FF11F10822E960FB6F894DEBF1E
:1042E0000FBECDBFDF91CF911F910F9108952F92F7
:1042F0003F924F925F926F927F928F929F92AF9276
:10430000BF92CF92DF92EF92FF920F931F93CF93C2
:10431000DF93CDB7DEB72B970FB6F894DEBF0FBE95
:10432000CDBF6C017B018A01FC011782168283815B
:1043300081FFCCC1CE0101963C01F6019381F701CA
:1043400093FD859193FF81917F01882309F4BAC180
:10435000853239F493FD859193FF81917F018532F8
:1043600029F4B60190E00E949723E7CF912C212CED
:10437000312CFFE1F315D8F08B3279F038F480322C
:1043800079F08332A1F4232D20611DC08D3261F0BC
:10439000803369F4232D216016C0832D8260382E6E
:1043A000E32DE4603E2E2AC0F32DF8601DC037FCDB
:1043B0002DC020ED280F2A3040F08E32B9F436FCA3
:1043C00081C1232D2064322E19C036FE06C08AE03A
:1043D000989E200D1124922E11C0EAE02E9E200DF1
:1043E0001124222EF32DF0623F2E08C08C3621F4CA
:1043F000832D8068382E02C0883641F4F70193FD82
:10440000859193FF81917F018111B3CF982F9F7D7B
:104410009554933028F40C5F1F4F9FE399830DC090
:10442000833631F0833771F0833509F059C021C0EC
:10443000F801808189830E5F1F4F88248394912C1B
:10444000530113C02801F2E04F0E511CF801A08067
:10445000B18036FE03C0692D70E002C06FEF7FEFC0
:10446000C5010E948C234C018201F32DFF773F2E62
:1044700016C0280122E0420E511CF801A080B18034
:1044800036FE03C0692D70E002C06FEF7FEFC501FB
:104490000E9481234C01F32DF0683F2E820133FCF2
:1044A0001BC0822D90E088169906B0F4B60180E218
:1044B00090E00E9497232A94F4CFF50137FC859170
:1044C00037FE81915F01B60190E00E949723211091
:1044D0002A9421E0821A91088114910471F7E8C0AE
:1044E000843611F0893641F5F80137FE07C0608146
:1044F0007181828193810C5F1F4F08C0608171813F
:10450000072E000C880B990B0E5F1F4FF32DFF76C3
:104510003F2E97FF09C090958095709561957F4FCC
:104520008F4F9F4FF0683F2E2AE030E0A3010E949A
:10453000D323882E861845C0853731F4232D2F7E4E
:10454000B22E2AE030E025C0932D997FB92E8F3608
:10455000C1F018F4883579F0B5C0803719F0883784
:1045600021F0B0C0E92FE061BE2EB4FE0DC0FB2DDE
:10457000F460BF2E09C034FE0AC0292F2660B22E77
:1045800006C028E030E005C020E130E002C020E1B4
:1045900032E0F801B7FE07C06081718182819381AA
:1045A0000C5F1F4F06C06081718180E090E00E5F5C
:1045B0001F4FA3010E94D323882E8618FB2DFF775F
:1045C0003F2E36FE0DC0232D2E7FA22E891458F4C7
:1045D00034FE0BC032FC09C0832D8E7EA82E05C090
:1045E000B82CA32C03C0B82C01C0B92CA4FE0FC05A
:1045F000FE01E80DF11D8081803321F49A2D997E12
:10460000A92E09C0A2FE06C0B394B39404C08A2D9B
:10461000867809F0B394A3FC11C0A0FE06C0B214C2
:1046200088F4280C922C9B180EC0B21460F4B601CA
:1046300080E290E00E949723B394F7CFB21418F46D
:104640002B1802C0982C212CA4FE10C0B60180E3C8
:1046500090E00E949723A2FE17C0A1FC03C088E748
:1046600090E002C088E590E0B6010CC08A2D867803
:1046700059F0A1FE02C08BE201C080E2A7FC8DE2EE
:10468000B60190E00E949723891438F4B60180E3C4
:1046900090E00E9497239A94F7CF8A94F301E80D53
:1046A000F11D8081B60190E00E9497238110F5CF23
:1046B000222009F442CEB60180E290E00E949723C6
:1046C0002A94F6CFF6018681978102C08FEF9FEF83
:1046D0002B960FB6F894DEBF0FBECDBFDF91CF9102
:1046E0001F910F91FF90EF90DF90CF90BF90AF9010
:1046F0009F908F907F906F905F904F903F902F9002
:104700000895FC010590615070400110D8F7809524
:1047100090958E0F9F1F0895FC016150704001908D
:104720000110D8F7809590958E0F9F1F08950F93D5
:104730001F93CF93DF93FB01238121FD03C08FEFF4
:104740009FEF2CC022FF16C04681578124813581FE
:104750004217530744F4A081B1819D012F5F3F4F61
:10476000318320838C93268137812F5F3F4F37839E
:10477000268314C08B01EC01FB010084F185E02D40
:104780001995892BE1F6D80116968D919C91179772
:10479000019617969C938E931697CE01DF91CF9139
:1047A0001F910F910895FA01AA27283051F1203165
:1047B00081F1E8946F936E7F6E5F7F4F8F4F9F4FB5
:1047C000AF4FB1E03ED0B4E03CD0670F781F891FF7
:1047D0009A1FA11D680F791F8A1F911DA11D6A0FC5
:1047E000711D811D911DA11D20D009F468943F9178
:1047F0002AE0269F11243019305D3193DEF6CF0177
:104800000895462F4770405D4193B3E00FD0C9F73C
:10481000F6CF462F4F70405D4A3318F0495D31FDA9
:104820004052419302D0A9F7EACFB4E0A6959795FC
:10483000879577956795BA95C9F7009761057105D2
:1048400008959B01AC010A2E06945795479537951C
:104850002795BA95C9F7620F731F841F951FA01D76
:064860000895F894FFCF5B
:104866000000E612200030A1A2A3D0D1D2AABBCC70
:10487600AFBFA0B07D7E80006F0036000000000054
:104886000000A000720039000000000000000000D7
:104896000001000000000000401F000000000002B0
:1048A60000000000531F00000000476F743A2030DC
:1048B60078002C20307800476F743A20456D70746C
:1048C60079206D657373616765005475726E546106
:1048D600626C6520726561647900524649442072B3
:1048E600656164696E67205549440044657669636D
:1048F600652049443A203078007478310072783166
:10490600007365747570282920646F6E65004D65A7
:10491600737361676520307837652073656E740040
:104926000000000089076409F403000021104220FA
:1049360063308440A550C660E770088129914AA17A
:104946006BB18CC1ADD1CEE1EFF1311210027332F1
:104956005222B5529442F772D662399318837BB3CA
:104966005AA3BDD39CC3FFF3DEE362244334200481
:104976000114E664C774A44485546AA54BB528851A
:104986000995EEE5CFF5ACC58DD5533672261116D1
:104996003006D776F6669556B4465BB77AA719976A
:1049A6003887DFF7FEE79DD7BCC7C448E558866859
:1049B600A7784008611802282338CCC9EDD98EE9BA
:1049C600AFF9488969990AA92BB9F55AD44AB77A31
:1049D600966A711A500A333A122AFDDBDCCBBFFB0A
:1049E6009EEB799B588B3BBB1AABA66C877CE44C41
:1049F600C55C222C033C600C411CAEED8FFDECCD5A
:104A0600CDDD2AAD0BBD688D499D977EB66ED55E10
:104A1600F44E133E322E511E700E9FFFBEEFDDDFA9
:104A2600FCCF1BBF3AAF599F788F8891A981CAB135
:104A3600EBA10CD12DC14EF16FE18010A100C23067
:104A4600E3200450254046706760B9839893FBA322
:104A5600DAB33DC31CD37FE35EF3B1029012F322B7
:104A6600D2323542145277625672EAB5CBA5A89572
:104A760089856EF54FE52CD50DC5E234C324A01407
:104A860081046674476424540544DBA7FAB7998702
:104A9600B8975FE77EF71DC73CD7D326F236910657
:104AA600B01657667676154634564CD96DC90EF94A
:104AB6002FE9C899E9898AB9ABA9445865480678A7
:104AC6002768C018E1088238A3287DCB5CDB3FEB62
:104AD6001EFBF98BD89BBBAB9ABB754A545A376AF7
:104AE600167AF10AD01AB32A923A2EFD0FED6CDD32
:104AF6004DCDAABD8BADE89DC98D267C076C645C47
:104B0600454CA23C832CE01CC10C1FEF3EFF5DCF41
:104B16007CDF9BAFBABFD98FF89F176E367E554E96
:104B2600745E932EB23ED10EF01E4041444565435D
:104B3600737475761415161781807170333231309F
:104B46000001020304050607272625242322214007
:104B560037626160A7A6A5A4A3A2A1A01312111093
:104B66005051525354555657909192939495969707
:104B76000D0A00256C6F00256C7500256C780025E4
:104B86006C6900252E2A660004000106C000C800D4
:104B9600000306080A6D61696E28293A205468697F
:104BA600732069732052494F542120285665727329
:104BB600696F6E3A20554E4B4E4F574E2028627500
:104BC600696C646469723A202F686F6D652F737221
:104BD6006976616D73696D616C6C6164692F4C698E
:104BE60046692F4C692D46692D696E2D496E64758F
:104BF600737472792D342E302F72696F742F524967
:104C06004F542D73706929290A0069646C65006D1B
:104C160061696E00537461636B20506F696E7465D1
:104C2600723A203078253034780A002A2A2A20520F
:104C3600494F54206B65726E656C2070616E6963B6
:104C46003A0A25730A0A002A2A2A2068616C7465C2
:104C5600642E0A0A004641494C45442041535345B7
:0A4C66005254494F4E2E000C00007E
:040000030000021ED9
:00000001FF
